{
  "_format": "hh-sol-artifact-1",
  "contractName": "TokenSwap",
  "sourceName": "contracts/TokenSwap.sol",
  "abi": [
    {
      "inputs": [
        {
          "internalType": "address",
          "name": "_token1",
          "type": "address"
        },
        {
          "internalType": "address",
          "name": "_token2",
          "type": "address"
        }
      ],
      "stateMutability": "nonpayable",
      "type": "constructor"
    },
    {
      "inputs": [
        {
          "internalType": "address",
          "name": "to",
          "type": "address"
        },
        {
          "internalType": "uint256",
          "name": "amount",
          "type": "uint256"
        }
      ],
      "name": "swap",
      "outputs": [],
      "stateMutability": "nonpayable",
      "type": "function"
    },
    {
      "inputs": [],
      "name": "token1",
      "outputs": [
        {
          "internalType": "contract IERC20",
          "name": "",
          "type": "address"
        }
      ],
      "stateMutability": "view",
      "type": "function"
    },
    {
      "inputs": [],
      "name": "token2",
      "outputs": [
        {
          "internalType": "contract IERC20",
          "name": "",
          "type": "address"
        }
      ],
      "stateMutability": "view",
      "type": "function"
    }
  ],
  "bytecode": "0x608060405234801561001057600080fd5b5060405161038538038061038583398101604081905261002f9161007c565b600080546001600160a01b039384166001600160a01b031991821617909155600180549290931691161790556100af565b80516001600160a01b038116811461007757600080fd5b919050565b6000806040838503121561008f57600080fd5b61009883610060565b91506100a660208401610060565b90509250929050565b6102c7806100be6000396000f3fe608060405234801561001057600080fd5b50600436106100415760003560e01c806325be124e14610046578063d004f0f714610075578063d21220a71461008a575b600080fd5b600154610059906001600160a01b031681565b6040516001600160a01b03909116815260200160405180910390f35b610088610083366004610230565b61009d565b005b600054610059906001600160a01b031681565b6000546040516323b872dd60e01b8152336004820152306024820152604481018390526001600160a01b03909116906323b872dd906064016020604051808303816000875af11580156100f4573d6000803e3d6000fd5b505050506040513d601f19601f820116820180604052508101906101189190610268565b6101695760405162461bcd60e51b815260206004820152601760248201527f546f6b656e2031207472616e73666572206661696c656400000000000000000060448201526064015b60405180910390fd5b60015460405163a9059cbb60e01b81526001600160a01b038481166004830152602482018490529091169063a9059cbb906044016020604051808303816000875af11580156101bc573d6000803e3d6000fd5b505050506040513d601f19601f820116820180604052508101906101e09190610268565b61022c5760405162461bcd60e51b815260206004820152601760248201527f546f6b656e2032207472616e73666572206661696c65640000000000000000006044820152606401610160565b5050565b6000806040838503121561024357600080fd5b82356001600160a01b038116811461025a57600080fd5b946020939093013593505050565b60006020828403121561027a57600080fd5b8151801515811461028a57600080fd5b939250505056fea2646970667358221220ff59e2a8b7b978e529fc7b33388c4cb50fb88011edd0c3dc7f64036d13f10df464736f6c63430008140033",
  "linkReferences": {},
  "deployedLinkReferences": {}
}