{
  "_format": "hh-sol-artifact-1",
  "contractName": "ReceiveArtCoinContract",
  "sourceName": "contracts/ReceiveArtCoin.sol",
  "abi": [
    {
      "inputs": [
        {
          "internalType": "string",
          "name": "name",
          "type": "string"
        },
        {
          "internalType": "string",
          "name": "symbol",
          "type": "string"
        },
        {
          "internalType": "uint256",
          "name": "_initialSupply",
          "type": "uint256"
        },
        {
          "internalType": "uint256",
          "name": "_time",
          "type": "uint256"
        },
        {
          "internalType": "address",
          "name": "_tokenAddress",
          "type": "address"
        }
      ],
      "stateMutability": "nonpayable",
      "type": "constructor"
    },
    {
      "inputs": [
        {
          "internalType": "address",
          "name": "spender",
          "type": "address"
        },
        {
          "internalType": "uint256",
          "name": "allowance",
          "type": "uint256"
        },
        {
          "internalType": "uint256",
          "name": "needed",
          "type": "uint256"
        }
      ],
      "name": "ERC20InsufficientAllowance",
      "type": "error"
    },
    {
      "inputs": [
        {
          "internalType": "address",
          "name": "sender",
          "type": "address"
        },
        {
          "internalType": "uint256",
          "name": "balance",
          "type": "uint256"
        },
        {
          "internalType": "uint256",
          "name": "needed",
          "type": "uint256"
        }
      ],
      "name": "ERC20InsufficientBalance",
      "type": "error"
    },
    {
      "inputs": [
        {
          "internalType": "address",
          "name": "approver",
          "type": "address"
        }
      ],
      "name": "ERC20InvalidApprover",
      "type": "error"
    },
    {
      "inputs": [
        {
          "internalType": "address",
          "name": "receiver",
          "type": "address"
        }
      ],
      "name": "ERC20InvalidReceiver",
      "type": "error"
    },
    {
      "inputs": [
        {
          "internalType": "address",
          "name": "sender",
          "type": "address"
        }
      ],
      "name": "ERC20InvalidSender",
      "type": "error"
    },
    {
      "inputs": [
        {
          "internalType": "address",
          "name": "spender",
          "type": "address"
        }
      ],
      "name": "ERC20InvalidSpender",
      "type": "error"
    },
    {
      "anonymous": false,
      "inputs": [
        {
          "indexed": true,
          "internalType": "address",
          "name": "owner",
          "type": "address"
        },
        {
          "indexed": true,
          "internalType": "address",
          "name": "spender",
          "type": "address"
        },
        {
          "indexed": false,
          "internalType": "uint256",
          "name": "value",
          "type": "uint256"
        }
      ],
      "name": "Approval",
      "type": "event"
    },
    {
      "anonymous": false,
      "inputs": [
        {
          "indexed": true,
          "internalType": "address",
          "name": "_from",
          "type": "address"
        },
        {
          "indexed": false,
          "internalType": "uint256",
          "name": "_amount",
          "type": "uint256"
        }
      ],
      "name": "NewCoinsUpdated",
      "type": "event"
    },
    {
      "anonymous": false,
      "inputs": [
        {
          "indexed": true,
          "internalType": "address",
          "name": "sender",
          "type": "address"
        },
        {
          "indexed": true,
          "internalType": "address",
          "name": "tokenAddress",
          "type": "address"
        },
        {
          "indexed": false,
          "internalType": "uint256",
          "name": "amount",
          "type": "uint256"
        }
      ],
      "name": "TokenReceived",
      "type": "event"
    },
    {
      "anonymous": false,
      "inputs": [
        {
          "indexed": true,
          "internalType": "address",
          "name": "from",
          "type": "address"
        },
        {
          "indexed": true,
          "internalType": "address",
          "name": "to",
          "type": "address"
        },
        {
          "indexed": false,
          "internalType": "uint256",
          "name": "value",
          "type": "uint256"
        }
      ],
      "name": "Transfer",
      "type": "event"
    },
    {
      "inputs": [
        {
          "internalType": "address",
          "name": "owner",
          "type": "address"
        },
        {
          "internalType": "address",
          "name": "spender",
          "type": "address"
        }
      ],
      "name": "allowance",
      "outputs": [
        {
          "internalType": "uint256",
          "name": "",
          "type": "uint256"
        }
      ],
      "stateMutability": "view",
      "type": "function"
    },
    {
      "inputs": [
        {
          "internalType": "address",
          "name": "spender",
          "type": "address"
        },
        {
          "internalType": "uint256",
          "name": "value",
          "type": "uint256"
        }
      ],
      "name": "approve",
      "outputs": [
        {
          "internalType": "bool",
          "name": "",
          "type": "bool"
        }
      ],
      "stateMutability": "nonpayable",
      "type": "function"
    },
    {
      "inputs": [],
      "name": "artPieceToken",
      "outputs": [
        {
          "internalType": "address",
          "name": "",
          "type": "address"
        }
      ],
      "stateMutability": "view",
      "type": "function"
    },
    {
      "inputs": [
        {
          "internalType": "address",
          "name": "account",
          "type": "address"
        }
      ],
      "name": "balanceOf",
      "outputs": [
        {
          "internalType": "uint256",
          "name": "",
          "type": "uint256"
        }
      ],
      "stateMutability": "view",
      "type": "function"
    },
    {
      "inputs": [
        {
          "internalType": "uint256",
          "name": "burnAmount",
          "type": "uint256"
        }
      ],
      "name": "burnTokens",
      "outputs": [],
      "stateMutability": "nonpayable",
      "type": "function"
    },
    {
      "inputs": [],
      "name": "decimals",
      "outputs": [
        {
          "internalType": "uint8",
          "name": "",
          "type": "uint8"
        }
      ],
      "stateMutability": "view",
      "type": "function"
    },
    {
      "inputs": [],
      "name": "distributeFund",
      "outputs": [],
      "stateMutability": "nonpayable",
      "type": "function"
    },
    {
      "inputs": [],
      "name": "finishTime",
      "outputs": [
        {
          "internalType": "uint256",
          "name": "",
          "type": "uint256"
        }
      ],
      "stateMutability": "view",
      "type": "function"
    },
    {
      "inputs": [
        {
          "internalType": "address",
          "name": "_tokenAddress",
          "type": "address"
        },
        {
          "internalType": "uint256",
          "name": "_tokenAmount",
          "type": "uint256"
        }
      ],
      "name": "fund",
      "outputs": [],
      "stateMutability": "nonpayable",
      "type": "function"
    },
    {
      "inputs": [
        {
          "internalType": "uint256",
          "name": "",
          "type": "uint256"
        }
      ],
      "name": "fundInfos",
      "outputs": [
        {
          "internalType": "address",
          "name": "investor",
          "type": "address"
        },
        {
          "internalType": "address",
          "name": "tokenAddress",
          "type": "address"
        },
        {
          "internalType": "uint256",
          "name": "tokenAmount",
          "type": "uint256"
        }
      ],
      "stateMutability": "view",
      "type": "function"
    },
    {
      "inputs": [
        {
          "internalType": "address",
          "name": "_from",
          "type": "address"
        },
        {
          "internalType": "uint256",
          "name": "_amount",
          "type": "uint256"
        }
      ],
      "name": "fundToken",
      "outputs": [],
      "stateMutability": "nonpayable",
      "type": "function"
    },
    {
      "inputs": [],
      "name": "fundingToken",
      "outputs": [
        {
          "internalType": "contract IERC20",
          "name": "",
          "type": "address"
        }
      ],
      "stateMutability": "view",
      "type": "function"
    },
    {
      "inputs": [],
      "name": "getAllContributor",
      "outputs": [
        {
          "internalType": "address[]",
          "name": "",
          "type": "address[]"
        }
      ],
      "stateMutability": "view",
      "type": "function"
    },
    {
      "inputs": [],
      "name": "initialSupply",
      "outputs": [
        {
          "internalType": "uint256",
          "name": "",
          "type": "uint256"
        }
      ],
      "stateMutability": "view",
      "type": "function"
    },
    {
      "inputs": [
        {
          "internalType": "uint256",
          "name": "",
          "type": "uint256"
        }
      ],
      "name": "listOfContributors",
      "outputs": [
        {
          "internalType": "address",
          "name": "",
          "type": "address"
        }
      ],
      "stateMutability": "view",
      "type": "function"
    },
    {
      "inputs": [],
      "name": "mainWalletaddress",
      "outputs": [
        {
          "internalType": "address",
          "name": "",
          "type": "address"
        }
      ],
      "stateMutability": "view",
      "type": "function"
    },
    {
      "inputs": [],
      "name": "name",
      "outputs": [
        {
          "internalType": "string",
          "name": "",
          "type": "string"
        }
      ],
      "stateMutability": "view",
      "type": "function"
    },
    {
      "inputs": [
        {
          "internalType": "address",
          "name": "",
          "type": "address"
        }
      ],
      "name": "newCoins",
      "outputs": [
        {
          "internalType": "uint256",
          "name": "",
          "type": "uint256"
        }
      ],
      "stateMutability": "view",
      "type": "function"
    },
    {
      "inputs": [],
      "name": "owner",
      "outputs": [
        {
          "internalType": "address",
          "name": "",
          "type": "address"
        }
      ],
      "stateMutability": "view",
      "type": "function"
    },
    {
      "inputs": [],
      "name": "raisedAmount",
      "outputs": [
        {
          "internalType": "uint256",
          "name": "",
          "type": "uint256"
        }
      ],
      "stateMutability": "view",
      "type": "function"
    },
    {
      "inputs": [],
      "name": "refundDistribute",
      "outputs": [],
      "stateMutability": "nonpayable",
      "type": "function"
    },
    {
      "inputs": [
        {
          "internalType": "address",
          "name": "",
          "type": "address"
        }
      ],
      "name": "refunds",
      "outputs": [
        {
          "internalType": "uint256",
          "name": "",
          "type": "uint256"
        }
      ],
      "stateMutability": "view",
      "type": "function"
    },
    {
      "inputs": [],
      "name": "symbol",
      "outputs": [
        {
          "internalType": "string",
          "name": "",
          "type": "string"
        }
      ],
      "stateMutability": "view",
      "type": "function"
    },
    {
      "inputs": [],
      "name": "totalSupply",
      "outputs": [
        {
          "internalType": "uint256",
          "name": "",
          "type": "uint256"
        }
      ],
      "stateMutability": "view",
      "type": "function"
    },
    {
      "inputs": [
        {
          "internalType": "address",
          "name": "to",
          "type": "address"
        },
        {
          "internalType": "uint256",
          "name": "value",
          "type": "uint256"
        }
      ],
      "name": "transfer",
      "outputs": [
        {
          "internalType": "bool",
          "name": "",
          "type": "bool"
        }
      ],
      "stateMutability": "nonpayable",
      "type": "function"
    },
    {
      "inputs": [
        {
          "internalType": "address",
          "name": "from",
          "type": "address"
        },
        {
          "internalType": "address",
          "name": "to",
          "type": "address"
        },
        {
          "internalType": "uint256",
          "name": "value",
          "type": "uint256"
        }
      ],
      "name": "transferFrom",
      "outputs": [
        {
          "internalType": "bool",
          "name": "",
          "type": "bool"
        }
      ],
      "stateMutability": "nonpayable",
      "type": "function"
    },
    {
      "inputs": [
        {
          "internalType": "address",
          "name": "to",
          "type": "address"
        },
        {
          "internalType": "uint256",
          "name": "amount",
          "type": "uint256"
        }
      ],
      "name": "transferToken",
      "outputs": [],
      "stateMutability": "nonpayable",
      "type": "function"
    },
    {
      "stateMutability": "payable",
      "type": "receive"
    }
  ],
  "bytecode": "0x6080604052600e80546001600160a01b0319167339af03c99f8b82602d293737de6a0ebf5d8f48db1790553480156200003757600080fd5b5060405162001ab238038062001ab28339810160408190526200005a916200037b565b8484848483838382826003620000718382620004ac565b506004620000808282620004ac565b50505080670de0b6b3a76400006200009991906200058e565b6005819055620000ab90339062000141565b5050600680546001600160a01b031990811630179091556009805490911633179055506000600a55620000e081603c6200058e565b620000ec9042620005ae565b600b5550506010805473dabd9681c6fa9c2675f883fb67a1485038087dd36001600160a01b031991821617909155600f80549091166001600160a01b03949094169390931790925550620005c4945050505050565b6001600160a01b038216620001715760405163ec442f0560e01b8152600060048201526024015b60405180910390fd5b6200017f6000838362000183565b5050565b6001600160a01b038316620001b2578060026000828254620001a69190620005ae565b90915550620002269050565b6001600160a01b03831660009081526020819052604090205481811015620002075760405163391434e360e21b81526001600160a01b0385166004820152602481018290526044810183905260640162000168565b6001600160a01b03841660009081526020819052604090209082900390555b6001600160a01b038216620002445760028054829003905562000263565b6001600160a01b03821660009081526020819052604090208054820190555b816001600160a01b0316836001600160a01b03167fddf252ad1be2c89b69c2b068fc378daa952ba7f163c4a11628f55a4df523b3ef83604051620002a991815260200190565b60405180910390a3505050565b634e487b7160e01b600052604160045260246000fd5b600082601f830112620002de57600080fd5b81516001600160401b0380821115620002fb57620002fb620002b6565b604051601f8301601f19908116603f01168101908282118183101715620003265762000326620002b6565b816040528381526020925086838588010111156200034357600080fd5b600091505b8382101562000367578582018301518183018401529082019062000348565b600093810190920192909252949350505050565b600080600080600060a086880312156200039457600080fd5b85516001600160401b0380821115620003ac57600080fd5b620003ba89838a01620002cc565b96506020880151915080821115620003d157600080fd5b50620003e088828901620002cc565b6040880151606089015160808a0151929750909550935090506001600160a01b03811681146200040f57600080fd5b809150509295509295909350565b600181811c908216806200043257607f821691505b6020821081036200045357634e487b7160e01b600052602260045260246000fd5b50919050565b601f821115620004a757600081815260208120601f850160051c81016020861015620004825750805b601f850160051c820191505b81811015620004a3578281556001016200048e565b5050505b505050565b81516001600160401b03811115620004c857620004c8620002b6565b620004e081620004d984546200041d565b8462000459565b602080601f831160018114620005185760008415620004ff5750858301515b600019600386901b1c1916600185901b178555620004a3565b600085815260208120601f198616915b82811015620005495788860151825594840194600190910190840162000528565b5085821015620005685787850151600019600388901b60f8161c191681555b5050505050600190811b01905550565b634e487b7160e01b600052601160045260246000fd5b8082028115828204841417620005a857620005a862000578565b92915050565b80820180821115620005a857620005a862000578565b6114de80620005d46000396000f3fe6080604052600436106101a05760003560e01c806378065f27116100ec578063a70b12f01161008a578063c59ee1dc11610064578063c59ee1dc146104ea578063d411b8b514610500578063dd62ed3e14610520578063e3a6ac011461056657600080fd5b8063a70b12f014610457578063a9059cbb1461049d578063bc3da535146104bd57600080fd5b80638a0e495d116100c65780638a0e495d146103e25780638da5cb5b1461040257806395d89b4114610422578063a1fa3bad1461043757600080fd5b806378065f271461036a5780637b1837de146103a25780637ea12e79146103c257600080fd5b8063244e5751116101595780635958611e116101335780635958611e146102d157806369cbbefe146102e75780636d1b229d1461031457806370a082311461033457600080fd5b8063244e57511461028a578063313ce5671461029f578063378dc3dc146102bb57600080fd5b806306fdde03146101ac57806308608d73146101d7578063095ea7b3146101f95780631072cbea1461022957806318160ddd1461024b57806323b872dd1461026a57600080fd5b366101a757005b600080fd5b3480156101b857600080fd5b506101c161057b565b6040516101ce919061121a565b60405180910390f35b3480156101e357600080fd5b506101ec61060d565b6040516101ce9190611268565b34801561020557600080fd5b506102196102143660046112d1565b6106d9565b60405190151581526020016101ce565b34801561023557600080fd5b506102496102443660046112d1565b6106f3565b005b34801561025757600080fd5b506002545b6040519081526020016101ce565b34801561027657600080fd5b506102196102853660046112fb565b61070e565b34801561029657600080fd5b50610249610732565b3480156102ab57600080fd5b50604051601281526020016101ce565b3480156102c757600080fd5b5061025c60055481565b3480156102dd57600080fd5b5061025c600b5481565b3480156102f357600080fd5b5061025c610302366004611337565b60086020526000908152604090205481565b34801561032057600080fd5b5061024961032f366004611359565b6108a8565b34801561034057600080fd5b5061025c61034f366004611337565b6001600160a01b031660009081526020819052604090205490565b34801561037657600080fd5b50600f5461038a906001600160a01b031681565b6040516001600160a01b0390911681526020016101ce565b3480156103ae57600080fd5b506102496103bd3660046112d1565b6108c3565b3480156103ce57600080fd5b5061038a6103dd366004611359565b610a56565b3480156103ee57600080fd5b5060065461038a906001600160a01b031681565b34801561040e57600080fd5b5060095461038a906001600160a01b031681565b34801561042e57600080fd5b506101c1610a80565b34801561044357600080fd5b5060105461038a906001600160a01b031681565b34801561046357600080fd5b50610477610472366004611359565b610a8f565b604080516001600160a01b039485168152939092166020840152908201526060016101ce565b3480156104a957600080fd5b506102196104b83660046112d1565b610acf565b3480156104c957600080fd5b5061025c6104d8366004611337565b60076020526000908152604090205481565b3480156104f657600080fd5b5061025c600a5481565b34801561050c57600080fd5b5061024961051b3660046112d1565b610add565b34801561052c57600080fd5b5061025c61053b366004611372565b6001600160a01b03918216600090815260016020908152604080832093909416825291909152205490565b34801561057257600080fd5b50610249610db5565b60606003805461058a906113a5565b80601f01602080910402602001604051908101604052809291908181526020018280546105b6906113a5565b80156106035780601f106105d857610100808354040283529160200191610603565b820191906000526020600020905b8154815290600101906020018083116105e657829003601f168201915b5050505050905090565b600c5460609060008167ffffffffffffffff81111561062e5761062e6113df565b604051908082528060200260200182016040528015610657578160200160208202803683370190505b50905060005b828110156106d257600c8181548110610678576106786113f5565b9060005260206000200160009054906101000a90046001600160a01b03168282815181106106a8576106a86113f5565b6001600160a01b0390921660209283029190910190910152806106ca81611421565b91505061065d565b5092915050565b6000336106e7818585610ef7565b60019150505b92915050565b610709826104b883670de0b6b3a764000061143a565b505050565b60003361071c858285610f04565b610727858585610f82565b506001949350505050565b6009546001600160a01b031633146107815760405162461bcd60e51b815260206004820152600d60248201526c26bab9ba1031329037bbb732b960991b60448201526064015b60405180910390fd5b600b5442116107c25760405162461bcd60e51b815260206004820152600d60248201526c2737ba103a34b6b29027ab22a960991b6044820152606401610778565b600580546107d190600461143a565b6107db9190611451565b600a5410156108175760405162461bcd60e51b8152602060048201526008602482015267139bdd0819dbd85b60c21b6044820152606401610778565b60005b600c548110156108a5576000600c8281548110610839576108396113f5565b60009182526020808320909101546001600160a01b031680835260089091526040909120549091508015610890576001600160a01b0380831660009081526008602052604081205560095461089091168383610f82565b5050808061089d90611421565b91505061081a565b50565b6108a5336108be83670de0b6b3a764000061143a565b610fe1565b6040518181526001600160a01b0383169033907fa83965f0e7c5e026e57c9ba2dd91e4ebcca352f2d514498c1e9ed23ba65386009060200160405180910390a36040516323b872dd60e01b8152336004820152306024820152604481018290526001600160a01b038316906323b872dd906064016020604051808303816000875af1158015610956573d6000803e3d6000fd5b505050506040513d601f19601f8201168201806040525081019061097a9190611473565b6109be5760405162461bcd60e51b8152602060048201526015602482015274151bdad95b881d1c985b9cd9995c8819985a5b1959605a1b6044820152606401610778565b336000908152600860205260408120549003610a1757600c80546001810182556000919091527fdf6966c971051c3d54ec59162606531493a51404a002842f56009d7e5cf4a8c70180546001600160a01b031916331790555b80600a6000828254610a299190611495565b90915550503360009081526008602052604081208054839290610a4d908490611495565b90915550505050565b600c8181548110610a6657600080fd5b6000918252602090912001546001600160a01b0316905081565b60606004805461058a906113a5565b600d8181548110610a9f57600080fd5b60009182526020909120600390910201805460018201546002909201546001600160a01b03918216935091169083565b6000336106e7818585610f82565b600b544210610b1a5760405162461bcd60e51b81526020600482015260096024820152682a34b6b29027bb32b960b91b6044820152606401610778565b60008111610b815760405162461bcd60e51b815260206004820152602e60248201527f596f75206e65656420746f20646f6e617465206120706f73697469766520616d60448201526d6f756e74206f6620746f6b656e7360901b6064820152608401610778565b600554600a54610b919083611495565b1115610bd85760405162461bcd60e51b81526020600482015260166024820152754578636565647320696e697469616c20737570706c7960501b6044820152606401610778565b600f546010546040516323b872dd60e01b81526001600160a01b03858116600483015291821660248201526044810184905260009291909116906323b872dd906064016020604051808303816000875af1158015610c3a573d6000803e3d6000fd5b505050506040513d601f19601f82011682018060405250810190610c5e9190611473565b905080610ca55760405162461bcd60e51b8152602060048201526015602482015274151bdad95b881d1c985b9cd9995c8819985a5b1959605a1b6044820152606401610778565b81600a6000828254610cb79190611495565b90915550506001600160a01b03831660009081526008602052604081208054849290610ce4908490611495565b90915550506001600160a01b03831660009081526011602052604090205460ff16610d6d57600c805460018082019092557fdf6966c971051c3d54ec59162606531493a51404a002842f56009d7e5cf4a8c70180546001600160a01b0319166001600160a01b0386169081179091556000908152601160205260409020805460ff191690911790555b826001600160a01b03167fd37abe1e85060e55cb236652dcf2008106e4892d0c749839671c26448a8eeb0683604051610da891815260200190565b60405180910390a2505050565b60058054610dc490600461143a565b610dce9190611451565b600a5410610e105760405162461bcd60e51b815260206004820152600f60248201526e1c18129034b9903737ba1037bb32b960891b6044820152606401610778565b600b544211610e4c5760405162461bcd60e51b81526020600482015260086024820152672737ba1037bb32b960c11b6044820152606401610778565b60005b600c548110156108a5576000600c8281548110610e6e57610e6e6113f5565b60009182526020808320909101546001600160a01b031680835260079091526040909120549091508015610ee2576001600160a01b0382166000818152600760205260408082208290555183156108fc0291849190818181858888f19350505050158015610ee0573d6000803e3d6000fd5b505b50508080610eef90611421565b915050610e4f565b610709838383600161101b565b6001600160a01b038381166000908152600160209081526040808320938616835292905220546000198114610f7c5781811015610f6d57604051637dc7a0d960e11b81526001600160a01b03841660048201526024810182905260448101839052606401610778565b610f7c8484848403600061101b565b50505050565b6001600160a01b038316610fac57604051634b637e8f60e11b815260006004820152602401610778565b6001600160a01b038216610fd65760405163ec442f0560e01b815260006004820152602401610778565b6107098383836110f0565b6001600160a01b03821661100b57604051634b637e8f60e11b815260006004820152602401610778565b611017826000836110f0565b5050565b6001600160a01b0384166110455760405163e602df0560e01b815260006004820152602401610778565b6001600160a01b03831661106f57604051634a1406b160e11b815260006004820152602401610778565b6001600160a01b0380851660009081526001602090815260408083209387168352929052208290558015610f7c57826001600160a01b0316846001600160a01b03167f8c5be1e5ebec7d5bd14f71427d1e84f3dd0314c0f7b2291e5b200ac8c7c3b925846040516110e291815260200190565b60405180910390a350505050565b6001600160a01b03831661111b5780600260008282546111109190611495565b9091555061118d9050565b6001600160a01b0383166000908152602081905260409020548181101561116e5760405163391434e360e21b81526001600160a01b03851660048201526024810182905260448101839052606401610778565b6001600160a01b03841660009081526020819052604090209082900390555b6001600160a01b0382166111a9576002805482900390556111c8565b6001600160a01b03821660009081526020819052604090208054820190555b816001600160a01b0316836001600160a01b03167fddf252ad1be2c89b69c2b068fc378daa952ba7f163c4a11628f55a4df523b3ef8360405161120d91815260200190565b60405180910390a3505050565b600060208083528351808285015260005b818110156112475785810183015185820160400152820161122b565b506000604082860101526040601f19601f8301168501019250505092915050565b6020808252825182820181905260009190848201906040850190845b818110156112a95783516001600160a01b031683529284019291840191600101611284565b50909695505050505050565b80356001600160a01b03811681146112cc57600080fd5b919050565b600080604083850312156112e457600080fd5b6112ed836112b5565b946020939093013593505050565b60008060006060848603121561131057600080fd5b611319846112b5565b9250611327602085016112b5565b9150604084013590509250925092565b60006020828403121561134957600080fd5b611352826112b5565b9392505050565b60006020828403121561136b57600080fd5b5035919050565b6000806040838503121561138557600080fd5b61138e836112b5565b915061139c602084016112b5565b90509250929050565b600181811c908216806113b957607f821691505b6020821081036113d957634e487b7160e01b600052602260045260246000fd5b50919050565b634e487b7160e01b600052604160045260246000fd5b634e487b7160e01b600052603260045260246000fd5b634e487b7160e01b600052601160045260246000fd5b6000600182016114335761143361140b565b5060010190565b80820281158282048414176106ed576106ed61140b565b60008261146e57634e487b7160e01b600052601260045260246000fd5b500490565b60006020828403121561148557600080fd5b8151801515811461135257600080fd5b808201808211156106ed576106ed61140b56fea26469706673582212203c3b8282744ba7f7b043bd2947a790111476d8049eee9f2697a7546346b62bcc64736f6c63430008140033",
  "linkReferences": {},
  "deployedLinkReferences": {}
}