{
  "_format": "hh-sol-artifact-1",
  "contractName": "ReceiveArtCoinContract",
  "sourceName": "contracts/ReceiveArtCoin.sol",
  "abi": [
    {
      "inputs": [
        {
          "internalType": "string",
          "name": "name",
          "type": "string"
        },
        {
          "internalType": "string",
          "name": "symbol",
          "type": "string"
        },
        {
          "internalType": "uint256",
          "name": "_initialSupply",
          "type": "uint256"
        },
        {
          "internalType": "uint256",
          "name": "_time",
          "type": "uint256"
        }
      ],
      "stateMutability": "nonpayable",
      "type": "constructor"
    },
    {
      "inputs": [
        {
          "internalType": "address",
          "name": "spender",
          "type": "address"
        },
        {
          "internalType": "uint256",
          "name": "allowance",
          "type": "uint256"
        },
        {
          "internalType": "uint256",
          "name": "needed",
          "type": "uint256"
        }
      ],
      "name": "ERC20InsufficientAllowance",
      "type": "error"
    },
    {
      "inputs": [
        {
          "internalType": "address",
          "name": "sender",
          "type": "address"
        },
        {
          "internalType": "uint256",
          "name": "balance",
          "type": "uint256"
        },
        {
          "internalType": "uint256",
          "name": "needed",
          "type": "uint256"
        }
      ],
      "name": "ERC20InsufficientBalance",
      "type": "error"
    },
    {
      "inputs": [
        {
          "internalType": "address",
          "name": "approver",
          "type": "address"
        }
      ],
      "name": "ERC20InvalidApprover",
      "type": "error"
    },
    {
      "inputs": [
        {
          "internalType": "address",
          "name": "receiver",
          "type": "address"
        }
      ],
      "name": "ERC20InvalidReceiver",
      "type": "error"
    },
    {
      "inputs": [
        {
          "internalType": "address",
          "name": "sender",
          "type": "address"
        }
      ],
      "name": "ERC20InvalidSender",
      "type": "error"
    },
    {
      "inputs": [
        {
          "internalType": "address",
          "name": "spender",
          "type": "address"
        }
      ],
      "name": "ERC20InvalidSpender",
      "type": "error"
    },
    {
      "anonymous": false,
      "inputs": [
        {
          "indexed": true,
          "internalType": "address",
          "name": "owner",
          "type": "address"
        },
        {
          "indexed": true,
          "internalType": "address",
          "name": "spender",
          "type": "address"
        },
        {
          "indexed": false,
          "internalType": "uint256",
          "name": "value",
          "type": "uint256"
        }
      ],
      "name": "Approval",
      "type": "event"
    },
    {
      "anonymous": false,
      "inputs": [
        {
          "indexed": true,
          "internalType": "address",
          "name": "_from",
          "type": "address"
        },
        {
          "indexed": false,
          "internalType": "uint256",
          "name": "_amount",
          "type": "uint256"
        }
      ],
      "name": "NewCoinsUpdated",
      "type": "event"
    },
    {
      "anonymous": false,
      "inputs": [
        {
          "indexed": true,
          "internalType": "address",
          "name": "sender",
          "type": "address"
        },
        {
          "indexed": true,
          "internalType": "address",
          "name": "tokenAddress",
          "type": "address"
        },
        {
          "indexed": false,
          "internalType": "uint256",
          "name": "amount",
          "type": "uint256"
        }
      ],
      "name": "TokenReceived",
      "type": "event"
    },
    {
      "anonymous": false,
      "inputs": [
        {
          "indexed": true,
          "internalType": "address",
          "name": "from",
          "type": "address"
        },
        {
          "indexed": true,
          "internalType": "address",
          "name": "to",
          "type": "address"
        },
        {
          "indexed": false,
          "internalType": "uint256",
          "name": "value",
          "type": "uint256"
        }
      ],
      "name": "Transfer",
      "type": "event"
    },
    {
      "inputs": [
        {
          "internalType": "address",
          "name": "owner",
          "type": "address"
        },
        {
          "internalType": "address",
          "name": "spender",
          "type": "address"
        }
      ],
      "name": "allowance",
      "outputs": [
        {
          "internalType": "uint256",
          "name": "",
          "type": "uint256"
        }
      ],
      "stateMutability": "view",
      "type": "function"
    },
    {
      "inputs": [
        {
          "internalType": "address",
          "name": "spender",
          "type": "address"
        },
        {
          "internalType": "uint256",
          "name": "value",
          "type": "uint256"
        }
      ],
      "name": "approve",
      "outputs": [
        {
          "internalType": "bool",
          "name": "",
          "type": "bool"
        }
      ],
      "stateMutability": "nonpayable",
      "type": "function"
    },
    {
      "inputs": [],
      "name": "artPieceToken",
      "outputs": [
        {
          "internalType": "address",
          "name": "",
          "type": "address"
        }
      ],
      "stateMutability": "view",
      "type": "function"
    },
    {
      "inputs": [],
      "name": "artTokenAddress",
      "outputs": [
        {
          "internalType": "address",
          "name": "",
          "type": "address"
        }
      ],
      "stateMutability": "view",
      "type": "function"
    },
    {
      "inputs": [
        {
          "internalType": "address",
          "name": "account",
          "type": "address"
        }
      ],
      "name": "balanceOf",
      "outputs": [
        {
          "internalType": "uint256",
          "name": "",
          "type": "uint256"
        }
      ],
      "stateMutability": "view",
      "type": "function"
    },
    {
      "inputs": [
        {
          "internalType": "uint256",
          "name": "burnAmount",
          "type": "uint256"
        }
      ],
      "name": "burnTokens",
      "outputs": [],
      "stateMutability": "nonpayable",
      "type": "function"
    },
    {
      "inputs": [],
      "name": "decimals",
      "outputs": [
        {
          "internalType": "uint8",
          "name": "",
          "type": "uint8"
        }
      ],
      "stateMutability": "view",
      "type": "function"
    },
    {
      "inputs": [],
      "name": "distributeFund",
      "outputs": [],
      "stateMutability": "nonpayable",
      "type": "function"
    },
    {
      "inputs": [],
      "name": "finishTime",
      "outputs": [
        {
          "internalType": "uint256",
          "name": "",
          "type": "uint256"
        }
      ],
      "stateMutability": "view",
      "type": "function"
    },
    {
      "inputs": [
        {
          "internalType": "uint256",
          "name": "_amount",
          "type": "uint256"
        }
      ],
      "name": "fundToken",
      "outputs": [],
      "stateMutability": "nonpayable",
      "type": "function"
    },
    {
      "inputs": [],
      "name": "fundingToken",
      "outputs": [
        {
          "internalType": "contract IERC20",
          "name": "",
          "type": "address"
        }
      ],
      "stateMutability": "view",
      "type": "function"
    },
    {
      "inputs": [],
      "name": "getAllContributor",
      "outputs": [
        {
          "internalType": "address[]",
          "name": "",
          "type": "address[]"
        }
      ],
      "stateMutability": "view",
      "type": "function"
    },
    {
      "inputs": [],
      "name": "getInitialSupply",
      "outputs": [
        {
          "internalType": "uint256",
          "name": "",
          "type": "uint256"
        }
      ],
      "stateMutability": "view",
      "type": "function"
    },
    {
      "inputs": [],
      "name": "getRaisedAmount",
      "outputs": [
        {
          "internalType": "uint256",
          "name": "",
          "type": "uint256"
        }
      ],
      "stateMutability": "view",
      "type": "function"
    },
    {
      "inputs": [],
      "name": "initialSupply",
      "outputs": [
        {
          "internalType": "uint256",
          "name": "",
          "type": "uint256"
        }
      ],
      "stateMutability": "view",
      "type": "function"
    },
    {
      "inputs": [
        {
          "internalType": "uint256",
          "name": "",
          "type": "uint256"
        }
      ],
      "name": "listOfContributors",
      "outputs": [
        {
          "internalType": "address",
          "name": "",
          "type": "address"
        }
      ],
      "stateMutability": "view",
      "type": "function"
    },
    {
      "inputs": [],
      "name": "mainWalletaddress",
      "outputs": [
        {
          "internalType": "address",
          "name": "",
          "type": "address"
        }
      ],
      "stateMutability": "view",
      "type": "function"
    },
    {
      "inputs": [],
      "name": "name",
      "outputs": [
        {
          "internalType": "string",
          "name": "",
          "type": "string"
        }
      ],
      "stateMutability": "view",
      "type": "function"
    },
    {
      "inputs": [
        {
          "internalType": "address",
          "name": "",
          "type": "address"
        }
      ],
      "name": "newCoins",
      "outputs": [
        {
          "internalType": "uint256",
          "name": "",
          "type": "uint256"
        }
      ],
      "stateMutability": "view",
      "type": "function"
    },
    {
      "inputs": [],
      "name": "owner",
      "outputs": [
        {
          "internalType": "address",
          "name": "",
          "type": "address"
        }
      ],
      "stateMutability": "view",
      "type": "function"
    },
    {
      "inputs": [],
      "name": "raisedAmount",
      "outputs": [
        {
          "internalType": "uint256",
          "name": "",
          "type": "uint256"
        }
      ],
      "stateMutability": "view",
      "type": "function"
    },
    {
      "inputs": [],
      "name": "refundContributors",
      "outputs": [],
      "stateMutability": "nonpayable",
      "type": "function"
    },
    {
      "inputs": [
        {
          "internalType": "address",
          "name": "",
          "type": "address"
        }
      ],
      "name": "refunds",
      "outputs": [
        {
          "internalType": "uint256",
          "name": "",
          "type": "uint256"
        }
      ],
      "stateMutability": "view",
      "type": "function"
    },
    {
      "inputs": [],
      "name": "symbol",
      "outputs": [
        {
          "internalType": "string",
          "name": "",
          "type": "string"
        }
      ],
      "stateMutability": "view",
      "type": "function"
    },
    {
      "inputs": [],
      "name": "totalSupply",
      "outputs": [
        {
          "internalType": "uint256",
          "name": "",
          "type": "uint256"
        }
      ],
      "stateMutability": "view",
      "type": "function"
    },
    {
      "inputs": [
        {
          "internalType": "address",
          "name": "to",
          "type": "address"
        },
        {
          "internalType": "uint256",
          "name": "value",
          "type": "uint256"
        }
      ],
      "name": "transfer",
      "outputs": [
        {
          "internalType": "bool",
          "name": "",
          "type": "bool"
        }
      ],
      "stateMutability": "nonpayable",
      "type": "function"
    },
    {
      "inputs": [
        {
          "internalType": "address",
          "name": "from",
          "type": "address"
        },
        {
          "internalType": "address",
          "name": "to",
          "type": "address"
        },
        {
          "internalType": "uint256",
          "name": "value",
          "type": "uint256"
        }
      ],
      "name": "transferFrom",
      "outputs": [
        {
          "internalType": "bool",
          "name": "",
          "type": "bool"
        }
      ],
      "stateMutability": "nonpayable",
      "type": "function"
    },
    {
      "inputs": [
        {
          "internalType": "address",
          "name": "to",
          "type": "address"
        },
        {
          "internalType": "uint256",
          "name": "amount",
          "type": "uint256"
        }
      ],
      "name": "transferToken",
      "outputs": [],
      "stateMutability": "nonpayable",
      "type": "function"
    },
    {
      "stateMutability": "payable",
      "type": "receive"
    }
  ],
  "bytecode": "0x6080604052600d80546001600160a01b0319167339af03c99f8b82602d293737de6a0ebf5d8f48db1790553480156200003757600080fd5b5060405162001b7138038062001b718339810160408190526200005a916200037a565b838383838383838282600362000071838262000483565b50600462000080828262000483565b50505080670de0b6b3a764000062000099919062000565565b6005819055620000ab90339062000140565b5050600680546001600160a01b031990811630179091556009805490911633179055506000600a55620000e081603c62000565565b620000ec904262000585565b600b555050600f80546001600160a01b031990811673dabd9681c6fa9c2675f883fb67a1485038087dd317909155600d54600e80549092166001600160a01b0391909116179055506200059b945050505050565b6001600160a01b038216620001705760405163ec442f0560e01b8152600060048201526024015b60405180910390fd5b6200017e6000838362000182565b5050565b6001600160a01b038316620001b1578060026000828254620001a5919062000585565b90915550620002259050565b6001600160a01b03831660009081526020819052604090205481811015620002065760405163391434e360e21b81526001600160a01b0385166004820152602481018290526044810183905260640162000167565b6001600160a01b03841660009081526020819052604090209082900390555b6001600160a01b038216620002435760028054829003905562000262565b6001600160a01b03821660009081526020819052604090208054820190555b816001600160a01b0316836001600160a01b03167fddf252ad1be2c89b69c2b068fc378daa952ba7f163c4a11628f55a4df523b3ef83604051620002a891815260200190565b60405180910390a3505050565b634e487b7160e01b600052604160045260246000fd5b600082601f830112620002dd57600080fd5b81516001600160401b0380821115620002fa57620002fa620002b5565b604051601f8301601f19908116603f01168101908282118183101715620003255762000325620002b5565b816040528381526020925086838588010111156200034257600080fd5b600091505b8382101562000366578582018301518183018401529082019062000347565b600093810190920192909252949350505050565b600080600080608085870312156200039157600080fd5b84516001600160401b0380821115620003a957600080fd5b620003b788838901620002cb565b95506020870151915080821115620003ce57600080fd5b50620003dd87828801620002cb565b604087015160609097015195989097509350505050565b600181811c908216806200040957607f821691505b6020821081036200042a57634e487b7160e01b600052602260045260246000fd5b50919050565b601f8211156200047e57600081815260208120601f850160051c81016020861015620004595750805b601f850160051c820191505b818110156200047a5782815560010162000465565b5050505b505050565b81516001600160401b038111156200049f576200049f620002b5565b620004b781620004b08454620003f4565b8462000430565b602080601f831160018114620004ef5760008415620004d65750858301515b600019600386901b1c1916600185901b1785556200047a565b600085815260208120601f198616915b828110156200052057888601518255948401946001909101908401620004ff565b50858210156200053f5787850151600019600388901b60f8161c191681555b5050505050600190811b01905550565b634e487b7160e01b600052601160045260246000fd5b80820281158282048414176200057f576200057f6200054f565b92915050565b808201808211156200057f576200057f6200054f565b6115c680620005ab6000396000f3fe6080604052600436106101bb5760003560e01c806370a08231116100ec57806395d89b411161008a578063a9059cbb11610064578063a9059cbb146104d1578063bc3da535146104f1578063c59ee1dc1461051e578063dd62ed3e1461053457600080fd5b806395d89b411461047c578063a1fa3bad14610491578063a45ac5ff146104b157600080fd5b806381a4a6d8116100c657806381a4a6d8146104125780638a0e495d146104275780638da5cb5b146104475780638e75e4821461046757600080fd5b806370a082311461038457806378065f27146103ba5780637ea12e79146103f257600080fd5b8063313ce5671161015957806356c7f4611161013357806356c7f4611461030c5780635958611e1461032157806369cbbefe146103375780636d1b229d1461036457600080fd5b8063313ce567146102ba578063378dc3dc146102d6578063419cd5e6146102ec57600080fd5b80631072cbea116101955780631072cbea1461024457806318160ddd1461026657806323b872dd14610285578063244e5751146102a557600080fd5b806306fdde03146101c757806308608d73146101f2578063095ea7b31461021457600080fd5b366101c257005b600080fd5b3480156101d357600080fd5b506101dc61057a565b6040516101e991906112a8565b60405180910390f35b3480156101fe57600080fd5b5061020761060c565b6040516101e991906112f6565b34801561022057600080fd5b5061023461022f36600461135f565b6106d8565b60405190151581526020016101e9565b34801561025057600080fd5b5061026461025f36600461135f565b6106f2565b005b34801561027257600080fd5b506002545b6040519081526020016101e9565b34801561029157600080fd5b506102346102a0366004611389565b61070d565b3480156102b157600080fd5b50610264610731565b3480156102c657600080fd5b50604051601281526020016101e9565b3480156102e257600080fd5b5061027760055481565b3480156102f857600080fd5b506102646103073660046113c5565b6109e8565b34801561031857600080fd5b50610264610d2f565b34801561032d57600080fd5b50610277600b5481565b34801561034357600080fd5b506102776103523660046113de565b60086020526000908152604090205481565b34801561037057600080fd5b5061026461037f3660046113c5565b610f24565b34801561039057600080fd5b5061027761039f3660046113de565b6001600160a01b031660009081526020819052604090205490565b3480156103c657600080fd5b50600e546103da906001600160a01b031681565b6040516001600160a01b0390911681526020016101e9565b3480156103fe57600080fd5b506103da61040d3660046113c5565b610f42565b34801561041e57600080fd5b50600554610277565b34801561043357600080fd5b506006546103da906001600160a01b031681565b34801561045357600080fd5b506009546103da906001600160a01b031681565b34801561047357600080fd5b50600a54610277565b34801561048857600080fd5b506101dc610f6c565b34801561049d57600080fd5b50600f546103da906001600160a01b031681565b3480156104bd57600080fd5b50600d546103da906001600160a01b031681565b3480156104dd57600080fd5b506102346104ec36600461135f565b610f7b565b3480156104fd57600080fd5b5061027761050c3660046113de565b60076020526000908152604090205481565b34801561052a57600080fd5b50610277600a5481565b34801561054057600080fd5b5061027761054f366004611400565b6001600160a01b03918216600090815260016020908152604080832093909416825291909152205490565b60606003805461058990611433565b80601f01602080910402602001604051908101604052809291908181526020018280546105b590611433565b80156106025780601f106105d757610100808354040283529160200191610602565b820191906000526020600020905b8154815290600101906020018083116105e557829003601f168201915b5050505050905090565b600c5460609060008167ffffffffffffffff81111561062d5761062d61146d565b604051908082528060200260200182016040528015610656578160200160208202803683370190505b50905060005b828110156106d157600c818154811061067757610677611483565b9060005260206000200160009054906101000a90046001600160a01b03168282815181106106a7576106a7611483565b6001600160a01b0390921660209283029190910190910152806106c9816114af565b91505061065c565b5092915050565b6000336106e6818585610f89565b60019150505b92915050565b610708826104ec83670de0b6b3a76400006114c8565b505050565b60003361071b858285610f96565b610726858585611014565b506001949350505050565b6009546001600160a01b031633146107645760405162461bcd60e51b815260040161075b906114df565b60405180910390fd5b600b5442116107b55760405162461bcd60e51b815260206004820152601b60248201527f46756e6472616973696e67206973206e6f74206f766572207965740000000000604482015260640161075b565b600580546107c49060046114c8565b6107ce9190611520565b600a54101561081f5760405162461bcd60e51b815260206004820152601c60248201527f46756e6472616973696e6720676f616c206e6f74207265616368656400000000604482015260640161075b565b600d546040516370a0823160e01b81523060048201526001600160a01b039091169060009082906370a0823190602401602060405180830381865afa15801561086c573d6000803e3d6000fd5b505050506040513d601f19601f820116820180604052508101906108909190611542565b9050600081116108e25760405162461bcd60e51b815260206004820152601b60248201527f4e6f2041525420746f6b656e7320746f20646973747269627574650000000000604482015260640161075b565b60095460405163a9059cbb60e01b81526001600160a01b039182166004820152602481018390529083169063a9059cbb906044016020604051808303816000875af1158015610935573d6000803e3d6000fd5b505050506040513d601f19601f82011682018060405250810190610959919061155b565b5060005b600c54811015610708576000600c828154811061097c5761097c611483565b60009182526020808320909101546001600160a01b0316808352600890915260409091205490915080156109d3576001600160a01b038083166000908152600860205260408120556009546109d391168383611014565b505080806109e0906114af565b91505061095d565b600b544210610a395760405162461bcd60e51b815260206004820152601860248201527f46756e6472616973696e672074696d65206973206f7665720000000000000000604482015260640161075b565b60008111610aa05760405162461bcd60e51b815260206004820152602e60248201527f596f75206e65656420746f20646f6e617465206120706f73697469766520616d60448201526d6f756e74206f6620746f6b656e7360901b606482015260840161075b565b600554600a54610ab0908361157d565b1115610af75760405162461bcd60e51b81526020600482015260166024820152754578636565647320696e697469616c20737570706c7960501b604482015260640161075b565b600e546000906001600160a01b03166323b872dd3330610b1f86670de0b6b3a76400006114c8565b6040516001600160e01b031960e086901b1681526001600160a01b03938416600482015292909116602483015260448201526064016020604051808303816000875af1158015610b73573d6000803e3d6000fd5b505050506040513d601f19601f82011682018060405250810190610b97919061155b565b905080610bde5760405162461bcd60e51b8152602060048201526015602482015274151bdad95b881d1c985b9cd9995c8819985a5b1959605a1b604482015260640161075b565b610bf082670de0b6b3a76400006114c8565b600a6000828254610c01919061157d565b90915550610c19905082670de0b6b3a76400006114c8565b3360009081526008602052604081208054909190610c3890849061157d565b90915550610c50905082670de0b6b3a76400006114c8565b3360009081526007602052604081208054909190610c6f90849061157d565b90915550503360009081526010602052604090205460ff16610ce657600c805460018181019092557fdf6966c971051c3d54ec59162606531493a51404a002842f56009d7e5cf4a8c70180546001600160a01b031916339081179091556000908152601060205260409020805460ff191690911790555b337fd37abe1e85060e55cb236652dcf2008106e4892d0c749839671c26448a8eeb06610d1a84670de0b6b3a76400006114c8565b60405190815260200160405180910390a25050565b6009546001600160a01b03163314610d595760405162461bcd60e51b815260040161075b906114df565b600b544211610daa5760405162461bcd60e51b815260206004820152601b60248201527f46756e6472616973696e67206973206e6f74206f766572207965740000000000604482015260640161075b565b60058054610db99060046114c8565b610dc39190611520565b600a5410610e215760405162461bcd60e51b815260206004820152602560248201527f3830252066756e6472616973696e6720676f616c20686173206265656e2072656044820152641858da195960da1b606482015260840161075b565b600d546001600160a01b031660005b600c54811015610f20576000600c8281548110610e4f57610e4f611483565b60009182526020808320909101546001600160a01b031680835260079091526040909120549091508015610f0b5760405163a9059cbb60e01b81526001600160a01b0383811660048301526024820183905285169063a9059cbb906044016020604051808303816000875af1158015610ecc573d6000803e3d6000fd5b505050506040513d601f19601f82011682018060405250810190610ef0919061155b565b506001600160a01b0382166000908152600760205260408120555b50508080610f18906114af565b915050610e30565b5050565b610f3f33610f3a83670de0b6b3a76400006114c8565b611073565b50565b600c8181548110610f5257600080fd5b6000918252602090912001546001600160a01b0316905081565b60606004805461058990611433565b6000336106e6818585611014565b61070883838360016110a9565b6001600160a01b03838116600090815260016020908152604080832093861683529290522054600019811461100e5781811015610fff57604051637dc7a0d960e11b81526001600160a01b0384166004820152602481018290526044810183905260640161075b565b61100e848484840360006110a9565b50505050565b6001600160a01b03831661103e57604051634b637e8f60e11b81526000600482015260240161075b565b6001600160a01b0382166110685760405163ec442f0560e01b81526000600482015260240161075b565b61070883838361117e565b6001600160a01b03821661109d57604051634b637e8f60e11b81526000600482015260240161075b565b610f208260008361117e565b6001600160a01b0384166110d35760405163e602df0560e01b81526000600482015260240161075b565b6001600160a01b0383166110fd57604051634a1406b160e11b81526000600482015260240161075b565b6001600160a01b038085166000908152600160209081526040808320938716835292905220829055801561100e57826001600160a01b0316846001600160a01b03167f8c5be1e5ebec7d5bd14f71427d1e84f3dd0314c0f7b2291e5b200ac8c7c3b9258460405161117091815260200190565b60405180910390a350505050565b6001600160a01b0383166111a957806002600082825461119e919061157d565b9091555061121b9050565b6001600160a01b038316600090815260208190526040902054818110156111fc5760405163391434e360e21b81526001600160a01b0385166004820152602481018290526044810183905260640161075b565b6001600160a01b03841660009081526020819052604090209082900390555b6001600160a01b03821661123757600280548290039055611256565b6001600160a01b03821660009081526020819052604090208054820190555b816001600160a01b0316836001600160a01b03167fddf252ad1be2c89b69c2b068fc378daa952ba7f163c4a11628f55a4df523b3ef8360405161129b91815260200190565b60405180910390a3505050565b600060208083528351808285015260005b818110156112d5578581018301518582016040015282016112b9565b506000604082860101526040601f19601f8301168501019250505092915050565b6020808252825182820181905260009190848201906040850190845b818110156113375783516001600160a01b031683529284019291840191600101611312565b50909695505050505050565b80356001600160a01b038116811461135a57600080fd5b919050565b6000806040838503121561137257600080fd5b61137b83611343565b946020939093013593505050565b60008060006060848603121561139e57600080fd5b6113a784611343565b92506113b560208501611343565b9150604084013590509250925092565b6000602082840312156113d757600080fd5b5035919050565b6000602082840312156113f057600080fd5b6113f982611343565b9392505050565b6000806040838503121561141357600080fd5b61141c83611343565b915061142a60208401611343565b90509250929050565b600181811c9082168061144757607f821691505b60208210810361146757634e487b7160e01b600052602260045260246000fd5b50919050565b634e487b7160e01b600052604160045260246000fd5b634e487b7160e01b600052603260045260246000fd5b634e487b7160e01b600052601160045260246000fd5b6000600182016114c1576114c1611499565b5060010190565b80820281158282048414176106ec576106ec611499565b60208082526021908201527f4f6e6c79206f776e65722063616e2063616c6c20746869732066756e6374696f6040820152603760f91b606082015260800190565b60008261153d57634e487b7160e01b600052601260045260246000fd5b500490565b60006020828403121561155457600080fd5b5051919050565b60006020828403121561156d57600080fd5b815180151581146113f957600080fd5b808201808211156106ec576106ec61149956fea2646970667358221220c58b0d21072f4bce7a5a57004f88a315865a468ce098373a6fac1c254c4b7f4964736f6c63430008140033",
  "linkReferences": {},
  "deployedLinkReferences": {}
}