{
  "_format": "hh-sol-artifact-1",
  "contractName": "ArtcoinContract",
  "sourceName": "contracts/ArtCoin.sol",
  "abi": [
    {
      "inputs": [],
      "stateMutability": "nonpayable",
      "type": "constructor"
    },
    {
      "inputs": [
        {
          "internalType": "address",
          "name": "spender",
          "type": "address"
        },
        {
          "internalType": "uint256",
          "name": "allowance",
          "type": "uint256"
        },
        {
          "internalType": "uint256",
          "name": "needed",
          "type": "uint256"
        }
      ],
      "name": "ERC20InsufficientAllowance",
      "type": "error"
    },
    {
      "inputs": [
        {
          "internalType": "address",
          "name": "sender",
          "type": "address"
        },
        {
          "internalType": "uint256",
          "name": "balance",
          "type": "uint256"
        },
        {
          "internalType": "uint256",
          "name": "needed",
          "type": "uint256"
        }
      ],
      "name": "ERC20InsufficientBalance",
      "type": "error"
    },
    {
      "inputs": [
        {
          "internalType": "address",
          "name": "approver",
          "type": "address"
        }
      ],
      "name": "ERC20InvalidApprover",
      "type": "error"
    },
    {
      "inputs": [
        {
          "internalType": "address",
          "name": "receiver",
          "type": "address"
        }
      ],
      "name": "ERC20InvalidReceiver",
      "type": "error"
    },
    {
      "inputs": [
        {
          "internalType": "address",
          "name": "sender",
          "type": "address"
        }
      ],
      "name": "ERC20InvalidSender",
      "type": "error"
    },
    {
      "inputs": [
        {
          "internalType": "address",
          "name": "spender",
          "type": "address"
        }
      ],
      "name": "ERC20InvalidSpender",
      "type": "error"
    },
    {
      "anonymous": false,
      "inputs": [
        {
          "indexed": true,
          "internalType": "address",
          "name": "owner",
          "type": "address"
        },
        {
          "indexed": true,
          "internalType": "address",
          "name": "spender",
          "type": "address"
        },
        {
          "indexed": false,
          "internalType": "uint256",
          "name": "value",
          "type": "uint256"
        }
      ],
      "name": "Approval",
      "type": "event"
    },
    {
      "anonymous": false,
      "inputs": [
        {
          "indexed": true,
          "internalType": "address",
          "name": "from",
          "type": "address"
        },
        {
          "indexed": true,
          "internalType": "address",
          "name": "to",
          "type": "address"
        },
        {
          "indexed": false,
          "internalType": "uint256",
          "name": "value",
          "type": "uint256"
        }
      ],
      "name": "Transfer",
      "type": "event"
    },
    {
      "inputs": [
        {
          "internalType": "address",
          "name": "owner",
          "type": "address"
        },
        {
          "internalType": "address",
          "name": "spender",
          "type": "address"
        }
      ],
      "name": "allowance",
      "outputs": [
        {
          "internalType": "uint256",
          "name": "",
          "type": "uint256"
        }
      ],
      "stateMutability": "view",
      "type": "function"
    },
    {
      "inputs": [
        {
          "internalType": "address",
          "name": "spender",
          "type": "address"
        },
        {
          "internalType": "uint256",
          "name": "value",
          "type": "uint256"
        }
      ],
      "name": "approve",
      "outputs": [
        {
          "internalType": "bool",
          "name": "",
          "type": "bool"
        }
      ],
      "stateMutability": "nonpayable",
      "type": "function"
    },
    {
      "inputs": [
        {
          "internalType": "address",
          "name": "account",
          "type": "address"
        }
      ],
      "name": "balanceOf",
      "outputs": [
        {
          "internalType": "uint256",
          "name": "",
          "type": "uint256"
        }
      ],
      "stateMutability": "view",
      "type": "function"
    },
    {
      "inputs": [
        {
          "internalType": "uint256",
          "name": "burnAmount",
          "type": "uint256"
        }
      ],
      "name": "burnTokens",
      "outputs": [],
      "stateMutability": "nonpayable",
      "type": "function"
    },
    {
      "inputs": [],
      "name": "decimals",
      "outputs": [
        {
          "internalType": "uint8",
          "name": "",
          "type": "uint8"
        }
      ],
      "stateMutability": "view",
      "type": "function"
    },
    {
      "inputs": [
        {
          "internalType": "uint256",
          "name": "_Supply",
          "type": "uint256"
        }
      ],
      "name": "mintTokens",
      "outputs": [],
      "stateMutability": "nonpayable",
      "type": "function"
    },
    {
      "inputs": [],
      "name": "name",
      "outputs": [
        {
          "internalType": "string",
          "name": "",
          "type": "string"
        }
      ],
      "stateMutability": "view",
      "type": "function"
    },
    {
      "inputs": [],
      "name": "symbol",
      "outputs": [
        {
          "internalType": "string",
          "name": "",
          "type": "string"
        }
      ],
      "stateMutability": "view",
      "type": "function"
    },
    {
      "inputs": [],
      "name": "totalSupply",
      "outputs": [
        {
          "internalType": "uint256",
          "name": "",
          "type": "uint256"
        }
      ],
      "stateMutability": "view",
      "type": "function"
    },
    {
      "inputs": [
        {
          "internalType": "address",
          "name": "to",
          "type": "address"
        },
        {
          "internalType": "uint256",
          "name": "value",
          "type": "uint256"
        }
      ],
      "name": "transfer",
      "outputs": [
        {
          "internalType": "bool",
          "name": "",
          "type": "bool"
        }
      ],
      "stateMutability": "nonpayable",
      "type": "function"
    },
    {
      "inputs": [
        {
          "internalType": "address",
          "name": "from",
          "type": "address"
        },
        {
          "internalType": "address",
          "name": "to",
          "type": "address"
        },
        {
          "internalType": "uint256",
          "name": "value",
          "type": "uint256"
        }
      ],
      "name": "transferFrom",
      "outputs": [
        {
          "internalType": "bool",
          "name": "",
          "type": "bool"
        }
      ],
      "stateMutability": "nonpayable",
      "type": "function"
    },
    {
      "inputs": [
        {
          "internalType": "address",
          "name": "to",
          "type": "address"
        },
        {
          "internalType": "uint256",
          "name": "amount",
          "type": "uint256"
        }
      ],
      "name": "transferToken",
      "outputs": [],
      "stateMutability": "nonpayable",
      "type": "function"
    }
  ],
  "bytecode": "0x60806040523480156200001157600080fd5b506040518060400160405280600781526020016620b93a21b7b4b760c91b8152506040518060400160405280600381526020016210549560ea1b81525081600390816200005f9190620002ab565b5060046200006e8282620002ab565b5050506200008b33670de0b6b3a76400006200009160201b60201c565b6200039f565b6001600160a01b038216620000c15760405163ec442f0560e01b8152600060048201526024015b60405180910390fd5b620000cf60008383620000d3565b5050565b6001600160a01b03831662000102578060026000828254620000f6919062000377565b90915550620001769050565b6001600160a01b03831660009081526020819052604090205481811015620001575760405163391434e360e21b81526001600160a01b03851660048201526024810182905260448101839052606401620000b8565b6001600160a01b03841660009081526020819052604090209082900390555b6001600160a01b0382166200019457600280548290039055620001b3565b6001600160a01b03821660009081526020819052604090208054820190555b816001600160a01b0316836001600160a01b03167fddf252ad1be2c89b69c2b068fc378daa952ba7f163c4a11628f55a4df523b3ef83604051620001f991815260200190565b60405180910390a3505050565b634e487b7160e01b600052604160045260246000fd5b600181811c908216806200023157607f821691505b6020821081036200025257634e487b7160e01b600052602260045260246000fd5b50919050565b601f821115620002a657600081815260208120601f850160051c81016020861015620002815750805b601f850160051c820191505b81811015620002a2578281556001016200028d565b5050505b505050565b81516001600160401b03811115620002c757620002c762000206565b620002df81620002d884546200021c565b8462000258565b602080601f831160018114620003175760008415620002fe5750858301515b600019600386901b1c1916600185901b178555620002a2565b600085815260208120601f198616915b82811015620003485788860151825594840194600190910190840162000327565b5085821015620003675787850151600019600388901b60f8161c191681555b5050505050600190811b01905550565b808201808211156200039957634e487b7160e01b600052601160045260246000fd5b92915050565b61087980620003af6000396000f3fe608060405234801561001057600080fd5b50600436106100b45760003560e01c80636d1b229d116100715780636d1b229d1461014357806370a082311461015657806395d89b411461017f57806397304ced14610187578063a9059cbb1461019a578063dd62ed3e146101ad57600080fd5b806306fdde03146100b9578063095ea7b3146100d75780631072cbea146100fa57806318160ddd1461010f57806323b872dd14610121578063313ce56714610134575b600080fd5b6100c16101e6565b6040516100ce919061068b565b60405180910390f35b6100ea6100e53660046106f5565b610278565b60405190151581526020016100ce565b61010d6101083660046106f5565b610292565b005b6002545b6040519081526020016100ce565b6100ea61012f36600461071f565b6102b2565b604051601281526020016100ce565b61010d61015136600461075b565b6102d6565b610113610164366004610774565b6001600160a01b031660009081526020819052604090205490565b6100c16102f4565b61010d61019536600461075b565b610303565b6100ea6101a83660046106f5565b61031e565b6101136101bb366004610796565b6001600160a01b03918216600090815260016020908152604080832093909416825291909152205490565b6060600380546101f5906107c9565b80601f0160208091040260200160405190810160405280929190818152602001828054610221906107c9565b801561026e5780601f106102435761010080835404028352916020019161026e565b820191906000526020600020905b81548152906001019060200180831161025157829003601f168201915b5050505050905090565b60003361028681858561032c565b60019150505b92915050565b6102ae33836102a984670de0b6b3a7640000610819565b61033e565b5050565b6000336102c08582856103a2565b6102cb85858561033e565b506001949350505050565b6102f1336102ec83670de0b6b3a7640000610819565b610420565b50565b6060600480546101f5906107c9565b6102f13361031983670de0b6b3a7640000610819565b610456565b60003361028681858561033e565b610339838383600161048c565b505050565b6001600160a01b03831661036d57604051634b637e8f60e11b8152600060048201526024015b60405180910390fd5b6001600160a01b0382166103975760405163ec442f0560e01b815260006004820152602401610364565b610339838383610561565b6001600160a01b03838116600090815260016020908152604080832093861683529290522054600019811461041a578181101561040b57604051637dc7a0d960e11b81526001600160a01b03841660048201526024810182905260448101839052606401610364565b61041a8484848403600061048c565b50505050565b6001600160a01b03821661044a57604051634b637e8f60e11b815260006004820152602401610364565b6102ae82600083610561565b6001600160a01b0382166104805760405163ec442f0560e01b815260006004820152602401610364565b6102ae60008383610561565b6001600160a01b0384166104b65760405163e602df0560e01b815260006004820152602401610364565b6001600160a01b0383166104e057604051634a1406b160e11b815260006004820152602401610364565b6001600160a01b038085166000908152600160209081526040808320938716835292905220829055801561041a57826001600160a01b0316846001600160a01b03167f8c5be1e5ebec7d5bd14f71427d1e84f3dd0314c0f7b2291e5b200ac8c7c3b9258460405161055391815260200190565b60405180910390a350505050565b6001600160a01b03831661058c5780600260008282546105819190610830565b909155506105fe9050565b6001600160a01b038316600090815260208190526040902054818110156105df5760405163391434e360e21b81526001600160a01b03851660048201526024810182905260448101839052606401610364565b6001600160a01b03841660009081526020819052604090209082900390555b6001600160a01b03821661061a57600280548290039055610639565b6001600160a01b03821660009081526020819052604090208054820190555b816001600160a01b0316836001600160a01b03167fddf252ad1be2c89b69c2b068fc378daa952ba7f163c4a11628f55a4df523b3ef8360405161067e91815260200190565b60405180910390a3505050565b600060208083528351808285015260005b818110156106b85785810183015185820160400152820161069c565b506000604082860101526040601f19601f8301168501019250505092915050565b80356001600160a01b03811681146106f057600080fd5b919050565b6000806040838503121561070857600080fd5b610711836106d9565b946020939093013593505050565b60008060006060848603121561073457600080fd5b61073d846106d9565b925061074b602085016106d9565b9150604084013590509250925092565b60006020828403121561076d57600080fd5b5035919050565b60006020828403121561078657600080fd5b61078f826106d9565b9392505050565b600080604083850312156107a957600080fd5b6107b2836106d9565b91506107c0602084016106d9565b90509250929050565b600181811c908216806107dd57607f821691505b6020821081036107fd57634e487b7160e01b600052602260045260246000fd5b50919050565b634e487b7160e01b600052601160045260246000fd5b808202811582820484141761028c5761028c610803565b8082018082111561028c5761028c61080356fea2646970667358221220535b8bf8041820f87da6b9e5502f416638788bca440a1237104aeaf83d6be42864736f6c63430008140033",
  "linkReferences": {},
  "deployedLinkReferences": {}
}