{
  "_format": "hh-sol-artifact-1",
  "contractName": "FundRaisingContract",
  "sourceName": "contracts/FundRaising.sol",
  "abi": [
    {
      "inputs": [
        {
          "internalType": "string",
          "name": "name",
          "type": "string"
        },
        {
          "internalType": "string",
          "name": "symbol",
          "type": "string"
        },
        {
          "internalType": "uint256",
          "name": "initialSupply",
          "type": "uint256"
        },
        {
          "internalType": "uint256",
          "name": "_time",
          "type": "uint256"
        }
      ],
      "stateMutability": "nonpayable",
      "type": "constructor"
    },
    {
      "inputs": [
        {
          "internalType": "address",
          "name": "spender",
          "type": "address"
        },
        {
          "internalType": "uint256",
          "name": "allowance",
          "type": "uint256"
        },
        {
          "internalType": "uint256",
          "name": "needed",
          "type": "uint256"
        }
      ],
      "name": "ERC20InsufficientAllowance",
      "type": "error"
    },
    {
      "inputs": [
        {
          "internalType": "address",
          "name": "sender",
          "type": "address"
        },
        {
          "internalType": "uint256",
          "name": "balance",
          "type": "uint256"
        },
        {
          "internalType": "uint256",
          "name": "needed",
          "type": "uint256"
        }
      ],
      "name": "ERC20InsufficientBalance",
      "type": "error"
    },
    {
      "inputs": [
        {
          "internalType": "address",
          "name": "approver",
          "type": "address"
        }
      ],
      "name": "ERC20InvalidApprover",
      "type": "error"
    },
    {
      "inputs": [
        {
          "internalType": "address",
          "name": "receiver",
          "type": "address"
        }
      ],
      "name": "ERC20InvalidReceiver",
      "type": "error"
    },
    {
      "inputs": [
        {
          "internalType": "address",
          "name": "sender",
          "type": "address"
        }
      ],
      "name": "ERC20InvalidSender",
      "type": "error"
    },
    {
      "inputs": [
        {
          "internalType": "address",
          "name": "spender",
          "type": "address"
        }
      ],
      "name": "ERC20InvalidSpender",
      "type": "error"
    },
    {
      "anonymous": false,
      "inputs": [
        {
          "indexed": true,
          "internalType": "address",
          "name": "owner",
          "type": "address"
        },
        {
          "indexed": true,
          "internalType": "address",
          "name": "spender",
          "type": "address"
        },
        {
          "indexed": false,
          "internalType": "uint256",
          "name": "value",
          "type": "uint256"
        }
      ],
      "name": "Approval",
      "type": "event"
    },
    {
      "anonymous": false,
      "inputs": [
        {
          "indexed": true,
          "internalType": "address",
          "name": "sender",
          "type": "address"
        },
        {
          "indexed": true,
          "internalType": "address",
          "name": "tokenAddress",
          "type": "address"
        },
        {
          "indexed": false,
          "internalType": "uint256",
          "name": "amount",
          "type": "uint256"
        }
      ],
      "name": "TokenReceived",
      "type": "event"
    },
    {
      "anonymous": false,
      "inputs": [
        {
          "indexed": true,
          "internalType": "address",
          "name": "from",
          "type": "address"
        },
        {
          "indexed": true,
          "internalType": "address",
          "name": "to",
          "type": "address"
        },
        {
          "indexed": false,
          "internalType": "uint256",
          "name": "value",
          "type": "uint256"
        }
      ],
      "name": "Transfer",
      "type": "event"
    },
    {
      "inputs": [
        {
          "internalType": "address",
          "name": "owner",
          "type": "address"
        },
        {
          "internalType": "address",
          "name": "spender",
          "type": "address"
        }
      ],
      "name": "allowance",
      "outputs": [
        {
          "internalType": "uint256",
          "name": "",
          "type": "uint256"
        }
      ],
      "stateMutability": "view",
      "type": "function"
    },
    {
      "inputs": [
        {
          "internalType": "address",
          "name": "spender",
          "type": "address"
        },
        {
          "internalType": "uint256",
          "name": "value",
          "type": "uint256"
        }
      ],
      "name": "approve",
      "outputs": [
        {
          "internalType": "bool",
          "name": "",
          "type": "bool"
        }
      ],
      "stateMutability": "nonpayable",
      "type": "function"
    },
    {
      "inputs": [],
      "name": "artPieceToken",
      "outputs": [
        {
          "internalType": "address",
          "name": "",
          "type": "address"
        }
      ],
      "stateMutability": "view",
      "type": "function"
    },
    {
      "inputs": [],
      "name": "artTokenAddress",
      "outputs": [
        {
          "internalType": "address",
          "name": "",
          "type": "address"
        }
      ],
      "stateMutability": "view",
      "type": "function"
    },
    {
      "inputs": [
        {
          "internalType": "address",
          "name": "account",
          "type": "address"
        }
      ],
      "name": "balanceOf",
      "outputs": [
        {
          "internalType": "uint256",
          "name": "",
          "type": "uint256"
        }
      ],
      "stateMutability": "view",
      "type": "function"
    },
    {
      "inputs": [
        {
          "internalType": "uint256",
          "name": "burnAmount",
          "type": "uint256"
        }
      ],
      "name": "burnTokens",
      "outputs": [],
      "stateMutability": "nonpayable",
      "type": "function"
    },
    {
      "inputs": [],
      "name": "decimals",
      "outputs": [
        {
          "internalType": "uint8",
          "name": "",
          "type": "uint8"
        }
      ],
      "stateMutability": "view",
      "type": "function"
    },
    {
      "inputs": [],
      "name": "distributeFund",
      "outputs": [],
      "stateMutability": "nonpayable",
      "type": "function"
    },
    {
      "inputs": [],
      "name": "finishTime",
      "outputs": [
        {
          "internalType": "uint256",
          "name": "",
          "type": "uint256"
        }
      ],
      "stateMutability": "view",
      "type": "function"
    },
    {
      "inputs": [],
      "name": "getAllContributor",
      "outputs": [
        {
          "internalType": "address[]",
          "name": "",
          "type": "address[]"
        }
      ],
      "stateMutability": "view",
      "type": "function"
    },
    {
      "inputs": [],
      "name": "getInitialSupply",
      "outputs": [
        {
          "internalType": "uint256",
          "name": "",
          "type": "uint256"
        }
      ],
      "stateMutability": "view",
      "type": "function"
    },
    {
      "inputs": [],
      "name": "getRaisedAmount",
      "outputs": [
        {
          "internalType": "uint256",
          "name": "",
          "type": "uint256"
        }
      ],
      "stateMutability": "view",
      "type": "function"
    },
    {
      "inputs": [],
      "name": "initialSupply",
      "outputs": [
        {
          "internalType": "uint256",
          "name": "",
          "type": "uint256"
        }
      ],
      "stateMutability": "view",
      "type": "function"
    },
    {
      "inputs": [
        {
          "internalType": "uint256",
          "name": "",
          "type": "uint256"
        }
      ],
      "name": "listOfContributors",
      "outputs": [
        {
          "internalType": "address",
          "name": "",
          "type": "address"
        }
      ],
      "stateMutability": "view",
      "type": "function"
    },
    {
      "inputs": [],
      "name": "name",
      "outputs": [
        {
          "internalType": "string",
          "name": "",
          "type": "string"
        }
      ],
      "stateMutability": "view",
      "type": "function"
    },
    {
      "inputs": [
        {
          "internalType": "address",
          "name": "",
          "type": "address"
        }
      ],
      "name": "newCoins",
      "outputs": [
        {
          "internalType": "uint256",
          "name": "",
          "type": "uint256"
        }
      ],
      "stateMutability": "view",
      "type": "function"
    },
    {
      "inputs": [],
      "name": "owner",
      "outputs": [
        {
          "internalType": "address",
          "name": "",
          "type": "address"
        }
      ],
      "stateMutability": "view",
      "type": "function"
    },
    {
      "inputs": [],
      "name": "raisedAmount",
      "outputs": [
        {
          "internalType": "uint256",
          "name": "",
          "type": "uint256"
        }
      ],
      "stateMutability": "view",
      "type": "function"
    },
    {
      "inputs": [],
      "name": "refundContributors",
      "outputs": [],
      "stateMutability": "nonpayable",
      "type": "function"
    },
    {
      "inputs": [
        {
          "internalType": "address",
          "name": "",
          "type": "address"
        }
      ],
      "name": "refunds",
      "outputs": [
        {
          "internalType": "uint256",
          "name": "",
          "type": "uint256"
        }
      ],
      "stateMutability": "view",
      "type": "function"
    },
    {
      "inputs": [
        {
          "internalType": "address",
          "name": "_contractAddress",
          "type": "address"
        },
        {
          "internalType": "uint256",
          "name": "_totalInvested",
          "type": "uint256"
        },
        {
          "components": [
            {
              "internalType": "address",
              "name": "investor",
              "type": "address"
            },
            {
              "internalType": "uint256",
              "name": "amount",
              "type": "uint256"
            }
          ],
          "internalType": "struct FundRaisingContract.FundInfo[]",
          "name": "fundInfos",
          "type": "tuple[]"
        }
      ],
      "name": "settlement",
      "outputs": [],
      "stateMutability": "nonpayable",
      "type": "function"
    },
    {
      "inputs": [],
      "name": "symbol",
      "outputs": [
        {
          "internalType": "string",
          "name": "",
          "type": "string"
        }
      ],
      "stateMutability": "view",
      "type": "function"
    },
    {
      "inputs": [],
      "name": "totalSupply",
      "outputs": [
        {
          "internalType": "uint256",
          "name": "",
          "type": "uint256"
        }
      ],
      "stateMutability": "view",
      "type": "function"
    },
    {
      "inputs": [
        {
          "internalType": "address",
          "name": "to",
          "type": "address"
        },
        {
          "internalType": "uint256",
          "name": "value",
          "type": "uint256"
        }
      ],
      "name": "transfer",
      "outputs": [
        {
          "internalType": "bool",
          "name": "",
          "type": "bool"
        }
      ],
      "stateMutability": "nonpayable",
      "type": "function"
    },
    {
      "inputs": [
        {
          "internalType": "address",
          "name": "from",
          "type": "address"
        },
        {
          "internalType": "address",
          "name": "to",
          "type": "address"
        },
        {
          "internalType": "uint256",
          "name": "value",
          "type": "uint256"
        }
      ],
      "name": "transferFrom",
      "outputs": [
        {
          "internalType": "bool",
          "name": "",
          "type": "bool"
        }
      ],
      "stateMutability": "nonpayable",
      "type": "function"
    },
    {
      "inputs": [
        {
          "internalType": "address",
          "name": "to",
          "type": "address"
        },
        {
          "internalType": "uint256",
          "name": "amount",
          "type": "uint256"
        }
      ],
      "name": "transferToken",
      "outputs": [],
      "stateMutability": "nonpayable",
      "type": "function"
    },
    {
      "stateMutability": "payable",
      "type": "receive"
    }
  ],
  "bytecode": "0x6080604052600d80546001600160a01b0319167339af03c99f8b82602d293737de6a0ebf5d8f48db1790553480156200003757600080fd5b50604051620019de380380620019de8339810160408190526200005a9162000330565b838383828260036200006d838262000439565b5060046200007c828262000439565b50505080670de0b6b3a76400006200009591906200051b565b6005819055620000a7903390620000f6565b5050600680546001600160a01b031990811630179091556009805490911633179055506000600a55620000dc81603c6200051b565b620000e890426200053b565b600b55506200055192505050565b6001600160a01b038216620001265760405163ec442f0560e01b8152600060048201526024015b60405180910390fd5b620001346000838362000138565b5050565b6001600160a01b038316620001675780600260008282546200015b91906200053b565b90915550620001db9050565b6001600160a01b03831660009081526020819052604090205481811015620001bc5760405163391434e360e21b81526001600160a01b038516600482015260248101829052604481018390526064016200011d565b6001600160a01b03841660009081526020819052604090209082900390555b6001600160a01b038216620001f95760028054829003905562000218565b6001600160a01b03821660009081526020819052604090208054820190555b816001600160a01b0316836001600160a01b03167fddf252ad1be2c89b69c2b068fc378daa952ba7f163c4a11628f55a4df523b3ef836040516200025e91815260200190565b60405180910390a3505050565b634e487b7160e01b600052604160045260246000fd5b600082601f8301126200029357600080fd5b81516001600160401b0380821115620002b057620002b06200026b565b604051601f8301601f19908116603f01168101908282118183101715620002db57620002db6200026b565b81604052838152602092508683858801011115620002f857600080fd5b600091505b838210156200031c5785820183015181830184015290820190620002fd565b600093810190920192909252949350505050565b600080600080608085870312156200034757600080fd5b84516001600160401b03808211156200035f57600080fd5b6200036d8883890162000281565b955060208701519150808211156200038457600080fd5b50620003938782880162000281565b604087015160609097015195989097509350505050565b600181811c90821680620003bf57607f821691505b602082108103620003e057634e487b7160e01b600052602260045260246000fd5b50919050565b601f8211156200043457600081815260208120601f850160051c810160208610156200040f5750805b601f850160051c820191505b8181101562000430578281556001016200041b565b5050505b505050565b81516001600160401b038111156200045557620004556200026b565b6200046d81620004668454620003aa565b84620003e6565b602080601f831160018114620004a557600084156200048c5750858301515b600019600386901b1c1916600185901b17855562000430565b600085815260208120601f198616915b82811015620004d657888601518255948401946001909101908401620004b5565b5085821015620004f55787850151600019600388901b60f8161c191681555b5050505050600190811b01905550565b634e487b7160e01b600052601160045260246000fd5b808202811582820484141762000535576200053562000505565b92915050565b8082018082111562000535576200053562000505565b61147d80620005616000396000f3fe6080604052600436106101855760003560e01c80636d1b229d116100d15780638e75e4821161008a578063a9059cbb11610064578063a9059cbb1461045b578063bc3da5351461047b578063c59ee1dc146104a8578063dd62ed3e146104be57600080fd5b80638e75e4821461041157806395d89b4114610426578063a45ac5ff1461043b57600080fd5b80636d1b229d1461032e57806370a082311461034e5780637ea12e791461038457806381a4a6d8146103bc5780638a0e495d146103d15780638da5cb5b146103f157600080fd5b806323b872dd1161013e578063378dc3dc11610118578063378dc3dc146102c057806356c7f461146102d65780635958611e146102eb57806369cbbefe1461030157600080fd5b806323b872dd1461026f578063244e57511461028f578063313ce567146102a457600080fd5b806306fdde031461019157806308608d73146101bc578063095ea7b3146101de5780631072cbea1461020e57806318160ddd14610230578063238179a71461024f57600080fd5b3661018c57005b600080fd5b34801561019d57600080fd5b506101a6610504565b6040516101b39190611016565b60405180910390f35b3480156101c857600080fd5b506101d1610596565b6040516101b39190611064565b3480156101ea57600080fd5b506101fe6101f93660046110cd565b610662565b60405190151581526020016101b3565b34801561021a57600080fd5b5061022e6102293660046110cd565b61067c565b005b34801561023c57600080fd5b506002545b6040519081526020016101b3565b34801561025b57600080fd5b5061022e61026a366004611167565b610697565b34801561027b57600080fd5b506101fe61028a366004611256565b6107c2565b34801561029b57600080fd5b5061022e6107e6565b3480156102b057600080fd5b50604051601281526020016101b3565b3480156102cc57600080fd5b5061024160055481565b3480156102e257600080fd5b5061022e610a9d565b3480156102f757600080fd5b50610241600b5481565b34801561030d57600080fd5b5061024161031c366004611292565b60086020526000908152604090205481565b34801561033a57600080fd5b5061022e6103493660046112b4565b610c92565b34801561035a57600080fd5b50610241610369366004611292565b6001600160a01b031660009081526020819052604090205490565b34801561039057600080fd5b506103a461039f3660046112b4565b610cb0565b6040516001600160a01b0390911681526020016101b3565b3480156103c857600080fd5b50600554610241565b3480156103dd57600080fd5b506006546103a4906001600160a01b031681565b3480156103fd57600080fd5b506009546103a4906001600160a01b031681565b34801561041d57600080fd5b50600a54610241565b34801561043257600080fd5b506101a6610cda565b34801561044757600080fd5b50600d546103a4906001600160a01b031681565b34801561046757600080fd5b506101fe6104763660046110cd565b610ce9565b34801561048757600080fd5b50610241610496366004611292565b60076020526000908152604090205481565b3480156104b457600080fd5b50610241600a5481565b3480156104ca57600080fd5b506102416104d93660046112cd565b6001600160a01b03918216600090815260016020908152604080832093909416825291909152205490565b60606003805461051390611300565b80601f016020809104026020016040519081016040528092919081815260200182805461053f90611300565b801561058c5780601f106105615761010080835404028352916020019161058c565b820191906000526020600020905b81548152906001019060200180831161056f57829003601f168201915b5050505050905090565b600c5460609060008167ffffffffffffffff8111156105b7576105b76110f7565b6040519080825280602002602001820160405280156105e0578160200160208202803683370190505b50905060005b8281101561065b57600c81815481106106015761060161133a565b9060005260206000200160009054906101000a90046001600160a01b03168282815181106106315761063161133a565b6001600160a01b03909216602092830291909101909101528061065381611366565b9150506105e6565b5092915050565b600033610670818585610cf7565b60019150505b92915050565b6106928261047683670de0b6b3a764000061137f565b505050565b600d546001600160a01b03168360005b83518110156107ba576106d78482815181106106c5576106c561133a565b60200260200101516000015186610d04565b60095484516001600160a01b03808616926323b872dd929116908790859081106107035761070361133a565b6020026020010151600001518785815181106107215761072161133a565b60209081029190910181015101516040516001600160e01b031960e086901b1681526001600160a01b03938416600482015292909116602483015260448201526064016020604051808303816000875af1158015610783573d6000803e3d6000fd5b505050506040513d601f19601f820116820180604052508101906107a79190611396565b50806107b281611366565b9150506106a7565b505050505050565b6000336107d0858285610d3a565b6107db858585610db8565b506001949350505050565b6009546001600160a01b031633146108195760405162461bcd60e51b8152600401610810906113b8565b60405180910390fd5b600b54421161086a5760405162461bcd60e51b815260206004820152601b60248201527f46756e6472616973696e67206973206e6f74206f7665722079657400000000006044820152606401610810565b6005805461087990600461137f565b61088391906113f9565b600a5410156108d45760405162461bcd60e51b815260206004820152601c60248201527f46756e6472616973696e6720676f616c206e6f742072656163686564000000006044820152606401610810565b600d546040516370a0823160e01b81523060048201526001600160a01b039091169060009082906370a0823190602401602060405180830381865afa158015610921573d6000803e3d6000fd5b505050506040513d601f19601f82011682018060405250810190610945919061141b565b9050600081116109975760405162461bcd60e51b815260206004820152601b60248201527f4e6f2041525420746f6b656e7320746f206469737472696275746500000000006044820152606401610810565b60095460405163a9059cbb60e01b81526001600160a01b039182166004820152602481018390529083169063a9059cbb906044016020604051808303816000875af11580156109ea573d6000803e3d6000fd5b505050506040513d601f19601f82011682018060405250810190610a0e9190611396565b5060005b600c54811015610692576000600c8281548110610a3157610a3161133a565b60009182526020808320909101546001600160a01b031680835260089091526040909120549091508015610a88576001600160a01b03808316600090815260086020526040812055600954610a8891168383610db8565b50508080610a9590611366565b915050610a12565b6009546001600160a01b03163314610ac75760405162461bcd60e51b8152600401610810906113b8565b600b544211610b185760405162461bcd60e51b815260206004820152601b60248201527f46756e6472616973696e67206973206e6f74206f7665722079657400000000006044820152606401610810565b60058054610b2790600461137f565b610b3191906113f9565b600a5410610b8f5760405162461bcd60e51b815260206004820152602560248201527f3830252066756e6472616973696e6720676f616c20686173206265656e2072656044820152641858da195960da1b6064820152608401610810565b600d546001600160a01b031660005b600c54811015610c8e576000600c8281548110610bbd57610bbd61133a565b60009182526020808320909101546001600160a01b031680835260079091526040909120549091508015610c795760405163a9059cbb60e01b81526001600160a01b0383811660048301526024820183905285169063a9059cbb906044016020604051808303816000875af1158015610c3a573d6000803e3d6000fd5b505050506040513d601f19601f82011682018060405250810190610c5e9190611396565b506001600160a01b0382166000908152600760205260408120555b50508080610c8690611366565b915050610b9e565b5050565b610cad33610ca883670de0b6b3a764000061137f565b610d04565b50565b600c8181548110610cc057600080fd5b6000918252602090912001546001600160a01b0316905081565b60606004805461051390611300565b600033610670818585610db8565b6106928383836001610e17565b6001600160a01b038216610d2e57604051634b637e8f60e11b815260006004820152602401610810565b610c8e82600083610eec565b6001600160a01b038381166000908152600160209081526040808320938616835292905220546000198114610db25781811015610da357604051637dc7a0d960e11b81526001600160a01b03841660048201526024810182905260448101839052606401610810565b610db284848484036000610e17565b50505050565b6001600160a01b038316610de257604051634b637e8f60e11b815260006004820152602401610810565b6001600160a01b038216610e0c5760405163ec442f0560e01b815260006004820152602401610810565b610692838383610eec565b6001600160a01b038416610e415760405163e602df0560e01b815260006004820152602401610810565b6001600160a01b038316610e6b57604051634a1406b160e11b815260006004820152602401610810565b6001600160a01b0380851660009081526001602090815260408083209387168352929052208290558015610db257826001600160a01b0316846001600160a01b03167f8c5be1e5ebec7d5bd14f71427d1e84f3dd0314c0f7b2291e5b200ac8c7c3b92584604051610ede91815260200190565b60405180910390a350505050565b6001600160a01b038316610f17578060026000828254610f0c9190611434565b90915550610f899050565b6001600160a01b03831660009081526020819052604090205481811015610f6a5760405163391434e360e21b81526001600160a01b03851660048201526024810182905260448101839052606401610810565b6001600160a01b03841660009081526020819052604090209082900390555b6001600160a01b038216610fa557600280548290039055610fc4565b6001600160a01b03821660009081526020819052604090208054820190555b816001600160a01b0316836001600160a01b03167fddf252ad1be2c89b69c2b068fc378daa952ba7f163c4a11628f55a4df523b3ef8360405161100991815260200190565b60405180910390a3505050565b600060208083528351808285015260005b8181101561104357858101830151858201604001528201611027565b506000604082860101526040601f19601f8301168501019250505092915050565b6020808252825182820181905260009190848201906040850190845b818110156110a55783516001600160a01b031683529284019291840191600101611080565b50909695505050505050565b80356001600160a01b03811681146110c857600080fd5b919050565b600080604083850312156110e057600080fd5b6110e9836110b1565b946020939093013593505050565b634e487b7160e01b600052604160045260246000fd5b6040805190810167ffffffffffffffff81118282101715611130576111306110f7565b60405290565b604051601f8201601f1916810167ffffffffffffffff8111828210171561115f5761115f6110f7565b604052919050565b60008060006060848603121561117c57600080fd5b611185846110b1565b9250602080850135925060408086013567ffffffffffffffff808211156111ab57600080fd5b818801915088601f8301126111bf57600080fd5b8135818111156111d1576111d16110f7565b6111df858260051b01611136565b818152858101925060069190911b83018501908a8211156111ff57600080fd5b928501925b818410156112465784848c03121561121c5760008081fd5b61122461110d565b61122d856110b1565b8152848701358782015283529284019291850191611204565b8096505050505050509250925092565b60008060006060848603121561126b57600080fd5b611274846110b1565b9250611282602085016110b1565b9150604084013590509250925092565b6000602082840312156112a457600080fd5b6112ad826110b1565b9392505050565b6000602082840312156112c657600080fd5b5035919050565b600080604083850312156112e057600080fd5b6112e9836110b1565b91506112f7602084016110b1565b90509250929050565b600181811c9082168061131457607f821691505b60208210810361133457634e487b7160e01b600052602260045260246000fd5b50919050565b634e487b7160e01b600052603260045260246000fd5b634e487b7160e01b600052601160045260246000fd5b60006001820161137857611378611350565b5060010190565b808202811582820484141761067657610676611350565b6000602082840312156113a857600080fd5b815180151581146112ad57600080fd5b60208082526021908201527f4f6e6c79206f776e65722063616e2063616c6c20746869732066756e6374696f6040820152603760f91b606082015260800190565b60008261141657634e487b7160e01b600052601260045260246000fd5b500490565b60006020828403121561142d57600080fd5b5051919050565b808201808211156106765761067661135056fea26469706673582212203dc994df48340da89fde32d5454913de57c6d5381be73b3715694452545a24c864736f6c63430008140033",
  "linkReferences": {},
  "deployedLinkReferences": {}
}