{
  "_format": "hh-sol-artifact-1",
  "contractName": "FundRaisingContract",
  "sourceName": "contracts/FundRaising.sol",
  "abi": [
    {
      "inputs": [
        {
          "internalType": "string",
          "name": "name",
          "type": "string"
        },
        {
          "internalType": "string",
          "name": "symbol",
          "type": "string"
        },
        {
          "internalType": "uint256",
          "name": "initialSupply",
          "type": "uint256"
        },
        {
          "internalType": "uint256",
          "name": "_time",
          "type": "uint256"
        }
      ],
      "stateMutability": "nonpayable",
      "type": "constructor"
    },
    {
      "inputs": [
        {
          "internalType": "address",
          "name": "spender",
          "type": "address"
        },
        {
          "internalType": "uint256",
          "name": "allowance",
          "type": "uint256"
        },
        {
          "internalType": "uint256",
          "name": "needed",
          "type": "uint256"
        }
      ],
      "name": "ERC20InsufficientAllowance",
      "type": "error"
    },
    {
      "inputs": [
        {
          "internalType": "address",
          "name": "sender",
          "type": "address"
        },
        {
          "internalType": "uint256",
          "name": "balance",
          "type": "uint256"
        },
        {
          "internalType": "uint256",
          "name": "needed",
          "type": "uint256"
        }
      ],
      "name": "ERC20InsufficientBalance",
      "type": "error"
    },
    {
      "inputs": [
        {
          "internalType": "address",
          "name": "approver",
          "type": "address"
        }
      ],
      "name": "ERC20InvalidApprover",
      "type": "error"
    },
    {
      "inputs": [
        {
          "internalType": "address",
          "name": "receiver",
          "type": "address"
        }
      ],
      "name": "ERC20InvalidReceiver",
      "type": "error"
    },
    {
      "inputs": [
        {
          "internalType": "address",
          "name": "sender",
          "type": "address"
        }
      ],
      "name": "ERC20InvalidSender",
      "type": "error"
    },
    {
      "inputs": [
        {
          "internalType": "address",
          "name": "spender",
          "type": "address"
        }
      ],
      "name": "ERC20InvalidSpender",
      "type": "error"
    },
    {
      "anonymous": false,
      "inputs": [
        {
          "indexed": true,
          "internalType": "address",
          "name": "owner",
          "type": "address"
        },
        {
          "indexed": true,
          "internalType": "address",
          "name": "spender",
          "type": "address"
        },
        {
          "indexed": false,
          "internalType": "uint256",
          "name": "value",
          "type": "uint256"
        }
      ],
      "name": "Approval",
      "type": "event"
    },
    {
      "anonymous": false,
      "inputs": [
        {
          "indexed": true,
          "internalType": "address",
          "name": "sender",
          "type": "address"
        },
        {
          "indexed": true,
          "internalType": "address",
          "name": "tokenAddress",
          "type": "address"
        },
        {
          "indexed": false,
          "internalType": "uint256",
          "name": "amount",
          "type": "uint256"
        }
      ],
      "name": "TokenReceived",
      "type": "event"
    },
    {
      "anonymous": false,
      "inputs": [
        {
          "indexed": true,
          "internalType": "address",
          "name": "from",
          "type": "address"
        },
        {
          "indexed": true,
          "internalType": "address",
          "name": "to",
          "type": "address"
        },
        {
          "indexed": false,
          "internalType": "uint256",
          "name": "value",
          "type": "uint256"
        }
      ],
      "name": "Transfer",
      "type": "event"
    },
    {
      "inputs": [
        {
          "internalType": "address",
          "name": "owner",
          "type": "address"
        },
        {
          "internalType": "address",
          "name": "spender",
          "type": "address"
        }
      ],
      "name": "allowance",
      "outputs": [
        {
          "internalType": "uint256",
          "name": "",
          "type": "uint256"
        }
      ],
      "stateMutability": "view",
      "type": "function"
    },
    {
      "inputs": [
        {
          "internalType": "address",
          "name": "spender",
          "type": "address"
        },
        {
          "internalType": "uint256",
          "name": "value",
          "type": "uint256"
        }
      ],
      "name": "approve",
      "outputs": [
        {
          "internalType": "bool",
          "name": "",
          "type": "bool"
        }
      ],
      "stateMutability": "nonpayable",
      "type": "function"
    },
    {
      "inputs": [],
      "name": "artPieceToken",
      "outputs": [
        {
          "internalType": "address",
          "name": "",
          "type": "address"
        }
      ],
      "stateMutability": "view",
      "type": "function"
    },
    {
      "inputs": [],
      "name": "artTokenAddress",
      "outputs": [
        {
          "internalType": "address",
          "name": "",
          "type": "address"
        }
      ],
      "stateMutability": "view",
      "type": "function"
    },
    {
      "inputs": [
        {
          "internalType": "address",
          "name": "account",
          "type": "address"
        }
      ],
      "name": "balanceOf",
      "outputs": [
        {
          "internalType": "uint256",
          "name": "",
          "type": "uint256"
        }
      ],
      "stateMutability": "view",
      "type": "function"
    },
    {
      "inputs": [
        {
          "internalType": "uint256",
          "name": "burnAmount",
          "type": "uint256"
        }
      ],
      "name": "burnTokens",
      "outputs": [],
      "stateMutability": "nonpayable",
      "type": "function"
    },
    {
      "inputs": [],
      "name": "decimals",
      "outputs": [
        {
          "internalType": "uint8",
          "name": "",
          "type": "uint8"
        }
      ],
      "stateMutability": "view",
      "type": "function"
    },
    {
      "inputs": [],
      "name": "distributeFund",
      "outputs": [],
      "stateMutability": "nonpayable",
      "type": "function"
    },
    {
      "inputs": [],
      "name": "distributeFundWithoutCondition",
      "outputs": [],
      "stateMutability": "nonpayable",
      "type": "function"
    },
    {
      "inputs": [],
      "name": "finishTime",
      "outputs": [
        {
          "internalType": "uint256",
          "name": "",
          "type": "uint256"
        }
      ],
      "stateMutability": "view",
      "type": "function"
    },
    {
      "inputs": [],
      "name": "getAllContributor",
      "outputs": [
        {
          "internalType": "address[]",
          "name": "",
          "type": "address[]"
        }
      ],
      "stateMutability": "view",
      "type": "function"
    },
    {
      "inputs": [],
      "name": "getInitialSupply",
      "outputs": [
        {
          "internalType": "uint256",
          "name": "",
          "type": "uint256"
        }
      ],
      "stateMutability": "view",
      "type": "function"
    },
    {
      "inputs": [],
      "name": "getRaisedAmount",
      "outputs": [
        {
          "internalType": "uint256",
          "name": "",
          "type": "uint256"
        }
      ],
      "stateMutability": "view",
      "type": "function"
    },
    {
      "inputs": [],
      "name": "initialSupply",
      "outputs": [
        {
          "internalType": "uint256",
          "name": "",
          "type": "uint256"
        }
      ],
      "stateMutability": "view",
      "type": "function"
    },
    {
      "inputs": [
        {
          "internalType": "uint256",
          "name": "",
          "type": "uint256"
        }
      ],
      "name": "listOfContributors",
      "outputs": [
        {
          "internalType": "address",
          "name": "",
          "type": "address"
        }
      ],
      "stateMutability": "view",
      "type": "function"
    },
    {
      "inputs": [],
      "name": "name",
      "outputs": [
        {
          "internalType": "string",
          "name": "",
          "type": "string"
        }
      ],
      "stateMutability": "view",
      "type": "function"
    },
    {
      "inputs": [
        {
          "internalType": "address",
          "name": "",
          "type": "address"
        }
      ],
      "name": "newCoins",
      "outputs": [
        {
          "internalType": "uint256",
          "name": "",
          "type": "uint256"
        }
      ],
      "stateMutability": "view",
      "type": "function"
    },
    {
      "inputs": [],
      "name": "owner",
      "outputs": [
        {
          "internalType": "address",
          "name": "",
          "type": "address"
        }
      ],
      "stateMutability": "view",
      "type": "function"
    },
    {
      "inputs": [],
      "name": "raisedAmount",
      "outputs": [
        {
          "internalType": "uint256",
          "name": "",
          "type": "uint256"
        }
      ],
      "stateMutability": "view",
      "type": "function"
    },
    {
      "inputs": [],
      "name": "refundContributors",
      "outputs": [],
      "stateMutability": "nonpayable",
      "type": "function"
    },
    {
      "inputs": [
        {
          "internalType": "address",
          "name": "",
          "type": "address"
        }
      ],
      "name": "refunds",
      "outputs": [
        {
          "internalType": "uint256",
          "name": "",
          "type": "uint256"
        }
      ],
      "stateMutability": "view",
      "type": "function"
    },
    {
      "inputs": [
        {
          "internalType": "address",
          "name": "_contractAddress",
          "type": "address"
        },
        {
          "internalType": "uint256",
          "name": "_totalInvested",
          "type": "uint256"
        },
        {
          "components": [
            {
              "internalType": "address",
              "name": "investor",
              "type": "address"
            },
            {
              "internalType": "uint256",
              "name": "amount",
              "type": "uint256"
            }
          ],
          "internalType": "struct FundRaisingContract.FundInfo[]",
          "name": "fundInfos",
          "type": "tuple[]"
        }
      ],
      "name": "settlement",
      "outputs": [],
      "stateMutability": "nonpayable",
      "type": "function"
    },
    {
      "inputs": [],
      "name": "symbol",
      "outputs": [
        {
          "internalType": "string",
          "name": "",
          "type": "string"
        }
      ],
      "stateMutability": "view",
      "type": "function"
    },
    {
      "inputs": [],
      "name": "totalSupply",
      "outputs": [
        {
          "internalType": "uint256",
          "name": "",
          "type": "uint256"
        }
      ],
      "stateMutability": "view",
      "type": "function"
    },
    {
      "inputs": [
        {
          "internalType": "address",
          "name": "to",
          "type": "address"
        },
        {
          "internalType": "uint256",
          "name": "value",
          "type": "uint256"
        }
      ],
      "name": "transfer",
      "outputs": [
        {
          "internalType": "bool",
          "name": "",
          "type": "bool"
        }
      ],
      "stateMutability": "nonpayable",
      "type": "function"
    },
    {
      "inputs": [
        {
          "internalType": "address",
          "name": "from",
          "type": "address"
        },
        {
          "internalType": "address",
          "name": "to",
          "type": "address"
        },
        {
          "internalType": "uint256",
          "name": "value",
          "type": "uint256"
        }
      ],
      "name": "transferFrom",
      "outputs": [
        {
          "internalType": "bool",
          "name": "",
          "type": "bool"
        }
      ],
      "stateMutability": "nonpayable",
      "type": "function"
    },
    {
      "inputs": [
        {
          "internalType": "address",
          "name": "to",
          "type": "address"
        },
        {
          "internalType": "uint256",
          "name": "amount",
          "type": "uint256"
        }
      ],
      "name": "transferToken",
      "outputs": [],
      "stateMutability": "nonpayable",
      "type": "function"
    },
    {
      "stateMutability": "payable",
      "type": "receive"
    }
  ],
  "bytecode": "0x6080604052600d80546001600160a01b03191673e5856017db7b4023383c867ea65bc178b7f023c11790553480156200003757600080fd5b5060405162001c4138038062001c418339810160408190526200005a9162000330565b838383828260036200006d838262000439565b5060046200007c828262000439565b50505080670de0b6b3a76400006200009591906200051b565b6005819055620000a7903390620000f6565b5050600680546001600160a01b031990811630179091556009805490911633179055506000600a55620000dc81603c6200051b565b620000e890426200053b565b600b55506200055192505050565b6001600160a01b038216620001265760405163ec442f0560e01b8152600060048201526024015b60405180910390fd5b620001346000838362000138565b5050565b6001600160a01b038316620001675780600260008282546200015b91906200053b565b90915550620001db9050565b6001600160a01b03831660009081526020819052604090205481811015620001bc5760405163391434e360e21b81526001600160a01b038516600482015260248101829052604481018390526064016200011d565b6001600160a01b03841660009081526020819052604090209082900390555b6001600160a01b038216620001f95760028054829003905562000218565b6001600160a01b03821660009081526020819052604090208054820190555b816001600160a01b0316836001600160a01b03167fddf252ad1be2c89b69c2b068fc378daa952ba7f163c4a11628f55a4df523b3ef836040516200025e91815260200190565b60405180910390a3505050565b634e487b7160e01b600052604160045260246000fd5b600082601f8301126200029357600080fd5b81516001600160401b0380821115620002b057620002b06200026b565b604051601f8301601f19908116603f01168101908282118183101715620002db57620002db6200026b565b81604052838152602092508683858801011115620002f857600080fd5b600091505b838210156200031c5785820183015181830184015290820190620002fd565b600093810190920192909252949350505050565b600080600080608085870312156200034757600080fd5b84516001600160401b03808211156200035f57600080fd5b6200036d8883890162000281565b955060208701519150808211156200038457600080fd5b50620003938782880162000281565b604087015160609097015195989097509350505050565b600181811c90821680620003bf57607f821691505b602082108103620003e057634e487b7160e01b600052602260045260246000fd5b50919050565b601f8211156200043457600081815260208120601f850160051c810160208610156200040f5750805b601f850160051c820191505b8181101562000430578281556001016200041b565b5050505b505050565b81516001600160401b038111156200045557620004556200026b565b6200046d81620004668454620003aa565b84620003e6565b602080601f831160018114620004a557600084156200048c5750858301515b600019600386901b1c1916600185901b17855562000430565b600085815260208120601f198616915b82811015620004d657888601518255948401946001909101908401620004b5565b5085821015620004f55787850151600019600388901b60f8161c191681555b5050505050600190811b01905550565b634e487b7160e01b600052601160045260246000fd5b808202811582820484141762000535576200053562000505565b92915050565b8082018082111562000535576200053562000505565b6116e080620005616000396000f3fe6080604052600436106101a05760003560e01c806369d3b77f116100ec5780638e75e4821161008a578063a9059cbb11610064578063a9059cbb1461048b578063bc3da535146104ab578063c59ee1dc146104d8578063dd62ed3e146104ee57600080fd5b80638e75e4821461044157806395d89b4114610456578063a45ac5ff1461046b57600080fd5b80637ea12e79116100c65780637ea12e79146103b457806381a4a6d8146103ec5780638a0e495d146104015780638da5cb5b1461042157600080fd5b806369d3b77f146103495780636d1b229d1461035e57806370a082311461037e57600080fd5b806323b872dd11610159578063378dc3dc11610133578063378dc3dc146102db57806356c7f461146102f15780635958611e1461030657806369cbbefe1461031c57600080fd5b806323b872dd1461028a578063244e5751146102aa578063313ce567146102bf57600080fd5b806306fdde03146101ac57806308608d73146101d7578063095ea7b3146101f95780631072cbea1461022957806318160ddd1461024b578063238179a71461026a57600080fd5b366101a757005b600080fd5b3480156101b857600080fd5b506101c1610534565b6040516101ce9190611279565b60405180910390f35b3480156101e357600080fd5b506101ec6105c6565b6040516101ce91906112c7565b34801561020557600080fd5b50610219610214366004611330565b610692565b60405190151581526020016101ce565b34801561023557600080fd5b50610249610244366004611330565b6106ac565b005b34801561025757600080fd5b506002545b6040519081526020016101ce565b34801561027657600080fd5b506102496102853660046113ca565b6106c7565b34801561029657600080fd5b506102196102a53660046114b9565b6107c8565b3480156102b657600080fd5b506102496107ec565b3480156102cb57600080fd5b50604051601281526020016101ce565b3480156102e757600080fd5b5061025c60055481565b3480156102fd57600080fd5b50610249610aa3565b34801561031257600080fd5b5061025c600b5481565b34801561032857600080fd5b5061025c6103373660046114f5565b60086020526000908152604090205481565b34801561035557600080fd5b50610249610c98565b34801561036a57600080fd5b50610249610379366004611517565b610ef5565b34801561038a57600080fd5b5061025c6103993660046114f5565b6001600160a01b031660009081526020819052604090205490565b3480156103c057600080fd5b506103d46103cf366004611517565b610f13565b6040516001600160a01b0390911681526020016101ce565b3480156103f857600080fd5b5060055461025c565b34801561040d57600080fd5b506006546103d4906001600160a01b031681565b34801561042d57600080fd5b506009546103d4906001600160a01b031681565b34801561044d57600080fd5b50600a5461025c565b34801561046257600080fd5b506101c1610f3d565b34801561047757600080fd5b50600d546103d4906001600160a01b031681565b34801561049757600080fd5b506102196104a6366004611330565b610f4c565b3480156104b757600080fd5b5061025c6104c63660046114f5565b60076020526000908152604090205481565b3480156104e457600080fd5b5061025c600a5481565b3480156104fa57600080fd5b5061025c610509366004611530565b6001600160a01b03918216600090815260016020908152604080832093909416825291909152205490565b60606003805461054390611563565b80601f016020809104026020016040519081016040528092919081815260200182805461056f90611563565b80156105bc5780601f10610591576101008083540402835291602001916105bc565b820191906000526020600020905b81548152906001019060200180831161059f57829003601f168201915b5050505050905090565b600c5460609060008167ffffffffffffffff8111156105e7576105e761135a565b604051908082528060200260200182016040528015610610578160200160208202803683370190505b50905060005b8281101561068b57600c81815481106106315761063161159d565b9060005260206000200160009054906101000a90046001600160a01b03168282815181106106615761066161159d565b6001600160a01b039092166020928302919091019091015280610683816115c9565b915050610616565b5092915050565b6000336106a0818585610f5a565b60019150505b92915050565b6106c2826104a683670de0b6b3a76400006115e2565b505050565b600d546001600160a01b03168360005b83518110156107c057826001600160a01b031663a9059cbb8583815181106107015761070161159d565b60200260200101516000015186848151811061071f5761071f61159d565b602002602001015160200151670de0b6b3a764000061073e91906115e2565b6040516001600160e01b031960e085901b1681526001600160a01b03909216600483015260248201526044016020604051808303816000875af1158015610789573d6000803e3d6000fd5b505050506040513d601f19601f820116820180604052508101906107ad91906115f9565b50806107b8816115c9565b9150506106d7565b505050505050565b6000336107d6858285610f67565b6107e1858585610fe5565b506001949350505050565b6009546001600160a01b0316331461081f5760405162461bcd60e51b81526004016108169061161b565b60405180910390fd5b600b5442116108705760405162461bcd60e51b815260206004820152601b60248201527f46756e6472616973696e67206973206e6f74206f7665722079657400000000006044820152606401610816565b6005805461087f9060046115e2565b610889919061165c565b600a5410156108da5760405162461bcd60e51b815260206004820152601c60248201527f46756e6472616973696e6720676f616c206e6f742072656163686564000000006044820152606401610816565b600d546040516370a0823160e01b81523060048201526001600160a01b039091169060009082906370a0823190602401602060405180830381865afa158015610927573d6000803e3d6000fd5b505050506040513d601f19601f8201168201806040525081019061094b919061167e565b90506000811161099d5760405162461bcd60e51b815260206004820152601b60248201527f4e6f2041525420746f6b656e7320746f206469737472696275746500000000006044820152606401610816565b60095460405163a9059cbb60e01b81526001600160a01b039182166004820152602481018390529083169063a9059cbb906044016020604051808303816000875af11580156109f0573d6000803e3d6000fd5b505050506040513d601f19601f82011682018060405250810190610a1491906115f9565b5060005b600c548110156106c2576000600c8281548110610a3757610a3761159d565b60009182526020808320909101546001600160a01b031680835260089091526040909120549091508015610a8e576001600160a01b03808316600090815260086020526040812055600954610a8e91168383610fe5565b50508080610a9b906115c9565b915050610a18565b6009546001600160a01b03163314610acd5760405162461bcd60e51b81526004016108169061161b565b600b544211610b1e5760405162461bcd60e51b815260206004820152601b60248201527f46756e6472616973696e67206973206e6f74206f7665722079657400000000006044820152606401610816565b60058054610b2d9060046115e2565b610b37919061165c565b600a5410610b955760405162461bcd60e51b815260206004820152602560248201527f3830252066756e6472616973696e6720676f616c20686173206265656e2072656044820152641858da195960da1b6064820152608401610816565b600d546001600160a01b031660005b600c54811015610c94576000600c8281548110610bc357610bc361159d565b60009182526020808320909101546001600160a01b031680835260079091526040909120549091508015610c7f5760405163a9059cbb60e01b81526001600160a01b0383811660048301526024820183905285169063a9059cbb906044016020604051808303816000875af1158015610c40573d6000803e3d6000fd5b505050506040513d601f19601f82011682018060405250810190610c6491906115f9565b506001600160a01b0382166000908152600760205260408120555b50508080610c8c906115c9565b915050610ba4565b5050565b6009546001600160a01b03163314610cc25760405162461bcd60e51b81526004016108169061161b565b60058054610cd19060046115e2565b610cdb919061165c565b600a541015610d2c5760405162461bcd60e51b815260206004820152601c60248201527f46756e6472616973696e6720676f616c206e6f742072656163686564000000006044820152606401610816565b600d546040516370a0823160e01b81523060048201526001600160a01b039091169060009082906370a0823190602401602060405180830381865afa158015610d79573d6000803e3d6000fd5b505050506040513d601f19601f82011682018060405250810190610d9d919061167e565b905060008111610def5760405162461bcd60e51b815260206004820152601b60248201527f4e6f2041525420746f6b656e7320746f206469737472696275746500000000006044820152606401610816565b60095460405163a9059cbb60e01b81526001600160a01b039182166004820152602481018390529083169063a9059cbb906044016020604051808303816000875af1158015610e42573d6000803e3d6000fd5b505050506040513d601f19601f82011682018060405250810190610e6691906115f9565b5060005b600c548110156106c2576000600c8281548110610e8957610e8961159d565b60009182526020808320909101546001600160a01b031680835260089091526040909120549091508015610ee0576001600160a01b03808316600090815260086020526040812055600954610ee091168383610fe5565b50508080610eed906115c9565b915050610e6a565b610f1033610f0b83670de0b6b3a76400006115e2565b611044565b50565b600c8181548110610f2357600080fd5b6000918252602090912001546001600160a01b0316905081565b60606004805461054390611563565b6000336106a0818585610fe5565b6106c2838383600161107a565b6001600160a01b038381166000908152600160209081526040808320938616835292905220546000198114610fdf5781811015610fd057604051637dc7a0d960e11b81526001600160a01b03841660048201526024810182905260448101839052606401610816565b610fdf8484848403600061107a565b50505050565b6001600160a01b03831661100f57604051634b637e8f60e11b815260006004820152602401610816565b6001600160a01b0382166110395760405163ec442f0560e01b815260006004820152602401610816565b6106c283838361114f565b6001600160a01b03821661106e57604051634b637e8f60e11b815260006004820152602401610816565b610c948260008361114f565b6001600160a01b0384166110a45760405163e602df0560e01b815260006004820152602401610816565b6001600160a01b0383166110ce57604051634a1406b160e11b815260006004820152602401610816565b6001600160a01b0380851660009081526001602090815260408083209387168352929052208290558015610fdf57826001600160a01b0316846001600160a01b03167f8c5be1e5ebec7d5bd14f71427d1e84f3dd0314c0f7b2291e5b200ac8c7c3b9258460405161114191815260200190565b60405180910390a350505050565b6001600160a01b03831661117a57806002600082825461116f9190611697565b909155506111ec9050565b6001600160a01b038316600090815260208190526040902054818110156111cd5760405163391434e360e21b81526001600160a01b03851660048201526024810182905260448101839052606401610816565b6001600160a01b03841660009081526020819052604090209082900390555b6001600160a01b03821661120857600280548290039055611227565b6001600160a01b03821660009081526020819052604090208054820190555b816001600160a01b0316836001600160a01b03167fddf252ad1be2c89b69c2b068fc378daa952ba7f163c4a11628f55a4df523b3ef8360405161126c91815260200190565b60405180910390a3505050565b600060208083528351808285015260005b818110156112a65785810183015185820160400152820161128a565b506000604082860101526040601f19601f8301168501019250505092915050565b6020808252825182820181905260009190848201906040850190845b818110156113085783516001600160a01b0316835292840192918401916001016112e3565b50909695505050505050565b80356001600160a01b038116811461132b57600080fd5b919050565b6000806040838503121561134357600080fd5b61134c83611314565b946020939093013593505050565b634e487b7160e01b600052604160045260246000fd5b6040805190810167ffffffffffffffff811182821017156113935761139361135a565b60405290565b604051601f8201601f1916810167ffffffffffffffff811182821017156113c2576113c261135a565b604052919050565b6000806000606084860312156113df57600080fd5b6113e884611314565b9250602080850135925060408086013567ffffffffffffffff8082111561140e57600080fd5b818801915088601f83011261142257600080fd5b8135818111156114345761143461135a565b611442858260051b01611399565b818152858101925060069190911b83018501908a82111561146257600080fd5b928501925b818410156114a95784848c03121561147f5760008081fd5b611487611370565b61149085611314565b8152848701358782015283529284019291850191611467565b8096505050505050509250925092565b6000806000606084860312156114ce57600080fd5b6114d784611314565b92506114e560208501611314565b9150604084013590509250925092565b60006020828403121561150757600080fd5b61151082611314565b9392505050565b60006020828403121561152957600080fd5b5035919050565b6000806040838503121561154357600080fd5b61154c83611314565b915061155a60208401611314565b90509250929050565b600181811c9082168061157757607f821691505b60208210810361159757634e487b7160e01b600052602260045260246000fd5b50919050565b634e487b7160e01b600052603260045260246000fd5b634e487b7160e01b600052601160045260246000fd5b6000600182016115db576115db6115b3565b5060010190565b80820281158282048414176106a6576106a66115b3565b60006020828403121561160b57600080fd5b8151801515811461151057600080fd5b60208082526021908201527f4f6e6c79206f776e65722063616e2063616c6c20746869732066756e6374696f6040820152603760f91b606082015260800190565b60008261167957634e487b7160e01b600052601260045260246000fd5b500490565b60006020828403121561169057600080fd5b5051919050565b808201808211156106a6576106a66115b356fea26469706673582212200911a800ea01429bf8956e353505dec4d7ea01a6c6746d9f04e84c9c6a0c851a64736f6c63430008140033",
  "linkReferences": {},
  "deployedLinkReferences": {}
}