{
  "_format": "hh-sol-artifact-1",
  "contractName": "FundRaisingContract",
  "sourceName": "contracts/FundRaising.sol",
  "abi": [
    {
      "inputs": [
        {
          "internalType": "string",
          "name": "name",
          "type": "string"
        },
        {
          "internalType": "string",
          "name": "symbol",
          "type": "string"
        },
        {
          "internalType": "uint256",
          "name": "initialSupply",
          "type": "uint256"
        },
        {
          "internalType": "uint256",
          "name": "_time",
          "type": "uint256"
        }
      ],
      "stateMutability": "nonpayable",
      "type": "constructor"
    },
    {
      "inputs": [
        {
          "internalType": "address",
          "name": "spender",
          "type": "address"
        },
        {
          "internalType": "uint256",
          "name": "allowance",
          "type": "uint256"
        },
        {
          "internalType": "uint256",
          "name": "needed",
          "type": "uint256"
        }
      ],
      "name": "ERC20InsufficientAllowance",
      "type": "error"
    },
    {
      "inputs": [
        {
          "internalType": "address",
          "name": "sender",
          "type": "address"
        },
        {
          "internalType": "uint256",
          "name": "balance",
          "type": "uint256"
        },
        {
          "internalType": "uint256",
          "name": "needed",
          "type": "uint256"
        }
      ],
      "name": "ERC20InsufficientBalance",
      "type": "error"
    },
    {
      "inputs": [
        {
          "internalType": "address",
          "name": "approver",
          "type": "address"
        }
      ],
      "name": "ERC20InvalidApprover",
      "type": "error"
    },
    {
      "inputs": [
        {
          "internalType": "address",
          "name": "receiver",
          "type": "address"
        }
      ],
      "name": "ERC20InvalidReceiver",
      "type": "error"
    },
    {
      "inputs": [
        {
          "internalType": "address",
          "name": "sender",
          "type": "address"
        }
      ],
      "name": "ERC20InvalidSender",
      "type": "error"
    },
    {
      "inputs": [
        {
          "internalType": "address",
          "name": "spender",
          "type": "address"
        }
      ],
      "name": "ERC20InvalidSpender",
      "type": "error"
    },
    {
      "anonymous": false,
      "inputs": [
        {
          "indexed": true,
          "internalType": "address",
          "name": "owner",
          "type": "address"
        },
        {
          "indexed": true,
          "internalType": "address",
          "name": "spender",
          "type": "address"
        },
        {
          "indexed": false,
          "internalType": "uint256",
          "name": "value",
          "type": "uint256"
        }
      ],
      "name": "Approval",
      "type": "event"
    },
    {
      "anonymous": false,
      "inputs": [
        {
          "indexed": true,
          "internalType": "address",
          "name": "sender",
          "type": "address"
        },
        {
          "indexed": true,
          "internalType": "address",
          "name": "tokenAddress",
          "type": "address"
        },
        {
          "indexed": false,
          "internalType": "uint256",
          "name": "amount",
          "type": "uint256"
        }
      ],
      "name": "TokenReceived",
      "type": "event"
    },
    {
      "anonymous": false,
      "inputs": [
        {
          "indexed": true,
          "internalType": "address",
          "name": "from",
          "type": "address"
        },
        {
          "indexed": true,
          "internalType": "address",
          "name": "to",
          "type": "address"
        },
        {
          "indexed": false,
          "internalType": "uint256",
          "name": "value",
          "type": "uint256"
        }
      ],
      "name": "Transfer",
      "type": "event"
    },
    {
      "inputs": [
        {
          "internalType": "address",
          "name": "owner",
          "type": "address"
        },
        {
          "internalType": "address",
          "name": "spender",
          "type": "address"
        }
      ],
      "name": "allowance",
      "outputs": [
        {
          "internalType": "uint256",
          "name": "",
          "type": "uint256"
        }
      ],
      "stateMutability": "view",
      "type": "function"
    },
    {
      "inputs": [
        {
          "internalType": "address",
          "name": "spender",
          "type": "address"
        },
        {
          "internalType": "uint256",
          "name": "value",
          "type": "uint256"
        }
      ],
      "name": "approve",
      "outputs": [
        {
          "internalType": "bool",
          "name": "",
          "type": "bool"
        }
      ],
      "stateMutability": "nonpayable",
      "type": "function"
    },
    {
      "inputs": [],
      "name": "artPieceToken",
      "outputs": [
        {
          "internalType": "address",
          "name": "",
          "type": "address"
        }
      ],
      "stateMutability": "view",
      "type": "function"
    },
    {
      "inputs": [
        {
          "internalType": "address",
          "name": "account",
          "type": "address"
        }
      ],
      "name": "balanceOf",
      "outputs": [
        {
          "internalType": "uint256",
          "name": "",
          "type": "uint256"
        }
      ],
      "stateMutability": "view",
      "type": "function"
    },
    {
      "inputs": [
        {
          "internalType": "uint256",
          "name": "burnAmount",
          "type": "uint256"
        }
      ],
      "name": "burnTokens",
      "outputs": [],
      "stateMutability": "nonpayable",
      "type": "function"
    },
    {
      "inputs": [],
      "name": "decimals",
      "outputs": [
        {
          "internalType": "uint8",
          "name": "",
          "type": "uint8"
        }
      ],
      "stateMutability": "view",
      "type": "function"
    },
    {
      "inputs": [],
      "name": "distributeFund",
      "outputs": [],
      "stateMutability": "nonpayable",
      "type": "function"
    },
    {
      "inputs": [],
      "name": "finishTime",
      "outputs": [
        {
          "internalType": "uint256",
          "name": "",
          "type": "uint256"
        }
      ],
      "stateMutability": "view",
      "type": "function"
    },
    {
      "inputs": [
        {
          "internalType": "uint256",
          "name": "_tokenAmount",
          "type": "uint256"
        }
      ],
      "name": "fund",
      "outputs": [],
      "stateMutability": "nonpayable",
      "type": "function"
    },
    {
      "inputs": [
        {
          "internalType": "uint256",
          "name": "",
          "type": "uint256"
        }
      ],
      "name": "fundInfos",
      "outputs": [
        {
          "internalType": "address",
          "name": "investor",
          "type": "address"
        },
        {
          "internalType": "address",
          "name": "tokenAddress",
          "type": "address"
        },
        {
          "internalType": "uint256",
          "name": "tokenAmount",
          "type": "uint256"
        }
      ],
      "stateMutability": "view",
      "type": "function"
    },
    {
      "inputs": [],
      "name": "getAllContributor",
      "outputs": [
        {
          "internalType": "address[]",
          "name": "",
          "type": "address[]"
        }
      ],
      "stateMutability": "view",
      "type": "function"
    },
    {
      "inputs": [],
      "name": "initialSupply",
      "outputs": [
        {
          "internalType": "uint256",
          "name": "",
          "type": "uint256"
        }
      ],
      "stateMutability": "view",
      "type": "function"
    },
    {
      "inputs": [
        {
          "internalType": "uint256",
          "name": "",
          "type": "uint256"
        }
      ],
      "name": "listOfContributors",
      "outputs": [
        {
          "internalType": "address",
          "name": "",
          "type": "address"
        }
      ],
      "stateMutability": "view",
      "type": "function"
    },
    {
      "inputs": [],
      "name": "name",
      "outputs": [
        {
          "internalType": "string",
          "name": "",
          "type": "string"
        }
      ],
      "stateMutability": "view",
      "type": "function"
    },
    {
      "inputs": [
        {
          "internalType": "address",
          "name": "",
          "type": "address"
        }
      ],
      "name": "newCoins",
      "outputs": [
        {
          "internalType": "uint256",
          "name": "",
          "type": "uint256"
        }
      ],
      "stateMutability": "view",
      "type": "function"
    },
    {
      "inputs": [],
      "name": "owner",
      "outputs": [
        {
          "internalType": "address",
          "name": "",
          "type": "address"
        }
      ],
      "stateMutability": "view",
      "type": "function"
    },
    {
      "inputs": [],
      "name": "raisedAmount",
      "outputs": [
        {
          "internalType": "uint256",
          "name": "",
          "type": "uint256"
        }
      ],
      "stateMutability": "view",
      "type": "function"
    },
    {
      "inputs": [],
      "name": "refundDistribute",
      "outputs": [],
      "stateMutability": "nonpayable",
      "type": "function"
    },
    {
      "inputs": [
        {
          "internalType": "address",
          "name": "",
          "type": "address"
        }
      ],
      "name": "refunds",
      "outputs": [
        {
          "internalType": "uint256",
          "name": "",
          "type": "uint256"
        }
      ],
      "stateMutability": "view",
      "type": "function"
    },
    {
      "inputs": [],
      "name": "symbol",
      "outputs": [
        {
          "internalType": "string",
          "name": "",
          "type": "string"
        }
      ],
      "stateMutability": "view",
      "type": "function"
    },
    {
      "inputs": [
        {
          "internalType": "address",
          "name": "",
          "type": "address"
        }
      ],
      "name": "tokenContracts",
      "outputs": [
        {
          "internalType": "contract IERC20",
          "name": "",
          "type": "address"
        }
      ],
      "stateMutability": "view",
      "type": "function"
    },
    {
      "inputs": [],
      "name": "totalSupply",
      "outputs": [
        {
          "internalType": "uint256",
          "name": "",
          "type": "uint256"
        }
      ],
      "stateMutability": "view",
      "type": "function"
    },
    {
      "inputs": [
        {
          "internalType": "address",
          "name": "to",
          "type": "address"
        },
        {
          "internalType": "uint256",
          "name": "value",
          "type": "uint256"
        }
      ],
      "name": "transfer",
      "outputs": [
        {
          "internalType": "bool",
          "name": "",
          "type": "bool"
        }
      ],
      "stateMutability": "nonpayable",
      "type": "function"
    },
    {
      "inputs": [
        {
          "internalType": "address",
          "name": "from",
          "type": "address"
        },
        {
          "internalType": "address",
          "name": "to",
          "type": "address"
        },
        {
          "internalType": "uint256",
          "name": "value",
          "type": "uint256"
        }
      ],
      "name": "transferFrom",
      "outputs": [
        {
          "internalType": "bool",
          "name": "",
          "type": "bool"
        }
      ],
      "stateMutability": "nonpayable",
      "type": "function"
    },
    {
      "inputs": [
        {
          "internalType": "address",
          "name": "to",
          "type": "address"
        },
        {
          "internalType": "uint256",
          "name": "amount",
          "type": "uint256"
        }
      ],
      "name": "transferToken",
      "outputs": [],
      "stateMutability": "nonpayable",
      "type": "function"
    },
    {
      "stateMutability": "payable",
      "type": "receive"
    }
  ],
  "bytecode": "0x6080604052600f80546001600160a01b0319167339af03c99f8b82602d293737de6a0ebf5d8f48db1790553480156200003757600080fd5b50604051620016fc380380620016fc8339810160408190526200005a9162000330565b838383828260036200006d838262000439565b5060046200007c828262000439565b50505080670de0b6b3a76400006200009591906200051b565b6005819055620000a7903390620000f6565b5050600680546001600160a01b03199081163017909155600a805490911633179055506000600b55620000dc81603c6200051b565b620000e890426200053b565b600c55506200055192505050565b6001600160a01b038216620001265760405163ec442f0560e01b8152600060048201526024015b60405180910390fd5b620001346000838362000138565b5050565b6001600160a01b038316620001675780600260008282546200015b91906200053b565b90915550620001db9050565b6001600160a01b03831660009081526020819052604090205481811015620001bc5760405163391434e360e21b81526001600160a01b038516600482015260248101829052604481018390526064016200011d565b6001600160a01b03841660009081526020819052604090209082900390555b6001600160a01b038216620001f95760028054829003905562000218565b6001600160a01b03821660009081526020819052604090208054820190555b816001600160a01b0316836001600160a01b03167fddf252ad1be2c89b69c2b068fc378daa952ba7f163c4a11628f55a4df523b3ef836040516200025e91815260200190565b60405180910390a3505050565b634e487b7160e01b600052604160045260246000fd5b600082601f8301126200029357600080fd5b81516001600160401b0380821115620002b057620002b06200026b565b604051601f8301601f19908116603f01168101908282118183101715620002db57620002db6200026b565b81604052838152602092508683858801011115620002f857600080fd5b600091505b838210156200031c5785820183015181830184015290820190620002fd565b600093810190920192909252949350505050565b600080600080608085870312156200034757600080fd5b84516001600160401b03808211156200035f57600080fd5b6200036d8883890162000281565b955060208701519150808211156200038457600080fd5b50620003938782880162000281565b604087015160609097015195989097509350505050565b600181811c90821680620003bf57607f821691505b602082108103620003e057634e487b7160e01b600052602260045260246000fd5b50919050565b601f8211156200043457600081815260208120601f850160051c810160208610156200040f5750805b601f850160051c820191505b8181101562000430578281556001016200041b565b5050505b505050565b81516001600160401b038111156200045557620004556200026b565b6200046d81620004668454620003aa565b84620003e6565b602080601f831160018114620004a557600084156200048c5750858301515b600019600386901b1c1916600185901b17855562000430565b600085815260208120601f198616915b82811015620004d657888601518255948401946001909101908401620004b5565b5085821015620004f55787850151600019600388901b60f8161c191681555b5050505050600190811b01905550565b634e487b7160e01b600052601160045260246000fd5b808202811582820484141762000535576200053562000505565b92915050565b8082018082111562000535576200053562000505565b61119b80620005616000396000f3fe60806040526004361061016a5760003560e01c806370a08231116100d1578063a70b12f01161008a578063c59ee1dc11610064578063c59ee1dc1461048a578063ca1d209d146104a0578063dd62ed3e146104c0578063e3a6ac011461050657600080fd5b8063a70b12f0146103f7578063a9059cbb1461043d578063bc3da5351461045d57600080fd5b806370a08231146102fe5780637ea12e79146103345780638a0e495d1461036c5780638da5cb5b1461038c57806395d89b41146103ac578063984049ce146103c157600080fd5b8063244e575111610123578063244e575114610254578063313ce56714610269578063378dc3dc146102855780635958611e1461029b57806369cbbefe146102b15780636d1b229d146102de57600080fd5b806306fdde031461017657806308608d73146101a1578063095ea7b3146101c35780631072cbea146101f357806318160ddd1461021557806323b872dd1461023457600080fd5b3661017157005b600080fd5b34801561018257600080fd5b5061018b61051b565b6040516101989190610ed7565b60405180910390f35b3480156101ad57600080fd5b506101b66105ad565b6040516101989190610f25565b3480156101cf57600080fd5b506101e36101de366004610f8e565b610679565b6040519015158152602001610198565b3480156101ff57600080fd5b5061021361020e366004610f8e565b610693565b005b34801561022157600080fd5b506002545b604051908152602001610198565b34801561024057600080fd5b506101e361024f366004610fb8565b6106ae565b34801561026057600080fd5b506102136106d2565b34801561027557600080fd5b5060405160128152602001610198565b34801561029157600080fd5b5061022660055481565b3480156102a757600080fd5b50610226600c5481565b3480156102bd57600080fd5b506102266102cc366004610ff4565b60086020526000908152604090205481565b3480156102ea57600080fd5b506102136102f9366004611016565b610848565b34801561030a57600080fd5b50610226610319366004610ff4565b6001600160a01b031660009081526020819052604090205490565b34801561034057600080fd5b5061035461034f366004611016565b610863565b6040516001600160a01b039091168152602001610198565b34801561037857600080fd5b50600654610354906001600160a01b031681565b34801561039857600080fd5b50600a54610354906001600160a01b031681565b3480156103b857600080fd5b5061018b61088d565b3480156103cd57600080fd5b506103546103dc366004610ff4565b6009602052600090815260409020546001600160a01b031681565b34801561040357600080fd5b50610417610412366004611016565b61089c565b604080516001600160a01b03948516815293909216602084015290820152606001610198565b34801561044957600080fd5b506101e3610458366004610f8e565b6108dc565b34801561046957600080fd5b50610226610478366004610ff4565b60076020526000908152604090205481565b34801561049657600080fd5b50610226600b5481565b3480156104ac57600080fd5b506102136104bb366004611016565b6108ea565b3480156104cc57600080fd5b506102266104db36600461102f565b6001600160a01b03918216600090815260016020908152604080832093909416825291909152205490565b34801561051257600080fd5b50610213610a72565b60606003805461052a90611062565b80601f016020809104026020016040519081016040528092919081815260200182805461055690611062565b80156105a35780601f10610578576101008083540402835291602001916105a3565b820191906000526020600020905b81548152906001019060200180831161058657829003601f168201915b5050505050905090565b600d5460609060008167ffffffffffffffff8111156105ce576105ce61109c565b6040519080825280602002602001820160405280156105f7578160200160208202803683370190505b50905060005b8281101561067257600d8181548110610618576106186110b2565b9060005260206000200160009054906101000a90046001600160a01b0316828281518110610648576106486110b2565b6001600160a01b03909216602092830291909101909101528061066a816110de565b9150506105fd565b5092915050565b600033610687818585610bb4565b60019150505b92915050565b6106a98261045883670de0b6b3a76400006110f7565b505050565b6000336106bc858285610bc1565b6106c7858585610c3f565b506001949350505050565b600a546001600160a01b031633146107215760405162461bcd60e51b815260206004820152600d60248201526c26bab9ba1031329037bbb732b960991b60448201526064015b60405180910390fd5b600c5442116107625760405162461bcd60e51b815260206004820152600d60248201526c2737ba103a34b6b29027ab22a960991b6044820152606401610718565b600580546107719060046110f7565b61077b919061110e565b600b5410156107b75760405162461bcd60e51b8152602060048201526008602482015267139bdd0819dbd85b60c21b6044820152606401610718565b60005b600d54811015610845576000600d82815481106107d9576107d96110b2565b60009182526020808320909101546001600160a01b031680835260089091526040909120549091508015610830576001600160a01b03808316600090815260086020526040812055600a5461083091168383610c3f565b5050808061083d906110de565b9150506107ba565b50565b6108453361085e83670de0b6b3a76400006110f7565b610c9e565b600d818154811061087357600080fd5b6000918252602090912001546001600160a01b0316905081565b60606004805461052a90611062565b600e81815481106108ac57600080fd5b60009182526020909120600390910201805460018201546002909201546001600160a01b03918216935091169083565b600033610687818585610c3f565b600f546001600160a01b039081166000908152600960205260409020541663095ea7b33061092084670de0b6b3a76400006110f7565b6040516001600160e01b031960e085901b1681526001600160a01b03909216600483015260248201526044016020604051808303816000875af115801561096b573d6000803e3d6000fd5b505050506040513d601f19601f8201168201806040525081019061098f9190611130565b6109db5760405162461bcd60e51b815260206004820181905260248201527f4661696c656420746f20617070726f766520746f6b656e207472616e736665726044820152606401610718565b336000908152600860205260408120549003610a3457600d80546001810182556000919091527fd7b6990105719101dabeb77144f2a3385c8033acd3af97e9423a695e81ad1eb50180546001600160a01b031916331790555b80600b6000828254610a469190611152565b90915550503360009081526008602052604081208054839290610a6a908490611152565b909155505050565b60058054610a819060046110f7565b610a8b919061110e565b600b5410610acd5760405162461bcd60e51b815260206004820152600f60248201526e1c18129034b9903737ba1037bb32b960891b6044820152606401610718565b600c544211610b095760405162461bcd60e51b81526020600482015260086024820152672737ba1037bb32b960c11b6044820152606401610718565b60005b600d54811015610845576000600d8281548110610b2b57610b2b6110b2565b60009182526020808320909101546001600160a01b031680835260079091526040909120549091508015610b9f576001600160a01b0382166000818152600760205260408082208290555183156108fc0291849190818181858888f19350505050158015610b9d573d6000803e3d6000fd5b505b50508080610bac906110de565b915050610b0c565b6106a98383836001610cd8565b6001600160a01b038381166000908152600160209081526040808320938616835292905220546000198114610c395781811015610c2a57604051637dc7a0d960e11b81526001600160a01b03841660048201526024810182905260448101839052606401610718565b610c3984848484036000610cd8565b50505050565b6001600160a01b038316610c6957604051634b637e8f60e11b815260006004820152602401610718565b6001600160a01b038216610c935760405163ec442f0560e01b815260006004820152602401610718565b6106a9838383610dad565b6001600160a01b038216610cc857604051634b637e8f60e11b815260006004820152602401610718565b610cd482600083610dad565b5050565b6001600160a01b038416610d025760405163e602df0560e01b815260006004820152602401610718565b6001600160a01b038316610d2c57604051634a1406b160e11b815260006004820152602401610718565b6001600160a01b0380851660009081526001602090815260408083209387168352929052208290558015610c3957826001600160a01b0316846001600160a01b03167f8c5be1e5ebec7d5bd14f71427d1e84f3dd0314c0f7b2291e5b200ac8c7c3b92584604051610d9f91815260200190565b60405180910390a350505050565b6001600160a01b038316610dd8578060026000828254610dcd9190611152565b90915550610e4a9050565b6001600160a01b03831660009081526020819052604090205481811015610e2b5760405163391434e360e21b81526001600160a01b03851660048201526024810182905260448101839052606401610718565b6001600160a01b03841660009081526020819052604090209082900390555b6001600160a01b038216610e6657600280548290039055610e85565b6001600160a01b03821660009081526020819052604090208054820190555b816001600160a01b0316836001600160a01b03167fddf252ad1be2c89b69c2b068fc378daa952ba7f163c4a11628f55a4df523b3ef83604051610eca91815260200190565b60405180910390a3505050565b600060208083528351808285015260005b81811015610f0457858101830151858201604001528201610ee8565b506000604082860101526040601f19601f8301168501019250505092915050565b6020808252825182820181905260009190848201906040850190845b81811015610f665783516001600160a01b031683529284019291840191600101610f41565b50909695505050505050565b80356001600160a01b0381168114610f8957600080fd5b919050565b60008060408385031215610fa157600080fd5b610faa83610f72565b946020939093013593505050565b600080600060608486031215610fcd57600080fd5b610fd684610f72565b9250610fe460208501610f72565b9150604084013590509250925092565b60006020828403121561100657600080fd5b61100f82610f72565b9392505050565b60006020828403121561102857600080fd5b5035919050565b6000806040838503121561104257600080fd5b61104b83610f72565b915061105960208401610f72565b90509250929050565b600181811c9082168061107657607f821691505b60208210810361109657634e487b7160e01b600052602260045260246000fd5b50919050565b634e487b7160e01b600052604160045260246000fd5b634e487b7160e01b600052603260045260246000fd5b634e487b7160e01b600052601160045260246000fd5b6000600182016110f0576110f06110c8565b5060010190565b808202811582820484141761068d5761068d6110c8565b60008261112b57634e487b7160e01b600052601260045260246000fd5b500490565b60006020828403121561114257600080fd5b8151801515811461100f57600080fd5b8082018082111561068d5761068d6110c856fea264697066735822122061ef102efcc05cbdb01fb865ac8a443b32ec90473f3471a2c5348ea536398e8d64736f6c63430008140033",
  "linkReferences": {},
  "deployedLinkReferences": {}
}