{
  "_format": "hh-sol-artifact-1",
  "contractName": "FundRaisingContract",
  "sourceName": "contracts/FundRaising.sol",
  "abi": [
    {
      "inputs": [
        {
          "internalType": "string",
          "name": "name",
          "type": "string"
        },
        {
          "internalType": "string",
          "name": "symbol",
          "type": "string"
        },
        {
          "internalType": "uint256",
          "name": "initialSupply",
          "type": "uint256"
        },
        {
          "internalType": "uint256",
          "name": "_time",
          "type": "uint256"
        }
      ],
      "stateMutability": "nonpayable",
      "type": "constructor"
    },
    {
      "inputs": [
        {
          "internalType": "address",
          "name": "spender",
          "type": "address"
        },
        {
          "internalType": "uint256",
          "name": "allowance",
          "type": "uint256"
        },
        {
          "internalType": "uint256",
          "name": "needed",
          "type": "uint256"
        }
      ],
      "name": "ERC20InsufficientAllowance",
      "type": "error"
    },
    {
      "inputs": [
        {
          "internalType": "address",
          "name": "sender",
          "type": "address"
        },
        {
          "internalType": "uint256",
          "name": "balance",
          "type": "uint256"
        },
        {
          "internalType": "uint256",
          "name": "needed",
          "type": "uint256"
        }
      ],
      "name": "ERC20InsufficientBalance",
      "type": "error"
    },
    {
      "inputs": [
        {
          "internalType": "address",
          "name": "approver",
          "type": "address"
        }
      ],
      "name": "ERC20InvalidApprover",
      "type": "error"
    },
    {
      "inputs": [
        {
          "internalType": "address",
          "name": "receiver",
          "type": "address"
        }
      ],
      "name": "ERC20InvalidReceiver",
      "type": "error"
    },
    {
      "inputs": [
        {
          "internalType": "address",
          "name": "sender",
          "type": "address"
        }
      ],
      "name": "ERC20InvalidSender",
      "type": "error"
    },
    {
      "inputs": [
        {
          "internalType": "address",
          "name": "spender",
          "type": "address"
        }
      ],
      "name": "ERC20InvalidSpender",
      "type": "error"
    },
    {
      "anonymous": false,
      "inputs": [
        {
          "indexed": true,
          "internalType": "address",
          "name": "owner",
          "type": "address"
        },
        {
          "indexed": true,
          "internalType": "address",
          "name": "spender",
          "type": "address"
        },
        {
          "indexed": false,
          "internalType": "uint256",
          "name": "value",
          "type": "uint256"
        }
      ],
      "name": "Approval",
      "type": "event"
    },
    {
      "anonymous": false,
      "inputs": [
        {
          "indexed": true,
          "internalType": "address",
          "name": "sender",
          "type": "address"
        },
        {
          "indexed": true,
          "internalType": "address",
          "name": "tokenAddress",
          "type": "address"
        },
        {
          "indexed": false,
          "internalType": "uint256",
          "name": "amount",
          "type": "uint256"
        }
      ],
      "name": "TokenReceived",
      "type": "event"
    },
    {
      "anonymous": false,
      "inputs": [
        {
          "indexed": true,
          "internalType": "address",
          "name": "from",
          "type": "address"
        },
        {
          "indexed": true,
          "internalType": "address",
          "name": "to",
          "type": "address"
        },
        {
          "indexed": false,
          "internalType": "uint256",
          "name": "value",
          "type": "uint256"
        }
      ],
      "name": "Transfer",
      "type": "event"
    },
    {
      "inputs": [
        {
          "internalType": "address",
          "name": "owner",
          "type": "address"
        },
        {
          "internalType": "address",
          "name": "spender",
          "type": "address"
        }
      ],
      "name": "allowance",
      "outputs": [
        {
          "internalType": "uint256",
          "name": "",
          "type": "uint256"
        }
      ],
      "stateMutability": "view",
      "type": "function"
    },
    {
      "inputs": [
        {
          "internalType": "address",
          "name": "spender",
          "type": "address"
        },
        {
          "internalType": "uint256",
          "name": "value",
          "type": "uint256"
        }
      ],
      "name": "approve",
      "outputs": [
        {
          "internalType": "bool",
          "name": "",
          "type": "bool"
        }
      ],
      "stateMutability": "nonpayable",
      "type": "function"
    },
    {
      "inputs": [],
      "name": "artPieceToken",
      "outputs": [
        {
          "internalType": "address",
          "name": "",
          "type": "address"
        }
      ],
      "stateMutability": "view",
      "type": "function"
    },
    {
      "inputs": [
        {
          "internalType": "address",
          "name": "account",
          "type": "address"
        }
      ],
      "name": "balanceOf",
      "outputs": [
        {
          "internalType": "uint256",
          "name": "",
          "type": "uint256"
        }
      ],
      "stateMutability": "view",
      "type": "function"
    },
    {
      "inputs": [
        {
          "internalType": "uint256",
          "name": "burnAmount",
          "type": "uint256"
        }
      ],
      "name": "burnTokens",
      "outputs": [],
      "stateMutability": "nonpayable",
      "type": "function"
    },
    {
      "inputs": [],
      "name": "decimals",
      "outputs": [
        {
          "internalType": "uint8",
          "name": "",
          "type": "uint8"
        }
      ],
      "stateMutability": "view",
      "type": "function"
    },
    {
      "inputs": [],
      "name": "distributeFund",
      "outputs": [],
      "stateMutability": "nonpayable",
      "type": "function"
    },
    {
      "inputs": [],
      "name": "finishTime",
      "outputs": [
        {
          "internalType": "uint256",
          "name": "",
          "type": "uint256"
        }
      ],
      "stateMutability": "view",
      "type": "function"
    },
    {
      "inputs": [],
      "name": "getAllContributor",
      "outputs": [
        {
          "internalType": "address[]",
          "name": "",
          "type": "address[]"
        }
      ],
      "stateMutability": "view",
      "type": "function"
    },
    {
      "inputs": [],
      "name": "getInitialSupply",
      "outputs": [
        {
          "internalType": "uint256",
          "name": "",
          "type": "uint256"
        }
      ],
      "stateMutability": "view",
      "type": "function"
    },
    {
      "inputs": [],
      "name": "getRaisedAmount",
      "outputs": [
        {
          "internalType": "uint256",
          "name": "",
          "type": "uint256"
        }
      ],
      "stateMutability": "view",
      "type": "function"
    },
    {
      "inputs": [],
      "name": "initialSupply",
      "outputs": [
        {
          "internalType": "uint256",
          "name": "",
          "type": "uint256"
        }
      ],
      "stateMutability": "view",
      "type": "function"
    },
    {
      "inputs": [
        {
          "internalType": "uint256",
          "name": "",
          "type": "uint256"
        }
      ],
      "name": "listOfContributors",
      "outputs": [
        {
          "internalType": "address",
          "name": "",
          "type": "address"
        }
      ],
      "stateMutability": "view",
      "type": "function"
    },
    {
      "inputs": [],
      "name": "name",
      "outputs": [
        {
          "internalType": "string",
          "name": "",
          "type": "string"
        }
      ],
      "stateMutability": "view",
      "type": "function"
    },
    {
      "inputs": [
        {
          "internalType": "address",
          "name": "",
          "type": "address"
        }
      ],
      "name": "newCoins",
      "outputs": [
        {
          "internalType": "uint256",
          "name": "",
          "type": "uint256"
        }
      ],
      "stateMutability": "view",
      "type": "function"
    },
    {
      "inputs": [],
      "name": "owner",
      "outputs": [
        {
          "internalType": "address",
          "name": "",
          "type": "address"
        }
      ],
      "stateMutability": "view",
      "type": "function"
    },
    {
      "inputs": [],
      "name": "raisedAmount",
      "outputs": [
        {
          "internalType": "uint256",
          "name": "",
          "type": "uint256"
        }
      ],
      "stateMutability": "view",
      "type": "function"
    },
    {
      "inputs": [],
      "name": "refundDistribute",
      "outputs": [],
      "stateMutability": "nonpayable",
      "type": "function"
    },
    {
      "inputs": [
        {
          "internalType": "address",
          "name": "",
          "type": "address"
        }
      ],
      "name": "refunds",
      "outputs": [
        {
          "internalType": "uint256",
          "name": "",
          "type": "uint256"
        }
      ],
      "stateMutability": "view",
      "type": "function"
    },
    {
      "inputs": [],
      "name": "symbol",
      "outputs": [
        {
          "internalType": "string",
          "name": "",
          "type": "string"
        }
      ],
      "stateMutability": "view",
      "type": "function"
    },
    {
      "inputs": [],
      "name": "totalSupply",
      "outputs": [
        {
          "internalType": "uint256",
          "name": "",
          "type": "uint256"
        }
      ],
      "stateMutability": "view",
      "type": "function"
    },
    {
      "inputs": [
        {
          "internalType": "address",
          "name": "to",
          "type": "address"
        },
        {
          "internalType": "uint256",
          "name": "value",
          "type": "uint256"
        }
      ],
      "name": "transfer",
      "outputs": [
        {
          "internalType": "bool",
          "name": "",
          "type": "bool"
        }
      ],
      "stateMutability": "nonpayable",
      "type": "function"
    },
    {
      "inputs": [
        {
          "internalType": "address",
          "name": "from",
          "type": "address"
        },
        {
          "internalType": "address",
          "name": "to",
          "type": "address"
        },
        {
          "internalType": "uint256",
          "name": "value",
          "type": "uint256"
        }
      ],
      "name": "transferFrom",
      "outputs": [
        {
          "internalType": "bool",
          "name": "",
          "type": "bool"
        }
      ],
      "stateMutability": "nonpayable",
      "type": "function"
    },
    {
      "inputs": [
        {
          "internalType": "address",
          "name": "to",
          "type": "address"
        },
        {
          "internalType": "uint256",
          "name": "amount",
          "type": "uint256"
        }
      ],
      "name": "transferToken",
      "outputs": [],
      "stateMutability": "nonpayable",
      "type": "function"
    },
    {
      "stateMutability": "payable",
      "type": "receive"
    }
  ],
  "bytecode": "0x60806040523480156200001157600080fd5b506040516200145f3803806200145f83398101604081905262000034916200030a565b8383838282600362000047838262000413565b50600462000056828262000413565b50505080670de0b6b3a76400006200006f9190620004f5565b600581905562000081903390620000d0565b5050600680546001600160a01b031990811630179091556009805490911633179055506000600a55620000b681603c620004f5565b620000c2904262000515565b600b55506200052b92505050565b6001600160a01b038216620001005760405163ec442f0560e01b8152600060048201526024015b60405180910390fd5b6200010e6000838362000112565b5050565b6001600160a01b0383166200014157806002600082825462000135919062000515565b90915550620001b59050565b6001600160a01b03831660009081526020819052604090205481811015620001965760405163391434e360e21b81526001600160a01b03851660048201526024810182905260448101839052606401620000f7565b6001600160a01b03841660009081526020819052604090209082900390555b6001600160a01b038216620001d357600280548290039055620001f2565b6001600160a01b03821660009081526020819052604090208054820190555b816001600160a01b0316836001600160a01b03167fddf252ad1be2c89b69c2b068fc378daa952ba7f163c4a11628f55a4df523b3ef836040516200023891815260200190565b60405180910390a3505050565b634e487b7160e01b600052604160045260246000fd5b600082601f8301126200026d57600080fd5b81516001600160401b03808211156200028a576200028a62000245565b604051601f8301601f19908116603f01168101908282118183101715620002b557620002b562000245565b81604052838152602092508683858801011115620002d257600080fd5b600091505b83821015620002f65785820183015181830184015290820190620002d7565b600093810190920192909252949350505050565b600080600080608085870312156200032157600080fd5b84516001600160401b03808211156200033957600080fd5b62000347888389016200025b565b955060208701519150808211156200035e57600080fd5b506200036d878288016200025b565b604087015160609097015195989097509350505050565b600181811c908216806200039957607f821691505b602082108103620003ba57634e487b7160e01b600052602260045260246000fd5b50919050565b601f8211156200040e57600081815260208120601f850160051c81016020861015620003e95750805b601f850160051c820191505b818110156200040a57828155600101620003f5565b5050505b505050565b81516001600160401b038111156200042f576200042f62000245565b620004478162000440845462000384565b84620003c0565b602080601f8311600181146200047f5760008415620004665750858301515b600019600386901b1c1916600185901b1785556200040a565b600085815260208120601f198616915b82811015620004b0578886015182559484019460019091019084016200048f565b5085821015620004cf5787850151600019600388901b60f8161c191681555b5050505050600190811b01905550565b634e487b7160e01b600052601160045260246000fd5b80820281158282048414176200050f576200050f620004df565b92915050565b808201808211156200050f576200050f620004df565b610f24806200053b6000396000f3fe60806040526004361061014f5760003560e01c806370a08231116100b657806395d89b411161006f57806395d89b41146103bb578063a9059cbb146103d0578063bc3da535146103f0578063c59ee1dc1461041d578063dd62ed3e14610433578063e3a6ac011461047957600080fd5b806370a08231146102e35780637ea12e791461031957806381a4a6d8146103515780638a0e495d146103665780638da5cb5b146103865780638e75e482146103a657600080fd5b8063244e575111610108578063244e575114610239578063313ce5671461024e578063378dc3dc1461026a5780635958611e1461028057806369cbbefe146102965780636d1b229d146102c357600080fd5b806306fdde031461015b57806308608d7314610186578063095ea7b3146101a85780631072cbea146101d857806318160ddd146101fa57806323b872dd1461021957600080fd5b3661015657005b600080fd5b34801561016757600080fd5b5061017061048e565b60405161017d9190610c82565b60405180910390f35b34801561019257600080fd5b5061019b610520565b60405161017d9190610cd0565b3480156101b457600080fd5b506101c86101c3366004610d39565b6105ec565b604051901515815260200161017d565b3480156101e457600080fd5b506101f86101f3366004610d39565b610606565b005b34801561020657600080fd5b506002545b60405190815260200161017d565b34801561022557600080fd5b506101c8610234366004610d63565b610621565b34801561024557600080fd5b506101f8610645565b34801561025a57600080fd5b506040516012815260200161017d565b34801561027657600080fd5b5061020b60055481565b34801561028c57600080fd5b5061020b600b5481565b3480156102a257600080fd5b5061020b6102b1366004610d9f565b60086020526000908152604090205481565b3480156102cf57600080fd5b506101f86102de366004610dc1565b6107bb565b3480156102ef57600080fd5b5061020b6102fe366004610d9f565b6001600160a01b031660009081526020819052604090205490565b34801561032557600080fd5b50610339610334366004610dc1565b6107d6565b6040516001600160a01b03909116815260200161017d565b34801561035d57600080fd5b5060055461020b565b34801561037257600080fd5b50600654610339906001600160a01b031681565b34801561039257600080fd5b50600954610339906001600160a01b031681565b3480156103b257600080fd5b50600a5461020b565b3480156103c757600080fd5b50610170610800565b3480156103dc57600080fd5b506101c86103eb366004610d39565b61080f565b3480156103fc57600080fd5b5061020b61040b366004610d9f565b60076020526000908152604090205481565b34801561042957600080fd5b5061020b600a5481565b34801561043f57600080fd5b5061020b61044e366004610dda565b6001600160a01b03918216600090815260016020908152604080832093909416825291909152205490565b34801561048557600080fd5b506101f861081d565b60606003805461049d90610e0d565b80601f01602080910402602001604051908101604052809291908181526020018280546104c990610e0d565b80156105165780601f106104eb57610100808354040283529160200191610516565b820191906000526020600020905b8154815290600101906020018083116104f957829003601f168201915b5050505050905090565b600c5460609060008167ffffffffffffffff81111561054157610541610e47565b60405190808252806020026020018201604052801561056a578160200160208202803683370190505b50905060005b828110156105e557600c818154811061058b5761058b610e5d565b9060005260206000200160009054906101000a90046001600160a01b03168282815181106105bb576105bb610e5d565b6001600160a01b0390921660209283029190910190910152806105dd81610e89565b915050610570565b5092915050565b6000336105fa81858561095f565b60019150505b92915050565b61061c826103eb83670de0b6b3a7640000610ea2565b505050565b60003361062f85828561096c565b61063a8585856109ea565b506001949350505050565b6009546001600160a01b031633146106945760405162461bcd60e51b815260206004820152600d60248201526c26bab9ba1031329037bbb732b960991b60448201526064015b60405180910390fd5b600b5442116106d55760405162461bcd60e51b815260206004820152600d60248201526c2737ba103a34b6b29027ab22a960991b604482015260640161068b565b600580546106e4906004610ea2565b6106ee9190610eb9565b600a54101561072a5760405162461bcd60e51b8152602060048201526008602482015267139bdd0819dbd85b60c21b604482015260640161068b565b60005b600c548110156107b8576000600c828154811061074c5761074c610e5d565b60009182526020808320909101546001600160a01b0316808352600890915260409091205490915080156107a3576001600160a01b038083166000908152600860205260408120556009546107a3911683836109ea565b505080806107b090610e89565b91505061072d565b50565b6107b8336107d183670de0b6b3a7640000610ea2565b610a49565b600c81815481106107e657600080fd5b6000918252602090912001546001600160a01b0316905081565b60606004805461049d90610e0d565b6000336105fa8185856109ea565b6005805461082c906004610ea2565b6108369190610eb9565b600a54106108785760405162461bcd60e51b815260206004820152600f60248201526e1c18129034b9903737ba1037bb32b960891b604482015260640161068b565b600b5442116108b45760405162461bcd60e51b81526020600482015260086024820152672737ba1037bb32b960c11b604482015260640161068b565b60005b600c548110156107b8576000600c82815481106108d6576108d6610e5d565b60009182526020808320909101546001600160a01b03168083526007909152604090912054909150801561094a576001600160a01b0382166000818152600760205260408082208290555183156108fc0291849190818181858888f19350505050158015610948573d6000803e3d6000fd5b505b5050808061095790610e89565b9150506108b7565b61061c8383836001610a83565b6001600160a01b0383811660009081526001602090815260408083209386168352929052205460001981146109e457818110156109d557604051637dc7a0d960e11b81526001600160a01b0384166004820152602481018290526044810183905260640161068b565b6109e484848484036000610a83565b50505050565b6001600160a01b038316610a1457604051634b637e8f60e11b81526000600482015260240161068b565b6001600160a01b038216610a3e5760405163ec442f0560e01b81526000600482015260240161068b565b61061c838383610b58565b6001600160a01b038216610a7357604051634b637e8f60e11b81526000600482015260240161068b565b610a7f82600083610b58565b5050565b6001600160a01b038416610aad5760405163e602df0560e01b81526000600482015260240161068b565b6001600160a01b038316610ad757604051634a1406b160e11b81526000600482015260240161068b565b6001600160a01b03808516600090815260016020908152604080832093871683529290522082905580156109e457826001600160a01b0316846001600160a01b03167f8c5be1e5ebec7d5bd14f71427d1e84f3dd0314c0f7b2291e5b200ac8c7c3b92584604051610b4a91815260200190565b60405180910390a350505050565b6001600160a01b038316610b83578060026000828254610b789190610edb565b90915550610bf59050565b6001600160a01b03831660009081526020819052604090205481811015610bd65760405163391434e360e21b81526001600160a01b0385166004820152602481018290526044810183905260640161068b565b6001600160a01b03841660009081526020819052604090209082900390555b6001600160a01b038216610c1157600280548290039055610c30565b6001600160a01b03821660009081526020819052604090208054820190555b816001600160a01b0316836001600160a01b03167fddf252ad1be2c89b69c2b068fc378daa952ba7f163c4a11628f55a4df523b3ef83604051610c7591815260200190565b60405180910390a3505050565b600060208083528351808285015260005b81811015610caf57858101830151858201604001528201610c93565b506000604082860101526040601f19601f8301168501019250505092915050565b6020808252825182820181905260009190848201906040850190845b81811015610d115783516001600160a01b031683529284019291840191600101610cec565b50909695505050505050565b80356001600160a01b0381168114610d3457600080fd5b919050565b60008060408385031215610d4c57600080fd5b610d5583610d1d565b946020939093013593505050565b600080600060608486031215610d7857600080fd5b610d8184610d1d565b9250610d8f60208501610d1d565b9150604084013590509250925092565b600060208284031215610db157600080fd5b610dba82610d1d565b9392505050565b600060208284031215610dd357600080fd5b5035919050565b60008060408385031215610ded57600080fd5b610df683610d1d565b9150610e0460208401610d1d565b90509250929050565b600181811c90821680610e2157607f821691505b602082108103610e4157634e487b7160e01b600052602260045260246000fd5b50919050565b634e487b7160e01b600052604160045260246000fd5b634e487b7160e01b600052603260045260246000fd5b634e487b7160e01b600052601160045260246000fd5b600060018201610e9b57610e9b610e73565b5060010190565b808202811582820484141761060057610600610e73565b600082610ed657634e487b7160e01b600052601260045260246000fd5b500490565b8082018082111561060057610600610e7356fea2646970667358221220e5f3549ede8f6bca7f7a41e49822417915ec600ee35f5c7d1410bcec1135128c64736f6c63430008140033",
  "linkReferences": {},
  "deployedLinkReferences": {}
}