{
  "_format": "hh-sol-artifact-1",
  "contractName": "FundRaisingContract",
  "sourceName": "contracts/FundRaising.sol",
  "abi": [
    {
      "inputs": [
        {
          "internalType": "string",
          "name": "name",
          "type": "string"
        },
        {
          "internalType": "string",
          "name": "symbol",
          "type": "string"
        },
        {
          "internalType": "uint256",
          "name": "initialSupply",
          "type": "uint256"
        },
        {
          "internalType": "uint256",
          "name": "_time",
          "type": "uint256"
        }
      ],
      "stateMutability": "nonpayable",
      "type": "constructor"
    },
    {
      "inputs": [
        {
          "internalType": "address",
          "name": "spender",
          "type": "address"
        },
        {
          "internalType": "uint256",
          "name": "allowance",
          "type": "uint256"
        },
        {
          "internalType": "uint256",
          "name": "needed",
          "type": "uint256"
        }
      ],
      "name": "ERC20InsufficientAllowance",
      "type": "error"
    },
    {
      "inputs": [
        {
          "internalType": "address",
          "name": "sender",
          "type": "address"
        },
        {
          "internalType": "uint256",
          "name": "balance",
          "type": "uint256"
        },
        {
          "internalType": "uint256",
          "name": "needed",
          "type": "uint256"
        }
      ],
      "name": "ERC20InsufficientBalance",
      "type": "error"
    },
    {
      "inputs": [
        {
          "internalType": "address",
          "name": "approver",
          "type": "address"
        }
      ],
      "name": "ERC20InvalidApprover",
      "type": "error"
    },
    {
      "inputs": [
        {
          "internalType": "address",
          "name": "receiver",
          "type": "address"
        }
      ],
      "name": "ERC20InvalidReceiver",
      "type": "error"
    },
    {
      "inputs": [
        {
          "internalType": "address",
          "name": "sender",
          "type": "address"
        }
      ],
      "name": "ERC20InvalidSender",
      "type": "error"
    },
    {
      "inputs": [
        {
          "internalType": "address",
          "name": "spender",
          "type": "address"
        }
      ],
      "name": "ERC20InvalidSpender",
      "type": "error"
    },
    {
      "anonymous": false,
      "inputs": [
        {
          "indexed": true,
          "internalType": "address",
          "name": "owner",
          "type": "address"
        },
        {
          "indexed": true,
          "internalType": "address",
          "name": "spender",
          "type": "address"
        },
        {
          "indexed": false,
          "internalType": "uint256",
          "name": "value",
          "type": "uint256"
        }
      ],
      "name": "Approval",
      "type": "event"
    },
    {
      "anonymous": false,
      "inputs": [
        {
          "indexed": true,
          "internalType": "address",
          "name": "sender",
          "type": "address"
        },
        {
          "indexed": true,
          "internalType": "address",
          "name": "tokenAddress",
          "type": "address"
        },
        {
          "indexed": false,
          "internalType": "uint256",
          "name": "amount",
          "type": "uint256"
        }
      ],
      "name": "TokenReceived",
      "type": "event"
    },
    {
      "anonymous": false,
      "inputs": [
        {
          "indexed": true,
          "internalType": "address",
          "name": "from",
          "type": "address"
        },
        {
          "indexed": true,
          "internalType": "address",
          "name": "to",
          "type": "address"
        },
        {
          "indexed": false,
          "internalType": "uint256",
          "name": "value",
          "type": "uint256"
        }
      ],
      "name": "Transfer",
      "type": "event"
    },
    {
      "inputs": [
        {
          "internalType": "address",
          "name": "owner",
          "type": "address"
        },
        {
          "internalType": "address",
          "name": "spender",
          "type": "address"
        }
      ],
      "name": "allowance",
      "outputs": [
        {
          "internalType": "uint256",
          "name": "",
          "type": "uint256"
        }
      ],
      "stateMutability": "view",
      "type": "function"
    },
    {
      "inputs": [
        {
          "internalType": "address",
          "name": "spender",
          "type": "address"
        },
        {
          "internalType": "uint256",
          "name": "value",
          "type": "uint256"
        }
      ],
      "name": "approve",
      "outputs": [
        {
          "internalType": "bool",
          "name": "",
          "type": "bool"
        }
      ],
      "stateMutability": "nonpayable",
      "type": "function"
    },
    {
      "inputs": [],
      "name": "artPieceToken",
      "outputs": [
        {
          "internalType": "address",
          "name": "",
          "type": "address"
        }
      ],
      "stateMutability": "view",
      "type": "function"
    },
    {
      "inputs": [
        {
          "internalType": "address",
          "name": "account",
          "type": "address"
        }
      ],
      "name": "balanceOf",
      "outputs": [
        {
          "internalType": "uint256",
          "name": "",
          "type": "uint256"
        }
      ],
      "stateMutability": "view",
      "type": "function"
    },
    {
      "inputs": [
        {
          "internalType": "uint256",
          "name": "burnAmount",
          "type": "uint256"
        }
      ],
      "name": "burnTokens",
      "outputs": [],
      "stateMutability": "nonpayable",
      "type": "function"
    },
    {
      "inputs": [],
      "name": "decimals",
      "outputs": [
        {
          "internalType": "uint8",
          "name": "",
          "type": "uint8"
        }
      ],
      "stateMutability": "view",
      "type": "function"
    },
    {
      "inputs": [],
      "name": "distributeFund",
      "outputs": [],
      "stateMutability": "nonpayable",
      "type": "function"
    },
    {
      "inputs": [],
      "name": "finishTime",
      "outputs": [
        {
          "internalType": "uint256",
          "name": "",
          "type": "uint256"
        }
      ],
      "stateMutability": "view",
      "type": "function"
    },
    {
      "inputs": [
        {
          "internalType": "uint256",
          "name": "_tokenAmount",
          "type": "uint256"
        }
      ],
      "name": "fund",
      "outputs": [],
      "stateMutability": "nonpayable",
      "type": "function"
    },
    {
      "inputs": [
        {
          "internalType": "uint256",
          "name": "",
          "type": "uint256"
        }
      ],
      "name": "fundInfos",
      "outputs": [
        {
          "internalType": "address",
          "name": "investor",
          "type": "address"
        },
        {
          "internalType": "address",
          "name": "tokenAddress",
          "type": "address"
        },
        {
          "internalType": "uint256",
          "name": "tokenAmount",
          "type": "uint256"
        }
      ],
      "stateMutability": "view",
      "type": "function"
    },
    {
      "inputs": [],
      "name": "getAllContributor",
      "outputs": [
        {
          "internalType": "address[]",
          "name": "",
          "type": "address[]"
        }
      ],
      "stateMutability": "view",
      "type": "function"
    },
    {
      "inputs": [],
      "name": "initialSupply",
      "outputs": [
        {
          "internalType": "uint256",
          "name": "",
          "type": "uint256"
        }
      ],
      "stateMutability": "view",
      "type": "function"
    },
    {
      "inputs": [
        {
          "internalType": "uint256",
          "name": "",
          "type": "uint256"
        }
      ],
      "name": "listOfContributors",
      "outputs": [
        {
          "internalType": "address",
          "name": "",
          "type": "address"
        }
      ],
      "stateMutability": "view",
      "type": "function"
    },
    {
      "inputs": [],
      "name": "name",
      "outputs": [
        {
          "internalType": "string",
          "name": "",
          "type": "string"
        }
      ],
      "stateMutability": "view",
      "type": "function"
    },
    {
      "inputs": [
        {
          "internalType": "address",
          "name": "",
          "type": "address"
        }
      ],
      "name": "newCoins",
      "outputs": [
        {
          "internalType": "uint256",
          "name": "",
          "type": "uint256"
        }
      ],
      "stateMutability": "view",
      "type": "function"
    },
    {
      "inputs": [],
      "name": "owner",
      "outputs": [
        {
          "internalType": "address",
          "name": "",
          "type": "address"
        }
      ],
      "stateMutability": "view",
      "type": "function"
    },
    {
      "inputs": [],
      "name": "raisedAmount",
      "outputs": [
        {
          "internalType": "uint256",
          "name": "",
          "type": "uint256"
        }
      ],
      "stateMutability": "view",
      "type": "function"
    },
    {
      "inputs": [],
      "name": "refundDistribute",
      "outputs": [],
      "stateMutability": "nonpayable",
      "type": "function"
    },
    {
      "inputs": [
        {
          "internalType": "address",
          "name": "",
          "type": "address"
        }
      ],
      "name": "refunds",
      "outputs": [
        {
          "internalType": "uint256",
          "name": "",
          "type": "uint256"
        }
      ],
      "stateMutability": "view",
      "type": "function"
    },
    {
      "inputs": [],
      "name": "symbol",
      "outputs": [
        {
          "internalType": "string",
          "name": "",
          "type": "string"
        }
      ],
      "stateMutability": "view",
      "type": "function"
    },
    {
      "inputs": [
        {
          "internalType": "address",
          "name": "",
          "type": "address"
        }
      ],
      "name": "tokenContracts",
      "outputs": [
        {
          "internalType": "contract IERC20",
          "name": "",
          "type": "address"
        }
      ],
      "stateMutability": "view",
      "type": "function"
    },
    {
      "inputs": [],
      "name": "totalSupply",
      "outputs": [
        {
          "internalType": "uint256",
          "name": "",
          "type": "uint256"
        }
      ],
      "stateMutability": "view",
      "type": "function"
    },
    {
      "inputs": [
        {
          "internalType": "address",
          "name": "to",
          "type": "address"
        },
        {
          "internalType": "uint256",
          "name": "value",
          "type": "uint256"
        }
      ],
      "name": "transfer",
      "outputs": [
        {
          "internalType": "bool",
          "name": "",
          "type": "bool"
        }
      ],
      "stateMutability": "nonpayable",
      "type": "function"
    },
    {
      "inputs": [
        {
          "internalType": "address",
          "name": "from",
          "type": "address"
        },
        {
          "internalType": "address",
          "name": "to",
          "type": "address"
        },
        {
          "internalType": "uint256",
          "name": "value",
          "type": "uint256"
        }
      ],
      "name": "transferFrom",
      "outputs": [
        {
          "internalType": "bool",
          "name": "",
          "type": "bool"
        }
      ],
      "stateMutability": "nonpayable",
      "type": "function"
    },
    {
      "inputs": [
        {
          "internalType": "address",
          "name": "to",
          "type": "address"
        },
        {
          "internalType": "uint256",
          "name": "amount",
          "type": "uint256"
        }
      ],
      "name": "transferToken",
      "outputs": [],
      "stateMutability": "nonpayable",
      "type": "function"
    },
    {
      "stateMutability": "payable",
      "type": "receive"
    }
  ],
  "bytecode": "0x6080604052600f80546001600160a01b0319167339af03c99f8b82602d293737de6a0ebf5d8f48db1790553480156200003757600080fd5b50604051620017b4380380620017b48339810160408190526200005a9162000330565b838383828260036200006d838262000439565b5060046200007c828262000439565b50505080670de0b6b3a76400006200009591906200051b565b6005819055620000a7903390620000f6565b5050600680546001600160a01b03199081163017909155600a805490911633179055506000600b55620000dc81603c6200051b565b620000e890426200053b565b600c55506200055192505050565b6001600160a01b038216620001265760405163ec442f0560e01b8152600060048201526024015b60405180910390fd5b620001346000838362000138565b5050565b6001600160a01b038316620001675780600260008282546200015b91906200053b565b90915550620001db9050565b6001600160a01b03831660009081526020819052604090205481811015620001bc5760405163391434e360e21b81526001600160a01b038516600482015260248101829052604481018390526064016200011d565b6001600160a01b03841660009081526020819052604090209082900390555b6001600160a01b038216620001f95760028054829003905562000218565b6001600160a01b03821660009081526020819052604090208054820190555b816001600160a01b0316836001600160a01b03167fddf252ad1be2c89b69c2b068fc378daa952ba7f163c4a11628f55a4df523b3ef836040516200025e91815260200190565b60405180910390a3505050565b634e487b7160e01b600052604160045260246000fd5b600082601f8301126200029357600080fd5b81516001600160401b0380821115620002b057620002b06200026b565b604051601f8301601f19908116603f01168101908282118183101715620002db57620002db6200026b565b81604052838152602092508683858801011115620002f857600080fd5b600091505b838210156200031c5785820183015181830184015290820190620002fd565b600093810190920192909252949350505050565b600080600080608085870312156200034757600080fd5b84516001600160401b03808211156200035f57600080fd5b6200036d8883890162000281565b955060208701519150808211156200038457600080fd5b50620003938782880162000281565b604087015160609097015195989097509350505050565b600181811c90821680620003bf57607f821691505b602082108103620003e057634e487b7160e01b600052602260045260246000fd5b50919050565b601f8211156200043457600081815260208120601f850160051c810160208610156200040f5750805b601f850160051c820191505b8181101562000430578281556001016200041b565b5050505b505050565b81516001600160401b038111156200045557620004556200026b565b6200046d81620004668454620003aa565b84620003e6565b602080601f831160018114620004a557600084156200048c5750858301515b600019600386901b1c1916600185901b17855562000430565b600085815260208120601f198616915b82811015620004d657888601518255948401946001909101908401620004b5565b5085821015620004f55787850151600019600388901b60f8161c191681555b5050505050600190811b01905550565b634e487b7160e01b600052601160045260246000fd5b808202811582820484141762000535576200053562000505565b92915050565b8082018082111562000535576200053562000505565b61125380620005616000396000f3fe60806040526004361061016a5760003560e01c806370a08231116100d1578063a70b12f01161008a578063c59ee1dc11610064578063c59ee1dc1461048a578063ca1d209d146104a0578063dd62ed3e146104c0578063e3a6ac011461050657600080fd5b8063a70b12f0146103f7578063a9059cbb1461043d578063bc3da5351461045d57600080fd5b806370a08231146102fe5780637ea12e79146103345780638a0e495d1461036c5780638da5cb5b1461038c57806395d89b41146103ac578063984049ce146103c157600080fd5b8063244e575111610123578063244e575114610254578063313ce56714610269578063378dc3dc146102855780635958611e1461029b57806369cbbefe146102b15780636d1b229d146102de57600080fd5b806306fdde031461017657806308608d73146101a1578063095ea7b3146101c35780631072cbea146101f357806318160ddd1461021557806323b872dd1461023457600080fd5b3661017157005b600080fd5b34801561018257600080fd5b5061018b61051b565b6040516101989190610f8f565b60405180910390f35b3480156101ad57600080fd5b506101b66105ad565b6040516101989190610fdd565b3480156101cf57600080fd5b506101e36101de366004611046565b610679565b6040519015158152602001610198565b3480156101ff57600080fd5b5061021361020e366004611046565b610693565b005b34801561022157600080fd5b506002545b604051908152602001610198565b34801561024057600080fd5b506101e361024f366004611070565b6106ae565b34801561026057600080fd5b506102136106d2565b34801561027557600080fd5b5060405160128152602001610198565b34801561029157600080fd5b5061022660055481565b3480156102a757600080fd5b50610226600c5481565b3480156102bd57600080fd5b506102266102cc3660046110ac565b60086020526000908152604090205481565b3480156102ea57600080fd5b506102136102f93660046110ce565b610848565b34801561030a57600080fd5b506102266103193660046110ac565b6001600160a01b031660009081526020819052604090205490565b34801561034057600080fd5b5061035461034f3660046110ce565b610863565b6040516001600160a01b039091168152602001610198565b34801561037857600080fd5b50600654610354906001600160a01b031681565b34801561039857600080fd5b50600a54610354906001600160a01b031681565b3480156103b857600080fd5b5061018b61088d565b3480156103cd57600080fd5b506103546103dc3660046110ac565b6009602052600090815260409020546001600160a01b031681565b34801561040357600080fd5b506104176104123660046110ce565b61089c565b604080516001600160a01b03948516815293909216602084015290820152606001610198565b34801561044957600080fd5b506101e3610458366004611046565b6108dc565b34801561046957600080fd5b506102266104783660046110ac565b60076020526000908152604090205481565b34801561049657600080fd5b50610226600b5481565b3480156104ac57600080fd5b506102136104bb3660046110ce565b6108ea565b3480156104cc57600080fd5b506102266104db3660046110e7565b6001600160a01b03918216600090815260016020908152604080832093909416825291909152205490565b34801561051257600080fd5b50610213610b2a565b60606003805461052a9061111a565b80601f01602080910402602001604051908101604052809291908181526020018280546105569061111a565b80156105a35780601f10610578576101008083540402835291602001916105a3565b820191906000526020600020905b81548152906001019060200180831161058657829003601f168201915b5050505050905090565b600d5460609060008167ffffffffffffffff8111156105ce576105ce611154565b6040519080825280602002602001820160405280156105f7578160200160208202803683370190505b50905060005b8281101561067257600d81815481106106185761061861116a565b9060005260206000200160009054906101000a90046001600160a01b03168282815181106106485761064861116a565b6001600160a01b03909216602092830291909101909101528061066a81611196565b9150506105fd565b5092915050565b600033610687818585610c6c565b60019150505b92915050565b6106a98261045883670de0b6b3a76400006111af565b505050565b6000336106bc858285610c79565b6106c7858585610cf7565b506001949350505050565b600a546001600160a01b031633146107215760405162461bcd60e51b815260206004820152600d60248201526c26bab9ba1031329037bbb732b960991b60448201526064015b60405180910390fd5b600c5442116107625760405162461bcd60e51b815260206004820152600d60248201526c2737ba103a34b6b29027ab22a960991b6044820152606401610718565b600580546107719060046111af565b61077b91906111c6565b600b5410156107b75760405162461bcd60e51b8152602060048201526008602482015267139bdd0819dbd85b60c21b6044820152606401610718565b60005b600d54811015610845576000600d82815481106107d9576107d961116a565b60009182526020808320909101546001600160a01b031680835260089091526040909120549091508015610830576001600160a01b03808316600090815260086020526040812055600a5461083091168383610cf7565b5050808061083d90611196565b9150506107ba565b50565b6108453361085e83670de0b6b3a76400006111af565b610d56565b600d818154811061087357600080fd5b6000918252602090912001546001600160a01b0316905081565b60606004805461052a9061111a565b600e81815481106108ac57600080fd5b60009182526020909120600390910201805460018201546002909201546001600160a01b03918216935091169083565b600033610687818585610cf7565b600f546001600160a01b03908116600090815260096020526040902054600a549082169163095ea7b3911661092784670de0b6b3a76400006111af565b6040516001600160e01b031960e085901b1681526001600160a01b03909216600483015260248201526044016020604051808303816000875af1158015610972573d6000803e3d6000fd5b505050506040513d601f19601f8201168201806040525081019061099691906111e8565b50600f546001600160a01b03908116600090815260096020526040902054600a54908216916323b872dd913391166109d685670de0b6b3a76400006111af565b6040516001600160e01b031960e086901b1681526001600160a01b03938416600482015292909116602483015260448201526064016020604051808303816000875af1158015610a2a573d6000803e3d6000fd5b505050506040513d601f19601f82011682018060405250810190610a4e91906111e8565b50600f546040518281526001600160a01b039091169033907fa83965f0e7c5e026e57c9ba2dd91e4ebcca352f2d514498c1e9ed23ba65386009060200160405180910390a3336000908152600860205260408120549003610aec57600d80546001810182556000919091527fd7b6990105719101dabeb77144f2a3385c8033acd3af97e9423a695e81ad1eb50180546001600160a01b031916331790555b80600b6000828254610afe919061120a565b90915550503360009081526008602052604081208054839290610b2290849061120a565b909155505050565b60058054610b399060046111af565b610b4391906111c6565b600b5410610b855760405162461bcd60e51b815260206004820152600f60248201526e1c18129034b9903737ba1037bb32b960891b6044820152606401610718565b600c544211610bc15760405162461bcd60e51b81526020600482015260086024820152672737ba1037bb32b960c11b6044820152606401610718565b60005b600d54811015610845576000600d8281548110610be357610be361116a565b60009182526020808320909101546001600160a01b031680835260079091526040909120549091508015610c57576001600160a01b0382166000818152600760205260408082208290555183156108fc0291849190818181858888f19350505050158015610c55573d6000803e3d6000fd5b505b50508080610c6490611196565b915050610bc4565b6106a98383836001610d90565b6001600160a01b038381166000908152600160209081526040808320938616835292905220546000198114610cf15781811015610ce257604051637dc7a0d960e11b81526001600160a01b03841660048201526024810182905260448101839052606401610718565b610cf184848484036000610d90565b50505050565b6001600160a01b038316610d2157604051634b637e8f60e11b815260006004820152602401610718565b6001600160a01b038216610d4b5760405163ec442f0560e01b815260006004820152602401610718565b6106a9838383610e65565b6001600160a01b038216610d8057604051634b637e8f60e11b815260006004820152602401610718565b610d8c82600083610e65565b5050565b6001600160a01b038416610dba5760405163e602df0560e01b815260006004820152602401610718565b6001600160a01b038316610de457604051634a1406b160e11b815260006004820152602401610718565b6001600160a01b0380851660009081526001602090815260408083209387168352929052208290558015610cf157826001600160a01b0316846001600160a01b03167f8c5be1e5ebec7d5bd14f71427d1e84f3dd0314c0f7b2291e5b200ac8c7c3b92584604051610e5791815260200190565b60405180910390a350505050565b6001600160a01b038316610e90578060026000828254610e85919061120a565b90915550610f029050565b6001600160a01b03831660009081526020819052604090205481811015610ee35760405163391434e360e21b81526001600160a01b03851660048201526024810182905260448101839052606401610718565b6001600160a01b03841660009081526020819052604090209082900390555b6001600160a01b038216610f1e57600280548290039055610f3d565b6001600160a01b03821660009081526020819052604090208054820190555b816001600160a01b0316836001600160a01b03167fddf252ad1be2c89b69c2b068fc378daa952ba7f163c4a11628f55a4df523b3ef83604051610f8291815260200190565b60405180910390a3505050565b600060208083528351808285015260005b81811015610fbc57858101830151858201604001528201610fa0565b506000604082860101526040601f19601f8301168501019250505092915050565b6020808252825182820181905260009190848201906040850190845b8181101561101e5783516001600160a01b031683529284019291840191600101610ff9565b50909695505050505050565b80356001600160a01b038116811461104157600080fd5b919050565b6000806040838503121561105957600080fd5b6110628361102a565b946020939093013593505050565b60008060006060848603121561108557600080fd5b61108e8461102a565b925061109c6020850161102a565b9150604084013590509250925092565b6000602082840312156110be57600080fd5b6110c78261102a565b9392505050565b6000602082840312156110e057600080fd5b5035919050565b600080604083850312156110fa57600080fd5b6111038361102a565b91506111116020840161102a565b90509250929050565b600181811c9082168061112e57607f821691505b60208210810361114e57634e487b7160e01b600052602260045260246000fd5b50919050565b634e487b7160e01b600052604160045260246000fd5b634e487b7160e01b600052603260045260246000fd5b634e487b7160e01b600052601160045260246000fd5b6000600182016111a8576111a8611180565b5060010190565b808202811582820484141761068d5761068d611180565b6000826111e357634e487b7160e01b600052601260045260246000fd5b500490565b6000602082840312156111fa57600080fd5b815180151581146110c757600080fd5b8082018082111561068d5761068d61118056fea264697066735822122016a6c608d5d4f9c604dbcca316367988c5c535adf1826f88eea137a09f5d9c2064736f6c63430008140033",
  "linkReferences": {},
  "deployedLinkReferences": {}
}