{
  "_format": "hh-sol-artifact-1",
  "contractName": "FundRaisingContract",
  "sourceName": "contracts/FundRaising.sol",
  "abi": [
    {
      "inputs": [
        {
          "internalType": "string",
          "name": "name",
          "type": "string"
        },
        {
          "internalType": "string",
          "name": "symbol",
          "type": "string"
        },
        {
          "internalType": "uint256",
          "name": "initialSupply",
          "type": "uint256"
        },
        {
          "internalType": "uint256",
          "name": "_time",
          "type": "uint256"
        }
      ],
      "stateMutability": "nonpayable",
      "type": "constructor"
    },
    {
      "inputs": [
        {
          "internalType": "address",
          "name": "spender",
          "type": "address"
        },
        {
          "internalType": "uint256",
          "name": "allowance",
          "type": "uint256"
        },
        {
          "internalType": "uint256",
          "name": "needed",
          "type": "uint256"
        }
      ],
      "name": "ERC20InsufficientAllowance",
      "type": "error"
    },
    {
      "inputs": [
        {
          "internalType": "address",
          "name": "sender",
          "type": "address"
        },
        {
          "internalType": "uint256",
          "name": "balance",
          "type": "uint256"
        },
        {
          "internalType": "uint256",
          "name": "needed",
          "type": "uint256"
        }
      ],
      "name": "ERC20InsufficientBalance",
      "type": "error"
    },
    {
      "inputs": [
        {
          "internalType": "address",
          "name": "approver",
          "type": "address"
        }
      ],
      "name": "ERC20InvalidApprover",
      "type": "error"
    },
    {
      "inputs": [
        {
          "internalType": "address",
          "name": "receiver",
          "type": "address"
        }
      ],
      "name": "ERC20InvalidReceiver",
      "type": "error"
    },
    {
      "inputs": [
        {
          "internalType": "address",
          "name": "sender",
          "type": "address"
        }
      ],
      "name": "ERC20InvalidSender",
      "type": "error"
    },
    {
      "inputs": [
        {
          "internalType": "address",
          "name": "spender",
          "type": "address"
        }
      ],
      "name": "ERC20InvalidSpender",
      "type": "error"
    },
    {
      "anonymous": false,
      "inputs": [
        {
          "indexed": true,
          "internalType": "address",
          "name": "owner",
          "type": "address"
        },
        {
          "indexed": true,
          "internalType": "address",
          "name": "spender",
          "type": "address"
        },
        {
          "indexed": false,
          "internalType": "uint256",
          "name": "value",
          "type": "uint256"
        }
      ],
      "name": "Approval",
      "type": "event"
    },
    {
      "anonymous": false,
      "inputs": [
        {
          "indexed": true,
          "internalType": "address",
          "name": "sender",
          "type": "address"
        },
        {
          "indexed": true,
          "internalType": "address",
          "name": "tokenAddress",
          "type": "address"
        },
        {
          "indexed": false,
          "internalType": "uint256",
          "name": "amount",
          "type": "uint256"
        }
      ],
      "name": "TokenReceived",
      "type": "event"
    },
    {
      "anonymous": false,
      "inputs": [
        {
          "indexed": true,
          "internalType": "address",
          "name": "from",
          "type": "address"
        },
        {
          "indexed": true,
          "internalType": "address",
          "name": "to",
          "type": "address"
        },
        {
          "indexed": false,
          "internalType": "uint256",
          "name": "value",
          "type": "uint256"
        }
      ],
      "name": "Transfer",
      "type": "event"
    },
    {
      "inputs": [
        {
          "internalType": "address",
          "name": "owner",
          "type": "address"
        },
        {
          "internalType": "address",
          "name": "spender",
          "type": "address"
        }
      ],
      "name": "allowance",
      "outputs": [
        {
          "internalType": "uint256",
          "name": "",
          "type": "uint256"
        }
      ],
      "stateMutability": "view",
      "type": "function"
    },
    {
      "inputs": [
        {
          "internalType": "address",
          "name": "spender",
          "type": "address"
        },
        {
          "internalType": "uint256",
          "name": "value",
          "type": "uint256"
        }
      ],
      "name": "approve",
      "outputs": [
        {
          "internalType": "bool",
          "name": "",
          "type": "bool"
        }
      ],
      "stateMutability": "nonpayable",
      "type": "function"
    },
    {
      "inputs": [],
      "name": "artPieceToken",
      "outputs": [
        {
          "internalType": "address",
          "name": "",
          "type": "address"
        }
      ],
      "stateMutability": "view",
      "type": "function"
    },
    {
      "inputs": [],
      "name": "artTokenAddress",
      "outputs": [
        {
          "internalType": "address",
          "name": "",
          "type": "address"
        }
      ],
      "stateMutability": "view",
      "type": "function"
    },
    {
      "inputs": [
        {
          "internalType": "address",
          "name": "account",
          "type": "address"
        }
      ],
      "name": "balanceOf",
      "outputs": [
        {
          "internalType": "uint256",
          "name": "",
          "type": "uint256"
        }
      ],
      "stateMutability": "view",
      "type": "function"
    },
    {
      "inputs": [
        {
          "internalType": "uint256",
          "name": "burnAmount",
          "type": "uint256"
        }
      ],
      "name": "burnTokens",
      "outputs": [],
      "stateMutability": "nonpayable",
      "type": "function"
    },
    {
      "inputs": [],
      "name": "decimals",
      "outputs": [
        {
          "internalType": "uint8",
          "name": "",
          "type": "uint8"
        }
      ],
      "stateMutability": "view",
      "type": "function"
    },
    {
      "inputs": [],
      "name": "distributeFund",
      "outputs": [],
      "stateMutability": "nonpayable",
      "type": "function"
    },
    {
      "inputs": [],
      "name": "finishTime",
      "outputs": [
        {
          "internalType": "uint256",
          "name": "",
          "type": "uint256"
        }
      ],
      "stateMutability": "view",
      "type": "function"
    },
    {
      "inputs": [],
      "name": "getAllContributor",
      "outputs": [
        {
          "internalType": "address[]",
          "name": "",
          "type": "address[]"
        }
      ],
      "stateMutability": "view",
      "type": "function"
    },
    {
      "inputs": [],
      "name": "getInitialSupply",
      "outputs": [
        {
          "internalType": "uint256",
          "name": "",
          "type": "uint256"
        }
      ],
      "stateMutability": "view",
      "type": "function"
    },
    {
      "inputs": [],
      "name": "getRaisedAmount",
      "outputs": [
        {
          "internalType": "uint256",
          "name": "",
          "type": "uint256"
        }
      ],
      "stateMutability": "view",
      "type": "function"
    },
    {
      "inputs": [],
      "name": "initialSupply",
      "outputs": [
        {
          "internalType": "uint256",
          "name": "",
          "type": "uint256"
        }
      ],
      "stateMutability": "view",
      "type": "function"
    },
    {
      "inputs": [
        {
          "internalType": "uint256",
          "name": "",
          "type": "uint256"
        }
      ],
      "name": "listOfContributors",
      "outputs": [
        {
          "internalType": "address",
          "name": "",
          "type": "address"
        }
      ],
      "stateMutability": "view",
      "type": "function"
    },
    {
      "inputs": [],
      "name": "name",
      "outputs": [
        {
          "internalType": "string",
          "name": "",
          "type": "string"
        }
      ],
      "stateMutability": "view",
      "type": "function"
    },
    {
      "inputs": [
        {
          "internalType": "address",
          "name": "",
          "type": "address"
        }
      ],
      "name": "newCoins",
      "outputs": [
        {
          "internalType": "uint256",
          "name": "",
          "type": "uint256"
        }
      ],
      "stateMutability": "view",
      "type": "function"
    },
    {
      "inputs": [],
      "name": "owner",
      "outputs": [
        {
          "internalType": "address",
          "name": "",
          "type": "address"
        }
      ],
      "stateMutability": "view",
      "type": "function"
    },
    {
      "inputs": [],
      "name": "raisedAmount",
      "outputs": [
        {
          "internalType": "uint256",
          "name": "",
          "type": "uint256"
        }
      ],
      "stateMutability": "view",
      "type": "function"
    },
    {
      "inputs": [],
      "name": "refundContributors",
      "outputs": [],
      "stateMutability": "nonpayable",
      "type": "function"
    },
    {
      "inputs": [
        {
          "internalType": "address",
          "name": "",
          "type": "address"
        }
      ],
      "name": "refunds",
      "outputs": [
        {
          "internalType": "uint256",
          "name": "",
          "type": "uint256"
        }
      ],
      "stateMutability": "view",
      "type": "function"
    },
    {
      "inputs": [
        {
          "internalType": "address",
          "name": "_contractAddress",
          "type": "address"
        },
        {
          "internalType": "uint256",
          "name": "_totalInvested",
          "type": "uint256"
        },
        {
          "components": [
            {
              "internalType": "address",
              "name": "investor",
              "type": "address"
            },
            {
              "internalType": "uint256",
              "name": "amount",
              "type": "uint256"
            }
          ],
          "internalType": "struct FundRaisingContract.FundInfo[]",
          "name": "fundInfos",
          "type": "tuple[]"
        }
      ],
      "name": "settlement",
      "outputs": [],
      "stateMutability": "nonpayable",
      "type": "function"
    },
    {
      "inputs": [],
      "name": "symbol",
      "outputs": [
        {
          "internalType": "string",
          "name": "",
          "type": "string"
        }
      ],
      "stateMutability": "view",
      "type": "function"
    },
    {
      "inputs": [],
      "name": "totalSupply",
      "outputs": [
        {
          "internalType": "uint256",
          "name": "",
          "type": "uint256"
        }
      ],
      "stateMutability": "view",
      "type": "function"
    },
    {
      "inputs": [
        {
          "internalType": "address",
          "name": "to",
          "type": "address"
        },
        {
          "internalType": "uint256",
          "name": "value",
          "type": "uint256"
        }
      ],
      "name": "transfer",
      "outputs": [
        {
          "internalType": "bool",
          "name": "",
          "type": "bool"
        }
      ],
      "stateMutability": "nonpayable",
      "type": "function"
    },
    {
      "inputs": [
        {
          "internalType": "address",
          "name": "from",
          "type": "address"
        },
        {
          "internalType": "address",
          "name": "to",
          "type": "address"
        },
        {
          "internalType": "uint256",
          "name": "value",
          "type": "uint256"
        }
      ],
      "name": "transferFrom",
      "outputs": [
        {
          "internalType": "bool",
          "name": "",
          "type": "bool"
        }
      ],
      "stateMutability": "nonpayable",
      "type": "function"
    },
    {
      "inputs": [
        {
          "internalType": "address",
          "name": "to",
          "type": "address"
        },
        {
          "internalType": "uint256",
          "name": "amount",
          "type": "uint256"
        }
      ],
      "name": "transferToken",
      "outputs": [],
      "stateMutability": "nonpayable",
      "type": "function"
    },
    {
      "stateMutability": "payable",
      "type": "receive"
    }
  ],
  "bytecode": "0x6080604052600d80546001600160a01b03191673e5856017db7b4023383c867ea65bc178b7f023c11790553480156200003757600080fd5b50604051620019b4380380620019b48339810160408190526200005a9162000330565b838383828260036200006d838262000439565b5060046200007c828262000439565b50505080670de0b6b3a76400006200009591906200051b565b6005819055620000a7903390620000f6565b5050600680546001600160a01b031990811630179091556009805490911633179055506000600a55620000dc81603c6200051b565b620000e890426200053b565b600b55506200055192505050565b6001600160a01b038216620001265760405163ec442f0560e01b8152600060048201526024015b60405180910390fd5b620001346000838362000138565b5050565b6001600160a01b038316620001675780600260008282546200015b91906200053b565b90915550620001db9050565b6001600160a01b03831660009081526020819052604090205481811015620001bc5760405163391434e360e21b81526001600160a01b038516600482015260248101829052604481018390526064016200011d565b6001600160a01b03841660009081526020819052604090209082900390555b6001600160a01b038216620001f95760028054829003905562000218565b6001600160a01b03821660009081526020819052604090208054820190555b816001600160a01b0316836001600160a01b03167fddf252ad1be2c89b69c2b068fc378daa952ba7f163c4a11628f55a4df523b3ef836040516200025e91815260200190565b60405180910390a3505050565b634e487b7160e01b600052604160045260246000fd5b600082601f8301126200029357600080fd5b81516001600160401b0380821115620002b057620002b06200026b565b604051601f8301601f19908116603f01168101908282118183101715620002db57620002db6200026b565b81604052838152602092508683858801011115620002f857600080fd5b600091505b838210156200031c5785820183015181830184015290820190620002fd565b600093810190920192909252949350505050565b600080600080608085870312156200034757600080fd5b84516001600160401b03808211156200035f57600080fd5b6200036d8883890162000281565b955060208701519150808211156200038457600080fd5b50620003938782880162000281565b604087015160609097015195989097509350505050565b600181811c90821680620003bf57607f821691505b602082108103620003e057634e487b7160e01b600052602260045260246000fd5b50919050565b601f8211156200043457600081815260208120601f850160051c810160208610156200040f5750805b601f850160051c820191505b8181101562000430578281556001016200041b565b5050505b505050565b81516001600160401b038111156200045557620004556200026b565b6200046d81620004668454620003aa565b84620003e6565b602080601f831160018114620004a557600084156200048c5750858301515b600019600386901b1c1916600185901b17855562000430565b600085815260208120601f198616915b82811015620004d657888601518255948401946001909101908401620004b5565b5085821015620004f55787850151600019600388901b60f8161c191681555b5050505050600190811b01905550565b634e487b7160e01b600052601160045260246000fd5b808202811582820484141762000535576200053562000505565b92915050565b8082018082111562000535576200053562000505565b61145380620005616000396000f3fe6080604052600436106101855760003560e01c80636d1b229d116100d15780638e75e4821161008a578063a9059cbb11610064578063a9059cbb1461045b578063bc3da5351461047b578063c59ee1dc146104a8578063dd62ed3e146104be57600080fd5b80638e75e4821461041157806395d89b4114610426578063a45ac5ff1461043b57600080fd5b80636d1b229d1461032e57806370a082311461034e5780637ea12e791461038457806381a4a6d8146103bc5780638a0e495d146103d15780638da5cb5b146103f157600080fd5b806323b872dd1161013e578063378dc3dc11610118578063378dc3dc146102c057806356c7f461146102d65780635958611e146102eb57806369cbbefe1461030157600080fd5b806323b872dd1461026f578063244e57511461028f578063313ce567146102a457600080fd5b806306fdde031461019157806308608d73146101bc578063095ea7b3146101de5780631072cbea1461020e57806318160ddd14610230578063238179a71461024f57600080fd5b3661018c57005b600080fd5b34801561019d57600080fd5b506101a6610504565b6040516101b39190610fec565b60405180910390f35b3480156101c857600080fd5b506101d1610596565b6040516101b3919061103a565b3480156101ea57600080fd5b506101fe6101f93660046110a3565b610662565b60405190151581526020016101b3565b34801561021a57600080fd5b5061022e6102293660046110a3565b61067c565b005b34801561023c57600080fd5b506002545b6040519081526020016101b3565b34801561025b57600080fd5b5061022e61026a36600461113d565b610697565b34801561027b57600080fd5b506101fe61028a36600461122c565b610798565b34801561029b57600080fd5b5061022e6107bc565b3480156102b057600080fd5b50604051601281526020016101b3565b3480156102cc57600080fd5b5061024160055481565b3480156102e257600080fd5b5061022e610a73565b3480156102f757600080fd5b50610241600b5481565b34801561030d57600080fd5b5061024161031c366004611268565b60086020526000908152604090205481565b34801561033a57600080fd5b5061022e61034936600461128a565b610c68565b34801561035a57600080fd5b50610241610369366004611268565b6001600160a01b031660009081526020819052604090205490565b34801561039057600080fd5b506103a461039f36600461128a565b610c86565b6040516001600160a01b0390911681526020016101b3565b3480156103c857600080fd5b50600554610241565b3480156103dd57600080fd5b506006546103a4906001600160a01b031681565b3480156103fd57600080fd5b506009546103a4906001600160a01b031681565b34801561041d57600080fd5b50600a54610241565b34801561043257600080fd5b506101a6610cb0565b34801561044757600080fd5b50600d546103a4906001600160a01b031681565b34801561046757600080fd5b506101fe6104763660046110a3565b610cbf565b34801561048757600080fd5b50610241610496366004611268565b60076020526000908152604090205481565b3480156104b457600080fd5b50610241600a5481565b3480156104ca57600080fd5b506102416104d93660046112a3565b6001600160a01b03918216600090815260016020908152604080832093909416825291909152205490565b606060038054610513906112d6565b80601f016020809104026020016040519081016040528092919081815260200182805461053f906112d6565b801561058c5780601f106105615761010080835404028352916020019161058c565b820191906000526020600020905b81548152906001019060200180831161056f57829003601f168201915b5050505050905090565b600c5460609060008167ffffffffffffffff8111156105b7576105b76110cd565b6040519080825280602002602001820160405280156105e0578160200160208202803683370190505b50905060005b8281101561065b57600c818154811061060157610601611310565b9060005260206000200160009054906101000a90046001600160a01b031682828151811061063157610631611310565b6001600160a01b0390921660209283029190910190910152806106538161133c565b9150506105e6565b5092915050565b600033610670818585610ccd565b60019150505b92915050565b6106928261047683670de0b6b3a7640000611355565b505050565b600d546001600160a01b03168360005b835181101561079057826001600160a01b031663a9059cbb8583815181106106d1576106d1611310565b6020026020010151600001518684815181106106ef576106ef611310565b602002602001015160200151670de0b6b3a764000061070e9190611355565b6040516001600160e01b031960e085901b1681526001600160a01b03909216600483015260248201526044016020604051808303816000875af1158015610759573d6000803e3d6000fd5b505050506040513d601f19601f8201168201806040525081019061077d919061136c565b50806107888161133c565b9150506106a7565b505050505050565b6000336107a6858285610cda565b6107b1858585610d58565b506001949350505050565b6009546001600160a01b031633146107ef5760405162461bcd60e51b81526004016107e69061138e565b60405180910390fd5b600b5442116108405760405162461bcd60e51b815260206004820152601b60248201527f46756e6472616973696e67206973206e6f74206f76657220796574000000000060448201526064016107e6565b6005805461084f906004611355565b61085991906113cf565b600a5410156108aa5760405162461bcd60e51b815260206004820152601c60248201527f46756e6472616973696e6720676f616c206e6f7420726561636865640000000060448201526064016107e6565b600d546040516370a0823160e01b81523060048201526001600160a01b039091169060009082906370a0823190602401602060405180830381865afa1580156108f7573d6000803e3d6000fd5b505050506040513d601f19601f8201168201806040525081019061091b91906113f1565b90506000811161096d5760405162461bcd60e51b815260206004820152601b60248201527f4e6f2041525420746f6b656e7320746f2064697374726962757465000000000060448201526064016107e6565b60095460405163a9059cbb60e01b81526001600160a01b039182166004820152602481018390529083169063a9059cbb906044016020604051808303816000875af11580156109c0573d6000803e3d6000fd5b505050506040513d601f19601f820116820180604052508101906109e4919061136c565b5060005b600c54811015610692576000600c8281548110610a0757610a07611310565b60009182526020808320909101546001600160a01b031680835260089091526040909120549091508015610a5e576001600160a01b03808316600090815260086020526040812055600954610a5e91168383610d58565b50508080610a6b9061133c565b9150506109e8565b6009546001600160a01b03163314610a9d5760405162461bcd60e51b81526004016107e69061138e565b600b544211610aee5760405162461bcd60e51b815260206004820152601b60248201527f46756e6472616973696e67206973206e6f74206f76657220796574000000000060448201526064016107e6565b60058054610afd906004611355565b610b0791906113cf565b600a5410610b655760405162461bcd60e51b815260206004820152602560248201527f3830252066756e6472616973696e6720676f616c20686173206265656e2072656044820152641858da195960da1b60648201526084016107e6565b600d546001600160a01b031660005b600c54811015610c64576000600c8281548110610b9357610b93611310565b60009182526020808320909101546001600160a01b031680835260079091526040909120549091508015610c4f5760405163a9059cbb60e01b81526001600160a01b0383811660048301526024820183905285169063a9059cbb906044016020604051808303816000875af1158015610c10573d6000803e3d6000fd5b505050506040513d601f19601f82011682018060405250810190610c34919061136c565b506001600160a01b0382166000908152600760205260408120555b50508080610c5c9061133c565b915050610b74565b5050565b610c8333610c7e83670de0b6b3a7640000611355565b610db7565b50565b600c8181548110610c9657600080fd5b6000918252602090912001546001600160a01b0316905081565b606060048054610513906112d6565b600033610670818585610d58565b6106928383836001610ded565b6001600160a01b038381166000908152600160209081526040808320938616835292905220546000198114610d525781811015610d4357604051637dc7a0d960e11b81526001600160a01b038416600482015260248101829052604481018390526064016107e6565b610d5284848484036000610ded565b50505050565b6001600160a01b038316610d8257604051634b637e8f60e11b8152600060048201526024016107e6565b6001600160a01b038216610dac5760405163ec442f0560e01b8152600060048201526024016107e6565b610692838383610ec2565b6001600160a01b038216610de157604051634b637e8f60e11b8152600060048201526024016107e6565b610c6482600083610ec2565b6001600160a01b038416610e175760405163e602df0560e01b8152600060048201526024016107e6565b6001600160a01b038316610e4157604051634a1406b160e11b8152600060048201526024016107e6565b6001600160a01b0380851660009081526001602090815260408083209387168352929052208290558015610d5257826001600160a01b0316846001600160a01b03167f8c5be1e5ebec7d5bd14f71427d1e84f3dd0314c0f7b2291e5b200ac8c7c3b92584604051610eb491815260200190565b60405180910390a350505050565b6001600160a01b038316610eed578060026000828254610ee2919061140a565b90915550610f5f9050565b6001600160a01b03831660009081526020819052604090205481811015610f405760405163391434e360e21b81526001600160a01b038516600482015260248101829052604481018390526064016107e6565b6001600160a01b03841660009081526020819052604090209082900390555b6001600160a01b038216610f7b57600280548290039055610f9a565b6001600160a01b03821660009081526020819052604090208054820190555b816001600160a01b0316836001600160a01b03167fddf252ad1be2c89b69c2b068fc378daa952ba7f163c4a11628f55a4df523b3ef83604051610fdf91815260200190565b60405180910390a3505050565b600060208083528351808285015260005b8181101561101957858101830151858201604001528201610ffd565b506000604082860101526040601f19601f8301168501019250505092915050565b6020808252825182820181905260009190848201906040850190845b8181101561107b5783516001600160a01b031683529284019291840191600101611056565b50909695505050505050565b80356001600160a01b038116811461109e57600080fd5b919050565b600080604083850312156110b657600080fd5b6110bf83611087565b946020939093013593505050565b634e487b7160e01b600052604160045260246000fd5b6040805190810167ffffffffffffffff81118282101715611106576111066110cd565b60405290565b604051601f8201601f1916810167ffffffffffffffff81118282101715611135576111356110cd565b604052919050565b60008060006060848603121561115257600080fd5b61115b84611087565b9250602080850135925060408086013567ffffffffffffffff8082111561118157600080fd5b818801915088601f83011261119557600080fd5b8135818111156111a7576111a76110cd565b6111b5858260051b0161110c565b818152858101925060069190911b83018501908a8211156111d557600080fd5b928501925b8184101561121c5784848c0312156111f25760008081fd5b6111fa6110e3565b61120385611087565b81528487013587820152835292840192918501916111da565b8096505050505050509250925092565b60008060006060848603121561124157600080fd5b61124a84611087565b925061125860208501611087565b9150604084013590509250925092565b60006020828403121561127a57600080fd5b61128382611087565b9392505050565b60006020828403121561129c57600080fd5b5035919050565b600080604083850312156112b657600080fd5b6112bf83611087565b91506112cd60208401611087565b90509250929050565b600181811c908216806112ea57607f821691505b60208210810361130a57634e487b7160e01b600052602260045260246000fd5b50919050565b634e487b7160e01b600052603260045260246000fd5b634e487b7160e01b600052601160045260246000fd5b60006001820161134e5761134e611326565b5060010190565b808202811582820484141761067657610676611326565b60006020828403121561137e57600080fd5b8151801515811461128357600080fd5b60208082526021908201527f4f6e6c79206f776e65722063616e2063616c6c20746869732066756e6374696f6040820152603760f91b606082015260800190565b6000826113ec57634e487b7160e01b600052601260045260246000fd5b500490565b60006020828403121561140357600080fd5b5051919050565b808201808211156106765761067661132656fea2646970667358221220291fff8180020baa67b7f8e942a6a8b846f7f5481d862e181fc13a1b5a33520d64736f6c63430008140033",
  "linkReferences": {},
  "deployedLinkReferences": {}
}