{
  "_format": "hh-sol-artifact-1",
  "contractName": "InitializeBankContract",
  "sourceName": "contracts/InitializeBank.sol",
  "abi": [
    {
      "inputs": [
        {
          "internalType": "address payable",
          "name": "recipient",
          "type": "address"
        }
      ],
      "name": "sendEther",
      "outputs": [],
      "stateMutability": "payable",
      "type": "function"
    }
  ],
  "bytecode": "0x608060405234801561001057600080fd5b50610127806100206000396000f3fe608060405260043610601c5760003560e01c806348c981e2146021575b600080fd5b6030602c36600460c3565b6032565b005b34662386f26fc1000014608b5760405162461bcd60e51b815260206004820152601a60248201527f4d7573742073656e642065786163746c7920302e303120455448000000000000604482015260640160405180910390fd5b6040516001600160a01b038216903480156108fc02916000818181858888f1935050505015801560bf573d6000803e3d6000fd5b5050565b60006020828403121560d457600080fd5b81356001600160a01b038116811460ea57600080fd5b939250505056fea26469706673582212200e5af276861471e69e3265181cdf0f9ca39f364482fe2a4c91ce9db89f870edf64736f6c63430008140033",
  "linkReferences": {},
  "deployedLinkReferences": {}
}