{
  "_format": "hh-sol-artifact-1",
  "contractName": "ReceiveArtCoinContract",
  "sourceName": "contracts/ReceiveArtCoin.sol",
  "abi": [
    {
      "inputs": [
        {
          "internalType": "string",
          "name": "name",
          "type": "string"
        },
        {
          "internalType": "string",
          "name": "symbol",
          "type": "string"
        },
        {
          "internalType": "uint256",
          "name": "_initialSupply",
          "type": "uint256"
        },
        {
          "internalType": "uint256",
          "name": "_time",
          "type": "uint256"
        }
      ],
      "stateMutability": "nonpayable",
      "type": "constructor"
    },
    {
      "inputs": [
        {
          "internalType": "address",
          "name": "spender",
          "type": "address"
        },
        {
          "internalType": "uint256",
          "name": "allowance",
          "type": "uint256"
        },
        {
          "internalType": "uint256",
          "name": "needed",
          "type": "uint256"
        }
      ],
      "name": "ERC20InsufficientAllowance",
      "type": "error"
    },
    {
      "inputs": [
        {
          "internalType": "address",
          "name": "sender",
          "type": "address"
        },
        {
          "internalType": "uint256",
          "name": "balance",
          "type": "uint256"
        },
        {
          "internalType": "uint256",
          "name": "needed",
          "type": "uint256"
        }
      ],
      "name": "ERC20InsufficientBalance",
      "type": "error"
    },
    {
      "inputs": [
        {
          "internalType": "address",
          "name": "approver",
          "type": "address"
        }
      ],
      "name": "ERC20InvalidApprover",
      "type": "error"
    },
    {
      "inputs": [
        {
          "internalType": "address",
          "name": "receiver",
          "type": "address"
        }
      ],
      "name": "ERC20InvalidReceiver",
      "type": "error"
    },
    {
      "inputs": [
        {
          "internalType": "address",
          "name": "sender",
          "type": "address"
        }
      ],
      "name": "ERC20InvalidSender",
      "type": "error"
    },
    {
      "inputs": [
        {
          "internalType": "address",
          "name": "spender",
          "type": "address"
        }
      ],
      "name": "ERC20InvalidSpender",
      "type": "error"
    },
    {
      "anonymous": false,
      "inputs": [
        {
          "indexed": true,
          "internalType": "address",
          "name": "owner",
          "type": "address"
        },
        {
          "indexed": true,
          "internalType": "address",
          "name": "spender",
          "type": "address"
        },
        {
          "indexed": false,
          "internalType": "uint256",
          "name": "value",
          "type": "uint256"
        }
      ],
      "name": "Approval",
      "type": "event"
    },
    {
      "anonymous": false,
      "inputs": [
        {
          "indexed": true,
          "internalType": "address",
          "name": "_from",
          "type": "address"
        },
        {
          "indexed": false,
          "internalType": "uint256",
          "name": "_amount",
          "type": "uint256"
        }
      ],
      "name": "NewCoinsUpdated",
      "type": "event"
    },
    {
      "anonymous": false,
      "inputs": [
        {
          "indexed": true,
          "internalType": "address",
          "name": "sender",
          "type": "address"
        },
        {
          "indexed": true,
          "internalType": "address",
          "name": "tokenAddress",
          "type": "address"
        },
        {
          "indexed": false,
          "internalType": "uint256",
          "name": "amount",
          "type": "uint256"
        }
      ],
      "name": "TokenReceived",
      "type": "event"
    },
    {
      "anonymous": false,
      "inputs": [
        {
          "indexed": true,
          "internalType": "address",
          "name": "from",
          "type": "address"
        },
        {
          "indexed": true,
          "internalType": "address",
          "name": "to",
          "type": "address"
        },
        {
          "indexed": false,
          "internalType": "uint256",
          "name": "value",
          "type": "uint256"
        }
      ],
      "name": "Transfer",
      "type": "event"
    },
    {
      "inputs": [
        {
          "internalType": "address",
          "name": "owner",
          "type": "address"
        },
        {
          "internalType": "address",
          "name": "spender",
          "type": "address"
        }
      ],
      "name": "allowance",
      "outputs": [
        {
          "internalType": "uint256",
          "name": "",
          "type": "uint256"
        }
      ],
      "stateMutability": "view",
      "type": "function"
    },
    {
      "inputs": [
        {
          "internalType": "address",
          "name": "spender",
          "type": "address"
        },
        {
          "internalType": "uint256",
          "name": "value",
          "type": "uint256"
        }
      ],
      "name": "approve",
      "outputs": [
        {
          "internalType": "bool",
          "name": "",
          "type": "bool"
        }
      ],
      "stateMutability": "nonpayable",
      "type": "function"
    },
    {
      "inputs": [],
      "name": "artPieceToken",
      "outputs": [
        {
          "internalType": "address",
          "name": "",
          "type": "address"
        }
      ],
      "stateMutability": "view",
      "type": "function"
    },
    {
      "inputs": [
        {
          "internalType": "address",
          "name": "account",
          "type": "address"
        }
      ],
      "name": "balanceOf",
      "outputs": [
        {
          "internalType": "uint256",
          "name": "",
          "type": "uint256"
        }
      ],
      "stateMutability": "view",
      "type": "function"
    },
    {
      "inputs": [
        {
          "internalType": "uint256",
          "name": "burnAmount",
          "type": "uint256"
        }
      ],
      "name": "burnTokens",
      "outputs": [],
      "stateMutability": "nonpayable",
      "type": "function"
    },
    {
      "inputs": [],
      "name": "decimals",
      "outputs": [
        {
          "internalType": "uint8",
          "name": "",
          "type": "uint8"
        }
      ],
      "stateMutability": "view",
      "type": "function"
    },
    {
      "inputs": [],
      "name": "distributeFund",
      "outputs": [],
      "stateMutability": "nonpayable",
      "type": "function"
    },
    {
      "inputs": [],
      "name": "finishTime",
      "outputs": [
        {
          "internalType": "uint256",
          "name": "",
          "type": "uint256"
        }
      ],
      "stateMutability": "view",
      "type": "function"
    },
    {
      "inputs": [
        {
          "internalType": "uint256",
          "name": "_tokenAmount",
          "type": "uint256"
        }
      ],
      "name": "fund",
      "outputs": [],
      "stateMutability": "nonpayable",
      "type": "function"
    },
    {
      "inputs": [
        {
          "internalType": "uint256",
          "name": "",
          "type": "uint256"
        }
      ],
      "name": "fundInfos",
      "outputs": [
        {
          "internalType": "address",
          "name": "investor",
          "type": "address"
        },
        {
          "internalType": "address",
          "name": "tokenAddress",
          "type": "address"
        },
        {
          "internalType": "uint256",
          "name": "tokenAmount",
          "type": "uint256"
        }
      ],
      "stateMutability": "view",
      "type": "function"
    },
    {
      "inputs": [
        {
          "internalType": "uint256",
          "name": "_amount",
          "type": "uint256"
        }
      ],
      "name": "fundToken",
      "outputs": [],
      "stateMutability": "nonpayable",
      "type": "function"
    },
    {
      "inputs": [],
      "name": "fundingToken",
      "outputs": [
        {
          "internalType": "contract IERC20",
          "name": "",
          "type": "address"
        }
      ],
      "stateMutability": "view",
      "type": "function"
    },
    {
      "inputs": [],
      "name": "getAllContributor",
      "outputs": [
        {
          "internalType": "address[]",
          "name": "",
          "type": "address[]"
        }
      ],
      "stateMutability": "view",
      "type": "function"
    },
    {
      "inputs": [],
      "name": "initialSupply",
      "outputs": [
        {
          "internalType": "uint256",
          "name": "",
          "type": "uint256"
        }
      ],
      "stateMutability": "view",
      "type": "function"
    },
    {
      "inputs": [
        {
          "internalType": "uint256",
          "name": "",
          "type": "uint256"
        }
      ],
      "name": "listOfContributors",
      "outputs": [
        {
          "internalType": "address",
          "name": "",
          "type": "address"
        }
      ],
      "stateMutability": "view",
      "type": "function"
    },
    {
      "inputs": [],
      "name": "mainWalletaddress",
      "outputs": [
        {
          "internalType": "address",
          "name": "",
          "type": "address"
        }
      ],
      "stateMutability": "view",
      "type": "function"
    },
    {
      "inputs": [],
      "name": "name",
      "outputs": [
        {
          "internalType": "string",
          "name": "",
          "type": "string"
        }
      ],
      "stateMutability": "view",
      "type": "function"
    },
    {
      "inputs": [
        {
          "internalType": "address",
          "name": "",
          "type": "address"
        }
      ],
      "name": "newCoins",
      "outputs": [
        {
          "internalType": "uint256",
          "name": "",
          "type": "uint256"
        }
      ],
      "stateMutability": "view",
      "type": "function"
    },
    {
      "inputs": [],
      "name": "owner",
      "outputs": [
        {
          "internalType": "address",
          "name": "",
          "type": "address"
        }
      ],
      "stateMutability": "view",
      "type": "function"
    },
    {
      "inputs": [],
      "name": "raisedAmount",
      "outputs": [
        {
          "internalType": "uint256",
          "name": "",
          "type": "uint256"
        }
      ],
      "stateMutability": "view",
      "type": "function"
    },
    {
      "inputs": [],
      "name": "refundDistribute",
      "outputs": [],
      "stateMutability": "nonpayable",
      "type": "function"
    },
    {
      "inputs": [
        {
          "internalType": "address",
          "name": "",
          "type": "address"
        }
      ],
      "name": "refunds",
      "outputs": [
        {
          "internalType": "uint256",
          "name": "",
          "type": "uint256"
        }
      ],
      "stateMutability": "view",
      "type": "function"
    },
    {
      "inputs": [],
      "name": "symbol",
      "outputs": [
        {
          "internalType": "string",
          "name": "",
          "type": "string"
        }
      ],
      "stateMutability": "view",
      "type": "function"
    },
    {
      "inputs": [],
      "name": "totalSupply",
      "outputs": [
        {
          "internalType": "uint256",
          "name": "",
          "type": "uint256"
        }
      ],
      "stateMutability": "view",
      "type": "function"
    },
    {
      "inputs": [
        {
          "internalType": "address",
          "name": "to",
          "type": "address"
        },
        {
          "internalType": "uint256",
          "name": "value",
          "type": "uint256"
        }
      ],
      "name": "transfer",
      "outputs": [
        {
          "internalType": "bool",
          "name": "",
          "type": "bool"
        }
      ],
      "stateMutability": "nonpayable",
      "type": "function"
    },
    {
      "inputs": [
        {
          "internalType": "address",
          "name": "from",
          "type": "address"
        },
        {
          "internalType": "address",
          "name": "to",
          "type": "address"
        },
        {
          "internalType": "uint256",
          "name": "value",
          "type": "uint256"
        }
      ],
      "name": "transferFrom",
      "outputs": [
        {
          "internalType": "bool",
          "name": "",
          "type": "bool"
        }
      ],
      "stateMutability": "nonpayable",
      "type": "function"
    },
    {
      "inputs": [
        {
          "internalType": "address",
          "name": "to",
          "type": "address"
        },
        {
          "internalType": "uint256",
          "name": "amount",
          "type": "uint256"
        }
      ],
      "name": "transferToken",
      "outputs": [],
      "stateMutability": "nonpayable",
      "type": "function"
    },
    {
      "stateMutability": "payable",
      "type": "receive"
    }
  ],
  "bytecode": "0x6080604052600e80546001600160a01b0319167339af03c99f8b82602d293737de6a0ebf5d8f48db1790553480156200003757600080fd5b506040516200198b3803806200198b8339810160408190526200005a9162000380565b838383838383838282600362000071838262000489565b50600462000080828262000489565b50505080670de0b6b3a76400006200009991906200056b565b6005819055620000ab90339062000146565b5050600680546001600160a01b031990811630179091556009805490911633179055506000600a55620000e081603c6200056b565b620000ec90426200058b565b600b555050601080546001600160a01b031990811673dabd9681c6fa9c2675f883fb67a1485038087dd317909155600f80549091167339af03c99f8b82602d293737de6a0ebf5d8f48db17905550620005a1945050505050565b6001600160a01b038216620001765760405163ec442f0560e01b8152600060048201526024015b60405180910390fd5b620001846000838362000188565b5050565b6001600160a01b038316620001b7578060026000828254620001ab91906200058b565b909155506200022b9050565b6001600160a01b038316600090815260208190526040902054818110156200020c5760405163391434e360e21b81526001600160a01b038516600482015260248101829052604481018390526064016200016d565b6001600160a01b03841660009081526020819052604090209082900390555b6001600160a01b038216620002495760028054829003905562000268565b6001600160a01b03821660009081526020819052604090208054820190555b816001600160a01b0316836001600160a01b03167fddf252ad1be2c89b69c2b068fc378daa952ba7f163c4a11628f55a4df523b3ef83604051620002ae91815260200190565b60405180910390a3505050565b634e487b7160e01b600052604160045260246000fd5b600082601f830112620002e357600080fd5b81516001600160401b0380821115620003005762000300620002bb565b604051601f8301601f19908116603f011681019082821181831017156200032b576200032b620002bb565b816040528381526020925086838588010111156200034857600080fd5b600091505b838210156200036c57858201830151818301840152908201906200034d565b600093810190920192909252949350505050565b600080600080608085870312156200039757600080fd5b84516001600160401b0380821115620003af57600080fd5b620003bd88838901620002d1565b95506020870151915080821115620003d457600080fd5b50620003e387828801620002d1565b604087015160609097015195989097509350505050565b600181811c908216806200040f57607f821691505b6020821081036200043057634e487b7160e01b600052602260045260246000fd5b50919050565b601f8211156200048457600081815260208120601f850160051c810160208610156200045f5750805b601f850160051c820191505b8181101562000480578281556001016200046b565b5050505b505050565b81516001600160401b03811115620004a557620004a5620002bb565b620004bd81620004b68454620003fa565b8462000436565b602080601f831160018114620004f55760008415620004dc5750858301515b600019600386901b1c1916600185901b17855562000480565b600085815260208120601f198616915b82811015620005265788860151825594840194600190910190840162000505565b5085821015620005455787850151600019600388901b60f8161c191681555b5050505050600190811b01905550565b634e487b7160e01b600052601160045260246000fd5b808202811582820484141762000585576200058562000555565b92915050565b8082018082111562000585576200058562000555565b6113da80620005b16000396000f3fe6080604052600436106101a05760003560e01c806370a08231116100ec578063a70b12f01161008a578063c59ee1dc11610064578063c59ee1dc146104ea578063ca1d209d14610500578063dd62ed3e14610520578063e3a6ac011461056657600080fd5b8063a70b12f014610457578063a9059cbb1461049d578063bc3da535146104bd57600080fd5b80638a0e495d116100c65780638a0e495d146103e25780638da5cb5b1461040257806395d89b4114610422578063a1fa3bad1461043757600080fd5b806370a082311461035457806378065f271461038a5780637ea12e79146103c257600080fd5b8063244e575111610159578063419cd5e611610133578063419cd5e6146102d15780635958611e146102f157806369cbbefe146103075780636d1b229d1461033457600080fd5b8063244e57511461028a578063313ce5671461029f578063378dc3dc146102bb57600080fd5b806306fdde03146101ac57806308608d73146101d7578063095ea7b3146101f95780631072cbea1461022957806318160ddd1461024b57806323b872dd1461026a57600080fd5b366101a757005b600080fd5b3480156101b857600080fd5b506101c161057b565b6040516101ce9190611116565b60405180910390f35b3480156101e357600080fd5b506101ec61060d565b6040516101ce9190611164565b34801561020557600080fd5b506102196102143660046111cd565b6106d9565b60405190151581526020016101ce565b34801561023557600080fd5b506102496102443660046111cd565b6106f3565b005b34801561025757600080fd5b506002545b6040519081526020016101ce565b34801561027657600080fd5b506102196102853660046111f7565b61070e565b34801561029657600080fd5b50610249610732565b3480156102ab57600080fd5b50604051601281526020016101ce565b3480156102c757600080fd5b5061025c60055481565b3480156102dd57600080fd5b506102496102ec366004611233565b6108a8565b3480156102fd57600080fd5b5061025c600b5481565b34801561031357600080fd5b5061025c61032236600461124c565b60086020526000908152604090205481565b34801561034057600080fd5b5061024961034f366004611233565b610b78565b34801561036057600080fd5b5061025c61036f36600461124c565b6001600160a01b031660009081526020819052604090205490565b34801561039657600080fd5b50600f546103aa906001600160a01b031681565b6040516001600160a01b0390911681526020016101ce565b3480156103ce57600080fd5b506103aa6103dd366004611233565b610b93565b3480156103ee57600080fd5b506006546103aa906001600160a01b031681565b34801561040e57600080fd5b506009546103aa906001600160a01b031681565b34801561042e57600080fd5b506101c1610bbd565b34801561044357600080fd5b506010546103aa906001600160a01b031681565b34801561046357600080fd5b50610477610472366004611233565b610bcc565b604080516001600160a01b039485168152939092166020840152908201526060016101ce565b3480156104a957600080fd5b506102196104b83660046111cd565b610c0c565b3480156104c957600080fd5b5061025c6104d836600461124c565b60076020526000908152604090205481565b3480156104f657600080fd5b5061025c600a5481565b34801561050c57600080fd5b5061024961051b366004611233565b610c1a565b34801561052c57600080fd5b5061025c61053b36600461126e565b6001600160a01b03918216600090815260016020908152604080832093909416825291909152205490565b34801561057257600080fd5b50610249610cb1565b60606003805461058a906112a1565b80601f01602080910402602001604051908101604052809291908181526020018280546105b6906112a1565b80156106035780601f106105d857610100808354040283529160200191610603565b820191906000526020600020905b8154815290600101906020018083116105e657829003601f168201915b5050505050905090565b600c5460609060008167ffffffffffffffff81111561062e5761062e6112db565b604051908082528060200260200182016040528015610657578160200160208202803683370190505b50905060005b828110156106d257600c8181548110610678576106786112f1565b9060005260206000200160009054906101000a90046001600160a01b03168282815181106106a8576106a86112f1565b6001600160a01b0390921660209283029190910190910152806106ca8161131d565b91505061065d565b5092915050565b6000336106e7818585610df3565b60019150505b92915050565b610709826104b883670de0b6b3a7640000611336565b505050565b60003361071c858285610e00565b610727858585610e7e565b506001949350505050565b6009546001600160a01b031633146107815760405162461bcd60e51b815260206004820152600d60248201526c26bab9ba1031329037bbb732b960991b60448201526064015b60405180910390fd5b600b5442116107c25760405162461bcd60e51b815260206004820152600d60248201526c2737ba103a34b6b29027ab22a960991b6044820152606401610778565b600580546107d1906004611336565b6107db919061134d565b600a5410156108175760405162461bcd60e51b8152602060048201526008602482015267139bdd0819dbd85b60c21b6044820152606401610778565b60005b600c548110156108a5576000600c8281548110610839576108396112f1565b60009182526020808320909101546001600160a01b031680835260089091526040909120549091508015610890576001600160a01b0380831660009081526008602052604081205560095461089091168383610e7e565b5050808061089d9061131d565b91505061081a565b50565b600b5442106108e55760405162461bcd60e51b81526020600482015260096024820152682a34b6b29027bb32b960b91b6044820152606401610778565b6000811161094c5760405162461bcd60e51b815260206004820152602e60248201527f596f75206e65656420746f20646f6e617465206120706f73697469766520616d60448201526d6f756e74206f6620746f6b656e7360901b6064820152608401610778565b600554600a5461095c908361136f565b11156109a35760405162461bcd60e51b81526020600482015260166024820152754578636565647320696e697469616c20737570706c7960501b6044820152606401610778565b600f546010546000916001600160a01b03908116916323b872dd913391166109d386670de0b6b3a7640000611336565b6040516001600160e01b031960e086901b1681526001600160a01b03938416600482015292909116602483015260448201526064016020604051808303816000875af1158015610a27573d6000803e3d6000fd5b505050506040513d601f19601f82011682018060405250810190610a4b9190611382565b905080610a925760405162461bcd60e51b8152602060048201526015602482015274151bdad95b881d1c985b9cd9995c8819985a5b1959605a1b6044820152606401610778565b81600a6000828254610aa4919061136f565b90915550503360009081526008602052604081208054849290610ac890849061136f565b90915550503360009081526011602052604090205460ff16610b3f57600c805460018181019092557fdf6966c971051c3d54ec59162606531493a51404a002842f56009d7e5cf4a8c70180546001600160a01b031916339081179091556000908152601160205260409020805460ff191690911790555b60405182815233907fd37abe1e85060e55cb236652dcf2008106e4892d0c749839671c26448a8eeb069060200160405180910390a25050565b6108a533610b8e83670de0b6b3a7640000611336565b610edd565b600c8181548110610ba357600080fd5b6000918252602090912001546001600160a01b0316905081565b60606004805461058a906112a1565b600d8181548110610bdc57600080fd5b60009182526020909120600390910201805460018201546002909201546001600160a01b03918216935091169083565b6000336106e7818585610e7e565b336000908152600860205260408120549003610c7357600c80546001810182556000919091527fdf6966c971051c3d54ec59162606531493a51404a002842f56009d7e5cf4a8c70180546001600160a01b031916331790555b80600a6000828254610c85919061136f565b90915550503360009081526008602052604081208054839290610ca990849061136f565b909155505050565b60058054610cc0906004611336565b610cca919061134d565b600a5410610d0c5760405162461bcd60e51b815260206004820152600f60248201526e1c18129034b9903737ba1037bb32b960891b6044820152606401610778565b600b544211610d485760405162461bcd60e51b81526020600482015260086024820152672737ba1037bb32b960c11b6044820152606401610778565b60005b600c548110156108a5576000600c8281548110610d6a57610d6a6112f1565b60009182526020808320909101546001600160a01b031680835260079091526040909120549091508015610dde576001600160a01b0382166000818152600760205260408082208290555183156108fc0291849190818181858888f19350505050158015610ddc573d6000803e3d6000fd5b505b50508080610deb9061131d565b915050610d4b565b6107098383836001610f17565b6001600160a01b038381166000908152600160209081526040808320938616835292905220546000198114610e785781811015610e6957604051637dc7a0d960e11b81526001600160a01b03841660048201526024810182905260448101839052606401610778565b610e7884848484036000610f17565b50505050565b6001600160a01b038316610ea857604051634b637e8f60e11b815260006004820152602401610778565b6001600160a01b038216610ed25760405163ec442f0560e01b815260006004820152602401610778565b610709838383610fec565b6001600160a01b038216610f0757604051634b637e8f60e11b815260006004820152602401610778565b610f1382600083610fec565b5050565b6001600160a01b038416610f415760405163e602df0560e01b815260006004820152602401610778565b6001600160a01b038316610f6b57604051634a1406b160e11b815260006004820152602401610778565b6001600160a01b0380851660009081526001602090815260408083209387168352929052208290558015610e7857826001600160a01b0316846001600160a01b03167f8c5be1e5ebec7d5bd14f71427d1e84f3dd0314c0f7b2291e5b200ac8c7c3b92584604051610fde91815260200190565b60405180910390a350505050565b6001600160a01b03831661101757806002600082825461100c919061136f565b909155506110899050565b6001600160a01b0383166000908152602081905260409020548181101561106a5760405163391434e360e21b81526001600160a01b03851660048201526024810182905260448101839052606401610778565b6001600160a01b03841660009081526020819052604090209082900390555b6001600160a01b0382166110a5576002805482900390556110c4565b6001600160a01b03821660009081526020819052604090208054820190555b816001600160a01b0316836001600160a01b03167fddf252ad1be2c89b69c2b068fc378daa952ba7f163c4a11628f55a4df523b3ef8360405161110991815260200190565b60405180910390a3505050565b600060208083528351808285015260005b8181101561114357858101830151858201604001528201611127565b506000604082860101526040601f19601f8301168501019250505092915050565b6020808252825182820181905260009190848201906040850190845b818110156111a55783516001600160a01b031683529284019291840191600101611180565b50909695505050505050565b80356001600160a01b03811681146111c857600080fd5b919050565b600080604083850312156111e057600080fd5b6111e9836111b1565b946020939093013593505050565b60008060006060848603121561120c57600080fd5b611215846111b1565b9250611223602085016111b1565b9150604084013590509250925092565b60006020828403121561124557600080fd5b5035919050565b60006020828403121561125e57600080fd5b611267826111b1565b9392505050565b6000806040838503121561128157600080fd5b61128a836111b1565b9150611298602084016111b1565b90509250929050565b600181811c908216806112b557607f821691505b6020821081036112d557634e487b7160e01b600052602260045260246000fd5b50919050565b634e487b7160e01b600052604160045260246000fd5b634e487b7160e01b600052603260045260246000fd5b634e487b7160e01b600052601160045260246000fd5b60006001820161132f5761132f611307565b5060010190565b80820281158282048414176106ed576106ed611307565b60008261136a57634e487b7160e01b600052601260045260246000fd5b500490565b808201808211156106ed576106ed611307565b60006020828403121561139457600080fd5b8151801515811461126757600080fdfea2646970667358221220a358ffee88b9001d0a32085522854f3bf1b92b7eef8e41d819249978aad0835864736f6c63430008140033",
  "linkReferences": {},
  "deployedLinkReferences": {}
}