{
  "_format": "hh-sol-artifact-1",
  "contractName": "ReceiveArtCoinContract",
  "sourceName": "contracts/ReceiveArtCoin.sol",
  "abi": [
    {
      "inputs": [
        {
          "internalType": "string",
          "name": "name",
          "type": "string"
        },
        {
          "internalType": "string",
          "name": "symbol",
          "type": "string"
        },
        {
          "internalType": "uint256",
          "name": "_initialSupply",
          "type": "uint256"
        },
        {
          "internalType": "uint256",
          "name": "_time",
          "type": "uint256"
        }
      ],
      "stateMutability": "nonpayable",
      "type": "constructor"
    },
    {
      "inputs": [
        {
          "internalType": "address",
          "name": "spender",
          "type": "address"
        },
        {
          "internalType": "uint256",
          "name": "allowance",
          "type": "uint256"
        },
        {
          "internalType": "uint256",
          "name": "needed",
          "type": "uint256"
        }
      ],
      "name": "ERC20InsufficientAllowance",
      "type": "error"
    },
    {
      "inputs": [
        {
          "internalType": "address",
          "name": "sender",
          "type": "address"
        },
        {
          "internalType": "uint256",
          "name": "balance",
          "type": "uint256"
        },
        {
          "internalType": "uint256",
          "name": "needed",
          "type": "uint256"
        }
      ],
      "name": "ERC20InsufficientBalance",
      "type": "error"
    },
    {
      "inputs": [
        {
          "internalType": "address",
          "name": "approver",
          "type": "address"
        }
      ],
      "name": "ERC20InvalidApprover",
      "type": "error"
    },
    {
      "inputs": [
        {
          "internalType": "address",
          "name": "receiver",
          "type": "address"
        }
      ],
      "name": "ERC20InvalidReceiver",
      "type": "error"
    },
    {
      "inputs": [
        {
          "internalType": "address",
          "name": "sender",
          "type": "address"
        }
      ],
      "name": "ERC20InvalidSender",
      "type": "error"
    },
    {
      "inputs": [
        {
          "internalType": "address",
          "name": "spender",
          "type": "address"
        }
      ],
      "name": "ERC20InvalidSpender",
      "type": "error"
    },
    {
      "anonymous": false,
      "inputs": [
        {
          "indexed": true,
          "internalType": "address",
          "name": "owner",
          "type": "address"
        },
        {
          "indexed": true,
          "internalType": "address",
          "name": "spender",
          "type": "address"
        },
        {
          "indexed": false,
          "internalType": "uint256",
          "name": "value",
          "type": "uint256"
        }
      ],
      "name": "Approval",
      "type": "event"
    },
    {
      "anonymous": false,
      "inputs": [
        {
          "indexed": true,
          "internalType": "address",
          "name": "_from",
          "type": "address"
        },
        {
          "indexed": false,
          "internalType": "uint256",
          "name": "_amount",
          "type": "uint256"
        }
      ],
      "name": "NewCoinsUpdated",
      "type": "event"
    },
    {
      "anonymous": false,
      "inputs": [
        {
          "indexed": true,
          "internalType": "address",
          "name": "sender",
          "type": "address"
        },
        {
          "indexed": true,
          "internalType": "address",
          "name": "tokenAddress",
          "type": "address"
        },
        {
          "indexed": false,
          "internalType": "uint256",
          "name": "amount",
          "type": "uint256"
        }
      ],
      "name": "TokenReceived",
      "type": "event"
    },
    {
      "anonymous": false,
      "inputs": [
        {
          "indexed": true,
          "internalType": "address",
          "name": "from",
          "type": "address"
        },
        {
          "indexed": true,
          "internalType": "address",
          "name": "to",
          "type": "address"
        },
        {
          "indexed": false,
          "internalType": "uint256",
          "name": "value",
          "type": "uint256"
        }
      ],
      "name": "Transfer",
      "type": "event"
    },
    {
      "inputs": [
        {
          "internalType": "address",
          "name": "owner",
          "type": "address"
        },
        {
          "internalType": "address",
          "name": "spender",
          "type": "address"
        }
      ],
      "name": "allowance",
      "outputs": [
        {
          "internalType": "uint256",
          "name": "",
          "type": "uint256"
        }
      ],
      "stateMutability": "view",
      "type": "function"
    },
    {
      "inputs": [
        {
          "internalType": "address",
          "name": "spender",
          "type": "address"
        },
        {
          "internalType": "uint256",
          "name": "value",
          "type": "uint256"
        }
      ],
      "name": "approve",
      "outputs": [
        {
          "internalType": "bool",
          "name": "",
          "type": "bool"
        }
      ],
      "stateMutability": "nonpayable",
      "type": "function"
    },
    {
      "inputs": [],
      "name": "artPieceToken",
      "outputs": [
        {
          "internalType": "address",
          "name": "",
          "type": "address"
        }
      ],
      "stateMutability": "view",
      "type": "function"
    },
    {
      "inputs": [],
      "name": "artTokenAddress",
      "outputs": [
        {
          "internalType": "address",
          "name": "",
          "type": "address"
        }
      ],
      "stateMutability": "view",
      "type": "function"
    },
    {
      "inputs": [
        {
          "internalType": "address",
          "name": "account",
          "type": "address"
        }
      ],
      "name": "balanceOf",
      "outputs": [
        {
          "internalType": "uint256",
          "name": "",
          "type": "uint256"
        }
      ],
      "stateMutability": "view",
      "type": "function"
    },
    {
      "inputs": [
        {
          "internalType": "uint256",
          "name": "burnAmount",
          "type": "uint256"
        }
      ],
      "name": "burnTokens",
      "outputs": [],
      "stateMutability": "nonpayable",
      "type": "function"
    },
    {
      "inputs": [],
      "name": "decimals",
      "outputs": [
        {
          "internalType": "uint8",
          "name": "",
          "type": "uint8"
        }
      ],
      "stateMutability": "view",
      "type": "function"
    },
    {
      "inputs": [],
      "name": "distributeFund",
      "outputs": [],
      "stateMutability": "nonpayable",
      "type": "function"
    },
    {
      "inputs": [],
      "name": "distributeFundWithoutCondition",
      "outputs": [],
      "stateMutability": "nonpayable",
      "type": "function"
    },
    {
      "inputs": [],
      "name": "finishTime",
      "outputs": [
        {
          "internalType": "uint256",
          "name": "",
          "type": "uint256"
        }
      ],
      "stateMutability": "view",
      "type": "function"
    },
    {
      "inputs": [
        {
          "internalType": "uint256",
          "name": "_amount",
          "type": "uint256"
        }
      ],
      "name": "fundToken",
      "outputs": [],
      "stateMutability": "nonpayable",
      "type": "function"
    },
    {
      "inputs": [],
      "name": "fundingToken",
      "outputs": [
        {
          "internalType": "contract IERC20",
          "name": "",
          "type": "address"
        }
      ],
      "stateMutability": "view",
      "type": "function"
    },
    {
      "inputs": [],
      "name": "getAllContributor",
      "outputs": [
        {
          "internalType": "address[]",
          "name": "",
          "type": "address[]"
        }
      ],
      "stateMutability": "view",
      "type": "function"
    },
    {
      "inputs": [],
      "name": "getInitialSupply",
      "outputs": [
        {
          "internalType": "uint256",
          "name": "",
          "type": "uint256"
        }
      ],
      "stateMutability": "view",
      "type": "function"
    },
    {
      "inputs": [],
      "name": "getRaisedAmount",
      "outputs": [
        {
          "internalType": "uint256",
          "name": "",
          "type": "uint256"
        }
      ],
      "stateMutability": "view",
      "type": "function"
    },
    {
      "inputs": [],
      "name": "initialSupply",
      "outputs": [
        {
          "internalType": "uint256",
          "name": "",
          "type": "uint256"
        }
      ],
      "stateMutability": "view",
      "type": "function"
    },
    {
      "inputs": [
        {
          "internalType": "uint256",
          "name": "",
          "type": "uint256"
        }
      ],
      "name": "listOfContributors",
      "outputs": [
        {
          "internalType": "address",
          "name": "",
          "type": "address"
        }
      ],
      "stateMutability": "view",
      "type": "function"
    },
    {
      "inputs": [],
      "name": "mainWalletaddress",
      "outputs": [
        {
          "internalType": "address",
          "name": "",
          "type": "address"
        }
      ],
      "stateMutability": "view",
      "type": "function"
    },
    {
      "inputs": [],
      "name": "name",
      "outputs": [
        {
          "internalType": "string",
          "name": "",
          "type": "string"
        }
      ],
      "stateMutability": "view",
      "type": "function"
    },
    {
      "inputs": [
        {
          "internalType": "address",
          "name": "",
          "type": "address"
        }
      ],
      "name": "newCoins",
      "outputs": [
        {
          "internalType": "uint256",
          "name": "",
          "type": "uint256"
        }
      ],
      "stateMutability": "view",
      "type": "function"
    },
    {
      "inputs": [],
      "name": "owner",
      "outputs": [
        {
          "internalType": "address",
          "name": "",
          "type": "address"
        }
      ],
      "stateMutability": "view",
      "type": "function"
    },
    {
      "inputs": [],
      "name": "raisedAmount",
      "outputs": [
        {
          "internalType": "uint256",
          "name": "",
          "type": "uint256"
        }
      ],
      "stateMutability": "view",
      "type": "function"
    },
    {
      "inputs": [],
      "name": "refundContributors",
      "outputs": [],
      "stateMutability": "nonpayable",
      "type": "function"
    },
    {
      "inputs": [
        {
          "internalType": "address",
          "name": "",
          "type": "address"
        }
      ],
      "name": "refunds",
      "outputs": [
        {
          "internalType": "uint256",
          "name": "",
          "type": "uint256"
        }
      ],
      "stateMutability": "view",
      "type": "function"
    },
    {
      "inputs": [
        {
          "internalType": "address",
          "name": "_contractAddress",
          "type": "address"
        },
        {
          "internalType": "uint256",
          "name": "_totalInvested",
          "type": "uint256"
        },
        {
          "components": [
            {
              "internalType": "address",
              "name": "investor",
              "type": "address"
            },
            {
              "internalType": "uint256",
              "name": "amount",
              "type": "uint256"
            }
          ],
          "internalType": "struct FundRaisingContract.FundInfo[]",
          "name": "fundInfos",
          "type": "tuple[]"
        }
      ],
      "name": "settlement",
      "outputs": [],
      "stateMutability": "nonpayable",
      "type": "function"
    },
    {
      "inputs": [],
      "name": "symbol",
      "outputs": [
        {
          "internalType": "string",
          "name": "",
          "type": "string"
        }
      ],
      "stateMutability": "view",
      "type": "function"
    },
    {
      "inputs": [],
      "name": "totalSupply",
      "outputs": [
        {
          "internalType": "uint256",
          "name": "",
          "type": "uint256"
        }
      ],
      "stateMutability": "view",
      "type": "function"
    },
    {
      "inputs": [
        {
          "internalType": "address",
          "name": "to",
          "type": "address"
        },
        {
          "internalType": "uint256",
          "name": "value",
          "type": "uint256"
        }
      ],
      "name": "transfer",
      "outputs": [
        {
          "internalType": "bool",
          "name": "",
          "type": "bool"
        }
      ],
      "stateMutability": "nonpayable",
      "type": "function"
    },
    {
      "inputs": [
        {
          "internalType": "address",
          "name": "from",
          "type": "address"
        },
        {
          "internalType": "address",
          "name": "to",
          "type": "address"
        },
        {
          "internalType": "uint256",
          "name": "value",
          "type": "uint256"
        }
      ],
      "name": "transferFrom",
      "outputs": [
        {
          "internalType": "bool",
          "name": "",
          "type": "bool"
        }
      ],
      "stateMutability": "nonpayable",
      "type": "function"
    },
    {
      "inputs": [
        {
          "internalType": "address",
          "name": "to",
          "type": "address"
        },
        {
          "internalType": "uint256",
          "name": "amount",
          "type": "uint256"
        }
      ],
      "name": "transferToken",
      "outputs": [],
      "stateMutability": "nonpayable",
      "type": "function"
    },
    {
      "stateMutability": "payable",
      "type": "receive"
    }
  ],
  "bytecode": "0x6080604052600d80546001600160a01b03191673e5856017db7b4023383c867ea65bc178b7f023c11790553480156200003757600080fd5b5060405162002063380380620020638339810160408190526200005a916200037a565b838383838383838282600362000071838262000483565b50600462000080828262000483565b50505080670de0b6b3a764000062000099919062000565565b6005819055620000ab90339062000140565b5050600680546001600160a01b031990811630179091556009805490911633179055506000600a55620000e081603c62000565565b620000ec904262000585565b600b555050600f80546001600160a01b031990811673dabd9681c6fa9c2675f883fb67a1485038087dd317909155600d54600e80549092166001600160a01b0391909116179055506200059b945050505050565b6001600160a01b038216620001705760405163ec442f0560e01b8152600060048201526024015b60405180910390fd5b6200017e6000838362000182565b5050565b6001600160a01b038316620001b1578060026000828254620001a5919062000585565b90915550620002259050565b6001600160a01b03831660009081526020819052604090205481811015620002065760405163391434e360e21b81526001600160a01b0385166004820152602481018290526044810183905260640162000167565b6001600160a01b03841660009081526020819052604090209082900390555b6001600160a01b038216620002435760028054829003905562000262565b6001600160a01b03821660009081526020819052604090208054820190555b816001600160a01b0316836001600160a01b03167fddf252ad1be2c89b69c2b068fc378daa952ba7f163c4a11628f55a4df523b3ef83604051620002a891815260200190565b60405180910390a3505050565b634e487b7160e01b600052604160045260246000fd5b600082601f830112620002dd57600080fd5b81516001600160401b0380821115620002fa57620002fa620002b5565b604051601f8301601f19908116603f01168101908282118183101715620003255762000325620002b5565b816040528381526020925086838588010111156200034257600080fd5b600091505b8382101562000366578582018301518183018401529082019062000347565b600093810190920192909252949350505050565b600080600080608085870312156200039157600080fd5b84516001600160401b0380821115620003a957600080fd5b620003b788838901620002cb565b95506020870151915080821115620003ce57600080fd5b50620003dd87828801620002cb565b604087015160609097015195989097509350505050565b600181811c908216806200040957607f821691505b6020821081036200042a57634e487b7160e01b600052602260045260246000fd5b50919050565b601f8211156200047e57600081815260208120601f850160051c81016020861015620004595750805b601f850160051c820191505b818110156200047a5782815560010162000465565b5050505b505050565b81516001600160401b038111156200049f576200049f620002b5565b620004b781620004b08454620003f4565b8462000430565b602080601f831160018114620004ef5760008415620004d65750858301515b600019600386901b1c1916600185901b1785556200047a565b600085815260208120601f198616915b828110156200052057888601518255948401946001909101908401620004ff565b50858210156200053f5787850151600019600388901b60f8161c191681555b5050505050600190811b01905550565b634e487b7160e01b600052601160045260246000fd5b80820281158282048414176200057f576200057f6200054f565b92915050565b808201808211156200057f576200057f6200054f565b611ab880620005ab6000396000f3fe6080604052600436106101d15760003560e01c80636d1b229d116100f75780638e75e48211610095578063a9059cbb11610064578063a9059cbb1461051c578063bc3da5351461053c578063c59ee1dc14610569578063dd62ed3e1461057f57600080fd5b80638e75e482146104b257806395d89b41146104c7578063a1fa3bad146104dc578063a45ac5ff146104fc57600080fd5b80637ea12e79116100d15780637ea12e791461043d57806381a4a6d81461045d5780638a0e495d146104725780638da5cb5b1461049257600080fd5b80636d1b229d146103af57806370a08231146103cf57806378065f271461040557600080fd5b8063244e57511161016f57806356c7f4611161013e57806356c7f461146103425780635958611e1461035757806369cbbefe1461036d57806369d3b77f1461039a57600080fd5b8063244e5751146102db578063313ce567146102f0578063378dc3dc1461030c578063419cd5e61461032257600080fd5b80631072cbea116101ab5780631072cbea1461025a57806318160ddd1461027c578063238179a71461029b57806323b872dd146102bb57600080fd5b806306fdde03146101dd57806308608d7314610208578063095ea7b31461022a57600080fd5b366101d857005b600080fd5b3480156101e957600080fd5b506101f26105c5565b6040516101ff9190611651565b60405180910390f35b34801561021457600080fd5b5061021d610657565b6040516101ff919061169f565b34801561023657600080fd5b5061024a610245366004611708565b610723565b60405190151581526020016101ff565b34801561026657600080fd5b5061027a610275366004611708565b61073d565b005b34801561028857600080fd5b506002545b6040519081526020016101ff565b3480156102a757600080fd5b5061027a6102b63660046117a2565b610758565b3480156102c757600080fd5b5061024a6102d6366004611891565b610859565b3480156102e757600080fd5b5061027a61087d565b3480156102fc57600080fd5b50604051601281526020016101ff565b34801561031857600080fd5b5061028d60055481565b34801561032e57600080fd5b5061027a61033d3660046118cd565b610b34565b34801561034e57600080fd5b5061027a610e7b565b34801561036357600080fd5b5061028d600b5481565b34801561037957600080fd5b5061028d6103883660046118e6565b60086020526000908152604090205481565b3480156103a657600080fd5b5061027a611070565b3480156103bb57600080fd5b5061027a6103ca3660046118cd565b6112cd565b3480156103db57600080fd5b5061028d6103ea3660046118e6565b6001600160a01b031660009081526020819052604090205490565b34801561041157600080fd5b50600e54610425906001600160a01b031681565b6040516001600160a01b0390911681526020016101ff565b34801561044957600080fd5b506104256104583660046118cd565b6112eb565b34801561046957600080fd5b5060055461028d565b34801561047e57600080fd5b50600654610425906001600160a01b031681565b34801561049e57600080fd5b50600954610425906001600160a01b031681565b3480156104be57600080fd5b50600a5461028d565b3480156104d357600080fd5b506101f2611315565b3480156104e857600080fd5b50600f54610425906001600160a01b031681565b34801561050857600080fd5b50600d54610425906001600160a01b031681565b34801561052857600080fd5b5061024a610537366004611708565b611324565b34801561054857600080fd5b5061028d6105573660046118e6565b60076020526000908152604090205481565b34801561057557600080fd5b5061028d600a5481565b34801561058b57600080fd5b5061028d61059a366004611908565b6001600160a01b03918216600090815260016020908152604080832093909416825291909152205490565b6060600380546105d49061193b565b80601f01602080910402602001604051908101604052809291908181526020018280546106009061193b565b801561064d5780601f106106225761010080835404028352916020019161064d565b820191906000526020600020905b81548152906001019060200180831161063057829003601f168201915b5050505050905090565b600c5460609060008167ffffffffffffffff81111561067857610678611732565b6040519080825280602002602001820160405280156106a1578160200160208202803683370190505b50905060005b8281101561071c57600c81815481106106c2576106c2611975565b9060005260206000200160009054906101000a90046001600160a01b03168282815181106106f2576106f2611975565b6001600160a01b039092166020928302919091019091015280610714816119a1565b9150506106a7565b5092915050565b600033610731818585611332565b60019150505b92915050565b6107538261053783670de0b6b3a76400006119ba565b505050565b600d546001600160a01b03168360005b835181101561085157826001600160a01b031663a9059cbb85838151811061079257610792611975565b6020026020010151600001518684815181106107b0576107b0611975565b602002602001015160200151670de0b6b3a76400006107cf91906119ba565b6040516001600160e01b031960e085901b1681526001600160a01b03909216600483015260248201526044016020604051808303816000875af115801561081a573d6000803e3d6000fd5b505050506040513d601f19601f8201168201806040525081019061083e91906119d1565b5080610849816119a1565b915050610768565b505050505050565b60003361086785828561133f565b6108728585856113bd565b506001949350505050565b6009546001600160a01b031633146108b05760405162461bcd60e51b81526004016108a7906119f3565b60405180910390fd5b600b5442116109015760405162461bcd60e51b815260206004820152601b60248201527f46756e6472616973696e67206973206e6f74206f76657220796574000000000060448201526064016108a7565b600580546109109060046119ba565b61091a9190611a34565b600a54101561096b5760405162461bcd60e51b815260206004820152601c60248201527f46756e6472616973696e6720676f616c206e6f7420726561636865640000000060448201526064016108a7565b600d546040516370a0823160e01b81523060048201526001600160a01b039091169060009082906370a0823190602401602060405180830381865afa1580156109b8573d6000803e3d6000fd5b505050506040513d601f19601f820116820180604052508101906109dc9190611a56565b905060008111610a2e5760405162461bcd60e51b815260206004820152601b60248201527f4e6f2041525420746f6b656e7320746f2064697374726962757465000000000060448201526064016108a7565b60095460405163a9059cbb60e01b81526001600160a01b039182166004820152602481018390529083169063a9059cbb906044016020604051808303816000875af1158015610a81573d6000803e3d6000fd5b505050506040513d601f19601f82011682018060405250810190610aa591906119d1565b5060005b600c54811015610753576000600c8281548110610ac857610ac8611975565b60009182526020808320909101546001600160a01b031680835260089091526040909120549091508015610b1f576001600160a01b03808316600090815260086020526040812055600954610b1f911683836113bd565b50508080610b2c906119a1565b915050610aa9565b600b544210610b855760405162461bcd60e51b815260206004820152601860248201527f46756e6472616973696e672074696d65206973206f766572000000000000000060448201526064016108a7565b60008111610bec5760405162461bcd60e51b815260206004820152602e60248201527f596f75206e65656420746f20646f6e617465206120706f73697469766520616d60448201526d6f756e74206f6620746f6b656e7360901b60648201526084016108a7565b600554600a54610bfc9083611a6f565b1115610c435760405162461bcd60e51b81526020600482015260166024820152754578636565647320696e697469616c20737570706c7960501b60448201526064016108a7565b600e546000906001600160a01b03166323b872dd3330610c6b86670de0b6b3a76400006119ba565b6040516001600160e01b031960e086901b1681526001600160a01b03938416600482015292909116602483015260448201526064016020604051808303816000875af1158015610cbf573d6000803e3d6000fd5b505050506040513d601f19601f82011682018060405250810190610ce391906119d1565b905080610d2a5760405162461bcd60e51b8152602060048201526015602482015274151bdad95b881d1c985b9cd9995c8819985a5b1959605a1b60448201526064016108a7565b610d3c82670de0b6b3a76400006119ba565b600a6000828254610d4d9190611a6f565b90915550610d65905082670de0b6b3a76400006119ba565b3360009081526008602052604081208054909190610d84908490611a6f565b90915550610d9c905082670de0b6b3a76400006119ba565b3360009081526007602052604081208054909190610dbb908490611a6f565b90915550503360009081526010602052604090205460ff16610e3257600c805460018181019092557fdf6966c971051c3d54ec59162606531493a51404a002842f56009d7e5cf4a8c70180546001600160a01b031916339081179091556000908152601060205260409020805460ff191690911790555b337fd37abe1e85060e55cb236652dcf2008106e4892d0c749839671c26448a8eeb06610e6684670de0b6b3a76400006119ba565b60405190815260200160405180910390a25050565b6009546001600160a01b03163314610ea55760405162461bcd60e51b81526004016108a7906119f3565b600b544211610ef65760405162461bcd60e51b815260206004820152601b60248201527f46756e6472616973696e67206973206e6f74206f76657220796574000000000060448201526064016108a7565b60058054610f059060046119ba565b610f0f9190611a34565b600a5410610f6d5760405162461bcd60e51b815260206004820152602560248201527f3830252066756e6472616973696e6720676f616c20686173206265656e2072656044820152641858da195960da1b60648201526084016108a7565b600d546001600160a01b031660005b600c5481101561106c576000600c8281548110610f9b57610f9b611975565b60009182526020808320909101546001600160a01b0316808352600790915260409091205490915080156110575760405163a9059cbb60e01b81526001600160a01b0383811660048301526024820183905285169063a9059cbb906044016020604051808303816000875af1158015611018573d6000803e3d6000fd5b505050506040513d601f19601f8201168201806040525081019061103c91906119d1565b506001600160a01b0382166000908152600760205260408120555b50508080611064906119a1565b915050610f7c565b5050565b6009546001600160a01b0316331461109a5760405162461bcd60e51b81526004016108a7906119f3565b600580546110a99060046119ba565b6110b39190611a34565b600a5410156111045760405162461bcd60e51b815260206004820152601c60248201527f46756e6472616973696e6720676f616c206e6f7420726561636865640000000060448201526064016108a7565b600d546040516370a0823160e01b81523060048201526001600160a01b039091169060009082906370a0823190602401602060405180830381865afa158015611151573d6000803e3d6000fd5b505050506040513d601f19601f820116820180604052508101906111759190611a56565b9050600081116111c75760405162461bcd60e51b815260206004820152601b60248201527f4e6f2041525420746f6b656e7320746f2064697374726962757465000000000060448201526064016108a7565b60095460405163a9059cbb60e01b81526001600160a01b039182166004820152602481018390529083169063a9059cbb906044016020604051808303816000875af115801561121a573d6000803e3d6000fd5b505050506040513d601f19601f8201168201806040525081019061123e91906119d1565b5060005b600c54811015610753576000600c828154811061126157611261611975565b60009182526020808320909101546001600160a01b0316808352600890915260409091205490915080156112b8576001600160a01b038083166000908152600860205260408120556009546112b8911683836113bd565b505080806112c5906119a1565b915050611242565b6112e8336112e383670de0b6b3a76400006119ba565b61141c565b50565b600c81815481106112fb57600080fd5b6000918252602090912001546001600160a01b0316905081565b6060600480546105d49061193b565b6000336107318185856113bd565b6107538383836001611452565b6001600160a01b0383811660009081526001602090815260408083209386168352929052205460001981146113b757818110156113a857604051637dc7a0d960e11b81526001600160a01b038416600482015260248101829052604481018390526064016108a7565b6113b784848484036000611452565b50505050565b6001600160a01b0383166113e757604051634b637e8f60e11b8152600060048201526024016108a7565b6001600160a01b0382166114115760405163ec442f0560e01b8152600060048201526024016108a7565b610753838383611527565b6001600160a01b03821661144657604051634b637e8f60e11b8152600060048201526024016108a7565b61106c82600083611527565b6001600160a01b03841661147c5760405163e602df0560e01b8152600060048201526024016108a7565b6001600160a01b0383166114a657604051634a1406b160e11b8152600060048201526024016108a7565b6001600160a01b03808516600090815260016020908152604080832093871683529290522082905580156113b757826001600160a01b0316846001600160a01b03167f8c5be1e5ebec7d5bd14f71427d1e84f3dd0314c0f7b2291e5b200ac8c7c3b9258460405161151991815260200190565b60405180910390a350505050565b6001600160a01b0383166115525780600260008282546115479190611a6f565b909155506115c49050565b6001600160a01b038316600090815260208190526040902054818110156115a55760405163391434e360e21b81526001600160a01b038516600482015260248101829052604481018390526064016108a7565b6001600160a01b03841660009081526020819052604090209082900390555b6001600160a01b0382166115e0576002805482900390556115ff565b6001600160a01b03821660009081526020819052604090208054820190555b816001600160a01b0316836001600160a01b03167fddf252ad1be2c89b69c2b068fc378daa952ba7f163c4a11628f55a4df523b3ef8360405161164491815260200190565b60405180910390a3505050565b600060208083528351808285015260005b8181101561167e57858101830151858201604001528201611662565b506000604082860101526040601f19601f8301168501019250505092915050565b6020808252825182820181905260009190848201906040850190845b818110156116e05783516001600160a01b0316835292840192918401916001016116bb565b50909695505050505050565b80356001600160a01b038116811461170357600080fd5b919050565b6000806040838503121561171b57600080fd5b611724836116ec565b946020939093013593505050565b634e487b7160e01b600052604160045260246000fd5b6040805190810167ffffffffffffffff8111828210171561176b5761176b611732565b60405290565b604051601f8201601f1916810167ffffffffffffffff8111828210171561179a5761179a611732565b604052919050565b6000806000606084860312156117b757600080fd5b6117c0846116ec565b9250602080850135925060408086013567ffffffffffffffff808211156117e657600080fd5b818801915088601f8301126117fa57600080fd5b81358181111561180c5761180c611732565b61181a858260051b01611771565b818152858101925060069190911b83018501908a82111561183a57600080fd5b928501925b818410156118815784848c0312156118575760008081fd5b61185f611748565b611868856116ec565b815284870135878201528352928401929185019161183f565b8096505050505050509250925092565b6000806000606084860312156118a657600080fd5b6118af846116ec565b92506118bd602085016116ec565b9150604084013590509250925092565b6000602082840312156118df57600080fd5b5035919050565b6000602082840312156118f857600080fd5b611901826116ec565b9392505050565b6000806040838503121561191b57600080fd5b611924836116ec565b9150611932602084016116ec565b90509250929050565b600181811c9082168061194f57607f821691505b60208210810361196f57634e487b7160e01b600052602260045260246000fd5b50919050565b634e487b7160e01b600052603260045260246000fd5b634e487b7160e01b600052601160045260246000fd5b6000600182016119b3576119b361198b565b5060010190565b80820281158282048414176107375761073761198b565b6000602082840312156119e357600080fd5b8151801515811461190157600080fd5b60208082526021908201527f4f6e6c79206f776e65722063616e2063616c6c20746869732066756e6374696f6040820152603760f91b606082015260800190565b600082611a5157634e487b7160e01b600052601260045260246000fd5b500490565b600060208284031215611a6857600080fd5b5051919050565b808201808211156107375761073761198b56fea26469706673582212202a76a60128b44e2a1b3015761fd72b68b6a6f057146480b4d75278eb3dca0f6264736f6c63430008140033",
  "linkReferences": {},
  "deployedLinkReferences": {}
}