{
  "_format": "hh-sol-artifact-1",
  "contractName": "ReceiveArtCoinContract",
  "sourceName": "contracts/ReceiveArtCoin.sol",
  "abi": [
    {
      "inputs": [
        {
          "internalType": "string",
          "name": "name",
          "type": "string"
        },
        {
          "internalType": "string",
          "name": "symbol",
          "type": "string"
        },
        {
          "internalType": "uint256",
          "name": "initialSupply",
          "type": "uint256"
        },
        {
          "internalType": "uint256",
          "name": "_time",
          "type": "uint256"
        },
        {
          "internalType": "address",
          "name": "_tokenAddress",
          "type": "address"
        }
      ],
      "stateMutability": "nonpayable",
      "type": "constructor"
    },
    {
      "inputs": [
        {
          "internalType": "address",
          "name": "spender",
          "type": "address"
        },
        {
          "internalType": "uint256",
          "name": "allowance",
          "type": "uint256"
        },
        {
          "internalType": "uint256",
          "name": "needed",
          "type": "uint256"
        }
      ],
      "name": "ERC20InsufficientAllowance",
      "type": "error"
    },
    {
      "inputs": [
        {
          "internalType": "address",
          "name": "sender",
          "type": "address"
        },
        {
          "internalType": "uint256",
          "name": "balance",
          "type": "uint256"
        },
        {
          "internalType": "uint256",
          "name": "needed",
          "type": "uint256"
        }
      ],
      "name": "ERC20InsufficientBalance",
      "type": "error"
    },
    {
      "inputs": [
        {
          "internalType": "address",
          "name": "approver",
          "type": "address"
        }
      ],
      "name": "ERC20InvalidApprover",
      "type": "error"
    },
    {
      "inputs": [
        {
          "internalType": "address",
          "name": "receiver",
          "type": "address"
        }
      ],
      "name": "ERC20InvalidReceiver",
      "type": "error"
    },
    {
      "inputs": [
        {
          "internalType": "address",
          "name": "sender",
          "type": "address"
        }
      ],
      "name": "ERC20InvalidSender",
      "type": "error"
    },
    {
      "inputs": [
        {
          "internalType": "address",
          "name": "spender",
          "type": "address"
        }
      ],
      "name": "ERC20InvalidSpender",
      "type": "error"
    },
    {
      "anonymous": false,
      "inputs": [
        {
          "indexed": true,
          "internalType": "address",
          "name": "owner",
          "type": "address"
        },
        {
          "indexed": true,
          "internalType": "address",
          "name": "spender",
          "type": "address"
        },
        {
          "indexed": false,
          "internalType": "uint256",
          "name": "value",
          "type": "uint256"
        }
      ],
      "name": "Approval",
      "type": "event"
    },
    {
      "anonymous": false,
      "inputs": [
        {
          "indexed": true,
          "internalType": "address",
          "name": "funder",
          "type": "address"
        },
        {
          "indexed": false,
          "internalType": "uint256",
          "name": "amount",
          "type": "uint256"
        }
      ],
      "name": "TokenReceived",
      "type": "event"
    },
    {
      "anonymous": false,
      "inputs": [
        {
          "indexed": true,
          "internalType": "address",
          "name": "from",
          "type": "address"
        },
        {
          "indexed": true,
          "internalType": "address",
          "name": "to",
          "type": "address"
        },
        {
          "indexed": false,
          "internalType": "uint256",
          "name": "value",
          "type": "uint256"
        }
      ],
      "name": "Transfer",
      "type": "event"
    },
    {
      "inputs": [
        {
          "internalType": "address",
          "name": "owner",
          "type": "address"
        },
        {
          "internalType": "address",
          "name": "spender",
          "type": "address"
        }
      ],
      "name": "allowance",
      "outputs": [
        {
          "internalType": "uint256",
          "name": "",
          "type": "uint256"
        }
      ],
      "stateMutability": "view",
      "type": "function"
    },
    {
      "inputs": [
        {
          "internalType": "address",
          "name": "spender",
          "type": "address"
        },
        {
          "internalType": "uint256",
          "name": "value",
          "type": "uint256"
        }
      ],
      "name": "approve",
      "outputs": [
        {
          "internalType": "bool",
          "name": "",
          "type": "bool"
        }
      ],
      "stateMutability": "nonpayable",
      "type": "function"
    },
    {
      "inputs": [
        {
          "internalType": "address",
          "name": "account",
          "type": "address"
        }
      ],
      "name": "balanceOf",
      "outputs": [
        {
          "internalType": "uint256",
          "name": "",
          "type": "uint256"
        }
      ],
      "stateMutability": "view",
      "type": "function"
    },
    {
      "inputs": [
        {
          "internalType": "uint256",
          "name": "burnAmount",
          "type": "uint256"
        }
      ],
      "name": "burnTokens",
      "outputs": [],
      "stateMutability": "nonpayable",
      "type": "function"
    },
    {
      "inputs": [],
      "name": "contractAddress",
      "outputs": [
        {
          "internalType": "address",
          "name": "",
          "type": "address"
        }
      ],
      "stateMutability": "view",
      "type": "function"
    },
    {
      "inputs": [],
      "name": "decimals",
      "outputs": [
        {
          "internalType": "uint8",
          "name": "",
          "type": "uint8"
        }
      ],
      "stateMutability": "view",
      "type": "function"
    },
    {
      "inputs": [],
      "name": "distributeFund",
      "outputs": [],
      "stateMutability": "nonpayable",
      "type": "function"
    },
    {
      "inputs": [],
      "name": "finishTime",
      "outputs": [
        {
          "internalType": "uint256",
          "name": "",
          "type": "uint256"
        }
      ],
      "stateMutability": "view",
      "type": "function"
    },
    {
      "inputs": [
        {
          "internalType": "address",
          "name": "_from",
          "type": "address"
        },
        {
          "internalType": "address",
          "name": "_to",
          "type": "address"
        },
        {
          "internalType": "uint256",
          "name": "_amount",
          "type": "uint256"
        }
      ],
      "name": "fundToken",
      "outputs": [],
      "stateMutability": "nonpayable",
      "type": "function"
    },
    {
      "inputs": [],
      "name": "fundingToken",
      "outputs": [
        {
          "internalType": "contract IERC20",
          "name": "",
          "type": "address"
        }
      ],
      "stateMutability": "view",
      "type": "function"
    },
    {
      "inputs": [],
      "name": "name",
      "outputs": [
        {
          "internalType": "string",
          "name": "",
          "type": "string"
        }
      ],
      "stateMutability": "view",
      "type": "function"
    },
    {
      "inputs": [
        {
          "internalType": "address",
          "name": "",
          "type": "address"
        }
      ],
      "name": "newCoins",
      "outputs": [
        {
          "internalType": "uint256",
          "name": "",
          "type": "uint256"
        }
      ],
      "stateMutability": "view",
      "type": "function"
    },
    {
      "inputs": [],
      "name": "owner",
      "outputs": [
        {
          "internalType": "address",
          "name": "",
          "type": "address"
        }
      ],
      "stateMutability": "view",
      "type": "function"
    },
    {
      "inputs": [],
      "name": "raisedAmount",
      "outputs": [
        {
          "internalType": "uint256",
          "name": "",
          "type": "uint256"
        }
      ],
      "stateMutability": "view",
      "type": "function"
    },
    {
      "inputs": [],
      "name": "refundDistribute",
      "outputs": [],
      "stateMutability": "nonpayable",
      "type": "function"
    },
    {
      "inputs": [
        {
          "internalType": "address",
          "name": "",
          "type": "address"
        }
      ],
      "name": "refunds",
      "outputs": [
        {
          "internalType": "uint256",
          "name": "",
          "type": "uint256"
        }
      ],
      "stateMutability": "view",
      "type": "function"
    },
    {
      "inputs": [],
      "name": "symbol",
      "outputs": [
        {
          "internalType": "string",
          "name": "",
          "type": "string"
        }
      ],
      "stateMutability": "view",
      "type": "function"
    },
    {
      "inputs": [],
      "name": "totalApply",
      "outputs": [
        {
          "internalType": "uint256",
          "name": "",
          "type": "uint256"
        }
      ],
      "stateMutability": "view",
      "type": "function"
    },
    {
      "inputs": [],
      "name": "totalSupply",
      "outputs": [
        {
          "internalType": "uint256",
          "name": "",
          "type": "uint256"
        }
      ],
      "stateMutability": "view",
      "type": "function"
    },
    {
      "inputs": [
        {
          "internalType": "address",
          "name": "to",
          "type": "address"
        },
        {
          "internalType": "uint256",
          "name": "value",
          "type": "uint256"
        }
      ],
      "name": "transfer",
      "outputs": [
        {
          "internalType": "bool",
          "name": "",
          "type": "bool"
        }
      ],
      "stateMutability": "nonpayable",
      "type": "function"
    },
    {
      "inputs": [
        {
          "internalType": "address",
          "name": "from",
          "type": "address"
        },
        {
          "internalType": "address",
          "name": "to",
          "type": "address"
        },
        {
          "internalType": "uint256",
          "name": "value",
          "type": "uint256"
        }
      ],
      "name": "transferFrom",
      "outputs": [
        {
          "internalType": "bool",
          "name": "",
          "type": "bool"
        }
      ],
      "stateMutability": "nonpayable",
      "type": "function"
    },
    {
      "inputs": [
        {
          "internalType": "address",
          "name": "to",
          "type": "address"
        },
        {
          "internalType": "uint256",
          "name": "amount",
          "type": "uint256"
        }
      ],
      "name": "transferToken",
      "outputs": [],
      "stateMutability": "nonpayable",
      "type": "function"
    },
    {
      "stateMutability": "payable",
      "type": "receive"
    }
  ],
  "bytecode": "0x60806040523480156200001157600080fd5b50604051620014003803806200140083398101604081905262000034916200031e565b84848484838383828260036200004b83826200044f565b5060046200005a82826200044f565b5050506200007e3382670de0b6b3a764000062000078919062000531565b620000e4565b5050600880546001600160a01b03191633179055506000600955620000a581603c62000531565b620000b1904262000551565b600a555050600c80546001600160a01b0319166001600160a01b0394909416939093179092555062000567945050505050565b6001600160a01b038216620001145760405163ec442f0560e01b8152600060048201526024015b60405180910390fd5b620001226000838362000126565b5050565b6001600160a01b0383166200015557806002600082825462000149919062000551565b90915550620001c99050565b6001600160a01b03831660009081526020819052604090205481811015620001aa5760405163391434e360e21b81526001600160a01b038516600482015260248101829052604481018390526064016200010b565b6001600160a01b03841660009081526020819052604090209082900390555b6001600160a01b038216620001e75760028054829003905562000206565b6001600160a01b03821660009081526020819052604090208054820190555b816001600160a01b0316836001600160a01b03167fddf252ad1be2c89b69c2b068fc378daa952ba7f163c4a11628f55a4df523b3ef836040516200024c91815260200190565b60405180910390a3505050565b634e487b7160e01b600052604160045260246000fd5b600082601f8301126200028157600080fd5b81516001600160401b03808211156200029e576200029e62000259565b604051601f8301601f19908116603f01168101908282118183101715620002c957620002c962000259565b81604052838152602092508683858801011115620002e657600080fd5b600091505b838210156200030a5785820183015181830184015290820190620002eb565b600093810190920192909252949350505050565b600080600080600060a086880312156200033757600080fd5b85516001600160401b03808211156200034f57600080fd5b6200035d89838a016200026f565b965060208801519150808211156200037457600080fd5b5062000383888289016200026f565b6040880151606089015160808a0151929750909550935090506001600160a01b0381168114620003b257600080fd5b809150509295509295909350565b600181811c90821680620003d557607f821691505b602082108103620003f657634e487b7160e01b600052602260045260246000fd5b50919050565b601f8211156200044a57600081815260208120601f850160051c81016020861015620004255750805b601f850160051c820191505b81811015620004465782815560010162000431565b5050505b505050565b81516001600160401b038111156200046b576200046b62000259565b62000483816200047c8454620003c0565b84620003fc565b602080601f831160018114620004bb5760008415620004a25750858301515b600019600386901b1c1916600185901b17855562000446565b600085815260208120601f198616915b82811015620004ec57888601518255948401946001909101908401620004cb565b50858210156200050b5787850151600019600388901b60f8161c191681555b5050505050600190811b01905550565b634e487b7160e01b600052601160045260246000fd5b80820281158282048414176200054b576200054b6200051b565b92915050565b808201808211156200054b576200054b6200051b565b610e8980620005776000396000f3fe6080604052600436106101395760003560e01c806378065f27116100ab578063c59ee1dc1161006f578063c59ee1dc14610385578063c6afa1831461039b578063dd62ed3e146103b1578063e3a6ac01146103f7578063f6b4dfb41461040c578063ffad08bb1461042c57600080fd5b806378065f27146102cb5780638da5cb5b1461030357806395d89b4114610323578063a9059cbb14610338578063bc3da5351461035857600080fd5b8063244e5751116100fd578063244e575114610201578063313ce567146102165780635958611e1461023257806369cbbefe146102485780636d1b229d1461027557806370a082311461029557600080fd5b806306fdde0314610145578063095ea7b3146101705780631072cbea146101a057806318160ddd146101c257806323b872dd146101e157600080fd5b3661014057005b600080fd5b34801561015157600080fd5b5061015a61044c565b6040516101679190610c4a565b60405180910390f35b34801561017c57600080fd5b5061019061018b366004610cb4565b6104de565b6040519015158152602001610167565b3480156101ac57600080fd5b506101c06101bb366004610cb4565b6104f8565b005b3480156101ce57600080fd5b506002545b604051908152602001610167565b3480156101ed57600080fd5b506101906101fc366004610cde565b610513565b34801561020d57600080fd5b506101c0610537565b34801561022257600080fd5b5060405160128152602001610167565b34801561023e57600080fd5b506101d3600a5481565b34801561025457600080fd5b506101d3610263366004610d1a565b60066020526000908152604090205481565b34801561028157600080fd5b506101c0610290366004610d3c565b6106af565b3480156102a157600080fd5b506101d36102b0366004610d1a565b6001600160a01b031660009081526020819052604090205490565b3480156102d757600080fd5b50600c546102eb906001600160a01b031681565b6040516001600160a01b039091168152602001610167565b34801561030f57600080fd5b506008546102eb906001600160a01b031681565b34801561032f57600080fd5b5061015a6106ca565b34801561034457600080fd5b50610190610353366004610cb4565b6106d9565b34801561036457600080fd5b506101d3610373366004610d1a565b60056020526000908152604090205481565b34801561039157600080fd5b506101d360095481565b3480156103a757600080fd5b506101d360075481565b3480156103bd57600080fd5b506101d36103cc366004610d55565b6001600160a01b03918216600090815260016020908152604080832093909416825291909152205490565b34801561040357600080fd5b506101c06106e7565b34801561041857600080fd5b50600d546102eb906001600160a01b031681565b34801561043857600080fd5b506101c0610447366004610cde565b61082b565b60606003805461045b90610d88565b80601f016020809104026020016040519081016040528092919081815260200182805461048790610d88565b80156104d45780601f106104a9576101008083540402835291602001916104d4565b820191906000526020600020905b8154815290600101906020018083116104b757829003601f168201915b5050505050905090565b6000336104ec818585610927565b60019150505b92915050565b61050e8261035383670de0b6b3a7640000610dd8565b505050565b600033610521858285610934565b61052c8585856109b2565b506001949350505050565b6008546001600160a01b031633146105865760405162461bcd60e51b815260206004820152600d60248201526c36bab9ba1031329037bbb732b960991b60448201526064015b60405180910390fd5b600a5442116105c75760405162461bcd60e51b815260206004820152600d60248201526c2737ba103a34b6b29027ab22a960991b604482015260640161057d565b600560075460046105d89190610dd8565b6105e29190610def565b600954101561061e5760405162461bcd60e51b81526020600482015260086024820152671b9bdd0819dbd85b60c21b604482015260640161057d565b60005b600b548110156106ac576000600b828154811061064057610640610e11565b60009182526020808320909101546001600160a01b031680835260069091526040909120549091508015610697576001600160a01b03808316600090815260066020526040812055600854610697911683836109b2565b505080806106a490610e27565b915050610621565b50565b6106ac336106c583670de0b6b3a7640000610dd8565b610a11565b60606004805461045b90610d88565b6000336104ec8185856109b2565b600560075460046106f89190610dd8565b6107029190610def565b600954106107445760405162461bcd60e51b815260206004820152600f60248201526e1c18129034b9903737ba1037bb32b960891b604482015260640161057d565b600a5442116107805760405162461bcd60e51b81526020600482015260086024820152672737ba1037bb32b960c11b604482015260640161057d565b60005b600b548110156106ac576000600b82815481106107a2576107a2610e11565b60009182526020808320909101546001600160a01b031680835260059091526040909120549091508015610816576001600160a01b0382166000818152600560205260408082208290555183156108fc0291849190818181858888f19350505050158015610814573d6000803e3d6000fd5b505b5050808061082390610e27565b915050610783565b600081116108925760405162461bcd60e51b815260206004820152602e60248201527f596f75206e65656420746f20646f6e617465206120706f73697469766520616d60448201526d6f756e74206f6620746f6b656e7360901b606482015260840161057d565b6007546009546108a29083610e40565b11156108ad57600080fd5b6108c983836108c484670de0b6b3a7640000610dd8565b6109b2565b60405181815233907f47998b4998056cd0448b356cfcb8cb0eb18fa00844e43e71947e22fcb6fd43ef9060200160405180910390a2336000908152600660205260408120805483929061091d908490610e40565b9091555050505050565b61050e8383836001610a4b565b6001600160a01b0383811660009081526001602090815260408083209386168352929052205460001981146109ac578181101561099d57604051637dc7a0d960e11b81526001600160a01b0384166004820152602481018290526044810183905260640161057d565b6109ac84848484036000610a4b565b50505050565b6001600160a01b0383166109dc57604051634b637e8f60e11b81526000600482015260240161057d565b6001600160a01b038216610a065760405163ec442f0560e01b81526000600482015260240161057d565b61050e838383610b20565b6001600160a01b038216610a3b57604051634b637e8f60e11b81526000600482015260240161057d565b610a4782600083610b20565b5050565b6001600160a01b038416610a755760405163e602df0560e01b81526000600482015260240161057d565b6001600160a01b038316610a9f57604051634a1406b160e11b81526000600482015260240161057d565b6001600160a01b03808516600090815260016020908152604080832093871683529290522082905580156109ac57826001600160a01b0316846001600160a01b03167f8c5be1e5ebec7d5bd14f71427d1e84f3dd0314c0f7b2291e5b200ac8c7c3b92584604051610b1291815260200190565b60405180910390a350505050565b6001600160a01b038316610b4b578060026000828254610b409190610e40565b90915550610bbd9050565b6001600160a01b03831660009081526020819052604090205481811015610b9e5760405163391434e360e21b81526001600160a01b0385166004820152602481018290526044810183905260640161057d565b6001600160a01b03841660009081526020819052604090209082900390555b6001600160a01b038216610bd957600280548290039055610bf8565b6001600160a01b03821660009081526020819052604090208054820190555b816001600160a01b0316836001600160a01b03167fddf252ad1be2c89b69c2b068fc378daa952ba7f163c4a11628f55a4df523b3ef83604051610c3d91815260200190565b60405180910390a3505050565b600060208083528351808285015260005b81811015610c7757858101830151858201604001528201610c5b565b506000604082860101526040601f19601f8301168501019250505092915050565b80356001600160a01b0381168114610caf57600080fd5b919050565b60008060408385031215610cc757600080fd5b610cd083610c98565b946020939093013593505050565b600080600060608486031215610cf357600080fd5b610cfc84610c98565b9250610d0a60208501610c98565b9150604084013590509250925092565b600060208284031215610d2c57600080fd5b610d3582610c98565b9392505050565b600060208284031215610d4e57600080fd5b5035919050565b60008060408385031215610d6857600080fd5b610d7183610c98565b9150610d7f60208401610c98565b90509250929050565b600181811c90821680610d9c57607f821691505b602082108103610dbc57634e487b7160e01b600052602260045260246000fd5b50919050565b634e487b7160e01b600052601160045260246000fd5b80820281158282048414176104f2576104f2610dc2565b600082610e0c57634e487b7160e01b600052601260045260246000fd5b500490565b634e487b7160e01b600052603260045260246000fd5b600060018201610e3957610e39610dc2565b5060010190565b808201808211156104f2576104f2610dc256fea2646970667358221220302a65996c736711beaf3c45cbf9ac54635201767514bbe34e8accff5bc48b2564736f6c63430008140033",
  "linkReferences": {},
  "deployedLinkReferences": {}
}