{
  "_format": "hh-sol-artifact-1",
  "contractName": "ReceiveArtCoinContract",
  "sourceName": "contracts/ReceiveArtCoin.sol",
  "abi": [
    {
      "inputs": [
        {
          "internalType": "string",
          "name": "name",
          "type": "string"
        },
        {
          "internalType": "string",
          "name": "symbol",
          "type": "string"
        },
        {
          "internalType": "uint256",
          "name": "_initialSupply",
          "type": "uint256"
        },
        {
          "internalType": "uint256",
          "name": "_time",
          "type": "uint256"
        },
        {
          "internalType": "address",
          "name": "_tokenAddress",
          "type": "address"
        }
      ],
      "stateMutability": "nonpayable",
      "type": "constructor"
    },
    {
      "inputs": [
        {
          "internalType": "address",
          "name": "spender",
          "type": "address"
        },
        {
          "internalType": "uint256",
          "name": "allowance",
          "type": "uint256"
        },
        {
          "internalType": "uint256",
          "name": "needed",
          "type": "uint256"
        }
      ],
      "name": "ERC20InsufficientAllowance",
      "type": "error"
    },
    {
      "inputs": [
        {
          "internalType": "address",
          "name": "sender",
          "type": "address"
        },
        {
          "internalType": "uint256",
          "name": "balance",
          "type": "uint256"
        },
        {
          "internalType": "uint256",
          "name": "needed",
          "type": "uint256"
        }
      ],
      "name": "ERC20InsufficientBalance",
      "type": "error"
    },
    {
      "inputs": [
        {
          "internalType": "address",
          "name": "approver",
          "type": "address"
        }
      ],
      "name": "ERC20InvalidApprover",
      "type": "error"
    },
    {
      "inputs": [
        {
          "internalType": "address",
          "name": "receiver",
          "type": "address"
        }
      ],
      "name": "ERC20InvalidReceiver",
      "type": "error"
    },
    {
      "inputs": [
        {
          "internalType": "address",
          "name": "sender",
          "type": "address"
        }
      ],
      "name": "ERC20InvalidSender",
      "type": "error"
    },
    {
      "inputs": [
        {
          "internalType": "address",
          "name": "spender",
          "type": "address"
        }
      ],
      "name": "ERC20InvalidSpender",
      "type": "error"
    },
    {
      "anonymous": false,
      "inputs": [
        {
          "indexed": true,
          "internalType": "address",
          "name": "owner",
          "type": "address"
        },
        {
          "indexed": true,
          "internalType": "address",
          "name": "spender",
          "type": "address"
        },
        {
          "indexed": false,
          "internalType": "uint256",
          "name": "value",
          "type": "uint256"
        }
      ],
      "name": "Approval",
      "type": "event"
    },
    {
      "anonymous": false,
      "inputs": [
        {
          "indexed": true,
          "internalType": "address",
          "name": "_from",
          "type": "address"
        },
        {
          "indexed": false,
          "internalType": "uint256",
          "name": "_amount",
          "type": "uint256"
        }
      ],
      "name": "NewCoinsUpdated",
      "type": "event"
    },
    {
      "anonymous": false,
      "inputs": [
        {
          "indexed": true,
          "internalType": "address",
          "name": "from",
          "type": "address"
        },
        {
          "indexed": true,
          "internalType": "address",
          "name": "to",
          "type": "address"
        },
        {
          "indexed": false,
          "internalType": "uint256",
          "name": "value",
          "type": "uint256"
        }
      ],
      "name": "Transfer",
      "type": "event"
    },
    {
      "inputs": [
        {
          "internalType": "address",
          "name": "owner",
          "type": "address"
        },
        {
          "internalType": "address",
          "name": "spender",
          "type": "address"
        }
      ],
      "name": "allowance",
      "outputs": [
        {
          "internalType": "uint256",
          "name": "",
          "type": "uint256"
        }
      ],
      "stateMutability": "view",
      "type": "function"
    },
    {
      "inputs": [
        {
          "internalType": "address",
          "name": "spender",
          "type": "address"
        },
        {
          "internalType": "uint256",
          "name": "value",
          "type": "uint256"
        }
      ],
      "name": "approve",
      "outputs": [
        {
          "internalType": "bool",
          "name": "",
          "type": "bool"
        }
      ],
      "stateMutability": "nonpayable",
      "type": "function"
    },
    {
      "inputs": [
        {
          "internalType": "address",
          "name": "account",
          "type": "address"
        }
      ],
      "name": "balanceOf",
      "outputs": [
        {
          "internalType": "uint256",
          "name": "",
          "type": "uint256"
        }
      ],
      "stateMutability": "view",
      "type": "function"
    },
    {
      "inputs": [
        {
          "internalType": "uint256",
          "name": "burnAmount",
          "type": "uint256"
        }
      ],
      "name": "burnTokens",
      "outputs": [],
      "stateMutability": "nonpayable",
      "type": "function"
    },
    {
      "inputs": [],
      "name": "contractAddress",
      "outputs": [
        {
          "internalType": "address",
          "name": "",
          "type": "address"
        }
      ],
      "stateMutability": "view",
      "type": "function"
    },
    {
      "inputs": [],
      "name": "decimals",
      "outputs": [
        {
          "internalType": "uint8",
          "name": "",
          "type": "uint8"
        }
      ],
      "stateMutability": "view",
      "type": "function"
    },
    {
      "inputs": [],
      "name": "distributeFund",
      "outputs": [],
      "stateMutability": "nonpayable",
      "type": "function"
    },
    {
      "inputs": [],
      "name": "finishTime",
      "outputs": [
        {
          "internalType": "uint256",
          "name": "",
          "type": "uint256"
        }
      ],
      "stateMutability": "view",
      "type": "function"
    },
    {
      "inputs": [
        {
          "internalType": "address",
          "name": "_from",
          "type": "address"
        },
        {
          "internalType": "uint256",
          "name": "_amount",
          "type": "uint256"
        }
      ],
      "name": "fundToken",
      "outputs": [],
      "stateMutability": "nonpayable",
      "type": "function"
    },
    {
      "inputs": [],
      "name": "fundingToken",
      "outputs": [
        {
          "internalType": "contract IERC20",
          "name": "",
          "type": "address"
        }
      ],
      "stateMutability": "view",
      "type": "function"
    },
    {
      "inputs": [],
      "name": "initialSupply",
      "outputs": [
        {
          "internalType": "uint256",
          "name": "",
          "type": "uint256"
        }
      ],
      "stateMutability": "view",
      "type": "function"
    },
    {
      "inputs": [
        {
          "internalType": "uint256",
          "name": "",
          "type": "uint256"
        }
      ],
      "name": "listOfContributors",
      "outputs": [
        {
          "internalType": "address",
          "name": "",
          "type": "address"
        }
      ],
      "stateMutability": "view",
      "type": "function"
    },
    {
      "inputs": [],
      "name": "name",
      "outputs": [
        {
          "internalType": "string",
          "name": "",
          "type": "string"
        }
      ],
      "stateMutability": "view",
      "type": "function"
    },
    {
      "inputs": [
        {
          "internalType": "address",
          "name": "",
          "type": "address"
        }
      ],
      "name": "newCoins",
      "outputs": [
        {
          "internalType": "uint256",
          "name": "",
          "type": "uint256"
        }
      ],
      "stateMutability": "view",
      "type": "function"
    },
    {
      "inputs": [],
      "name": "owner",
      "outputs": [
        {
          "internalType": "address",
          "name": "",
          "type": "address"
        }
      ],
      "stateMutability": "view",
      "type": "function"
    },
    {
      "inputs": [],
      "name": "raisedAmount",
      "outputs": [
        {
          "internalType": "uint256",
          "name": "",
          "type": "uint256"
        }
      ],
      "stateMutability": "view",
      "type": "function"
    },
    {
      "inputs": [],
      "name": "refundDistribute",
      "outputs": [],
      "stateMutability": "nonpayable",
      "type": "function"
    },
    {
      "inputs": [
        {
          "internalType": "address",
          "name": "",
          "type": "address"
        }
      ],
      "name": "refunds",
      "outputs": [
        {
          "internalType": "uint256",
          "name": "",
          "type": "uint256"
        }
      ],
      "stateMutability": "view",
      "type": "function"
    },
    {
      "inputs": [],
      "name": "symbol",
      "outputs": [
        {
          "internalType": "string",
          "name": "",
          "type": "string"
        }
      ],
      "stateMutability": "view",
      "type": "function"
    },
    {
      "inputs": [],
      "name": "totalSupply",
      "outputs": [
        {
          "internalType": "uint256",
          "name": "",
          "type": "uint256"
        }
      ],
      "stateMutability": "view",
      "type": "function"
    },
    {
      "inputs": [
        {
          "internalType": "address",
          "name": "to",
          "type": "address"
        },
        {
          "internalType": "uint256",
          "name": "value",
          "type": "uint256"
        }
      ],
      "name": "transfer",
      "outputs": [
        {
          "internalType": "bool",
          "name": "",
          "type": "bool"
        }
      ],
      "stateMutability": "nonpayable",
      "type": "function"
    },
    {
      "inputs": [
        {
          "internalType": "address",
          "name": "from",
          "type": "address"
        },
        {
          "internalType": "address",
          "name": "to",
          "type": "address"
        },
        {
          "internalType": "uint256",
          "name": "value",
          "type": "uint256"
        }
      ],
      "name": "transferFrom",
      "outputs": [
        {
          "internalType": "bool",
          "name": "",
          "type": "bool"
        }
      ],
      "stateMutability": "nonpayable",
      "type": "function"
    },
    {
      "inputs": [
        {
          "internalType": "address",
          "name": "to",
          "type": "address"
        },
        {
          "internalType": "uint256",
          "name": "amount",
          "type": "uint256"
        }
      ],
      "name": "transferToken",
      "outputs": [],
      "stateMutability": "nonpayable",
      "type": "function"
    },
    {
      "stateMutability": "payable",
      "type": "receive"
    }
  ],
  "bytecode": "0x60806040523480156200001157600080fd5b506040516200164e3803806200164e833981016040819052620000349162000325565b84848484838383828260036200004b838262000456565b5060046200005a828262000456565b50505080670de0b6b3a764000062000073919062000538565b600581905562000085903390620000eb565b5050600880546001600160a01b03191633179055506000600955620000ac81603c62000538565b620000b8904262000558565b600a555050600c80546001600160a01b0319166001600160a01b039490941693909317909255506200056e945050505050565b6001600160a01b0382166200011b5760405163ec442f0560e01b8152600060048201526024015b60405180910390fd5b62000129600083836200012d565b5050565b6001600160a01b0383166200015c57806002600082825462000150919062000558565b90915550620001d09050565b6001600160a01b03831660009081526020819052604090205481811015620001b15760405163391434e360e21b81526001600160a01b0385166004820152602481018290526044810183905260640162000112565b6001600160a01b03841660009081526020819052604090209082900390555b6001600160a01b038216620001ee576002805482900390556200020d565b6001600160a01b03821660009081526020819052604090208054820190555b816001600160a01b0316836001600160a01b03167fddf252ad1be2c89b69c2b068fc378daa952ba7f163c4a11628f55a4df523b3ef836040516200025391815260200190565b60405180910390a3505050565b634e487b7160e01b600052604160045260246000fd5b600082601f8301126200028857600080fd5b81516001600160401b0380821115620002a557620002a562000260565b604051601f8301601f19908116603f01168101908282118183101715620002d057620002d062000260565b81604052838152602092508683858801011115620002ed57600080fd5b600091505b83821015620003115785820183015181830184015290820190620002f2565b600093810190920192909252949350505050565b600080600080600060a086880312156200033e57600080fd5b85516001600160401b03808211156200035657600080fd5b6200036489838a0162000276565b965060208801519150808211156200037b57600080fd5b506200038a8882890162000276565b6040880151606089015160808a0151929750909550935090506001600160a01b0381168114620003b957600080fd5b809150509295509295909350565b600181811c90821680620003dc57607f821691505b602082108103620003fd57634e487b7160e01b600052602260045260246000fd5b50919050565b601f8211156200045157600081815260208120601f850160051c810160208610156200042c5750805b601f850160051c820191505b818110156200044d5782815560010162000438565b5050505b505050565b81516001600160401b0381111562000472576200047262000260565b6200048a81620004838454620003c7565b8462000403565b602080601f831160018114620004c25760008415620004a95750858301515b600019600386901b1c1916600185901b1785556200044d565b600085815260208120601f198616915b82811015620004f357888601518255948401946001909101908401620004d2565b5085821015620005125787850151600019600388901b60f8161c191681555b5050505050600190811b01905550565b634e487b7160e01b600052601160045260246000fd5b808202811582820484141762000552576200055262000522565b92915050565b8082018082111562000552576200055262000522565b6110d0806200057e6000396000f3fe6080604052600436106101445760003560e01c806370a08231116100b6578063bc3da5351161006f578063bc3da53514610399578063c59ee1dc146103c6578063d411b8b5146103dc578063dd62ed3e146103fc578063e3a6ac0114610442578063f6b4dfb41461045757600080fd5b806370a08231146102b657806378065f27146102ec5780637ea12e79146103245780638da5cb5b1461034457806395d89b4114610364578063a9059cbb1461037957600080fd5b8063244e575111610108578063244e57511461020c578063313ce56714610221578063378dc3dc1461023d5780635958611e1461025357806369cbbefe146102695780636d1b229d1461029657600080fd5b806306fdde0314610150578063095ea7b31461017b5780631072cbea146101ab57806318160ddd146101cd57806323b872dd146101ec57600080fd5b3661014b57005b600080fd5b34801561015c57600080fd5b50610165610477565b6040516101729190610e6f565b60405180910390f35b34801561018757600080fd5b5061019b610196366004610ed9565b610509565b6040519015158152602001610172565b3480156101b757600080fd5b506101cb6101c6366004610ed9565b610523565b005b3480156101d957600080fd5b506002545b604051908152602001610172565b3480156101f857600080fd5b5061019b610207366004610f03565b61053e565b34801561021857600080fd5b506101cb610562565b34801561022d57600080fd5b5060405160128152602001610172565b34801561024957600080fd5b506101de60055481565b34801561025f57600080fd5b506101de600a5481565b34801561027557600080fd5b506101de610284366004610f3f565b60076020526000908152604090205481565b3480156102a257600080fd5b506101cb6102b1366004610f61565b6106d8565b3480156102c257600080fd5b506101de6102d1366004610f3f565b6001600160a01b031660009081526020819052604090205490565b3480156102f857600080fd5b50600c5461030c906001600160a01b031681565b6040516001600160a01b039091168152602001610172565b34801561033057600080fd5b5061030c61033f366004610f61565b6106f3565b34801561035057600080fd5b5060085461030c906001600160a01b031681565b34801561037057600080fd5b5061016561071d565b34801561038557600080fd5b5061019b610394366004610ed9565b61072c565b3480156103a557600080fd5b506101de6103b4366004610f3f565b60066020526000908152604090205481565b3480156103d257600080fd5b506101de60095481565b3480156103e857600080fd5b506101cb6103f7366004610ed9565b61073a565b34801561040857600080fd5b506101de610417366004610f7a565b6001600160a01b03918216600090815260016020908152604080832093909416825291909152205490565b34801561044e57600080fd5b506101cb610a0a565b34801561046357600080fd5b50600d5461030c906001600160a01b031681565b60606003805461048690610fad565b80601f01602080910402602001604051908101604052809291908181526020018280546104b290610fad565b80156104ff5780601f106104d4576101008083540402835291602001916104ff565b820191906000526020600020905b8154815290600101906020018083116104e257829003601f168201915b5050505050905090565b600033610517818585610b4c565b60019150505b92915050565b6105398261039483670de0b6b3a7640000610ffd565b505050565b60003361054c858285610b59565b610557858585610bd7565b506001949350505050565b6008546001600160a01b031633146105b15760405162461bcd60e51b815260206004820152600d60248201526c36bab9ba1031329037bbb732b960991b60448201526064015b60405180910390fd5b600a5442116105f25760405162461bcd60e51b815260206004820152600d60248201526c2737ba103a34b6b29027ab22a960991b60448201526064016105a8565b60058054610601906004610ffd565b61060b9190611014565b60095410156106475760405162461bcd60e51b81526020600482015260086024820152671b9bdd0819dbd85b60c21b60448201526064016105a8565b60005b600b548110156106d5576000600b828154811061066957610669611036565b60009182526020808320909101546001600160a01b0316808352600790915260409091205490915080156106c0576001600160a01b038083166000908152600760205260408120556008546106c091168383610bd7565b505080806106cd9061104c565b91505061064a565b50565b6106d5336106ee83670de0b6b3a7640000610ffd565b610c36565b600b818154811061070357600080fd5b6000918252602090912001546001600160a01b0316905081565b60606004805461048690610fad565b600033610517818585610bd7565b600a5442106107775760405162461bcd60e51b81526020600482015260096024820152682a34b6b29027bb32b960b91b60448201526064016105a8565b600081116107de5760405162461bcd60e51b815260206004820152602e60248201527f596f75206e65656420746f20646f6e617465206120706f73697469766520616d60448201526d6f756e74206f6620746f6b656e7360901b60648201526084016105a8565b6005546009546107ee9083611065565b11156108355760405162461bcd60e51b81526020600482015260166024820152754578636565647320696e697469616c20737570706c7960501b60448201526064016105a8565b600c546040516323b872dd60e01b81526001600160a01b0384811660048301523060248301526044820184905260009216906323b872dd906064016020604051808303816000875af115801561088f573d6000803e3d6000fd5b505050506040513d601f19601f820116820180604052508101906108b39190611078565b9050806108fa5760405162461bcd60e51b8152602060048201526015602482015274151bdad95b881d1c985b9cd9995c8819985a5b1959605a1b60448201526064016105a8565b816009600082825461090c9190611065565b90915550506001600160a01b03831660009081526007602052604081208054849290610939908490611065565b90915550506001600160a01b0383166000908152600e602052604090205460ff166109c257600b805460018082019092557f0175b7a638427703f0dbe7bb9bbf987a2551717b34e79f33b5b1008d1fa01db90180546001600160a01b0319166001600160a01b0386169081179091556000908152600e60205260409020805460ff191690911790555b826001600160a01b03167fd37abe1e85060e55cb236652dcf2008106e4892d0c749839671c26448a8eeb06836040516109fd91815260200190565b60405180910390a2505050565b60058054610a19906004610ffd565b610a239190611014565b60095410610a655760405162461bcd60e51b815260206004820152600f60248201526e1c18129034b9903737ba1037bb32b960891b60448201526064016105a8565b600a544211610aa15760405162461bcd60e51b81526020600482015260086024820152672737ba1037bb32b960c11b60448201526064016105a8565b60005b600b548110156106d5576000600b8281548110610ac357610ac3611036565b60009182526020808320909101546001600160a01b031680835260069091526040909120549091508015610b37576001600160a01b0382166000818152600660205260408082208290555183156108fc0291849190818181858888f19350505050158015610b35573d6000803e3d6000fd5b505b50508080610b449061104c565b915050610aa4565b6105398383836001610c70565b6001600160a01b038381166000908152600160209081526040808320938616835292905220546000198114610bd15781811015610bc257604051637dc7a0d960e11b81526001600160a01b038416600482015260248101829052604481018390526064016105a8565b610bd184848484036000610c70565b50505050565b6001600160a01b038316610c0157604051634b637e8f60e11b8152600060048201526024016105a8565b6001600160a01b038216610c2b5760405163ec442f0560e01b8152600060048201526024016105a8565b610539838383610d45565b6001600160a01b038216610c6057604051634b637e8f60e11b8152600060048201526024016105a8565b610c6c82600083610d45565b5050565b6001600160a01b038416610c9a5760405163e602df0560e01b8152600060048201526024016105a8565b6001600160a01b038316610cc457604051634a1406b160e11b8152600060048201526024016105a8565b6001600160a01b0380851660009081526001602090815260408083209387168352929052208290558015610bd157826001600160a01b0316846001600160a01b03167f8c5be1e5ebec7d5bd14f71427d1e84f3dd0314c0f7b2291e5b200ac8c7c3b92584604051610d3791815260200190565b60405180910390a350505050565b6001600160a01b038316610d70578060026000828254610d659190611065565b90915550610de29050565b6001600160a01b03831660009081526020819052604090205481811015610dc35760405163391434e360e21b81526001600160a01b038516600482015260248101829052604481018390526064016105a8565b6001600160a01b03841660009081526020819052604090209082900390555b6001600160a01b038216610dfe57600280548290039055610e1d565b6001600160a01b03821660009081526020819052604090208054820190555b816001600160a01b0316836001600160a01b03167fddf252ad1be2c89b69c2b068fc378daa952ba7f163c4a11628f55a4df523b3ef83604051610e6291815260200190565b60405180910390a3505050565b600060208083528351808285015260005b81811015610e9c57858101830151858201604001528201610e80565b506000604082860101526040601f19601f8301168501019250505092915050565b80356001600160a01b0381168114610ed457600080fd5b919050565b60008060408385031215610eec57600080fd5b610ef583610ebd565b946020939093013593505050565b600080600060608486031215610f1857600080fd5b610f2184610ebd565b9250610f2f60208501610ebd565b9150604084013590509250925092565b600060208284031215610f5157600080fd5b610f5a82610ebd565b9392505050565b600060208284031215610f7357600080fd5b5035919050565b60008060408385031215610f8d57600080fd5b610f9683610ebd565b9150610fa460208401610ebd565b90509250929050565b600181811c90821680610fc157607f821691505b602082108103610fe157634e487b7160e01b600052602260045260246000fd5b50919050565b634e487b7160e01b600052601160045260246000fd5b808202811582820484141761051d5761051d610fe7565b60008261103157634e487b7160e01b600052601260045260246000fd5b500490565b634e487b7160e01b600052603260045260246000fd5b60006001820161105e5761105e610fe7565b5060010190565b8082018082111561051d5761051d610fe7565b60006020828403121561108a57600080fd5b81518015158114610f5a57600080fdfea2646970667358221220d6cefd499d37d86e2fbfc3d836aec18987fdbd6228e3dccf98484c7aa1b3e82f64736f6c63430008140033",
  "linkReferences": {},
  "deployedLinkReferences": {}
}