{
  "_format": "hh-sol-artifact-1",
  "contractName": "ReceiveArtCoinContract",
  "sourceName": "contracts/ReceiveArtCoin.sol",
  "abi": [
    {
      "inputs": [
        {
          "internalType": "string",
          "name": "name",
          "type": "string"
        },
        {
          "internalType": "string",
          "name": "symbol",
          "type": "string"
        },
        {
          "internalType": "uint256",
          "name": "_initialSupply",
          "type": "uint256"
        },
        {
          "internalType": "uint256",
          "name": "_time",
          "type": "uint256"
        },
        {
          "internalType": "address",
          "name": "_tokenAddress",
          "type": "address"
        }
      ],
      "stateMutability": "nonpayable",
      "type": "constructor"
    },
    {
      "inputs": [
        {
          "internalType": "address",
          "name": "spender",
          "type": "address"
        },
        {
          "internalType": "uint256",
          "name": "allowance",
          "type": "uint256"
        },
        {
          "internalType": "uint256",
          "name": "needed",
          "type": "uint256"
        }
      ],
      "name": "ERC20InsufficientAllowance",
      "type": "error"
    },
    {
      "inputs": [
        {
          "internalType": "address",
          "name": "sender",
          "type": "address"
        },
        {
          "internalType": "uint256",
          "name": "balance",
          "type": "uint256"
        },
        {
          "internalType": "uint256",
          "name": "needed",
          "type": "uint256"
        }
      ],
      "name": "ERC20InsufficientBalance",
      "type": "error"
    },
    {
      "inputs": [
        {
          "internalType": "address",
          "name": "approver",
          "type": "address"
        }
      ],
      "name": "ERC20InvalidApprover",
      "type": "error"
    },
    {
      "inputs": [
        {
          "internalType": "address",
          "name": "receiver",
          "type": "address"
        }
      ],
      "name": "ERC20InvalidReceiver",
      "type": "error"
    },
    {
      "inputs": [
        {
          "internalType": "address",
          "name": "sender",
          "type": "address"
        }
      ],
      "name": "ERC20InvalidSender",
      "type": "error"
    },
    {
      "inputs": [
        {
          "internalType": "address",
          "name": "spender",
          "type": "address"
        }
      ],
      "name": "ERC20InvalidSpender",
      "type": "error"
    },
    {
      "anonymous": false,
      "inputs": [
        {
          "indexed": true,
          "internalType": "address",
          "name": "owner",
          "type": "address"
        },
        {
          "indexed": true,
          "internalType": "address",
          "name": "spender",
          "type": "address"
        },
        {
          "indexed": false,
          "internalType": "uint256",
          "name": "value",
          "type": "uint256"
        }
      ],
      "name": "Approval",
      "type": "event"
    },
    {
      "anonymous": false,
      "inputs": [
        {
          "indexed": true,
          "internalType": "address",
          "name": "funder",
          "type": "address"
        },
        {
          "indexed": false,
          "internalType": "uint256",
          "name": "amount",
          "type": "uint256"
        }
      ],
      "name": "TokenReceived",
      "type": "event"
    },
    {
      "anonymous": false,
      "inputs": [
        {
          "indexed": true,
          "internalType": "address",
          "name": "from",
          "type": "address"
        },
        {
          "indexed": true,
          "internalType": "address",
          "name": "to",
          "type": "address"
        },
        {
          "indexed": false,
          "internalType": "uint256",
          "name": "value",
          "type": "uint256"
        }
      ],
      "name": "Transfer",
      "type": "event"
    },
    {
      "inputs": [
        {
          "internalType": "address",
          "name": "owner",
          "type": "address"
        },
        {
          "internalType": "address",
          "name": "spender",
          "type": "address"
        }
      ],
      "name": "allowance",
      "outputs": [
        {
          "internalType": "uint256",
          "name": "",
          "type": "uint256"
        }
      ],
      "stateMutability": "view",
      "type": "function"
    },
    {
      "inputs": [
        {
          "internalType": "address",
          "name": "spender",
          "type": "address"
        },
        {
          "internalType": "uint256",
          "name": "value",
          "type": "uint256"
        }
      ],
      "name": "approve",
      "outputs": [
        {
          "internalType": "bool",
          "name": "",
          "type": "bool"
        }
      ],
      "stateMutability": "nonpayable",
      "type": "function"
    },
    {
      "inputs": [
        {
          "internalType": "address",
          "name": "account",
          "type": "address"
        }
      ],
      "name": "balanceOf",
      "outputs": [
        {
          "internalType": "uint256",
          "name": "",
          "type": "uint256"
        }
      ],
      "stateMutability": "view",
      "type": "function"
    },
    {
      "inputs": [
        {
          "internalType": "uint256",
          "name": "burnAmount",
          "type": "uint256"
        }
      ],
      "name": "burnTokens",
      "outputs": [],
      "stateMutability": "nonpayable",
      "type": "function"
    },
    {
      "inputs": [],
      "name": "contractAddress",
      "outputs": [
        {
          "internalType": "address",
          "name": "",
          "type": "address"
        }
      ],
      "stateMutability": "view",
      "type": "function"
    },
    {
      "inputs": [],
      "name": "decimals",
      "outputs": [
        {
          "internalType": "uint8",
          "name": "",
          "type": "uint8"
        }
      ],
      "stateMutability": "view",
      "type": "function"
    },
    {
      "inputs": [],
      "name": "distributeFund",
      "outputs": [],
      "stateMutability": "nonpayable",
      "type": "function"
    },
    {
      "inputs": [],
      "name": "finishTime",
      "outputs": [
        {
          "internalType": "uint256",
          "name": "",
          "type": "uint256"
        }
      ],
      "stateMutability": "view",
      "type": "function"
    },
    {
      "inputs": [
        {
          "internalType": "address",
          "name": "_from",
          "type": "address"
        },
        {
          "internalType": "address",
          "name": "_to",
          "type": "address"
        },
        {
          "internalType": "uint256",
          "name": "_amount",
          "type": "uint256"
        }
      ],
      "name": "fundToken",
      "outputs": [],
      "stateMutability": "nonpayable",
      "type": "function"
    },
    {
      "inputs": [],
      "name": "fundingToken",
      "outputs": [
        {
          "internalType": "contract IERC20",
          "name": "",
          "type": "address"
        }
      ],
      "stateMutability": "view",
      "type": "function"
    },
    {
      "inputs": [],
      "name": "initialSupply",
      "outputs": [
        {
          "internalType": "uint256",
          "name": "",
          "type": "uint256"
        }
      ],
      "stateMutability": "view",
      "type": "function"
    },
    {
      "inputs": [],
      "name": "name",
      "outputs": [
        {
          "internalType": "string",
          "name": "",
          "type": "string"
        }
      ],
      "stateMutability": "view",
      "type": "function"
    },
    {
      "inputs": [
        {
          "internalType": "address",
          "name": "",
          "type": "address"
        }
      ],
      "name": "newCoins",
      "outputs": [
        {
          "internalType": "uint256",
          "name": "",
          "type": "uint256"
        }
      ],
      "stateMutability": "view",
      "type": "function"
    },
    {
      "inputs": [],
      "name": "owner",
      "outputs": [
        {
          "internalType": "address",
          "name": "",
          "type": "address"
        }
      ],
      "stateMutability": "view",
      "type": "function"
    },
    {
      "inputs": [],
      "name": "raisedAmount",
      "outputs": [
        {
          "internalType": "uint256",
          "name": "",
          "type": "uint256"
        }
      ],
      "stateMutability": "view",
      "type": "function"
    },
    {
      "inputs": [],
      "name": "refundDistribute",
      "outputs": [],
      "stateMutability": "nonpayable",
      "type": "function"
    },
    {
      "inputs": [
        {
          "internalType": "address",
          "name": "",
          "type": "address"
        }
      ],
      "name": "refunds",
      "outputs": [
        {
          "internalType": "uint256",
          "name": "",
          "type": "uint256"
        }
      ],
      "stateMutability": "view",
      "type": "function"
    },
    {
      "inputs": [],
      "name": "symbol",
      "outputs": [
        {
          "internalType": "string",
          "name": "",
          "type": "string"
        }
      ],
      "stateMutability": "view",
      "type": "function"
    },
    {
      "inputs": [],
      "name": "totalApply",
      "outputs": [
        {
          "internalType": "uint256",
          "name": "",
          "type": "uint256"
        }
      ],
      "stateMutability": "view",
      "type": "function"
    },
    {
      "inputs": [],
      "name": "totalSupply",
      "outputs": [
        {
          "internalType": "uint256",
          "name": "",
          "type": "uint256"
        }
      ],
      "stateMutability": "view",
      "type": "function"
    },
    {
      "inputs": [
        {
          "internalType": "address",
          "name": "to",
          "type": "address"
        },
        {
          "internalType": "uint256",
          "name": "value",
          "type": "uint256"
        }
      ],
      "name": "transfer",
      "outputs": [
        {
          "internalType": "bool",
          "name": "",
          "type": "bool"
        }
      ],
      "stateMutability": "nonpayable",
      "type": "function"
    },
    {
      "inputs": [
        {
          "internalType": "address",
          "name": "from",
          "type": "address"
        },
        {
          "internalType": "address",
          "name": "to",
          "type": "address"
        },
        {
          "internalType": "uint256",
          "name": "value",
          "type": "uint256"
        }
      ],
      "name": "transferFrom",
      "outputs": [
        {
          "internalType": "bool",
          "name": "",
          "type": "bool"
        }
      ],
      "stateMutability": "nonpayable",
      "type": "function"
    },
    {
      "inputs": [
        {
          "internalType": "address",
          "name": "to",
          "type": "address"
        },
        {
          "internalType": "uint256",
          "name": "amount",
          "type": "uint256"
        }
      ],
      "name": "transferToken",
      "outputs": [],
      "stateMutability": "nonpayable",
      "type": "function"
    },
    {
      "stateMutability": "payable",
      "type": "receive"
    }
  ],
  "bytecode": "0x60806040523480156200001157600080fd5b506040516200142338038062001423833981016040819052620000349162000320565b84848484838383828260036200004b838262000451565b5060046200005a828262000451565b5050506200007e3382670de0b6b3a764000062000078919062000533565b620000e6565b5050600880546001600160a01b03191633179055506000600955620000a581603c62000533565b620000b1904262000553565b600a555050600c80546001600160a01b0319166001600160a01b039490941693909317909255505050600e5550620005699050565b6001600160a01b038216620001165760405163ec442f0560e01b8152600060048201526024015b60405180910390fd5b620001246000838362000128565b5050565b6001600160a01b038316620001575780600260008282546200014b919062000553565b90915550620001cb9050565b6001600160a01b03831660009081526020819052604090205481811015620001ac5760405163391434e360e21b81526001600160a01b038516600482015260248101829052604481018390526064016200010d565b6001600160a01b03841660009081526020819052604090209082900390555b6001600160a01b038216620001e95760028054829003905562000208565b6001600160a01b03821660009081526020819052604090208054820190555b816001600160a01b0316836001600160a01b03167fddf252ad1be2c89b69c2b068fc378daa952ba7f163c4a11628f55a4df523b3ef836040516200024e91815260200190565b60405180910390a3505050565b634e487b7160e01b600052604160045260246000fd5b600082601f8301126200028357600080fd5b81516001600160401b0380821115620002a057620002a06200025b565b604051601f8301601f19908116603f01168101908282118183101715620002cb57620002cb6200025b565b81604052838152602092508683858801011115620002e857600080fd5b600091505b838210156200030c5785820183015181830184015290820190620002ed565b600093810190920192909252949350505050565b600080600080600060a086880312156200033957600080fd5b85516001600160401b03808211156200035157600080fd5b6200035f89838a0162000271565b965060208801519150808211156200037657600080fd5b50620003858882890162000271565b6040880151606089015160808a0151929750909550935090506001600160a01b0381168114620003b457600080fd5b809150509295509295909350565b600181811c90821680620003d757607f821691505b602082108103620003f857634e487b7160e01b600052602260045260246000fd5b50919050565b601f8211156200044c57600081815260208120601f850160051c81016020861015620004275750805b601f850160051c820191505b81811015620004485782815560010162000433565b5050505b505050565b81516001600160401b038111156200046d576200046d6200025b565b62000485816200047e8454620003c2565b84620003fe565b602080601f831160018114620004bd5760008415620004a45750858301515b600019600386901b1c1916600185901b17855562000448565b600085815260208120601f198616915b82811015620004ee57888601518255948401946001909101908401620004cd565b50858210156200050d5787850151600019600388901b60f8161c191681555b5050505050600190811b01905550565b634e487b7160e01b600052601160045260246000fd5b80820281158282048414176200054d576200054d6200051d565b92915050565b808201808211156200054d576200054d6200051d565b610eaa80620005796000396000f3fe6080604052600436106101445760003560e01c806370a08231116100b6578063c59ee1dc1161006f578063c59ee1dc146103a6578063c6afa183146103bc578063dd62ed3e146103d2578063e3a6ac0114610418578063f6b4dfb41461042d578063ffad08bb1461044d57600080fd5b806370a08231146102b657806378065f27146102ec5780638da5cb5b1461032457806395d89b4114610344578063a9059cbb14610359578063bc3da5351461037957600080fd5b8063244e575111610108578063244e57511461020c578063313ce56714610221578063378dc3dc1461023d5780635958611e1461025357806369cbbefe146102695780636d1b229d1461029657600080fd5b806306fdde0314610150578063095ea7b31461017b5780631072cbea146101ab57806318160ddd146101cd57806323b872dd146101ec57600080fd5b3661014b57005b600080fd5b34801561015c57600080fd5b5061016561046d565b6040516101729190610c6b565b60405180910390f35b34801561018757600080fd5b5061019b610196366004610cd5565b6104ff565b6040519015158152602001610172565b3480156101b757600080fd5b506101cb6101c6366004610cd5565b610519565b005b3480156101d957600080fd5b506002545b604051908152602001610172565b3480156101f857600080fd5b5061019b610207366004610cff565b610534565b34801561021857600080fd5b506101cb610558565b34801561022d57600080fd5b5060405160128152602001610172565b34801561024957600080fd5b506101de600e5481565b34801561025f57600080fd5b506101de600a5481565b34801561027557600080fd5b506101de610284366004610d3b565b60066020526000908152604090205481565b3480156102a257600080fd5b506101cb6102b1366004610d5d565b6106d0565b3480156102c257600080fd5b506101de6102d1366004610d3b565b6001600160a01b031660009081526020819052604090205490565b3480156102f857600080fd5b50600c5461030c906001600160a01b031681565b6040516001600160a01b039091168152602001610172565b34801561033057600080fd5b5060085461030c906001600160a01b031681565b34801561035057600080fd5b506101656106eb565b34801561036557600080fd5b5061019b610374366004610cd5565b6106fa565b34801561038557600080fd5b506101de610394366004610d3b565b60056020526000908152604090205481565b3480156103b257600080fd5b506101de60095481565b3480156103c857600080fd5b506101de60075481565b3480156103de57600080fd5b506101de6103ed366004610d76565b6001600160a01b03918216600090815260016020908152604080832093909416825291909152205490565b34801561042457600080fd5b506101cb610708565b34801561043957600080fd5b50600d5461030c906001600160a01b031681565b34801561045957600080fd5b506101cb610468366004610cff565b61084c565b60606003805461047c90610da9565b80601f01602080910402602001604051908101604052809291908181526020018280546104a890610da9565b80156104f55780601f106104ca576101008083540402835291602001916104f5565b820191906000526020600020905b8154815290600101906020018083116104d857829003601f168201915b5050505050905090565b60003361050d818585610948565b60019150505b92915050565b61052f8261037483670de0b6b3a7640000610df9565b505050565b600033610542858285610955565b61054d8585856109d3565b506001949350505050565b6008546001600160a01b031633146105a75760405162461bcd60e51b815260206004820152600d60248201526c36bab9ba1031329037bbb732b960991b60448201526064015b60405180910390fd5b600a5442116105e85760405162461bcd60e51b815260206004820152600d60248201526c2737ba103a34b6b29027ab22a960991b604482015260640161059e565b600560075460046105f99190610df9565b6106039190610e10565b600954101561063f5760405162461bcd60e51b81526020600482015260086024820152671b9bdd0819dbd85b60c21b604482015260640161059e565b60005b600b548110156106cd576000600b828154811061066157610661610e32565b60009182526020808320909101546001600160a01b0316808352600690915260409091205490915080156106b8576001600160a01b038083166000908152600660205260408120556008546106b8911683836109d3565b505080806106c590610e48565b915050610642565b50565b6106cd336106e683670de0b6b3a7640000610df9565b610a32565b60606004805461047c90610da9565b60003361050d8185856109d3565b600560075460046107199190610df9565b6107239190610e10565b600954106107655760405162461bcd60e51b815260206004820152600f60248201526e1c18129034b9903737ba1037bb32b960891b604482015260640161059e565b600a5442116107a15760405162461bcd60e51b81526020600482015260086024820152672737ba1037bb32b960c11b604482015260640161059e565b60005b600b548110156106cd576000600b82815481106107c3576107c3610e32565b60009182526020808320909101546001600160a01b031680835260059091526040909120549091508015610837576001600160a01b0382166000818152600560205260408082208290555183156108fc0291849190818181858888f19350505050158015610835573d6000803e3d6000fd5b505b5050808061084490610e48565b9150506107a4565b600081116108b35760405162461bcd60e51b815260206004820152602e60248201527f596f75206e65656420746f20646f6e617465206120706f73697469766520616d60448201526d6f756e74206f6620746f6b656e7360901b606482015260840161059e565b600e546009546108c39083610e61565b11156108ce57600080fd5b6108ea83836108e584670de0b6b3a7640000610df9565b6109d3565b60405181815233907f47998b4998056cd0448b356cfcb8cb0eb18fa00844e43e71947e22fcb6fd43ef9060200160405180910390a2336000908152600660205260408120805483929061093e908490610e61565b9091555050505050565b61052f8383836001610a6c565b6001600160a01b0383811660009081526001602090815260408083209386168352929052205460001981146109cd57818110156109be57604051637dc7a0d960e11b81526001600160a01b0384166004820152602481018290526044810183905260640161059e565b6109cd84848484036000610a6c565b50505050565b6001600160a01b0383166109fd57604051634b637e8f60e11b81526000600482015260240161059e565b6001600160a01b038216610a275760405163ec442f0560e01b81526000600482015260240161059e565b61052f838383610b41565b6001600160a01b038216610a5c57604051634b637e8f60e11b81526000600482015260240161059e565b610a6882600083610b41565b5050565b6001600160a01b038416610a965760405163e602df0560e01b81526000600482015260240161059e565b6001600160a01b038316610ac057604051634a1406b160e11b81526000600482015260240161059e565b6001600160a01b03808516600090815260016020908152604080832093871683529290522082905580156109cd57826001600160a01b0316846001600160a01b03167f8c5be1e5ebec7d5bd14f71427d1e84f3dd0314c0f7b2291e5b200ac8c7c3b92584604051610b3391815260200190565b60405180910390a350505050565b6001600160a01b038316610b6c578060026000828254610b619190610e61565b90915550610bde9050565b6001600160a01b03831660009081526020819052604090205481811015610bbf5760405163391434e360e21b81526001600160a01b0385166004820152602481018290526044810183905260640161059e565b6001600160a01b03841660009081526020819052604090209082900390555b6001600160a01b038216610bfa57600280548290039055610c19565b6001600160a01b03821660009081526020819052604090208054820190555b816001600160a01b0316836001600160a01b03167fddf252ad1be2c89b69c2b068fc378daa952ba7f163c4a11628f55a4df523b3ef83604051610c5e91815260200190565b60405180910390a3505050565b600060208083528351808285015260005b81811015610c9857858101830151858201604001528201610c7c565b506000604082860101526040601f19601f8301168501019250505092915050565b80356001600160a01b0381168114610cd057600080fd5b919050565b60008060408385031215610ce857600080fd5b610cf183610cb9565b946020939093013593505050565b600080600060608486031215610d1457600080fd5b610d1d84610cb9565b9250610d2b60208501610cb9565b9150604084013590509250925092565b600060208284031215610d4d57600080fd5b610d5682610cb9565b9392505050565b600060208284031215610d6f57600080fd5b5035919050565b60008060408385031215610d8957600080fd5b610d9283610cb9565b9150610da060208401610cb9565b90509250929050565b600181811c90821680610dbd57607f821691505b602082108103610ddd57634e487b7160e01b600052602260045260246000fd5b50919050565b634e487b7160e01b600052601160045260246000fd5b808202811582820484141761051357610513610de3565b600082610e2d57634e487b7160e01b600052601260045260246000fd5b500490565b634e487b7160e01b600052603260045260246000fd5b600060018201610e5a57610e5a610de3565b5060010190565b8082018082111561051357610513610de356fea2646970667358221220874c51bfc691645281f946eef9890c6496bc232ef86f5fdbfc1cbadfa2f3aec964736f6c63430008140033",
  "linkReferences": {},
  "deployedLinkReferences": {}
}