{
  "_format": "hh-sol-artifact-1",
  "contractName": "ReceiveArtCoinContract",
  "sourceName": "contracts/ReceiveArtCoin.sol",
  "abi": [
    {
      "inputs": [
        {
          "internalType": "string",
          "name": "name",
          "type": "string"
        },
        {
          "internalType": "string",
          "name": "symbol",
          "type": "string"
        },
        {
          "internalType": "uint256",
          "name": "_initialSupply",
          "type": "uint256"
        },
        {
          "internalType": "uint256",
          "name": "_time",
          "type": "uint256"
        }
      ],
      "stateMutability": "nonpayable",
      "type": "constructor"
    },
    {
      "inputs": [
        {
          "internalType": "address",
          "name": "spender",
          "type": "address"
        },
        {
          "internalType": "uint256",
          "name": "allowance",
          "type": "uint256"
        },
        {
          "internalType": "uint256",
          "name": "needed",
          "type": "uint256"
        }
      ],
      "name": "ERC20InsufficientAllowance",
      "type": "error"
    },
    {
      "inputs": [
        {
          "internalType": "address",
          "name": "sender",
          "type": "address"
        },
        {
          "internalType": "uint256",
          "name": "balance",
          "type": "uint256"
        },
        {
          "internalType": "uint256",
          "name": "needed",
          "type": "uint256"
        }
      ],
      "name": "ERC20InsufficientBalance",
      "type": "error"
    },
    {
      "inputs": [
        {
          "internalType": "address",
          "name": "approver",
          "type": "address"
        }
      ],
      "name": "ERC20InvalidApprover",
      "type": "error"
    },
    {
      "inputs": [
        {
          "internalType": "address",
          "name": "receiver",
          "type": "address"
        }
      ],
      "name": "ERC20InvalidReceiver",
      "type": "error"
    },
    {
      "inputs": [
        {
          "internalType": "address",
          "name": "sender",
          "type": "address"
        }
      ],
      "name": "ERC20InvalidSender",
      "type": "error"
    },
    {
      "inputs": [
        {
          "internalType": "address",
          "name": "spender",
          "type": "address"
        }
      ],
      "name": "ERC20InvalidSpender",
      "type": "error"
    },
    {
      "anonymous": false,
      "inputs": [
        {
          "indexed": true,
          "internalType": "address",
          "name": "owner",
          "type": "address"
        },
        {
          "indexed": true,
          "internalType": "address",
          "name": "spender",
          "type": "address"
        },
        {
          "indexed": false,
          "internalType": "uint256",
          "name": "value",
          "type": "uint256"
        }
      ],
      "name": "Approval",
      "type": "event"
    },
    {
      "anonymous": false,
      "inputs": [
        {
          "indexed": true,
          "internalType": "address",
          "name": "_from",
          "type": "address"
        },
        {
          "indexed": false,
          "internalType": "uint256",
          "name": "_amount",
          "type": "uint256"
        }
      ],
      "name": "NewCoinsUpdated",
      "type": "event"
    },
    {
      "anonymous": false,
      "inputs": [
        {
          "indexed": true,
          "internalType": "address",
          "name": "sender",
          "type": "address"
        },
        {
          "indexed": true,
          "internalType": "address",
          "name": "tokenAddress",
          "type": "address"
        },
        {
          "indexed": false,
          "internalType": "uint256",
          "name": "amount",
          "type": "uint256"
        }
      ],
      "name": "TokenReceived",
      "type": "event"
    },
    {
      "anonymous": false,
      "inputs": [
        {
          "indexed": true,
          "internalType": "address",
          "name": "from",
          "type": "address"
        },
        {
          "indexed": true,
          "internalType": "address",
          "name": "to",
          "type": "address"
        },
        {
          "indexed": false,
          "internalType": "uint256",
          "name": "value",
          "type": "uint256"
        }
      ],
      "name": "Transfer",
      "type": "event"
    },
    {
      "inputs": [
        {
          "internalType": "address",
          "name": "owner",
          "type": "address"
        },
        {
          "internalType": "address",
          "name": "spender",
          "type": "address"
        }
      ],
      "name": "allowance",
      "outputs": [
        {
          "internalType": "uint256",
          "name": "",
          "type": "uint256"
        }
      ],
      "stateMutability": "view",
      "type": "function"
    },
    {
      "inputs": [
        {
          "internalType": "address",
          "name": "spender",
          "type": "address"
        },
        {
          "internalType": "uint256",
          "name": "value",
          "type": "uint256"
        }
      ],
      "name": "approve",
      "outputs": [
        {
          "internalType": "bool",
          "name": "",
          "type": "bool"
        }
      ],
      "stateMutability": "nonpayable",
      "type": "function"
    },
    {
      "inputs": [],
      "name": "artPieceToken",
      "outputs": [
        {
          "internalType": "address",
          "name": "",
          "type": "address"
        }
      ],
      "stateMutability": "view",
      "type": "function"
    },
    {
      "inputs": [
        {
          "internalType": "address",
          "name": "account",
          "type": "address"
        }
      ],
      "name": "balanceOf",
      "outputs": [
        {
          "internalType": "uint256",
          "name": "",
          "type": "uint256"
        }
      ],
      "stateMutability": "view",
      "type": "function"
    },
    {
      "inputs": [
        {
          "internalType": "uint256",
          "name": "burnAmount",
          "type": "uint256"
        }
      ],
      "name": "burnTokens",
      "outputs": [],
      "stateMutability": "nonpayable",
      "type": "function"
    },
    {
      "inputs": [],
      "name": "decimals",
      "outputs": [
        {
          "internalType": "uint8",
          "name": "",
          "type": "uint8"
        }
      ],
      "stateMutability": "view",
      "type": "function"
    },
    {
      "inputs": [],
      "name": "distributeFund",
      "outputs": [],
      "stateMutability": "nonpayable",
      "type": "function"
    },
    {
      "inputs": [],
      "name": "finishTime",
      "outputs": [
        {
          "internalType": "uint256",
          "name": "",
          "type": "uint256"
        }
      ],
      "stateMutability": "view",
      "type": "function"
    },
    {
      "inputs": [
        {
          "internalType": "uint256",
          "name": "_amount",
          "type": "uint256"
        }
      ],
      "name": "fundToken",
      "outputs": [],
      "stateMutability": "nonpayable",
      "type": "function"
    },
    {
      "inputs": [],
      "name": "fundingToken",
      "outputs": [
        {
          "internalType": "contract IERC20",
          "name": "",
          "type": "address"
        }
      ],
      "stateMutability": "view",
      "type": "function"
    },
    {
      "inputs": [],
      "name": "getAllContributor",
      "outputs": [
        {
          "internalType": "address[]",
          "name": "",
          "type": "address[]"
        }
      ],
      "stateMutability": "view",
      "type": "function"
    },
    {
      "inputs": [],
      "name": "getInitialSupply",
      "outputs": [
        {
          "internalType": "uint256",
          "name": "",
          "type": "uint256"
        }
      ],
      "stateMutability": "view",
      "type": "function"
    },
    {
      "inputs": [],
      "name": "getRaisedAmount",
      "outputs": [
        {
          "internalType": "uint256",
          "name": "",
          "type": "uint256"
        }
      ],
      "stateMutability": "view",
      "type": "function"
    },
    {
      "inputs": [],
      "name": "initialSupply",
      "outputs": [
        {
          "internalType": "uint256",
          "name": "",
          "type": "uint256"
        }
      ],
      "stateMutability": "view",
      "type": "function"
    },
    {
      "inputs": [
        {
          "internalType": "uint256",
          "name": "",
          "type": "uint256"
        }
      ],
      "name": "listOfContributors",
      "outputs": [
        {
          "internalType": "address",
          "name": "",
          "type": "address"
        }
      ],
      "stateMutability": "view",
      "type": "function"
    },
    {
      "inputs": [],
      "name": "mainWalletaddress",
      "outputs": [
        {
          "internalType": "address",
          "name": "",
          "type": "address"
        }
      ],
      "stateMutability": "view",
      "type": "function"
    },
    {
      "inputs": [],
      "name": "name",
      "outputs": [
        {
          "internalType": "string",
          "name": "",
          "type": "string"
        }
      ],
      "stateMutability": "view",
      "type": "function"
    },
    {
      "inputs": [
        {
          "internalType": "address",
          "name": "",
          "type": "address"
        }
      ],
      "name": "newCoins",
      "outputs": [
        {
          "internalType": "uint256",
          "name": "",
          "type": "uint256"
        }
      ],
      "stateMutability": "view",
      "type": "function"
    },
    {
      "inputs": [],
      "name": "owner",
      "outputs": [
        {
          "internalType": "address",
          "name": "",
          "type": "address"
        }
      ],
      "stateMutability": "view",
      "type": "function"
    },
    {
      "inputs": [],
      "name": "raisedAmount",
      "outputs": [
        {
          "internalType": "uint256",
          "name": "",
          "type": "uint256"
        }
      ],
      "stateMutability": "view",
      "type": "function"
    },
    {
      "inputs": [],
      "name": "refundDistribute",
      "outputs": [],
      "stateMutability": "nonpayable",
      "type": "function"
    },
    {
      "inputs": [
        {
          "internalType": "address",
          "name": "",
          "type": "address"
        }
      ],
      "name": "refunds",
      "outputs": [
        {
          "internalType": "uint256",
          "name": "",
          "type": "uint256"
        }
      ],
      "stateMutability": "view",
      "type": "function"
    },
    {
      "inputs": [],
      "name": "symbol",
      "outputs": [
        {
          "internalType": "string",
          "name": "",
          "type": "string"
        }
      ],
      "stateMutability": "view",
      "type": "function"
    },
    {
      "inputs": [],
      "name": "totalSupply",
      "outputs": [
        {
          "internalType": "uint256",
          "name": "",
          "type": "uint256"
        }
      ],
      "stateMutability": "view",
      "type": "function"
    },
    {
      "inputs": [
        {
          "internalType": "address",
          "name": "to",
          "type": "address"
        },
        {
          "internalType": "uint256",
          "name": "value",
          "type": "uint256"
        }
      ],
      "name": "transfer",
      "outputs": [
        {
          "internalType": "bool",
          "name": "",
          "type": "bool"
        }
      ],
      "stateMutability": "nonpayable",
      "type": "function"
    },
    {
      "inputs": [
        {
          "internalType": "address",
          "name": "from",
          "type": "address"
        },
        {
          "internalType": "address",
          "name": "to",
          "type": "address"
        },
        {
          "internalType": "uint256",
          "name": "value",
          "type": "uint256"
        }
      ],
      "name": "transferFrom",
      "outputs": [
        {
          "internalType": "bool",
          "name": "",
          "type": "bool"
        }
      ],
      "stateMutability": "nonpayable",
      "type": "function"
    },
    {
      "inputs": [
        {
          "internalType": "address",
          "name": "to",
          "type": "address"
        },
        {
          "internalType": "uint256",
          "name": "amount",
          "type": "uint256"
        }
      ],
      "name": "transferToken",
      "outputs": [],
      "stateMutability": "nonpayable",
      "type": "function"
    },
    {
      "stateMutability": "payable",
      "type": "receive"
    }
  ],
  "bytecode": "0x60806040523480156200001157600080fd5b50604051620018983803806200189883398101604081905262000034916200035a565b83838383838383828260036200004b838262000463565b5060046200005a828262000463565b50505080670de0b6b3a764000062000073919062000545565b60058190556200008590339062000120565b5050600680546001600160a01b031990811630179091556009805490911633179055506000600a55620000ba81603c62000545565b620000c6904262000565565b600b555050600e80546001600160a01b031990811673dabd9681c6fa9c2675f883fb67a1485038087dd317909155600d80549091167339af03c99f8b82602d293737de6a0ebf5d8f48db179055506200057b945050505050565b6001600160a01b038216620001505760405163ec442f0560e01b8152600060048201526024015b60405180910390fd5b6200015e6000838362000162565b5050565b6001600160a01b0383166200019157806002600082825462000185919062000565565b90915550620002059050565b6001600160a01b03831660009081526020819052604090205481811015620001e65760405163391434e360e21b81526001600160a01b0385166004820152602481018290526044810183905260640162000147565b6001600160a01b03841660009081526020819052604090209082900390555b6001600160a01b038216620002235760028054829003905562000242565b6001600160a01b03821660009081526020819052604090208054820190555b816001600160a01b0316836001600160a01b03167fddf252ad1be2c89b69c2b068fc378daa952ba7f163c4a11628f55a4df523b3ef836040516200028891815260200190565b60405180910390a3505050565b634e487b7160e01b600052604160045260246000fd5b600082601f830112620002bd57600080fd5b81516001600160401b0380821115620002da57620002da62000295565b604051601f8301601f19908116603f0116810190828211818310171562000305576200030562000295565b816040528381526020925086838588010111156200032257600080fd5b600091505b8382101562000346578582018301518183018401529082019062000327565b600093810190920192909252949350505050565b600080600080608085870312156200037157600080fd5b84516001600160401b03808211156200038957600080fd5b6200039788838901620002ab565b95506020870151915080821115620003ae57600080fd5b50620003bd87828801620002ab565b604087015160609097015195989097509350505050565b600181811c90821680620003e957607f821691505b6020821081036200040a57634e487b7160e01b600052602260045260246000fd5b50919050565b601f8211156200045e57600081815260208120601f850160051c81016020861015620004395750805b601f850160051c820191505b818110156200045a5782815560010162000445565b5050505b505050565b81516001600160401b038111156200047f576200047f62000295565b6200049781620004908454620003d4565b8462000410565b602080601f831160018114620004cf5760008415620004b65750858301515b600019600386901b1c1916600185901b1785556200045a565b600085815260208120601f198616915b828110156200050057888601518255948401946001909101908401620004df565b50858210156200051f5787850151600019600388901b60f8161c191681555b5050505050600190811b01905550565b634e487b7160e01b600052601160045260246000fd5b80820281158282048414176200055f576200055f6200052f565b92915050565b808201808211156200055f576200055f6200052f565b61130d806200058b6000396000f3fe6080604052600436106101a05760003560e01c806370a08231116100ec57806395d89b411161008a578063bc3da53511610064578063bc3da535146104a1578063c59ee1dc146104ce578063dd62ed3e146104e4578063e3a6ac011461052a57600080fd5b806395d89b411461044c578063a1fa3bad14610461578063a9059cbb1461048157600080fd5b806381a4a6d8116100c657806381a4a6d8146103e25780638a0e495d146103f75780638da5cb5b146104175780638e75e4821461043757600080fd5b806370a082311461035457806378065f271461038a5780637ea12e79146103c257600080fd5b8063244e575111610159578063419cd5e611610133578063419cd5e6146102d15780635958611e146102f157806369cbbefe146103075780636d1b229d1461033457600080fd5b8063244e57511461028a578063313ce5671461029f578063378dc3dc146102bb57600080fd5b806306fdde03146101ac57806308608d73146101d7578063095ea7b3146101f95780631072cbea1461022957806318160ddd1461024b57806323b872dd1461026a57600080fd5b366101a757005b600080fd5b3480156101b857600080fd5b506101c161053f565b6040516101ce9190611049565b60405180910390f35b3480156101e357600080fd5b506101ec6105d1565b6040516101ce9190611097565b34801561020557600080fd5b50610219610214366004611100565b61069d565b60405190151581526020016101ce565b34801561023557600080fd5b50610249610244366004611100565b6106b7565b005b34801561025757600080fd5b506002545b6040519081526020016101ce565b34801561027657600080fd5b5061021961028536600461112a565b6106d2565b34801561029657600080fd5b506102496106f6565b3480156102ab57600080fd5b50604051601281526020016101ce565b3480156102c757600080fd5b5061025c60055481565b3480156102dd57600080fd5b506102496102ec366004611166565b61086c565b3480156102fd57600080fd5b5061025c600b5481565b34801561031357600080fd5b5061025c61032236600461117f565b60086020526000908152604090205481565b34801561034057600080fd5b5061024961034f366004611166565b610b82565b34801561036057600080fd5b5061025c61036f36600461117f565b6001600160a01b031660009081526020819052604090205490565b34801561039657600080fd5b50600d546103aa906001600160a01b031681565b6040516001600160a01b0390911681526020016101ce565b3480156103ce57600080fd5b506103aa6103dd366004611166565b610b9d565b3480156103ee57600080fd5b5060055461025c565b34801561040357600080fd5b506006546103aa906001600160a01b031681565b34801561042357600080fd5b506009546103aa906001600160a01b031681565b34801561044357600080fd5b50600a5461025c565b34801561045857600080fd5b506101c1610bc7565b34801561046d57600080fd5b50600e546103aa906001600160a01b031681565b34801561048d57600080fd5b5061021961049c366004611100565b610bd6565b3480156104ad57600080fd5b5061025c6104bc36600461117f565b60076020526000908152604090205481565b3480156104da57600080fd5b5061025c600a5481565b3480156104f057600080fd5b5061025c6104ff3660046111a1565b6001600160a01b03918216600090815260016020908152604080832093909416825291909152205490565b34801561053657600080fd5b50610249610be4565b60606003805461054e906111d4565b80601f016020809104026020016040519081016040528092919081815260200182805461057a906111d4565b80156105c75780601f1061059c576101008083540402835291602001916105c7565b820191906000526020600020905b8154815290600101906020018083116105aa57829003601f168201915b5050505050905090565b600c5460609060008167ffffffffffffffff8111156105f2576105f261120e565b60405190808252806020026020018201604052801561061b578160200160208202803683370190505b50905060005b8281101561069657600c818154811061063c5761063c611224565b9060005260206000200160009054906101000a90046001600160a01b031682828151811061066c5761066c611224565b6001600160a01b03909216602092830291909101909101528061068e81611250565b915050610621565b5092915050565b6000336106ab818585610d26565b60019150505b92915050565b6106cd8261049c83670de0b6b3a7640000611269565b505050565b6000336106e0858285610d33565b6106eb858585610db1565b506001949350505050565b6009546001600160a01b031633146107455760405162461bcd60e51b815260206004820152600d60248201526c26bab9ba1031329037bbb732b960991b60448201526064015b60405180910390fd5b600b5442116107865760405162461bcd60e51b815260206004820152600d60248201526c2737ba103a34b6b29027ab22a960991b604482015260640161073c565b60058054610795906004611269565b61079f9190611280565b600a5410156107db5760405162461bcd60e51b8152602060048201526008602482015267139bdd0819dbd85b60c21b604482015260640161073c565b60005b600c54811015610869576000600c82815481106107fd576107fd611224565b60009182526020808320909101546001600160a01b031680835260089091526040909120549091508015610854576001600160a01b0380831660009081526008602052604081205560095461085491168383610db1565b5050808061086190611250565b9150506107de565b50565b600b5442106108a95760405162461bcd60e51b81526020600482015260096024820152682a34b6b29027bb32b960b91b604482015260640161073c565b600081116109105760405162461bcd60e51b815260206004820152602e60248201527f596f75206e65656420746f20646f6e617465206120706f73697469766520616d60448201526d6f756e74206f6620746f6b656e7360901b606482015260840161073c565b600554600a5461092883670de0b6b3a7640000611269565b61093291906112a2565b11156109795760405162461bcd60e51b81526020600482015260166024820152754578636565647320696e697469616c20737570706c7960501b604482015260640161073c565b600d54600e546000916001600160a01b03908116916323b872dd913391166109a986670de0b6b3a7640000611269565b6040516001600160e01b031960e086901b1681526001600160a01b03938416600482015292909116602483015260448201526064016020604051808303816000875af11580156109fd573d6000803e3d6000fd5b505050506040513d601f19601f82011682018060405250810190610a2191906112b5565b905080610a685760405162461bcd60e51b8152602060048201526015602482015274151bdad95b881d1c985b9cd9995c8819985a5b1959605a1b604482015260640161073c565b610a7a82670de0b6b3a7640000611269565b600a6000828254610a8b91906112a2565b90915550610aa3905082670de0b6b3a7640000611269565b3360009081526008602052604081208054909190610ac29084906112a2565b9091555050336000908152600f602052604090205460ff16610b3957600c805460018181019092557fdf6966c971051c3d54ec59162606531493a51404a002842f56009d7e5cf4a8c70180546001600160a01b031916339081179091556000908152600f60205260409020805460ff191690911790555b337fd37abe1e85060e55cb236652dcf2008106e4892d0c749839671c26448a8eeb06610b6d84670de0b6b3a7640000611269565b60405190815260200160405180910390a25050565b61086933610b9883670de0b6b3a7640000611269565b610e10565b600c8181548110610bad57600080fd5b6000918252602090912001546001600160a01b0316905081565b60606004805461054e906111d4565b6000336106ab818585610db1565b60058054610bf3906004611269565b610bfd9190611280565b600a5410610c3f5760405162461bcd60e51b815260206004820152600f60248201526e1c18129034b9903737ba1037bb32b960891b604482015260640161073c565b600b544211610c7b5760405162461bcd60e51b81526020600482015260086024820152672737ba1037bb32b960c11b604482015260640161073c565b60005b600c54811015610869576000600c8281548110610c9d57610c9d611224565b60009182526020808320909101546001600160a01b031680835260079091526040909120549091508015610d11576001600160a01b0382166000818152600760205260408082208290555183156108fc0291849190818181858888f19350505050158015610d0f573d6000803e3d6000fd5b505b50508080610d1e90611250565b915050610c7e565b6106cd8383836001610e4a565b6001600160a01b038381166000908152600160209081526040808320938616835292905220546000198114610dab5781811015610d9c57604051637dc7a0d960e11b81526001600160a01b0384166004820152602481018290526044810183905260640161073c565b610dab84848484036000610e4a565b50505050565b6001600160a01b038316610ddb57604051634b637e8f60e11b81526000600482015260240161073c565b6001600160a01b038216610e055760405163ec442f0560e01b81526000600482015260240161073c565b6106cd838383610f1f565b6001600160a01b038216610e3a57604051634b637e8f60e11b81526000600482015260240161073c565b610e4682600083610f1f565b5050565b6001600160a01b038416610e745760405163e602df0560e01b81526000600482015260240161073c565b6001600160a01b038316610e9e57604051634a1406b160e11b81526000600482015260240161073c565b6001600160a01b0380851660009081526001602090815260408083209387168352929052208290558015610dab57826001600160a01b0316846001600160a01b03167f8c5be1e5ebec7d5bd14f71427d1e84f3dd0314c0f7b2291e5b200ac8c7c3b92584604051610f1191815260200190565b60405180910390a350505050565b6001600160a01b038316610f4a578060026000828254610f3f91906112a2565b90915550610fbc9050565b6001600160a01b03831660009081526020819052604090205481811015610f9d5760405163391434e360e21b81526001600160a01b0385166004820152602481018290526044810183905260640161073c565b6001600160a01b03841660009081526020819052604090209082900390555b6001600160a01b038216610fd857600280548290039055610ff7565b6001600160a01b03821660009081526020819052604090208054820190555b816001600160a01b0316836001600160a01b03167fddf252ad1be2c89b69c2b068fc378daa952ba7f163c4a11628f55a4df523b3ef8360405161103c91815260200190565b60405180910390a3505050565b600060208083528351808285015260005b818110156110765785810183015185820160400152820161105a565b506000604082860101526040601f19601f8301168501019250505092915050565b6020808252825182820181905260009190848201906040850190845b818110156110d85783516001600160a01b0316835292840192918401916001016110b3565b50909695505050505050565b80356001600160a01b03811681146110fb57600080fd5b919050565b6000806040838503121561111357600080fd5b61111c836110e4565b946020939093013593505050565b60008060006060848603121561113f57600080fd5b611148846110e4565b9250611156602085016110e4565b9150604084013590509250925092565b60006020828403121561117857600080fd5b5035919050565b60006020828403121561119157600080fd5b61119a826110e4565b9392505050565b600080604083850312156111b457600080fd5b6111bd836110e4565b91506111cb602084016110e4565b90509250929050565b600181811c908216806111e857607f821691505b60208210810361120857634e487b7160e01b600052602260045260246000fd5b50919050565b634e487b7160e01b600052604160045260246000fd5b634e487b7160e01b600052603260045260246000fd5b634e487b7160e01b600052601160045260246000fd5b6000600182016112625761126261123a565b5060010190565b80820281158282048414176106b1576106b161123a565b60008261129d57634e487b7160e01b600052601260045260246000fd5b500490565b808201808211156106b1576106b161123a565b6000602082840312156112c757600080fd5b8151801515811461119a57600080fdfea264697066735822122014c57381391ec0e67ab741f9eb979ceaa8205e8ac39637440512ba5e1330c34664736f6c63430008140033",
  "linkReferences": {},
  "deployedLinkReferences": {}
}