{
  "_format": "hh-sol-artifact-1",
  "contractName": "ReceiveArtCoinContract",
  "sourceName": "contracts/ReceiveArtCoin.sol",
  "abi": [
    {
      "inputs": [
        {
          "internalType": "string",
          "name": "name",
          "type": "string"
        },
        {
          "internalType": "string",
          "name": "symbol",
          "type": "string"
        },
        {
          "internalType": "uint256",
          "name": "_initialSupply",
          "type": "uint256"
        },
        {
          "internalType": "uint256",
          "name": "_time",
          "type": "uint256"
        }
      ],
      "stateMutability": "nonpayable",
      "type": "constructor"
    },
    {
      "inputs": [
        {
          "internalType": "address",
          "name": "spender",
          "type": "address"
        },
        {
          "internalType": "uint256",
          "name": "allowance",
          "type": "uint256"
        },
        {
          "internalType": "uint256",
          "name": "needed",
          "type": "uint256"
        }
      ],
      "name": "ERC20InsufficientAllowance",
      "type": "error"
    },
    {
      "inputs": [
        {
          "internalType": "address",
          "name": "sender",
          "type": "address"
        },
        {
          "internalType": "uint256",
          "name": "balance",
          "type": "uint256"
        },
        {
          "internalType": "uint256",
          "name": "needed",
          "type": "uint256"
        }
      ],
      "name": "ERC20InsufficientBalance",
      "type": "error"
    },
    {
      "inputs": [
        {
          "internalType": "address",
          "name": "approver",
          "type": "address"
        }
      ],
      "name": "ERC20InvalidApprover",
      "type": "error"
    },
    {
      "inputs": [
        {
          "internalType": "address",
          "name": "receiver",
          "type": "address"
        }
      ],
      "name": "ERC20InvalidReceiver",
      "type": "error"
    },
    {
      "inputs": [
        {
          "internalType": "address",
          "name": "sender",
          "type": "address"
        }
      ],
      "name": "ERC20InvalidSender",
      "type": "error"
    },
    {
      "inputs": [
        {
          "internalType": "address",
          "name": "spender",
          "type": "address"
        }
      ],
      "name": "ERC20InvalidSpender",
      "type": "error"
    },
    {
      "anonymous": false,
      "inputs": [
        {
          "indexed": true,
          "internalType": "address",
          "name": "owner",
          "type": "address"
        },
        {
          "indexed": true,
          "internalType": "address",
          "name": "spender",
          "type": "address"
        },
        {
          "indexed": false,
          "internalType": "uint256",
          "name": "value",
          "type": "uint256"
        }
      ],
      "name": "Approval",
      "type": "event"
    },
    {
      "anonymous": false,
      "inputs": [
        {
          "indexed": true,
          "internalType": "address",
          "name": "_from",
          "type": "address"
        },
        {
          "indexed": false,
          "internalType": "uint256",
          "name": "_amount",
          "type": "uint256"
        }
      ],
      "name": "NewCoinsUpdated",
      "type": "event"
    },
    {
      "anonymous": false,
      "inputs": [
        {
          "indexed": true,
          "internalType": "address",
          "name": "sender",
          "type": "address"
        },
        {
          "indexed": true,
          "internalType": "address",
          "name": "tokenAddress",
          "type": "address"
        },
        {
          "indexed": false,
          "internalType": "uint256",
          "name": "amount",
          "type": "uint256"
        }
      ],
      "name": "TokenReceived",
      "type": "event"
    },
    {
      "anonymous": false,
      "inputs": [
        {
          "indexed": true,
          "internalType": "address",
          "name": "from",
          "type": "address"
        },
        {
          "indexed": true,
          "internalType": "address",
          "name": "to",
          "type": "address"
        },
        {
          "indexed": false,
          "internalType": "uint256",
          "name": "value",
          "type": "uint256"
        }
      ],
      "name": "Transfer",
      "type": "event"
    },
    {
      "inputs": [
        {
          "internalType": "address",
          "name": "owner",
          "type": "address"
        },
        {
          "internalType": "address",
          "name": "spender",
          "type": "address"
        }
      ],
      "name": "allowance",
      "outputs": [
        {
          "internalType": "uint256",
          "name": "",
          "type": "uint256"
        }
      ],
      "stateMutability": "view",
      "type": "function"
    },
    {
      "inputs": [
        {
          "internalType": "address",
          "name": "spender",
          "type": "address"
        },
        {
          "internalType": "uint256",
          "name": "value",
          "type": "uint256"
        }
      ],
      "name": "approve",
      "outputs": [
        {
          "internalType": "bool",
          "name": "",
          "type": "bool"
        }
      ],
      "stateMutability": "nonpayable",
      "type": "function"
    },
    {
      "inputs": [],
      "name": "artPieceToken",
      "outputs": [
        {
          "internalType": "address",
          "name": "",
          "type": "address"
        }
      ],
      "stateMutability": "view",
      "type": "function"
    },
    {
      "inputs": [],
      "name": "artTokenAddress",
      "outputs": [
        {
          "internalType": "address",
          "name": "",
          "type": "address"
        }
      ],
      "stateMutability": "view",
      "type": "function"
    },
    {
      "inputs": [
        {
          "internalType": "address",
          "name": "account",
          "type": "address"
        }
      ],
      "name": "balanceOf",
      "outputs": [
        {
          "internalType": "uint256",
          "name": "",
          "type": "uint256"
        }
      ],
      "stateMutability": "view",
      "type": "function"
    },
    {
      "inputs": [
        {
          "internalType": "uint256",
          "name": "burnAmount",
          "type": "uint256"
        }
      ],
      "name": "burnTokens",
      "outputs": [],
      "stateMutability": "nonpayable",
      "type": "function"
    },
    {
      "inputs": [],
      "name": "decimals",
      "outputs": [
        {
          "internalType": "uint8",
          "name": "",
          "type": "uint8"
        }
      ],
      "stateMutability": "view",
      "type": "function"
    },
    {
      "inputs": [],
      "name": "distributeFund",
      "outputs": [],
      "stateMutability": "nonpayable",
      "type": "function"
    },
    {
      "inputs": [],
      "name": "finishTime",
      "outputs": [
        {
          "internalType": "uint256",
          "name": "",
          "type": "uint256"
        }
      ],
      "stateMutability": "view",
      "type": "function"
    },
    {
      "inputs": [
        {
          "internalType": "uint256",
          "name": "_amount",
          "type": "uint256"
        }
      ],
      "name": "fundToken",
      "outputs": [],
      "stateMutability": "nonpayable",
      "type": "function"
    },
    {
      "inputs": [],
      "name": "fundingToken",
      "outputs": [
        {
          "internalType": "contract IERC20",
          "name": "",
          "type": "address"
        }
      ],
      "stateMutability": "view",
      "type": "function"
    },
    {
      "inputs": [],
      "name": "getAllContributor",
      "outputs": [
        {
          "internalType": "address[]",
          "name": "",
          "type": "address[]"
        }
      ],
      "stateMutability": "view",
      "type": "function"
    },
    {
      "inputs": [],
      "name": "getInitialSupply",
      "outputs": [
        {
          "internalType": "uint256",
          "name": "",
          "type": "uint256"
        }
      ],
      "stateMutability": "view",
      "type": "function"
    },
    {
      "inputs": [],
      "name": "getRaisedAmount",
      "outputs": [
        {
          "internalType": "uint256",
          "name": "",
          "type": "uint256"
        }
      ],
      "stateMutability": "view",
      "type": "function"
    },
    {
      "inputs": [],
      "name": "initialSupply",
      "outputs": [
        {
          "internalType": "uint256",
          "name": "",
          "type": "uint256"
        }
      ],
      "stateMutability": "view",
      "type": "function"
    },
    {
      "inputs": [
        {
          "internalType": "uint256",
          "name": "",
          "type": "uint256"
        }
      ],
      "name": "listOfContributors",
      "outputs": [
        {
          "internalType": "address",
          "name": "",
          "type": "address"
        }
      ],
      "stateMutability": "view",
      "type": "function"
    },
    {
      "inputs": [],
      "name": "mainWalletaddress",
      "outputs": [
        {
          "internalType": "address",
          "name": "",
          "type": "address"
        }
      ],
      "stateMutability": "view",
      "type": "function"
    },
    {
      "inputs": [],
      "name": "name",
      "outputs": [
        {
          "internalType": "string",
          "name": "",
          "type": "string"
        }
      ],
      "stateMutability": "view",
      "type": "function"
    },
    {
      "inputs": [
        {
          "internalType": "address",
          "name": "",
          "type": "address"
        }
      ],
      "name": "newCoins",
      "outputs": [
        {
          "internalType": "uint256",
          "name": "",
          "type": "uint256"
        }
      ],
      "stateMutability": "view",
      "type": "function"
    },
    {
      "inputs": [],
      "name": "owner",
      "outputs": [
        {
          "internalType": "address",
          "name": "",
          "type": "address"
        }
      ],
      "stateMutability": "view",
      "type": "function"
    },
    {
      "inputs": [],
      "name": "raisedAmount",
      "outputs": [
        {
          "internalType": "uint256",
          "name": "",
          "type": "uint256"
        }
      ],
      "stateMutability": "view",
      "type": "function"
    },
    {
      "inputs": [],
      "name": "refundContributors",
      "outputs": [],
      "stateMutability": "nonpayable",
      "type": "function"
    },
    {
      "inputs": [
        {
          "internalType": "address",
          "name": "",
          "type": "address"
        }
      ],
      "name": "refunds",
      "outputs": [
        {
          "internalType": "uint256",
          "name": "",
          "type": "uint256"
        }
      ],
      "stateMutability": "view",
      "type": "function"
    },
    {
      "inputs": [
        {
          "internalType": "address",
          "name": "_contractAddress",
          "type": "address"
        },
        {
          "internalType": "uint256",
          "name": "_totalInvested",
          "type": "uint256"
        },
        {
          "components": [
            {
              "internalType": "address",
              "name": "investor",
              "type": "address"
            },
            {
              "internalType": "uint256",
              "name": "amount",
              "type": "uint256"
            }
          ],
          "internalType": "struct FundRaisingContract.FundInfo[]",
          "name": "fundInfos",
          "type": "tuple[]"
        }
      ],
      "name": "settlement",
      "outputs": [],
      "stateMutability": "nonpayable",
      "type": "function"
    },
    {
      "inputs": [],
      "name": "symbol",
      "outputs": [
        {
          "internalType": "string",
          "name": "",
          "type": "string"
        }
      ],
      "stateMutability": "view",
      "type": "function"
    },
    {
      "inputs": [],
      "name": "totalSupply",
      "outputs": [
        {
          "internalType": "uint256",
          "name": "",
          "type": "uint256"
        }
      ],
      "stateMutability": "view",
      "type": "function"
    },
    {
      "inputs": [
        {
          "internalType": "address",
          "name": "to",
          "type": "address"
        },
        {
          "internalType": "uint256",
          "name": "value",
          "type": "uint256"
        }
      ],
      "name": "transfer",
      "outputs": [
        {
          "internalType": "bool",
          "name": "",
          "type": "bool"
        }
      ],
      "stateMutability": "nonpayable",
      "type": "function"
    },
    {
      "inputs": [
        {
          "internalType": "address",
          "name": "from",
          "type": "address"
        },
        {
          "internalType": "address",
          "name": "to",
          "type": "address"
        },
        {
          "internalType": "uint256",
          "name": "value",
          "type": "uint256"
        }
      ],
      "name": "transferFrom",
      "outputs": [
        {
          "internalType": "bool",
          "name": "",
          "type": "bool"
        }
      ],
      "stateMutability": "nonpayable",
      "type": "function"
    },
    {
      "inputs": [
        {
          "internalType": "address",
          "name": "to",
          "type": "address"
        },
        {
          "internalType": "uint256",
          "name": "amount",
          "type": "uint256"
        }
      ],
      "name": "transferToken",
      "outputs": [],
      "stateMutability": "nonpayable",
      "type": "function"
    },
    {
      "stateMutability": "payable",
      "type": "receive"
    }
  ],
  "bytecode": "0x6080604052600d80546001600160a01b03191673e5856017db7b4023383c867ea65bc178b7f023c11790553480156200003757600080fd5b5060405162001de638038062001de68339810160408190526200005a916200037a565b838383838383838282600362000071838262000483565b50600462000080828262000483565b50505080670de0b6b3a764000062000099919062000565565b6005819055620000ab90339062000140565b5050600680546001600160a01b031990811630179091556009805490911633179055506000600a55620000e081603c62000565565b620000ec904262000585565b600b555050600f80546001600160a01b031990811673dabd9681c6fa9c2675f883fb67a1485038087dd317909155600d54600e80549092166001600160a01b0391909116179055506200059b945050505050565b6001600160a01b038216620001705760405163ec442f0560e01b8152600060048201526024015b60405180910390fd5b6200017e6000838362000182565b5050565b6001600160a01b038316620001b1578060026000828254620001a5919062000585565b90915550620002259050565b6001600160a01b03831660009081526020819052604090205481811015620002065760405163391434e360e21b81526001600160a01b0385166004820152602481018290526044810183905260640162000167565b6001600160a01b03841660009081526020819052604090209082900390555b6001600160a01b038216620002435760028054829003905562000262565b6001600160a01b03821660009081526020819052604090208054820190555b816001600160a01b0316836001600160a01b03167fddf252ad1be2c89b69c2b068fc378daa952ba7f163c4a11628f55a4df523b3ef83604051620002a891815260200190565b60405180910390a3505050565b634e487b7160e01b600052604160045260246000fd5b600082601f830112620002dd57600080fd5b81516001600160401b0380821115620002fa57620002fa620002b5565b604051601f8301601f19908116603f01168101908282118183101715620003255762000325620002b5565b816040528381526020925086838588010111156200034257600080fd5b600091505b8382101562000366578582018301518183018401529082019062000347565b600093810190920192909252949350505050565b600080600080608085870312156200039157600080fd5b84516001600160401b0380821115620003a957600080fd5b620003b788838901620002cb565b95506020870151915080821115620003ce57600080fd5b50620003dd87828801620002cb565b604087015160609097015195989097509350505050565b600181811c908216806200040957607f821691505b6020821081036200042a57634e487b7160e01b600052602260045260246000fd5b50919050565b601f8211156200047e57600081815260208120601f850160051c81016020861015620004595750805b601f850160051c820191505b818110156200047a5782815560010162000465565b5050505b505050565b81516001600160401b038111156200049f576200049f620002b5565b620004b781620004b08454620003f4565b8462000430565b602080601f831160018114620004ef5760008415620004d65750858301515b600019600386901b1c1916600185901b1785556200047a565b600085815260208120601f198616915b828110156200052057888601518255948401946001909101908401620004ff565b50858210156200053f5787850151600019600388901b60f8161c191681555b5050505050600190811b01905550565b634e487b7160e01b600052601160045260246000fd5b80820281158282048414176200057f576200057f6200054f565b92915050565b808201808211156200057f576200057f6200054f565b61183b80620005ab6000396000f3fe6080604052600436106101c65760003560e01c80636d1b229d116100f75780638e75e48211610095578063a9059cbb11610064578063a9059cbb146104fc578063bc3da5351461051c578063c59ee1dc14610549578063dd62ed3e1461055f57600080fd5b80638e75e4821461049257806395d89b41146104a7578063a1fa3bad146104bc578063a45ac5ff146104dc57600080fd5b80637ea12e79116100d15780637ea12e791461041d57806381a4a6d81461043d5780638a0e495d146104525780638da5cb5b1461047257600080fd5b80636d1b229d1461038f57806370a08231146103af57806378065f27146103e557600080fd5b8063244e575111610164578063419cd5e61161013e578063419cd5e61461031757806356c7f461146103375780635958611e1461034c57806369cbbefe1461036257600080fd5b8063244e5751146102d0578063313ce567146102e5578063378dc3dc1461030157600080fd5b80631072cbea116101a05780631072cbea1461024f57806318160ddd14610271578063238179a71461029057806323b872dd146102b057600080fd5b806306fdde03146101d257806308608d73146101fd578063095ea7b31461021f57600080fd5b366101cd57005b600080fd5b3480156101de57600080fd5b506101e76105a5565b6040516101f491906113d4565b60405180910390f35b34801561020957600080fd5b50610212610637565b6040516101f49190611422565b34801561022b57600080fd5b5061023f61023a36600461148b565b610703565b60405190151581526020016101f4565b34801561025b57600080fd5b5061026f61026a36600461148b565b61071d565b005b34801561027d57600080fd5b506002545b6040519081526020016101f4565b34801561029c57600080fd5b5061026f6102ab366004611525565b610738565b3480156102bc57600080fd5b5061023f6102cb366004611614565b610839565b3480156102dc57600080fd5b5061026f61085d565b3480156102f157600080fd5b50604051601281526020016101f4565b34801561030d57600080fd5b5061028260055481565b34801561032357600080fd5b5061026f610332366004611650565b610b14565b34801561034357600080fd5b5061026f610e5b565b34801561035857600080fd5b50610282600b5481565b34801561036e57600080fd5b5061028261037d366004611669565b60086020526000908152604090205481565b34801561039b57600080fd5b5061026f6103aa366004611650565b611050565b3480156103bb57600080fd5b506102826103ca366004611669565b6001600160a01b031660009081526020819052604090205490565b3480156103f157600080fd5b50600e54610405906001600160a01b031681565b6040516001600160a01b0390911681526020016101f4565b34801561042957600080fd5b50610405610438366004611650565b61106e565b34801561044957600080fd5b50600554610282565b34801561045e57600080fd5b50600654610405906001600160a01b031681565b34801561047e57600080fd5b50600954610405906001600160a01b031681565b34801561049e57600080fd5b50600a54610282565b3480156104b357600080fd5b506101e7611098565b3480156104c857600080fd5b50600f54610405906001600160a01b031681565b3480156104e857600080fd5b50600d54610405906001600160a01b031681565b34801561050857600080fd5b5061023f61051736600461148b565b6110a7565b34801561052857600080fd5b50610282610537366004611669565b60076020526000908152604090205481565b34801561055557600080fd5b50610282600a5481565b34801561056b57600080fd5b5061028261057a36600461168b565b6001600160a01b03918216600090815260016020908152604080832093909416825291909152205490565b6060600380546105b4906116be565b80601f01602080910402602001604051908101604052809291908181526020018280546105e0906116be565b801561062d5780601f106106025761010080835404028352916020019161062d565b820191906000526020600020905b81548152906001019060200180831161061057829003601f168201915b5050505050905090565b600c5460609060008167ffffffffffffffff811115610658576106586114b5565b604051908082528060200260200182016040528015610681578160200160208202803683370190505b50905060005b828110156106fc57600c81815481106106a2576106a26116f8565b9060005260206000200160009054906101000a90046001600160a01b03168282815181106106d2576106d26116f8565b6001600160a01b0390921660209283029190910190910152806106f481611724565b915050610687565b5092915050565b6000336107118185856110b5565b60019150505b92915050565b6107338261051783670de0b6b3a764000061173d565b505050565b600d546001600160a01b03168360005b835181101561083157826001600160a01b031663a9059cbb858381518110610772576107726116f8565b602002602001015160000151868481518110610790576107906116f8565b602002602001015160200151670de0b6b3a76400006107af919061173d565b6040516001600160e01b031960e085901b1681526001600160a01b03909216600483015260248201526044016020604051808303816000875af11580156107fa573d6000803e3d6000fd5b505050506040513d601f19601f8201168201806040525081019061081e9190611754565b508061082981611724565b915050610748565b505050505050565b6000336108478582856110c2565b610852858585611140565b506001949350505050565b6009546001600160a01b031633146108905760405162461bcd60e51b815260040161088790611776565b60405180910390fd5b600b5442116108e15760405162461bcd60e51b815260206004820152601b60248201527f46756e6472616973696e67206973206e6f74206f7665722079657400000000006044820152606401610887565b600580546108f090600461173d565b6108fa91906117b7565b600a54101561094b5760405162461bcd60e51b815260206004820152601c60248201527f46756e6472616973696e6720676f616c206e6f742072656163686564000000006044820152606401610887565b600d546040516370a0823160e01b81523060048201526001600160a01b039091169060009082906370a0823190602401602060405180830381865afa158015610998573d6000803e3d6000fd5b505050506040513d601f19601f820116820180604052508101906109bc91906117d9565b905060008111610a0e5760405162461bcd60e51b815260206004820152601b60248201527f4e6f2041525420746f6b656e7320746f206469737472696275746500000000006044820152606401610887565b60095460405163a9059cbb60e01b81526001600160a01b039182166004820152602481018390529083169063a9059cbb906044016020604051808303816000875af1158015610a61573d6000803e3d6000fd5b505050506040513d601f19601f82011682018060405250810190610a859190611754565b5060005b600c54811015610733576000600c8281548110610aa857610aa86116f8565b60009182526020808320909101546001600160a01b031680835260089091526040909120549091508015610aff576001600160a01b03808316600090815260086020526040812055600954610aff91168383611140565b50508080610b0c90611724565b915050610a89565b600b544210610b655760405162461bcd60e51b815260206004820152601860248201527f46756e6472616973696e672074696d65206973206f76657200000000000000006044820152606401610887565b60008111610bcc5760405162461bcd60e51b815260206004820152602e60248201527f596f75206e65656420746f20646f6e617465206120706f73697469766520616d60448201526d6f756e74206f6620746f6b656e7360901b6064820152608401610887565b600554600a54610bdc90836117f2565b1115610c235760405162461bcd60e51b81526020600482015260166024820152754578636565647320696e697469616c20737570706c7960501b6044820152606401610887565b600e546000906001600160a01b03166323b872dd3330610c4b86670de0b6b3a764000061173d565b6040516001600160e01b031960e086901b1681526001600160a01b03938416600482015292909116602483015260448201526064016020604051808303816000875af1158015610c9f573d6000803e3d6000fd5b505050506040513d601f19601f82011682018060405250810190610cc39190611754565b905080610d0a5760405162461bcd60e51b8152602060048201526015602482015274151bdad95b881d1c985b9cd9995c8819985a5b1959605a1b6044820152606401610887565b610d1c82670de0b6b3a764000061173d565b600a6000828254610d2d91906117f2565b90915550610d45905082670de0b6b3a764000061173d565b3360009081526008602052604081208054909190610d649084906117f2565b90915550610d7c905082670de0b6b3a764000061173d565b3360009081526007602052604081208054909190610d9b9084906117f2565b90915550503360009081526010602052604090205460ff16610e1257600c805460018181019092557fdf6966c971051c3d54ec59162606531493a51404a002842f56009d7e5cf4a8c70180546001600160a01b031916339081179091556000908152601060205260409020805460ff191690911790555b337fd37abe1e85060e55cb236652dcf2008106e4892d0c749839671c26448a8eeb06610e4684670de0b6b3a764000061173d565b60405190815260200160405180910390a25050565b6009546001600160a01b03163314610e855760405162461bcd60e51b815260040161088790611776565b600b544211610ed65760405162461bcd60e51b815260206004820152601b60248201527f46756e6472616973696e67206973206e6f74206f7665722079657400000000006044820152606401610887565b60058054610ee590600461173d565b610eef91906117b7565b600a5410610f4d5760405162461bcd60e51b815260206004820152602560248201527f3830252066756e6472616973696e6720676f616c20686173206265656e2072656044820152641858da195960da1b6064820152608401610887565b600d546001600160a01b031660005b600c5481101561104c576000600c8281548110610f7b57610f7b6116f8565b60009182526020808320909101546001600160a01b0316808352600790915260409091205490915080156110375760405163a9059cbb60e01b81526001600160a01b0383811660048301526024820183905285169063a9059cbb906044016020604051808303816000875af1158015610ff8573d6000803e3d6000fd5b505050506040513d601f19601f8201168201806040525081019061101c9190611754565b506001600160a01b0382166000908152600760205260408120555b5050808061104490611724565b915050610f5c565b5050565b61106b3361106683670de0b6b3a764000061173d565b61119f565b50565b600c818154811061107e57600080fd5b6000918252602090912001546001600160a01b0316905081565b6060600480546105b4906116be565b600033610711818585611140565b61073383838360016111d5565b6001600160a01b03838116600090815260016020908152604080832093861683529290522054600019811461113a578181101561112b57604051637dc7a0d960e11b81526001600160a01b03841660048201526024810182905260448101839052606401610887565b61113a848484840360006111d5565b50505050565b6001600160a01b03831661116a57604051634b637e8f60e11b815260006004820152602401610887565b6001600160a01b0382166111945760405163ec442f0560e01b815260006004820152602401610887565b6107338383836112aa565b6001600160a01b0382166111c957604051634b637e8f60e11b815260006004820152602401610887565b61104c826000836112aa565b6001600160a01b0384166111ff5760405163e602df0560e01b815260006004820152602401610887565b6001600160a01b03831661122957604051634a1406b160e11b815260006004820152602401610887565b6001600160a01b038085166000908152600160209081526040808320938716835292905220829055801561113a57826001600160a01b0316846001600160a01b03167f8c5be1e5ebec7d5bd14f71427d1e84f3dd0314c0f7b2291e5b200ac8c7c3b9258460405161129c91815260200190565b60405180910390a350505050565b6001600160a01b0383166112d55780600260008282546112ca91906117f2565b909155506113479050565b6001600160a01b038316600090815260208190526040902054818110156113285760405163391434e360e21b81526001600160a01b03851660048201526024810182905260448101839052606401610887565b6001600160a01b03841660009081526020819052604090209082900390555b6001600160a01b03821661136357600280548290039055611382565b6001600160a01b03821660009081526020819052604090208054820190555b816001600160a01b0316836001600160a01b03167fddf252ad1be2c89b69c2b068fc378daa952ba7f163c4a11628f55a4df523b3ef836040516113c791815260200190565b60405180910390a3505050565b600060208083528351808285015260005b81811015611401578581018301518582016040015282016113e5565b506000604082860101526040601f19601f8301168501019250505092915050565b6020808252825182820181905260009190848201906040850190845b818110156114635783516001600160a01b03168352928401929184019160010161143e565b50909695505050505050565b80356001600160a01b038116811461148657600080fd5b919050565b6000806040838503121561149e57600080fd5b6114a78361146f565b946020939093013593505050565b634e487b7160e01b600052604160045260246000fd5b6040805190810167ffffffffffffffff811182821017156114ee576114ee6114b5565b60405290565b604051601f8201601f1916810167ffffffffffffffff8111828210171561151d5761151d6114b5565b604052919050565b60008060006060848603121561153a57600080fd5b6115438461146f565b9250602080850135925060408086013567ffffffffffffffff8082111561156957600080fd5b818801915088601f83011261157d57600080fd5b81358181111561158f5761158f6114b5565b61159d858260051b016114f4565b818152858101925060069190911b83018501908a8211156115bd57600080fd5b928501925b818410156116045784848c0312156115da5760008081fd5b6115e26114cb565b6115eb8561146f565b81528487013587820152835292840192918501916115c2565b8096505050505050509250925092565b60008060006060848603121561162957600080fd5b6116328461146f565b92506116406020850161146f565b9150604084013590509250925092565b60006020828403121561166257600080fd5b5035919050565b60006020828403121561167b57600080fd5b6116848261146f565b9392505050565b6000806040838503121561169e57600080fd5b6116a78361146f565b91506116b56020840161146f565b90509250929050565b600181811c908216806116d257607f821691505b6020821081036116f257634e487b7160e01b600052602260045260246000fd5b50919050565b634e487b7160e01b600052603260045260246000fd5b634e487b7160e01b600052601160045260246000fd5b6000600182016117365761173661170e565b5060010190565b80820281158282048414176107175761071761170e565b60006020828403121561176657600080fd5b8151801515811461168457600080fd5b60208082526021908201527f4f6e6c79206f776e65722063616e2063616c6c20746869732066756e6374696f6040820152603760f91b606082015260800190565b6000826117d457634e487b7160e01b600052601260045260246000fd5b500490565b6000602082840312156117eb57600080fd5b5051919050565b808201808211156107175761071761170e56fea264697066735822122095821bac740480ec46a5d0f7f38f44afec3e9b76528eb19fe76159d752e6450764736f6c63430008140033",
  "linkReferences": {},
  "deployedLinkReferences": {}
}