{
  "_format": "hh-sol-artifact-1",
  "contractName": "TokenMarketplace",
  "sourceName": "contracts/TokenMarketplace.sol",
  "abi": [
    {
      "inputs": [
        {
          "internalType": "address",
          "name": "_tokenAddress",
          "type": "address"
        },
        {
          "internalType": "uint256",
          "name": "_tokenAmount",
          "type": "uint256"
        },
        {
          "internalType": "uint256",
          "name": "_price",
          "type": "uint256"
        }
      ],
      "name": "addTradePost",
      "outputs": [],
      "stateMutability": "nonpayable",
      "type": "function"
    },
    {
      "inputs": [
        {
          "internalType": "uint256",
          "name": "_tradePostIndex",
          "type": "uint256"
        }
      ],
      "name": "buyToken",
      "outputs": [],
      "stateMutability": "nonpayable",
      "type": "function"
    },
    {
      "inputs": [],
      "name": "getAllPosts",
      "outputs": [
        {
          "components": [
            {
              "internalType": "address",
              "name": "seller",
              "type": "address"
            },
            {
              "internalType": "address",
              "name": "tokenAddress",
              "type": "address"
            },
            {
              "internalType": "uint256",
              "name": "tokenAmount",
              "type": "uint256"
            },
            {
              "internalType": "uint256",
              "name": "price",
              "type": "uint256"
            },
            {
              "internalType": "bool",
              "name": "completed",
              "type": "bool"
            }
          ],
          "internalType": "struct TokenMarketplace.TradePost[]",
          "name": "",
          "type": "tuple[]"
        }
      ],
      "stateMutability": "view",
      "type": "function"
    },
    {
      "inputs": [
        {
          "internalType": "uint256",
          "name": "index",
          "type": "uint256"
        }
      ],
      "name": "getSpecificPost",
      "outputs": [
        {
          "components": [
            {
              "internalType": "address",
              "name": "seller",
              "type": "address"
            },
            {
              "internalType": "address",
              "name": "tokenAddress",
              "type": "address"
            },
            {
              "internalType": "uint256",
              "name": "tokenAmount",
              "type": "uint256"
            },
            {
              "internalType": "uint256",
              "name": "price",
              "type": "uint256"
            },
            {
              "internalType": "bool",
              "name": "completed",
              "type": "bool"
            }
          ],
          "internalType": "struct TokenMarketplace.TradePost",
          "name": "",
          "type": "tuple"
        }
      ],
      "stateMutability": "view",
      "type": "function"
    },
    {
      "inputs": [],
      "name": "getTradePostsLength",
      "outputs": [
        {
          "internalType": "uint256",
          "name": "",
          "type": "uint256"
        }
      ],
      "stateMutability": "view",
      "type": "function"
    },
    {
      "inputs": [],
      "name": "getUserTokens",
      "outputs": [
        {
          "internalType": "address[]",
          "name": "",
          "type": "address[]"
        }
      ],
      "stateMutability": "view",
      "type": "function"
    },
    {
      "inputs": [
        {
          "internalType": "address",
          "name": "",
          "type": "address"
        }
      ],
      "name": "tokenContracts",
      "outputs": [
        {
          "internalType": "contract IERC20",
          "name": "",
          "type": "address"
        }
      ],
      "stateMutability": "view",
      "type": "function"
    },
    {
      "inputs": [
        {
          "internalType": "uint256",
          "name": "",
          "type": "uint256"
        }
      ],
      "name": "tradePosts",
      "outputs": [
        {
          "internalType": "address",
          "name": "seller",
          "type": "address"
        },
        {
          "internalType": "address",
          "name": "tokenAddress",
          "type": "address"
        },
        {
          "internalType": "uint256",
          "name": "tokenAmount",
          "type": "uint256"
        },
        {
          "internalType": "uint256",
          "name": "price",
          "type": "uint256"
        },
        {
          "internalType": "bool",
          "name": "completed",
          "type": "bool"
        }
      ],
      "stateMutability": "view",
      "type": "function"
    },
    {
      "inputs": [],
      "name": "tradePostsLength",
      "outputs": [
        {
          "internalType": "uint256",
          "name": "",
          "type": "uint256"
        }
      ],
      "stateMutability": "view",
      "type": "function"
    },
    {
      "inputs": [
        {
          "internalType": "uint256",
          "name": "_tradePostIndex",
          "type": "uint256"
        }
      ],
      "name": "unListPost",
      "outputs": [],
      "stateMutability": "nonpayable",
      "type": "function"
    },
    {
      "inputs": [
        {
          "internalType": "uint256",
          "name": "",
          "type": "uint256"
        }
      ],
      "name": "userTokens",
      "outputs": [
        {
          "internalType": "address",
          "name": "",
          "type": "address"
        }
      ],
      "stateMutability": "view",
      "type": "function"
    }
  ],
  "bytecode": "0x6080604052600480546001600160a01b0319167339af03c99f8b82602d293737de6a0ebf5d8f48db17905534801561003657600080fd5b50610f4b806100466000396000f3fe608060405234801561001057600080fd5b50600436106100a95760003560e01c8063984049ce11610071578063984049ce14610151578063a568c37214610192578063aa9e075d146101b2578063ab64c22a146101c5578063b3b1dd4e146101d8578063cd01b55a146101eb57600080fd5b80631ec9d6ba146100ae5780632d296bf1146100ca57806330561100146100df5780634d3dedcd146100f45780638a664ebc1461013c575b600080fd5b6100b760035481565b6040519081526020015b60405180910390f35b6100dd6100d8366004610d09565b6101f3565b005b6100e7610543565b6040516100c19190610d5f565b610107610102366004610d09565b6105e1565b604080516001600160a01b0396871681529590941660208601529284019190915260608301521515608082015260a0016100c1565b610144610631565b6040516100c19190610dad565b61017a61015f366004610e0a565b6000602081905290815260409020546001600160a01b031681565b6040516001600160a01b0390911681526020016100c1565b6101a56101a0366004610d09565b610693565b6040516100c19190610e2c565b6100dd6101c0366004610d09565b610733565b61017a6101d3366004610d09565b610981565b6100dd6101e6366004610e40565b6109ab565b6002546100b7565b60035481106102495760405162461bcd60e51b815260206004820152601860248201527f496e76616c696420747261646520706f737420696e646578000000000000000060448201526064015b60405180910390fd5b60006002828154811061025e5761025e610e73565b600091825260208083206004546001600160a01b0390811685529184905260409093205460059092029092019250166102bd576004546001600160a01b0316600081815260208190526040902080546001600160a01b03191690911790555b6004546001600160a01b03908116600090815260208190526040902054825460038401549183169263095ea7b39291169061030090670de0b6b3a7640000610e9f565b6040516001600160e01b031960e085901b1681526001600160a01b03909216600483015260248201526044016020604051808303816000875af115801561034b573d6000803e3d6000fd5b505050506040513d601f19601f8201168201806040525081019061036f9190610eb6565b6103bb5760405162461bcd60e51b815260206004820181905260248201527f4661696c656420746f20617070726f766520746f6b656e207472616e736665726044820152606401610240565b6004546001600160a01b0390811660009081526020819052604090205482546003840154918316926323b872dd9233929091169061040190670de0b6b3a7640000610e9f565b6040518463ffffffff1660e01b815260040161041f93929190610ed8565b6020604051808303816000875af115801561043e573d6000803e3d6000fd5b505050506040513d601f19601f820116820180604052508101906104629190610eb6565b5060018101546001600160a01b0390811660009081526020819052604090205460028301549116906323b872dd90309033906104a690670de0b6b3a7640000610e9f565b6040518463ffffffff1660e01b81526004016104c493929190610ed8565b6020604051808303816000875af11580156104e3573d6000803e3d6000fd5b505050506040513d601f19601f820116820180604052508101906105079190610eb6565b5060016002838154811061051d5761051d610e73565b60009182526020909120600590910201600401805460ff19169115159190911790555050565b60606002805480602002602001604051908101604052809291908181526020016000905b828210156105d85760008481526020908190206040805160a0810182526005860290920180546001600160a01b03908116845260018083015490911684860152600282015492840192909252600381015460608401526004015460ff16151560808301529083529092019101610567565b50505050905090565b600281815481106105f157600080fd5b6000918252602090912060059091020180546001820154600283015460038401546004909401546001600160a01b03938416955091909216929060ff1685565b6060600180548060200260200160405190810160405280929190818152602001828054801561068957602002820191906000526020600020905b81546001600160a01b0316815260019091019060200180831161066b575b5050505050905090565b6040805160a081018252600080825260208201819052918101829052606081018290526080810191909152600282815481106106d1576106d1610e73565b60009182526020918290206040805160a081018252600590930290910180546001600160a01b039081168452600182015416938301939093526002830154908201526003820154606082015260049091015460ff161515608082015292915050565b60006001600160a01b03166000806002848154811061075457610754610e73565b60009182526020808320600160059093020191909101546001600160a01b039081168452908301939093526040909101902054160361082457600281815481106107a0576107a0610e73565b906000526020600020906005020160010160009054906101000a90046001600160a01b0316600080600284815481106107db576107db610e73565b60009182526020808320600592909202909101600101546001600160a01b039081168452908301939093526040909101902080546001600160a01b031916929091169190911790555b6000806002838154811061083a5761083a610e73565b60009182526020808320600160059093020191909101546001600160a01b0390811684529083019390935260409091019020546002805491909216916323b872dd913091908590811061088f5761088f610e73565b6000918252602090912060059091020154600280546001600160a01b0390921691869081106108c0576108c0610e73565b906000526020600020906005020160020154670de0b6b3a76400006108e59190610e9f565b6040518463ffffffff1660e01b815260040161090393929190610ed8565b6020604051808303816000875af1158015610922573d6000803e3d6000fd5b505050506040513d601f19601f820116820180604052508101906109469190610eb6565b5060016002828154811061095c5761095c610e73565b60009182526020909120600590910201600401805460ff191691151591909117905550565b6001818154811061099157600080fd5b6000918252602090912001546001600160a01b0316905081565b6001600160a01b03838116600090815260208190526040902054166109f4576001600160a01b038316600081815260208190526040902080546001600160a01b03191690911790555b6001600160a01b038084166000908152602081905260409020541663095ea7b330610a2785670de0b6b3a7640000610e9f565b6040516001600160e01b031960e085901b1681526001600160a01b03909216600483015260248201526044016020604051808303816000875af1158015610a72573d6000803e3d6000fd5b505050506040513d601f19601f82011682018060405250810190610a969190610eb6565b610ae25760405162461bcd60e51b815260206004820152601e60248201527f496e73756666696369656e7420617070726f766520666f7220746f6b656e00006044820152606401610240565b6001600160a01b03808416600090815260208190526040902054166323b872dd3330610b1686670de0b6b3a7640000610e9f565b6040518463ffffffff1660e01b8152600401610b3493929190610ed8565b6020604051808303816000875af1158015610b53573d6000803e3d6000fd5b505050506040513d601f19601f82011682018060405250810190610b779190610eb6565b610bbb5760405162461bcd60e51b8152602060048201526015602482015274151bdad95b881d1c985b9cd9995c8819985a5b1959605a1b6044820152606401610240565b6040805160a0810182523381526001600160a01b0385811660208301908152928201858152606083018581526000608085018181526002805460018101825590835295517f405787fa12a823e0f2b7631cc41b3ba8828b3321ca811111fa75cd3aa3bb5ace600590970296870180546001600160a01b031990811692881692909217905596517f405787fa12a823e0f2b7631cc41b3ba8828b3321ca811111fa75cd3aa3bb5acf8701805490981695169490941790955590517f405787fa12a823e0f2b7631cc41b3ba8828b3321ca811111fa75cd3aa3bb5ad0840155517f405787fa12a823e0f2b7631cc41b3ba8828b3321ca811111fa75cd3aa3bb5ad1830155517f405787fa12a823e0f2b7631cc41b3ba8828b3321ca811111fa75cd3aa3bb5ad2909101805460ff19169115159190911790556003805491610cff83610efc565b9190505550505050565b600060208284031215610d1b57600080fd5b5035919050565b80516001600160a01b0390811683526020808301519091169083015260408082015190830152606080820151908301526080908101511515910152565b6020808252825182820181905260009190848201906040850190845b81811015610da157610d8e838551610d22565b9284019260a09290920191600101610d7b565b50909695505050505050565b6020808252825182820181905260009190848201906040850190845b81811015610da15783516001600160a01b031683529284019291840191600101610dc9565b80356001600160a01b0381168114610e0557600080fd5b919050565b600060208284031215610e1c57600080fd5b610e2582610dee565b9392505050565b60a08101610e3a8284610d22565b92915050565b600080600060608486031215610e5557600080fd5b610e5e84610dee565b95602085013595506040909401359392505050565b634e487b7160e01b600052603260045260246000fd5b634e487b7160e01b600052601160045260246000fd5b8082028115828204841417610e3a57610e3a610e89565b600060208284031215610ec857600080fd5b81518015158114610e2557600080fd5b6001600160a01b039384168152919092166020820152604081019190915260600190565b600060018201610f0e57610f0e610e89565b506001019056fea26469706673582212205fed99125ec32f4020d2f29c41e1f2923f7c37cc074046c61863b4d642f62f5764736f6c63430008140033",
  "linkReferences": {},
  "deployedLinkReferences": {}
}