{
  "_format": "hh-sol-artifact-1",
  "contractName": "TokenMarketplace",
  "sourceName": "contracts/TokenMarketplace.sol",
  "abi": [
    {
      "inputs": [
        {
          "internalType": "address",
          "name": "_tokenAddress",
          "type": "address"
        },
        {
          "internalType": "uint256",
          "name": "_tokenAmount",
          "type": "uint256"
        }
      ],
      "name": "addTradePost",
      "outputs": [],
      "stateMutability": "nonpayable",
      "type": "function"
    },
    {
      "inputs": [
        {
          "internalType": "address",
          "name": "_sellerAddress",
          "type": "address"
        },
        {
          "internalType": "address",
          "name": "_tokenAddress",
          "type": "address"
        },
        {
          "internalType": "uint256",
          "name": "_tokenAmount",
          "type": "uint256"
        },
        {
          "internalType": "uint256",
          "name": "_price",
          "type": "uint256"
        }
      ],
      "name": "buyToken",
      "outputs": [],
      "stateMutability": "nonpayable",
      "type": "function"
    },
    {
      "inputs": [
        {
          "internalType": "address",
          "name": "",
          "type": "address"
        }
      ],
      "name": "tokenContracts",
      "outputs": [
        {
          "internalType": "contract IERC20",
          "name": "",
          "type": "address"
        }
      ],
      "stateMutability": "view",
      "type": "function"
    },
    {
      "inputs": [
        {
          "internalType": "address",
          "name": "_tokenAddress",
          "type": "address"
        },
        {
          "internalType": "address",
          "name": "_sellerAddress",
          "type": "address"
        },
        {
          "internalType": "uint256",
          "name": "_tokenAmount",
          "type": "uint256"
        }
      ],
      "name": "unListPost",
      "outputs": [],
      "stateMutability": "nonpayable",
      "type": "function"
    }
  ],
  "bytecode": "0x6080604052600180546001600160a01b0319167339af03c99f8b82602d293737de6a0ebf5d8f48db17905534801561003657600080fd5b506107cf806100466000396000f3fe608060405234801561001057600080fd5b506004361061004c5760003560e01c80637d17ff3d146100515780637d2c9c0114610066578063984049ce14610079578063cbee7c81146100be575b600080fd5b61006461005f36600461065e565b6100d1565b005b6100646100743660046106a0565b61034a565b6100a26100873660046106dc565b6000602081905290815260409020546001600160a01b031681565b6040516001600160a01b03909116815260200160405180910390f35b6100646100cc3660046106fe565b61042e565b6001546001600160a01b039081166000908152602081905260409020541661011f576001546001600160a01b0316600081815260208190526040902080546001600160a01b03191690911790555b6001546001600160a01b039081166000908152602081905260409020541663095ea7b38561015584670de0b6b3a7640000610728565b6040516001600160e01b031960e085901b1681526001600160a01b03909216600483015260248201526044016020604051808303816000875af11580156101a0573d6000803e3d6000fd5b505050506040513d601f19601f820116820180604052508101906101c49190610753565b6102155760405162461bcd60e51b815260206004820181905260248201527f4661696c656420746f20617070726f766520746f6b656e207472616e7366657260448201526064015b60405180910390fd5b6001546001600160a01b03908116600090815260208190526040902054166323b872dd338661024c85670de0b6b3a7640000610728565b6040518463ffffffff1660e01b815260040161026a93929190610775565b6020604051808303816000875af1158015610289573d6000803e3d6000fd5b505050506040513d601f19601f820116820180604052508101906102ad9190610753565b506001600160a01b03808416600090815260208190526040902054166323b872dd30336102e286670de0b6b3a7640000610728565b6040518463ffffffff1660e01b815260040161030093929190610775565b6020604051808303816000875af115801561031f573d6000803e3d6000fd5b505050506040513d601f19601f820116820180604052508101906103439190610753565b5050505050565b6001600160a01b0383811660009081526020819052604090205416610393576001600160a01b038316600081815260208190526040902080546001600160a01b03191690911790555b6001600160a01b03808416600090815260208190526040902054166323b872dd30846103c785670de0b6b3a7640000610728565b6040518463ffffffff1660e01b81526004016103e593929190610775565b6020604051808303816000875af1158015610404573d6000803e3d6000fd5b505050506040513d601f19601f820116820180604052508101906104289190610753565b50505050565b6001600160a01b0382811660009081526020819052604090205416610477576001600160a01b038216600081815260208190526040902080546001600160a01b03191690911790555b6001600160a01b038083166000908152602081905260409020541663095ea7b3306104aa84670de0b6b3a7640000610728565b6040516001600160e01b031960e085901b1681526001600160a01b03909216600483015260248201526044016020604051808303816000875af11580156104f5573d6000803e3d6000fd5b505050506040513d601f19601f820116820180604052508101906105199190610753565b6105655760405162461bcd60e51b815260206004820152601e60248201527f496e73756666696369656e7420617070726f766520666f7220746f6b656e0000604482015260640161020c565b6001600160a01b03808316600090815260208190526040902054166323b872dd333061059985670de0b6b3a7640000610728565b6040518463ffffffff1660e01b81526004016105b793929190610775565b6020604051808303816000875af11580156105d6573d6000803e3d6000fd5b505050506040513d601f19601f820116820180604052508101906105fa9190610753565b61063e5760405162461bcd60e51b8152602060048201526015602482015274151bdad95b881d1c985b9cd9995c8819985a5b1959605a1b604482015260640161020c565b5050565b80356001600160a01b038116811461065957600080fd5b919050565b6000806000806080858703121561067457600080fd5b61067d85610642565b935061068b60208601610642565b93969395505050506040820135916060013590565b6000806000606084860312156106b557600080fd5b6106be84610642565b92506106cc60208501610642565b9150604084013590509250925092565b6000602082840312156106ee57600080fd5b6106f782610642565b9392505050565b6000806040838503121561071157600080fd5b61071a83610642565b946020939093013593505050565b808202811582820484141761074d57634e487b7160e01b600052601160045260246000fd5b92915050565b60006020828403121561076557600080fd5b815180151581146106f757600080fd5b6001600160a01b03938416815291909216602082015260408101919091526060019056fea264697066735822122066f4675729e8cda82866c8d2810fc77511f6db402169a23411f66eb6a5c3496664736f6c63430008140033",
  "linkReferences": {},
  "deployedLinkReferences": {}
}