{
  "_format": "hh-sol-artifact-1",
  "contractName": "TokenMarketplace",
  "sourceName": "contracts/TokenMarketplace.sol",
  "abi": [
    {
      "inputs": [],
      "stateMutability": "nonpayable",
      "type": "constructor"
    },
    {
      "inputs": [
        {
          "internalType": "address",
          "name": "_tokenAddress",
          "type": "address"
        },
        {
          "internalType": "uint256",
          "name": "_tokenAmount",
          "type": "uint256"
        },
        {
          "internalType": "uint256",
          "name": "_price",
          "type": "uint256"
        }
      ],
      "name": "addTradePost",
      "outputs": [],
      "stateMutability": "nonpayable",
      "type": "function"
    },
    {
      "inputs": [
        {
          "internalType": "uint256",
          "name": "_tradePostIndex",
          "type": "uint256"
        }
      ],
      "name": "buyToken",
      "outputs": [],
      "stateMutability": "nonpayable",
      "type": "function"
    },
    {
      "inputs": [],
      "name": "getAllPosts",
      "outputs": [
        {
          "components": [
            {
              "internalType": "address",
              "name": "seller",
              "type": "address"
            },
            {
              "internalType": "address",
              "name": "tokenAddress",
              "type": "address"
            },
            {
              "internalType": "uint256",
              "name": "tokenAmount",
              "type": "uint256"
            },
            {
              "internalType": "uint256",
              "name": "price",
              "type": "uint256"
            }
          ],
          "internalType": "struct TokenMarketplace.TradePost[]",
          "name": "",
          "type": "tuple[]"
        }
      ],
      "stateMutability": "view",
      "type": "function"
    },
    {
      "inputs": [],
      "name": "getTradePostsLength",
      "outputs": [
        {
          "internalType": "uint256",
          "name": "",
          "type": "uint256"
        }
      ],
      "stateMutability": "view",
      "type": "function"
    },
    {
      "inputs": [
        {
          "internalType": "address",
          "name": "",
          "type": "address"
        }
      ],
      "name": "isTokenListed",
      "outputs": [
        {
          "internalType": "bool",
          "name": "",
          "type": "bool"
        }
      ],
      "stateMutability": "view",
      "type": "function"
    },
    {
      "inputs": [
        {
          "internalType": "address",
          "name": "_tokenAddress",
          "type": "address"
        }
      ],
      "name": "listToken",
      "outputs": [],
      "stateMutability": "nonpayable",
      "type": "function"
    },
    {
      "inputs": [
        {
          "internalType": "address",
          "name": "",
          "type": "address"
        }
      ],
      "name": "tokenContracts",
      "outputs": [
        {
          "internalType": "contract IERC20",
          "name": "",
          "type": "address"
        }
      ],
      "stateMutability": "view",
      "type": "function"
    },
    {
      "inputs": [
        {
          "internalType": "uint256",
          "name": "",
          "type": "uint256"
        }
      ],
      "name": "tradePosts",
      "outputs": [
        {
          "internalType": "address",
          "name": "seller",
          "type": "address"
        },
        {
          "internalType": "address",
          "name": "tokenAddress",
          "type": "address"
        },
        {
          "internalType": "uint256",
          "name": "tokenAmount",
          "type": "uint256"
        },
        {
          "internalType": "uint256",
          "name": "price",
          "type": "uint256"
        }
      ],
      "stateMutability": "view",
      "type": "function"
    },
    {
      "inputs": [],
      "name": "tradePostsLength",
      "outputs": [
        {
          "internalType": "uint256",
          "name": "",
          "type": "uint256"
        }
      ],
      "stateMutability": "view",
      "type": "function"
    }
  ],
  "bytecode": "0x6080604052600480546001600160a01b0319167339af03c99f8b82602d293737de6a0ebf5d8f48db17905534801561003657600080fd5b5060045461004c906001600160a01b0316610051565b6100fc565b6001600160a01b03811660009081526001602052604090205460ff16156100be5760405162461bcd60e51b815260206004820152601460248201527f546f6b656e20616c7265616479206c6973746564000000000000000000000000604482015260640160405180910390fd5b6001600160a01b03166000818152600160208181526040808420805460ff1916909317909255829052902080546001600160a01b0319169091179055565b610a748061010b6000396000f3fe608060405234801561001057600080fd5b50600436106100935760003560e01c80634d3dedcd116100665780634d3dedcd146100f1578063984049ce1461012f578063b3b1dd4e14610170578063cd01b55a14610183578063e69ec6531461018b57600080fd5b80631ec9d6ba146100985780631fc1e25f146100b45780632d296bf1146100c957806330561100146100dc575b600080fd5b6100a160035481565b6040519081526020015b60405180910390f35b6100c76100c23660046108e8565b6101be565b005b6100c76100d736600461090a565b610261565b6100e46104e8565b6040516100ab9190610923565b6101046100ff36600461090a565b610577565b604080516001600160a01b0395861681529490931660208501529183015260608201526080016100ab565b61015861013d3660046108e8565b6000602081905290815260409020546001600160a01b031681565b6040516001600160a01b0390911681526020016100ab565b6100c761017e366004610993565b6105bd565b6002546100a1565b6101ae6101993660046108e8565b60016020526000908152604090205460ff1681565b60405190151581526020016100ab565b6001600160a01b03811660009081526001602052604090205460ff16156102235760405162461bcd60e51b8152602060048201526014602482015273151bdad95b88185b1c9958591e481b1a5cdd195960621b60448201526064015b60405180910390fd5b6001600160a01b03166000818152600160208181526040808420805460ff1916909317909255829052902080546001600160a01b0319169091179055565b60035481106102b25760405162461bcd60e51b815260206004820152601860248201527f496e76616c696420747261646520706f737420696e6465780000000000000000604482015260640161021a565b6000600282815481106102c7576102c76109c6565b60009182526020808320600480546001600160a01b03908116865292859052604094859020549381029091016003810154945163095ea7b360e01b815230928101929092526024820194909452929350169063095ea7b3906044016020604051808303816000875af1158015610341573d6000803e3d6000fd5b505050506040513d601f19601f8201168201806040525081019061036591906109dc565b6103b15760405162461bcd60e51b815260206004820181905260248201527f4661696c656420746f20617070726f766520746f6b656e207472616e73666572604482015260640161021a565b600480546001600160a01b0390811660009081526020819052604090819020548454600286015492516323b872dd60e01b8152339581019590955283166024850152604484019190915216906323b872dd906064016020604051808303816000875af1158015610425573d6000803e3d6000fd5b505050506040513d601f19601f8201168201806040525081019061044991906109dc565b50600480546001600160a01b0390811660009081526020819052604090819020548454600386015492516323b872dd60e01b815290841694810194909452336024850152604484019190915216906323b872dd906064016020604051808303816000875af11580156104bf573d6000803e3d6000fd5b505050506040513d601f19601f820116820180604052508101906104e391906109dc565b505050565b60606002805480602002602001604051908101604052809291908181526020016000905b8282101561056e576000848152602090819020604080516080810182526004860290920180546001600160a01b03908116845260018083015490911684860152600282015492840192909252600301546060830152908352909201910161050c565b50505050905090565b6002818154811061058757600080fd5b600091825260209091206004909102018054600182015460028301546003909301546001600160a01b0392831694509116919084565b6001600160a01b03831660009081526001602052604090205460ff166106185760405162461bcd60e51b815260206004820152601060248201526f151bdad95b881b9bdd081b1a5cdd195960821b604482015260640161021a565b6001600160a01b0383811660009081526020819052604090819020549051636eb1769f60e11b81523360048201523060248201528492919091169063dd62ed3e90604401602060405180830381865afa158015610679573d6000803e3d6000fd5b505050506040513d601f19601f8201168201806040525081019061069d91906109fe565b10156106eb5760405162461bcd60e51b815260206004820181905260248201527f496e73756666696369656e7420616c6c6f77616e636520666f7220746f6b656e604482015260640161021a565b6001600160a01b03838116600090815260208190526040908190205490516323b872dd60e01b8152336004820152306024820152604481018590529116906323b872dd906064016020604051808303816000875af1158015610751573d6000803e3d6000fd5b505050506040513d601f19601f8201168201806040525081019061077591906109dc565b6107b95760405162461bcd60e51b8152602060048201526015602482015274151bdad95b881d1c985b9cd9995c8819985a5b1959605a1b604482015260640161021a565b604080516080810182523381526001600160a01b038581166020830190815292820185815260608301858152600280546001810182556000918252945160049095027f405787fa12a823e0f2b7631cc41b3ba8828b3321ca811111fa75cd3aa3bb5ace810180549686166001600160a01b031997881617905595517f405787fa12a823e0f2b7631cc41b3ba8828b3321ca811111fa75cd3aa3bb5acf8701805491909516951694909417909255517f405787fa12a823e0f2b7631cc41b3ba8828b3321ca811111fa75cd3aa3bb5ad0840155517f405787fa12a823e0f2b7631cc41b3ba8828b3321ca811111fa75cd3aa3bb5ad19092019190915560038054916108c283610a17565b9190505550505050565b80356001600160a01b03811681146108e357600080fd5b919050565b6000602082840312156108fa57600080fd5b610903826108cc565b9392505050565b60006020828403121561091c57600080fd5b5035919050565b602080825282518282018190526000919060409081850190868401855b8281101561098657815180516001600160a01b03908116865287820151168786015285810151868601526060908101519085015260809093019290850190600101610940565b5091979650505050505050565b6000806000606084860312156109a857600080fd5b6109b1846108cc565b95602085013595506040909401359392505050565b634e487b7160e01b600052603260045260246000fd5b6000602082840312156109ee57600080fd5b8151801515811461090357600080fd5b600060208284031215610a1057600080fd5b5051919050565b600060018201610a3757634e487b7160e01b600052601160045260246000fd5b506001019056fea2646970667358221220456a551780b7a28df297e31c546ae5e80f468125fef7af56e3e806c056840ff364736f6c63430008140033",
  "linkReferences": {},
  "deployedLinkReferences": {}
}