{
  "_format": "hh-sol-artifact-1",
  "contractName": "TokenMarketplace",
  "sourceName": "contracts/TokenMarketplace.sol",
  "abi": [
    {
      "inputs": [],
      "stateMutability": "nonpayable",
      "type": "constructor"
    },
    {
      "inputs": [
        {
          "internalType": "address",
          "name": "_tokenAddress",
          "type": "address"
        },
        {
          "internalType": "uint256",
          "name": "_tokenAmount",
          "type": "uint256"
        },
        {
          "internalType": "uint256",
          "name": "_price",
          "type": "uint256"
        }
      ],
      "name": "addTradePost",
      "outputs": [],
      "stateMutability": "nonpayable",
      "type": "function"
    },
    {
      "inputs": [
        {
          "internalType": "uint256",
          "name": "_tradePostIndex",
          "type": "uint256"
        }
      ],
      "name": "buyToken",
      "outputs": [],
      "stateMutability": "nonpayable",
      "type": "function"
    },
    {
      "inputs": [],
      "name": "getAllPosts",
      "outputs": [
        {
          "components": [
            {
              "internalType": "address",
              "name": "seller",
              "type": "address"
            },
            {
              "internalType": "address",
              "name": "tokenAddress",
              "type": "address"
            },
            {
              "internalType": "uint256",
              "name": "tokenAmount",
              "type": "uint256"
            },
            {
              "internalType": "uint256",
              "name": "price",
              "type": "uint256"
            }
          ],
          "internalType": "struct TokenMarketplace.TradePost[]",
          "name": "",
          "type": "tuple[]"
        }
      ],
      "stateMutability": "view",
      "type": "function"
    },
    {
      "inputs": [],
      "name": "getTradePostsLength",
      "outputs": [
        {
          "internalType": "uint256",
          "name": "",
          "type": "uint256"
        }
      ],
      "stateMutability": "view",
      "type": "function"
    },
    {
      "inputs": [
        {
          "internalType": "address",
          "name": "",
          "type": "address"
        }
      ],
      "name": "isTokenListed",
      "outputs": [
        {
          "internalType": "bool",
          "name": "",
          "type": "bool"
        }
      ],
      "stateMutability": "view",
      "type": "function"
    },
    {
      "inputs": [
        {
          "internalType": "address",
          "name": "_tokenAddress",
          "type": "address"
        }
      ],
      "name": "listToken",
      "outputs": [],
      "stateMutability": "nonpayable",
      "type": "function"
    },
    {
      "inputs": [
        {
          "internalType": "address",
          "name": "",
          "type": "address"
        }
      ],
      "name": "tokenContracts",
      "outputs": [
        {
          "internalType": "contract IERC20",
          "name": "",
          "type": "address"
        }
      ],
      "stateMutability": "view",
      "type": "function"
    },
    {
      "inputs": [
        {
          "internalType": "uint256",
          "name": "",
          "type": "uint256"
        }
      ],
      "name": "tradePosts",
      "outputs": [
        {
          "internalType": "address",
          "name": "seller",
          "type": "address"
        },
        {
          "internalType": "address",
          "name": "tokenAddress",
          "type": "address"
        },
        {
          "internalType": "uint256",
          "name": "tokenAmount",
          "type": "uint256"
        },
        {
          "internalType": "uint256",
          "name": "price",
          "type": "uint256"
        }
      ],
      "stateMutability": "view",
      "type": "function"
    },
    {
      "inputs": [],
      "name": "tradePostsLength",
      "outputs": [
        {
          "internalType": "uint256",
          "name": "",
          "type": "uint256"
        }
      ],
      "stateMutability": "view",
      "type": "function"
    }
  ],
  "bytecode": "0x6080604052600480546001600160a01b0319167339af03c99f8b82602d293737de6a0ebf5d8f48db17905534801561003657600080fd5b5060045461004c906001600160a01b0316610051565b6100fc565b6001600160a01b03811660009081526001602052604090205460ff16156100be5760405162461bcd60e51b815260206004820152601460248201527f546f6b656e20616c7265616479206c6973746564000000000000000000000000604482015260640160405180910390fd5b6001600160a01b03166000818152600160208181526040808420805460ff1916909317909255829052902080546001600160a01b0319169091179055565b610b278061010b6000396000f3fe608060405234801561001057600080fd5b50600436106100935760003560e01c80634d3dedcd116100665780634d3dedcd146100f1578063984049ce1461012f578063b3b1dd4e14610170578063cd01b55a14610183578063e69ec6531461018b57600080fd5b80631ec9d6ba146100985780631fc1e25f146100b45780632d296bf1146100c957806330561100146100dc575b600080fd5b6100a160035481565b6040519081526020015b60405180910390f35b6100c76100c236600461099b565b6101be565b005b6100c76100d73660046109bd565b610261565b6100e461059b565b6040516100ab91906109d6565b6101046100ff3660046109bd565b61062a565b604080516001600160a01b0395861681529490931660208501529183015260608201526080016100ab565b61015861013d36600461099b565b6000602081905290815260409020546001600160a01b031681565b6040516001600160a01b0390911681526020016100ab565b6100c761017e366004610a46565b610670565b6002546100a1565b6101ae61019936600461099b565b60016020526000908152604090205460ff1681565b60405190151581526020016100ab565b6001600160a01b03811660009081526001602052604090205460ff16156102235760405162461bcd60e51b8152602060048201526014602482015273151bdad95b88185b1c9958591e481b1a5cdd195960621b60448201526064015b60405180910390fd5b6001600160a01b03166000818152600160208181526040808420805460ff1916909317909255829052902080546001600160a01b0319169091179055565b60035481106102b25760405162461bcd60e51b815260206004820152601860248201527f496e76616c696420747261646520706f737420696e6465780000000000000000604482015260640161021a565b6000600282815481106102c7576102c7610a79565b6000918252602080832060049283020160018101546001600160a01b03908116855291849052604093849020546003820154945163095ea7b360e01b8152309481019490945260248401949094529350919091169063095ea7b3906044016020604051808303816000875af1158015610344573d6000803e3d6000fd5b505050506040513d601f19601f820116820180604052508101906103689190610a8f565b6103b45760405162461bcd60e51b815260206004820181905260248201527f4661696c656420746f20617070726f766520746f6b656e207472616e73666572604482015260640161021a565b60018101546001600160a01b0390811660009081526020819052604090819020548354600285015492516323b872dd60e01b815233600482015290841660248201526044810192909252909116906323b872dd906064016020604051808303816000875af115801561042a573d6000803e3d6000fd5b505050506040513d601f19601f8201168201806040525081019061044e9190610a8f565b61049a5760405162461bcd60e51b815260206004820152601860248201527f4661696c656420746f207472616e7366657220746f6b656e0000000000000000604482015260640161021a565b60018101546001600160a01b0390811660009081526020819052604090819020548354600385015492516323b872dd60e01b815290841660048201523360248201526044810192909252909116906323b872dd906064016020604051808303816000875af1158015610510573d6000803e3d6000fd5b505050506040513d601f19601f820116820180604052508101906105349190610a8f565b6105975760405162461bcd60e51b815260206004820152602e60248201527f4661696c656420746f207472616e7366657220746f6b656e207061796d656e7460448201526d103a37903a34329039b2b63632b960911b606482015260840161021a565b5050565b60606002805480602002602001604051908101604052809291908181526020016000905b82821015610621576000848152602090819020604080516080810182526004860290920180546001600160a01b0390811684526001808301549091168486015260028201549284019290925260030154606083015290835290920191016105bf565b50505050905090565b6002818154811061063a57600080fd5b600091825260209091206004909102018054600182015460028301546003909301546001600160a01b0392831694509116919084565b6001600160a01b03831660009081526001602052604090205460ff166106cb5760405162461bcd60e51b815260206004820152601060248201526f151bdad95b881b9bdd081b1a5cdd195960821b604482015260640161021a565b6001600160a01b0383811660009081526020819052604090819020549051636eb1769f60e11b81523360048201523060248201528492919091169063dd62ed3e90604401602060405180830381865afa15801561072c573d6000803e3d6000fd5b505050506040513d601f19601f820116820180604052508101906107509190610ab1565b101561079e5760405162461bcd60e51b815260206004820181905260248201527f496e73756666696369656e7420616c6c6f77616e636520666f7220746f6b656e604482015260640161021a565b6001600160a01b03838116600090815260208190526040908190205490516323b872dd60e01b8152336004820152306024820152604481018590529116906323b872dd906064016020604051808303816000875af1158015610804573d6000803e3d6000fd5b505050506040513d601f19601f820116820180604052508101906108289190610a8f565b61086c5760405162461bcd60e51b8152602060048201526015602482015274151bdad95b881d1c985b9cd9995c8819985a5b1959605a1b604482015260640161021a565b604080516080810182523381526001600160a01b038581166020830190815292820185815260608301858152600280546001810182556000918252945160049095027f405787fa12a823e0f2b7631cc41b3ba8828b3321ca811111fa75cd3aa3bb5ace810180549686166001600160a01b031997881617905595517f405787fa12a823e0f2b7631cc41b3ba8828b3321ca811111fa75cd3aa3bb5acf8701805491909516951694909417909255517f405787fa12a823e0f2b7631cc41b3ba8828b3321ca811111fa75cd3aa3bb5ad0840155517f405787fa12a823e0f2b7631cc41b3ba8828b3321ca811111fa75cd3aa3bb5ad190920191909155600380549161097583610aca565b9190505550505050565b80356001600160a01b038116811461099657600080fd5b919050565b6000602082840312156109ad57600080fd5b6109b68261097f565b9392505050565b6000602082840312156109cf57600080fd5b5035919050565b602080825282518282018190526000919060409081850190868401855b82811015610a3957815180516001600160a01b039081168652878201511687860152858101518686015260609081015190850152608090930192908501906001016109f3565b5091979650505050505050565b600080600060608486031215610a5b57600080fd5b610a648461097f565b95602085013595506040909401359392505050565b634e487b7160e01b600052603260045260246000fd5b600060208284031215610aa157600080fd5b815180151581146109b657600080fd5b600060208284031215610ac357600080fd5b5051919050565b600060018201610aea57634e487b7160e01b600052601160045260246000fd5b506001019056fea2646970667358221220c1a40fb141880586e3cc24e903e9bd00c3d396a5edd82fec67d06ea271143fcc64736f6c63430008140033",
  "linkReferences": {},
  "deployedLinkReferences": {}
}