{
  "_format": "hh-sol-artifact-1",
  "contractName": "TokenMarketplace",
  "sourceName": "contracts/TokenMarketplace.sol",
  "abi": [
    {
      "inputs": [
        {
          "internalType": "address",
          "name": "_tokenAddress",
          "type": "address"
        },
        {
          "internalType": "uint256",
          "name": "_tokenAmount",
          "type": "uint256"
        },
        {
          "internalType": "uint256",
          "name": "_price",
          "type": "uint256"
        }
      ],
      "name": "addTradePost",
      "outputs": [],
      "stateMutability": "nonpayable",
      "type": "function"
    },
    {
      "inputs": [
        {
          "internalType": "uint256",
          "name": "_tradePostIndex",
          "type": "uint256"
        }
      ],
      "name": "buyToken",
      "outputs": [],
      "stateMutability": "nonpayable",
      "type": "function"
    },
    {
      "inputs": [],
      "name": "getAllPosts",
      "outputs": [
        {
          "components": [
            {
              "internalType": "address",
              "name": "seller",
              "type": "address"
            },
            {
              "internalType": "address",
              "name": "tokenAddress",
              "type": "address"
            },
            {
              "internalType": "uint256",
              "name": "tokenAmount",
              "type": "uint256"
            },
            {
              "internalType": "uint256",
              "name": "price",
              "type": "uint256"
            }
          ],
          "internalType": "struct TokenMarketplace.TradePost[]",
          "name": "",
          "type": "tuple[]"
        }
      ],
      "stateMutability": "view",
      "type": "function"
    },
    {
      "inputs": [
        {
          "internalType": "uint256",
          "name": "index",
          "type": "uint256"
        }
      ],
      "name": "getSpecificPost",
      "outputs": [
        {
          "components": [
            {
              "internalType": "address",
              "name": "seller",
              "type": "address"
            },
            {
              "internalType": "address",
              "name": "tokenAddress",
              "type": "address"
            },
            {
              "internalType": "uint256",
              "name": "tokenAmount",
              "type": "uint256"
            },
            {
              "internalType": "uint256",
              "name": "price",
              "type": "uint256"
            }
          ],
          "internalType": "struct TokenMarketplace.TradePost",
          "name": "",
          "type": "tuple"
        }
      ],
      "stateMutability": "view",
      "type": "function"
    },
    {
      "inputs": [],
      "name": "getTradePostsLength",
      "outputs": [
        {
          "internalType": "uint256",
          "name": "",
          "type": "uint256"
        }
      ],
      "stateMutability": "view",
      "type": "function"
    },
    {
      "inputs": [],
      "name": "getUserTokens",
      "outputs": [
        {
          "internalType": "address[]",
          "name": "",
          "type": "address[]"
        }
      ],
      "stateMutability": "view",
      "type": "function"
    },
    {
      "inputs": [
        {
          "internalType": "address",
          "name": "",
          "type": "address"
        }
      ],
      "name": "tokenContracts",
      "outputs": [
        {
          "internalType": "contract IERC20",
          "name": "",
          "type": "address"
        }
      ],
      "stateMutability": "view",
      "type": "function"
    },
    {
      "inputs": [
        {
          "internalType": "uint256",
          "name": "",
          "type": "uint256"
        }
      ],
      "name": "tradePosts",
      "outputs": [
        {
          "internalType": "address",
          "name": "seller",
          "type": "address"
        },
        {
          "internalType": "address",
          "name": "tokenAddress",
          "type": "address"
        },
        {
          "internalType": "uint256",
          "name": "tokenAmount",
          "type": "uint256"
        },
        {
          "internalType": "uint256",
          "name": "price",
          "type": "uint256"
        }
      ],
      "stateMutability": "view",
      "type": "function"
    },
    {
      "inputs": [],
      "name": "tradePostsLength",
      "outputs": [
        {
          "internalType": "uint256",
          "name": "",
          "type": "uint256"
        }
      ],
      "stateMutability": "view",
      "type": "function"
    },
    {
      "inputs": [
        {
          "internalType": "uint256",
          "name": "",
          "type": "uint256"
        }
      ],
      "name": "userTokens",
      "outputs": [
        {
          "internalType": "address",
          "name": "",
          "type": "address"
        }
      ],
      "stateMutability": "view",
      "type": "function"
    }
  ],
  "bytecode": "0x6080604052600480546001600160a01b0319167339af03c99f8b82602d293737de6a0ebf5d8f48db17905534801561003657600080fd5b50610ae6806100466000396000f3fe608060405234801561001057600080fd5b506004361061009e5760003560e01c8063984049ce11610066578063984049ce1461013c578063a568c3721461017d578063ab64c22a1461019d578063b3b1dd4e146101b0578063cd01b55a146101c357600080fd5b80631ec9d6ba146100a35780632d296bf1146100bf57806330561100146100d45780634d3dedcd146100e95780638a664ebc14610127575b600080fd5b6100ac60035481565b6040519081526020015b60405180910390f35b6100d26100cd3660046108b2565b6101cb565b005b6100dc6104c4565b6040516100b691906108cb565b6100fc6100f73660046108b2565b610553565b604080516001600160a01b0395861681529490931660208501529183015260608201526080016100b6565b61012f610599565b6040516100b69190610945565b61016561014a3660046109a2565b6000602081905290815260409020546001600160a01b031681565b6040516001600160a01b0390911681526020016100b6565b61019061018b3660046108b2565b6105fb565b6040516100b691906109c4565b6101656101ab3660046108b2565b610685565b6100d26101be3660046109ff565b6106af565b6002546100ac565b60035481106102215760405162461bcd60e51b815260206004820152601860248201527f496e76616c696420747261646520706f737420696e646578000000000000000060448201526064015b60405180910390fd5b60006002828154811061023657610236610a32565b60009182526020808320600480546001600160a01b0390811686529285905260409094205493909202909101805460038201549194509282169263095ea7b392169061028a90670de0b6b3a7640000610a5e565b6040516001600160e01b031960e085901b1681526001600160a01b03909216600483015260248201526044016020604051808303816000875af11580156102d5573d6000803e3d6000fd5b505050506040513d601f19601f820116820180604052508101906102f99190610a75565b6103455760405162461bcd60e51b815260206004820181905260248201527f4661696c656420746f20617070726f766520746f6b656e207472616e736665726044820152606401610218565b6004546001600160a01b0390811660009081526020819052604090205482546003840154918316926323b872dd9233929091169061038b90670de0b6b3a7640000610a5e565b6040516001600160e01b031960e086901b1681526001600160a01b03938416600482015292909116602483015260448201526064016020604051808303816000875af11580156103df573d6000803e3d6000fd5b505050506040513d601f19601f820116820180604052508101906104039190610a75565b5060018101546001600160a01b0390811660009081526020819052604090205460028301549116906323b872dd903090339061044790670de0b6b3a7640000610a5e565b6040516001600160e01b031960e086901b1681526001600160a01b03938416600482015292909116602483015260448201526064016020604051808303816000875af115801561049b573d6000803e3d6000fd5b505050506040513d601f19601f820116820180604052508101906104bf9190610a75565b505050565b60606002805480602002602001604051908101604052809291908181526020016000905b8282101561054a576000848152602090819020604080516080810182526004860290920180546001600160a01b0390811684526001808301549091168486015260028201549284019290925260030154606083015290835290920191016104e8565b50505050905090565b6002818154811061056357600080fd5b600091825260209091206004909102018054600182015460028301546003909301546001600160a01b0392831694509116919084565b606060018054806020026020016040519081016040528092919081815260200182805480156105f157602002820191906000526020600020905b81546001600160a01b031681526001909101906020018083116105d3575b5050505050905090565b6040805160808101825260008082526020820181905291810182905260608101919091526002828154811061063257610632610a32565b600091825260209182902060408051608081018252600490930290910180546001600160a01b03908116845260018201541693830193909352600283015490820152600390910154606082015292915050565b6001818154811061069557600080fd5b6000918252602090912001546001600160a01b0316905081565b6001600160a01b03808416600090815260208190526040902054166323b872dd33306106e386670de0b6b3a7640000610a5e565b6040516001600160e01b031960e086901b1681526001600160a01b03938416600482015292909116602483015260448201526064016020604051808303816000875af1158015610737573d6000803e3d6000fd5b505050506040513d601f19601f8201168201806040525081019061075b9190610a75565b61079f5760405162461bcd60e51b8152602060048201526015602482015274151bdad95b881d1c985b9cd9995c8819985a5b1959605a1b6044820152606401610218565b604080516080810182523381526001600160a01b038581166020830190815292820185815260608301858152600280546001810182556000918252945160049095027f405787fa12a823e0f2b7631cc41b3ba8828b3321ca811111fa75cd3aa3bb5ace810180549686166001600160a01b031997881617905595517f405787fa12a823e0f2b7631cc41b3ba8828b3321ca811111fa75cd3aa3bb5acf8701805491909516951694909417909255517f405787fa12a823e0f2b7631cc41b3ba8828b3321ca811111fa75cd3aa3bb5ad0840155517f405787fa12a823e0f2b7631cc41b3ba8828b3321ca811111fa75cd3aa3bb5ad19092019190915560038054916108a883610a97565b9190505550505050565b6000602082840312156108c457600080fd5b5035919050565b6020808252825182820181905260009190848201906040850190845b818110156109395761092683855180516001600160a01b0390811683526020808301519091169083015260408082015190830152606090810151910152565b92840192608092909201916001016108e7565b50909695505050505050565b6020808252825182820181905260009190848201906040850190845b818110156109395783516001600160a01b031683529284019291840191600101610961565b80356001600160a01b038116811461099d57600080fd5b919050565b6000602082840312156109b457600080fd5b6109bd82610986565b9392505050565b81516001600160a01b039081168252602080840151909116908201526040808301519082015260608083015190820152608081015b92915050565b600080600060608486031215610a1457600080fd5b610a1d84610986565b95602085013595506040909401359392505050565b634e487b7160e01b600052603260045260246000fd5b634e487b7160e01b600052601160045260246000fd5b80820281158282048414176109f9576109f9610a48565b600060208284031215610a8757600080fd5b815180151581146109bd57600080fd5b600060018201610aa957610aa9610a48565b506001019056fea2646970667358221220eab97f15e9cf5100b5d7ffb69bc0e26cc1e367352fe0369b23e56dd3d698921564736f6c63430008140033",
  "linkReferences": {},
  "deployedLinkReferences": {}
}