{
  "_format": "hh-sol-artifact-1",
  "contractName": "TokenMarketplace",
  "sourceName": "contracts/TokenMarketplace.sol",
  "abi": [
    {
      "inputs": [],
      "stateMutability": "nonpayable",
      "type": "constructor"
    },
    {
      "inputs": [
        {
          "internalType": "address",
          "name": "_tokenAddress",
          "type": "address"
        },
        {
          "internalType": "uint256",
          "name": "_tokenAmount",
          "type": "uint256"
        },
        {
          "internalType": "uint256",
          "name": "_price",
          "type": "uint256"
        }
      ],
      "name": "addTradePost",
      "outputs": [],
      "stateMutability": "nonpayable",
      "type": "function"
    },
    {
      "inputs": [
        {
          "internalType": "uint256",
          "name": "_tradePostIndex",
          "type": "uint256"
        }
      ],
      "name": "buyToken",
      "outputs": [],
      "stateMutability": "nonpayable",
      "type": "function"
    },
    {
      "inputs": [],
      "name": "getAllPosts",
      "outputs": [
        {
          "components": [
            {
              "internalType": "address",
              "name": "seller",
              "type": "address"
            },
            {
              "internalType": "address",
              "name": "tokenAddress",
              "type": "address"
            },
            {
              "internalType": "uint256",
              "name": "tokenAmount",
              "type": "uint256"
            },
            {
              "internalType": "uint256",
              "name": "price",
              "type": "uint256"
            }
          ],
          "internalType": "struct TokenMarketplace.TradePost[]",
          "name": "",
          "type": "tuple[]"
        }
      ],
      "stateMutability": "view",
      "type": "function"
    },
    {
      "inputs": [
        {
          "internalType": "uint256",
          "name": "index",
          "type": "uint256"
        }
      ],
      "name": "getSpecificPost",
      "outputs": [
        {
          "components": [
            {
              "internalType": "address",
              "name": "seller",
              "type": "address"
            },
            {
              "internalType": "address",
              "name": "tokenAddress",
              "type": "address"
            },
            {
              "internalType": "uint256",
              "name": "tokenAmount",
              "type": "uint256"
            },
            {
              "internalType": "uint256",
              "name": "price",
              "type": "uint256"
            }
          ],
          "internalType": "struct TokenMarketplace.TradePost",
          "name": "",
          "type": "tuple"
        }
      ],
      "stateMutability": "view",
      "type": "function"
    },
    {
      "inputs": [],
      "name": "getTradePostsLength",
      "outputs": [
        {
          "internalType": "uint256",
          "name": "",
          "type": "uint256"
        }
      ],
      "stateMutability": "view",
      "type": "function"
    },
    {
      "inputs": [
        {
          "internalType": "address",
          "name": "",
          "type": "address"
        }
      ],
      "name": "isTokenListed",
      "outputs": [
        {
          "internalType": "bool",
          "name": "",
          "type": "bool"
        }
      ],
      "stateMutability": "view",
      "type": "function"
    },
    {
      "inputs": [
        {
          "internalType": "address",
          "name": "_tokenAddress",
          "type": "address"
        }
      ],
      "name": "listToken",
      "outputs": [],
      "stateMutability": "nonpayable",
      "type": "function"
    },
    {
      "inputs": [
        {
          "internalType": "address",
          "name": "",
          "type": "address"
        }
      ],
      "name": "tokenContracts",
      "outputs": [
        {
          "internalType": "contract IERC20",
          "name": "",
          "type": "address"
        }
      ],
      "stateMutability": "view",
      "type": "function"
    },
    {
      "inputs": [
        {
          "internalType": "uint256",
          "name": "",
          "type": "uint256"
        }
      ],
      "name": "tradePosts",
      "outputs": [
        {
          "internalType": "address",
          "name": "seller",
          "type": "address"
        },
        {
          "internalType": "address",
          "name": "tokenAddress",
          "type": "address"
        },
        {
          "internalType": "uint256",
          "name": "tokenAmount",
          "type": "uint256"
        },
        {
          "internalType": "uint256",
          "name": "price",
          "type": "uint256"
        }
      ],
      "stateMutability": "view",
      "type": "function"
    },
    {
      "inputs": [],
      "name": "tradePostsLength",
      "outputs": [
        {
          "internalType": "uint256",
          "name": "",
          "type": "uint256"
        }
      ],
      "stateMutability": "view",
      "type": "function"
    }
  ],
  "bytecode": "0x6080604052600480546001600160a01b0319167339af03c99f8b82602d293737de6a0ebf5d8f48db17905534801561003657600080fd5b5060045461004c906001600160a01b0316610051565b6100fc565b6001600160a01b03811660009081526001602052604090205460ff16156100be5760405162461bcd60e51b815260206004820152601460248201527f546f6b656e20616c7265616479206c6973746564000000000000000000000000604482015260640160405180910390fd5b6001600160a01b03166000818152600160208181526040808420805460ff1916909317909255829052902080546001600160a01b0319169091179055565b610c1e8061010b6000396000f3fe608060405234801561001057600080fd5b506004361061009e5760003560e01c8063984049ce11610066578063984049ce1461013a578063a568c3721461017b578063b3b1dd4e1461019b578063cd01b55a146101ae578063e69ec653146101b657600080fd5b80631ec9d6ba146100a35780631fc1e25f146100bf5780632d296bf1146100d457806330561100146100e75780634d3dedcd146100fc575b600080fd5b6100ac60035481565b6040519081526020015b60405180910390f35b6100d26100cd366004610a47565b6101e9565b005b6100d26100e2366004610a69565b61028c565b6100ef610580565b6040516100b69190610a82565b61010f61010a366004610a69565b61060f565b604080516001600160a01b0395861681529490931660208501529183015260608201526080016100b6565b610163610148366004610a47565b6000602081905290815260409020546001600160a01b031681565b6040516001600160a01b0390911681526020016100b6565b61018e610189366004610a69565b610655565b6040516100b69190610afc565b6100d26101a9366004610b37565b6106df565b6002546100ac565b6101d96101c4366004610a47565b60016020526000908152604090205460ff1681565b60405190151581526020016100b6565b6001600160a01b03811660009081526001602052604090205460ff161561024e5760405162461bcd60e51b8152602060048201526014602482015273151bdad95b88185b1c9958591e481b1a5cdd195960621b60448201526064015b60405180910390fd5b6001600160a01b03166000818152600160208181526040808420805460ff1916909317909255829052902080546001600160a01b0319169091179055565b60035481106102dd5760405162461bcd60e51b815260206004820152601860248201527f496e76616c696420747261646520706f737420696e64657800000000000000006044820152606401610245565b6000600282815481106102f2576102f2610b6a565b60009182526020808320600480546001600160a01b0390811686529285905260409094205493909202909101805460038201549194509282169263095ea7b392169061034690670de0b6b3a7640000610b96565b6040516001600160e01b031960e085901b1681526001600160a01b03909216600483015260248201526044016020604051808303816000875af1158015610391573d6000803e3d6000fd5b505050506040513d601f19601f820116820180604052508101906103b59190610bad565b6104015760405162461bcd60e51b815260206004820181905260248201527f4661696c656420746f20617070726f766520746f6b656e207472616e736665726044820152606401610245565b6004546001600160a01b0390811660009081526020819052604090205482546003840154918316926323b872dd9233929091169061044790670de0b6b3a7640000610b96565b6040516001600160e01b031960e086901b1681526001600160a01b03938416600482015292909116602483015260448201526064016020604051808303816000875af115801561049b573d6000803e3d6000fd5b505050506040513d601f19601f820116820180604052508101906104bf9190610bad565b5060018101546001600160a01b0390811660009081526020819052604090205460028301549116906323b872dd903090339061050390670de0b6b3a7640000610b96565b6040516001600160e01b031960e086901b1681526001600160a01b03938416600482015292909116602483015260448201526064016020604051808303816000875af1158015610557573d6000803e3d6000fd5b505050506040513d601f19601f8201168201806040525081019061057b9190610bad565b505050565b60606002805480602002602001604051908101604052809291908181526020016000905b82821015610606576000848152602090819020604080516080810182526004860290920180546001600160a01b0390811684526001808301549091168486015260028201549284019290925260030154606083015290835290920191016105a4565b50505050905090565b6002818154811061061f57600080fd5b600091825260209091206004909102018054600182015460028301546003909301546001600160a01b0392831694509116919084565b6040805160808101825260008082526020820181905291810182905260608101919091526002828154811061068c5761068c610b6a565b600091825260209182902060408051608081018252600490930290910180546001600160a01b03908116845260018201541693830193909352600283015490820152600390910154606082015292915050565b6001600160a01b03831660009081526001602052604090205460ff1661073a5760405162461bcd60e51b815260206004820152601060248201526f151bdad95b881b9bdd081b1a5cdd195960821b6044820152606401610245565b6001600160a01b038084166000908152602081905260409020541663095ea7b33061076d85670de0b6b3a7640000610b96565b6040516001600160e01b031960e085901b1681526001600160a01b03909216600483015260248201526044016020604051808303816000875af11580156107b8573d6000803e3d6000fd5b505050506040513d601f19601f820116820180604052508101906107dc9190610bad565b6108285760405162461bcd60e51b815260206004820152601e60248201527f496e73756666696369656e7420617070726f766520666f7220746f6b656e00006044820152606401610245565b6001600160a01b03808416600090815260208190526040902054166323b872dd333061085c86670de0b6b3a7640000610b96565b6040516001600160e01b031960e086901b1681526001600160a01b03938416600482015292909116602483015260448201526064016020604051808303816000875af11580156108b0573d6000803e3d6000fd5b505050506040513d601f19601f820116820180604052508101906108d49190610bad565b6109185760405162461bcd60e51b8152602060048201526015602482015274151bdad95b881d1c985b9cd9995c8819985a5b1959605a1b6044820152606401610245565b604080516080810182523381526001600160a01b038581166020830190815292820185815260608301858152600280546001810182556000918252945160049095027f405787fa12a823e0f2b7631cc41b3ba8828b3321ca811111fa75cd3aa3bb5ace810180549686166001600160a01b031997881617905595517f405787fa12a823e0f2b7631cc41b3ba8828b3321ca811111fa75cd3aa3bb5acf8701805491909516951694909417909255517f405787fa12a823e0f2b7631cc41b3ba8828b3321ca811111fa75cd3aa3bb5ad0840155517f405787fa12a823e0f2b7631cc41b3ba8828b3321ca811111fa75cd3aa3bb5ad1909201919091556003805491610a2183610bcf565b9190505550505050565b80356001600160a01b0381168114610a4257600080fd5b919050565b600060208284031215610a5957600080fd5b610a6282610a2b565b9392505050565b600060208284031215610a7b57600080fd5b5035919050565b6020808252825182820181905260009190848201906040850190845b81811015610af057610add83855180516001600160a01b0390811683526020808301519091169083015260408082015190830152606090810151910152565b9284019260809290920191600101610a9e565b50909695505050505050565b81516001600160a01b039081168252602080840151909116908201526040808301519082015260608083015190820152608081015b92915050565b600080600060608486031215610b4c57600080fd5b610b5584610a2b565b95602085013595506040909401359392505050565b634e487b7160e01b600052603260045260246000fd5b634e487b7160e01b600052601160045260246000fd5b8082028115828204841417610b3157610b31610b80565b600060208284031215610bbf57600080fd5b81518015158114610a6257600080fd5b600060018201610be157610be1610b80565b506001019056fea2646970667358221220400b384c329e3143fbfed72f3c11a2f80e81e884a262d434c65323c38429664c64736f6c63430008140033",
  "linkReferences": {},
  "deployedLinkReferences": {}
}