{
  "_format": "hh-sol-artifact-1",
  "contractName": "Marketplace",
  "sourceName": "contracts/Marketplace.sol",
  "abi": [
    {
      "anonymous": false,
      "inputs": [
        {
          "indexed": true,
          "internalType": "uint256",
          "name": "tradeIndex",
          "type": "uint256"
        },
        {
          "indexed": false,
          "internalType": "address",
          "name": "seller",
          "type": "address"
        }
      ],
      "name": "TradeCreated",
      "type": "event"
    },
    {
      "inputs": [
        {
          "internalType": "address",
          "name": "_tokenSell",
          "type": "address"
        },
        {
          "internalType": "uint256",
          "name": "_amountSell",
          "type": "uint256"
        },
        {
          "internalType": "address",
          "name": "_tokenBuy",
          "type": "address"
        },
        {
          "internalType": "uint256",
          "name": "_amountBuy",
          "type": "uint256"
        }
      ],
      "name": "createTrade",
      "outputs": [],
      "stateMutability": "nonpayable",
      "type": "function"
    },
    {
      "inputs": [
        {
          "internalType": "uint256",
          "name": "tradeIndex",
          "type": "uint256"
        }
      ],
      "name": "executeTrade",
      "outputs": [],
      "stateMutability": "nonpayable",
      "type": "function"
    },
    {
      "inputs": [],
      "name": "getAllTrades",
      "outputs": [
        {
          "internalType": "address[]",
          "name": "",
          "type": "address[]"
        },
        {
          "internalType": "uint256[]",
          "name": "",
          "type": "uint256[]"
        },
        {
          "internalType": "address[]",
          "name": "",
          "type": "address[]"
        },
        {
          "internalType": "uint256[]",
          "name": "",
          "type": "uint256[]"
        },
        {
          "internalType": "address[]",
          "name": "",
          "type": "address[]"
        },
        {
          "internalType": "bool[]",
          "name": "",
          "type": "bool[]"
        }
      ],
      "stateMutability": "view",
      "type": "function"
    },
    {
      "inputs": [
        {
          "internalType": "uint256",
          "name": "tradeIndex",
          "type": "uint256"
        }
      ],
      "name": "getTrade",
      "outputs": [
        {
          "internalType": "address",
          "name": "",
          "type": "address"
        },
        {
          "internalType": "uint256",
          "name": "",
          "type": "uint256"
        },
        {
          "internalType": "address",
          "name": "",
          "type": "address"
        },
        {
          "internalType": "uint256",
          "name": "",
          "type": "uint256"
        },
        {
          "internalType": "address",
          "name": "",
          "type": "address"
        },
        {
          "internalType": "bool",
          "name": "",
          "type": "bool"
        }
      ],
      "stateMutability": "view",
      "type": "function"
    },
    {
      "inputs": [],
      "name": "marketWallet",
      "outputs": [
        {
          "internalType": "address",
          "name": "",
          "type": "address"
        }
      ],
      "stateMutability": "view",
      "type": "function"
    },
    {
      "inputs": [
        {
          "internalType": "uint256",
          "name": "",
          "type": "uint256"
        }
      ],
      "name": "trades",
      "outputs": [
        {
          "internalType": "address",
          "name": "tokenSell",
          "type": "address"
        },
        {
          "internalType": "uint256",
          "name": "amountSell",
          "type": "uint256"
        },
        {
          "internalType": "address",
          "name": "tokenBuy",
          "type": "address"
        },
        {
          "internalType": "uint256",
          "name": "amountBuy",
          "type": "uint256"
        },
        {
          "internalType": "address",
          "name": "seller",
          "type": "address"
        },
        {
          "internalType": "bool",
          "name": "executed",
          "type": "bool"
        }
      ],
      "stateMutability": "view",
      "type": "function"
    }
  ],
  "bytecode": "0x608060405234801561001057600080fd5b50610d67806100206000396000f3fe608060405234801561001057600080fd5b50600436106100625760003560e01c806302d2838b146100675780631e6c598e1461007c5780632db25e05146100d7578063ce99c0ce146100ea578063e4440a8614610104578063ef14c2b91461012f575b600080fd5b61007a610075366004610afd565b610142565b005b61008f61008a366004610afd565b610511565b604080516001600160a01b0397881681526020810196909652938616938501939093526060840191909152909216608082015290151560a082015260c0015b60405180910390f35b61008f6100e5366004610afd565b61056e565b6100f26105e2565b6040516100ce96959493929190610b8a565b600054610117906001600160a01b031681565b6040516001600160a01b0390911681526020016100ce565b61007a61013d366004610c50565b610968565b60006001828154811061015757610157610c94565b906000526020600020906005020190508060040160149054906101000a900460ff16156101c45760405162461bcd60e51b8152602060048201526016602482015275151c98591948185b1c9958591e48195e1958dd5d195960521b60448201526064015b60405180910390fd5b80546002820154600183015460405163095ea7b360e01b815230600482015260248101919091526001600160a01b039283169290911690829063095ea7b3906044016020604051808303816000875af1158015610225573d6000803e3d6000fd5b505050506040513d601f19601f820116820180604052508101906102499190610caa565b6102955760405162461bcd60e51b815260206004820152601c60248201527f4661696c656420746f20617070726f76652073656c6c20746f6b656e0000000060448201526064016101bb565b600383015460405163095ea7b360e01b815230600482015260248101919091526001600160a01b0382169063095ea7b3906044016020604051808303816000875af11580156102e8573d6000803e3d6000fd5b505050506040513d601f19601f8201168201806040525081019061030c9190610caa565b6103585760405162461bcd60e51b815260206004820152601b60248201527f4661696c656420746f20617070726f76652062757920746f6b656e000000000060448201526064016101bb565b60048381015460018501546040516323b872dd60e01b81526001600160a01b039283169381019390935233602484015260448301528316906323b872dd906064016020604051808303816000875af11580156103b8573d6000803e3d6000fd5b505050506040513d601f19601f820116820180604052508101906103dc9190610caa565b6104285760405162461bcd60e51b815260206004820152601d60248201527f4661696c656420746f207472616e736665722073656c6c20746f6b656e00000060448201526064016101bb565b60048381015460038501546040516323b872dd60e01b815233938101939093526001600160a01b03918216602484015260448301528216906323b872dd906064016020604051808303816000875af1158015610488573d6000803e3d6000fd5b505050506040513d601f19601f820116820180604052508101906104ac9190610caa565b6104f85760405162461bcd60e51b815260206004820152601c60248201527f4661696c656420746f207472616e736665722062757920746f6b656e0000000060448201526064016101bb565b5050600401805460ff60a01b1916600160a01b17905550565b6001818154811061052157600080fd5b6000918252602090912060059091020180546001820154600283015460038401546004909401546001600160a01b039384169550919390831692909190811690600160a01b900460ff1686565b60008060008060008060006001888154811061058c5761058c610c94565b6000918252602090912060059091020180546001820154600283015460038401546004909401546001600160a01b039384169d929c509083169a509298509082169650600160a01b90910460ff16945092505050565b6060806060806060806000600180549050905060008167ffffffffffffffff81111561061057610610610cd3565b604051908082528060200260200182016040528015610639578160200160208202803683370190505b50905060008267ffffffffffffffff81111561065757610657610cd3565b604051908082528060200260200182016040528015610680578160200160208202803683370190505b50905060008367ffffffffffffffff81111561069e5761069e610cd3565b6040519080825280602002602001820160405280156106c7578160200160208202803683370190505b50905060008467ffffffffffffffff8111156106e5576106e5610cd3565b60405190808252806020026020018201604052801561070e578160200160208202803683370190505b50905060008567ffffffffffffffff81111561072c5761072c610cd3565b604051908082528060200260200182016040528015610755578160200160208202803683370190505b50905060008667ffffffffffffffff81111561077357610773610cd3565b60405190808252806020026020018201604052801561079c578160200160208202803683370190505b50905060005b87811015610953576000600182815481106107bf576107bf610c94565b60009182526020918290206040805160c081018252600590930290910180546001600160a01b0390811680855260018301549585019590955260028201548116928401929092526003810154606084015260040154908116608083015260ff600160a01b90910416151560a0820152895190925089908490811061084557610845610c94565b60200260200101906001600160a01b031690816001600160a01b031681525050806020015187838151811061087c5761087c610c94565b602002602001018181525050806040015186838151811061089f5761089f610c94565b60200260200101906001600160a01b031690816001600160a01b03168152505080606001518583815181106108d6576108d6610c94565b60200260200101818152505080608001518483815181106108f9576108f9610c94565b60200260200101906001600160a01b031690816001600160a01b0316815250508060a0015183838151811061093057610930610c94565b91151560209283029190910190910152508061094b81610cff565b9150506107a2565b50949c939b5091995097509550909350915050565b6040805160c0810182526001600160a01b03808716825260208201868152858216938301938452606083018581523360808501908152600060a0860181815260018054808201825592819052965160059092027fb10e2d527612073b26eecdfd717e6a320cf44b4afac2b0732d9fcbe2b7fa0cf6810180549388166001600160a01b031994851617905594517fb10e2d527612073b26eecdfd717e6a320cf44b4afac2b0732d9fcbe2b7fa0cf786015596517fb10e2d527612073b26eecdfd717e6a320cf44b4afac2b0732d9fcbe2b7fa0cf8850180549187169190921617905590517fb10e2d527612073b26eecdfd717e6a320cf44b4afac2b0732d9fcbe2b7fa0cf9830155517fb10e2d527612073b26eecdfd717e6a320cf44b4afac2b0732d9fcbe2b7fa0cfa909101805494511515600160a01b026001600160a81b03199095169190921617929092179091558054610ac49190610d18565b6040513381527f71cb61698242bdadd31b3db5d7d28894a712a6b311e7cc08164207ed15e0d0559060200160405180910390a250505050565b600060208284031215610b0f57600080fd5b5035919050565b600081518084526020808501945080840160005b83811015610b4f5781516001600160a01b031687529582019590820190600101610b2a565b509495945050505050565b600081518084526020808501945080840160005b83811015610b4f57815187529582019590820190600101610b6e565b60c081526000610b9d60c0830189610b16565b602083820381850152610bb0828a610b5a565b91508382036040850152610bc48289610b16565b91508382036060850152610bd88288610b5a565b91508382036080850152610bec8287610b16565b84810360a0860152855180825282870193509082019060005b81811015610c23578451151583529383019391830191600101610c05565b50909b9a5050505050505050505050565b80356001600160a01b0381168114610c4b57600080fd5b919050565b60008060008060808587031215610c6657600080fd5b610c6f85610c34565b935060208501359250610c8460408601610c34565b9396929550929360600135925050565b634e487b7160e01b600052603260045260246000fd5b600060208284031215610cbc57600080fd5b81518015158114610ccc57600080fd5b9392505050565b634e487b7160e01b600052604160045260246000fd5b634e487b7160e01b600052601160045260246000fd5b600060018201610d1157610d11610ce9565b5060010190565b81810381811115610d2b57610d2b610ce9565b9291505056fea2646970667358221220669581ea9ade560cf2a696a798ecb93e1e36ec1acae1897a403b7a57f52ce54664736f6c63430008140033",
  "linkReferences": {},
  "deployedLinkReferences": {}
}