{
  "_format": "hh-sol-artifact-1",
  "contractName": "FundRaisingContract",
  "sourceName": "contracts/FundRaising.sol",
  "abi": [
    {
      "inputs": [
        {
          "internalType": "string",
          "name": "name",
          "type": "string"
        },
        {
          "internalType": "string",
          "name": "symbol",
          "type": "string"
        },
        {
          "internalType": "uint256",
          "name": "initialSupply",
          "type": "uint256"
        },
        {
          "internalType": "uint256",
          "name": "_time",
          "type": "uint256"
        }
      ],
      "stateMutability": "nonpayable",
      "type": "constructor"
    },
    {
      "inputs": [
        {
          "internalType": "address",
          "name": "spender",
          "type": "address"
        },
        {
          "internalType": "uint256",
          "name": "allowance",
          "type": "uint256"
        },
        {
          "internalType": "uint256",
          "name": "needed",
          "type": "uint256"
        }
      ],
      "name": "ERC20InsufficientAllowance",
      "type": "error"
    },
    {
      "inputs": [
        {
          "internalType": "address",
          "name": "sender",
          "type": "address"
        },
        {
          "internalType": "uint256",
          "name": "balance",
          "type": "uint256"
        },
        {
          "internalType": "uint256",
          "name": "needed",
          "type": "uint256"
        }
      ],
      "name": "ERC20InsufficientBalance",
      "type": "error"
    },
    {
      "inputs": [
        {
          "internalType": "address",
          "name": "approver",
          "type": "address"
        }
      ],
      "name": "ERC20InvalidApprover",
      "type": "error"
    },
    {
      "inputs": [
        {
          "internalType": "address",
          "name": "receiver",
          "type": "address"
        }
      ],
      "name": "ERC20InvalidReceiver",
      "type": "error"
    },
    {
      "inputs": [
        {
          "internalType": "address",
          "name": "sender",
          "type": "address"
        }
      ],
      "name": "ERC20InvalidSender",
      "type": "error"
    },
    {
      "inputs": [
        {
          "internalType": "address",
          "name": "spender",
          "type": "address"
        }
      ],
      "name": "ERC20InvalidSpender",
      "type": "error"
    },
    {
      "anonymous": false,
      "inputs": [
        {
          "indexed": true,
          "internalType": "address",
          "name": "owner",
          "type": "address"
        },
        {
          "indexed": true,
          "internalType": "address",
          "name": "spender",
          "type": "address"
        },
        {
          "indexed": false,
          "internalType": "uint256",
          "name": "value",
          "type": "uint256"
        }
      ],
      "name": "Approval",
      "type": "event"
    },
    {
      "anonymous": false,
      "inputs": [
        {
          "indexed": true,
          "internalType": "address",
          "name": "sender",
          "type": "address"
        },
        {
          "indexed": true,
          "internalType": "address",
          "name": "tokenAddress",
          "type": "address"
        },
        {
          "indexed": false,
          "internalType": "uint256",
          "name": "amount",
          "type": "uint256"
        }
      ],
      "name": "TokenReceived",
      "type": "event"
    },
    {
      "anonymous": false,
      "inputs": [
        {
          "indexed": true,
          "internalType": "address",
          "name": "from",
          "type": "address"
        },
        {
          "indexed": true,
          "internalType": "address",
          "name": "to",
          "type": "address"
        },
        {
          "indexed": false,
          "internalType": "uint256",
          "name": "value",
          "type": "uint256"
        }
      ],
      "name": "Transfer",
      "type": "event"
    },
    {
      "inputs": [
        {
          "internalType": "address",
          "name": "owner",
          "type": "address"
        },
        {
          "internalType": "address",
          "name": "spender",
          "type": "address"
        }
      ],
      "name": "allowance",
      "outputs": [
        {
          "internalType": "uint256",
          "name": "",
          "type": "uint256"
        }
      ],
      "stateMutability": "view",
      "type": "function"
    },
    {
      "inputs": [
        {
          "internalType": "address",
          "name": "spender",
          "type": "address"
        },
        {
          "internalType": "uint256",
          "name": "value",
          "type": "uint256"
        }
      ],
      "name": "approve",
      "outputs": [
        {
          "internalType": "bool",
          "name": "",
          "type": "bool"
        }
      ],
      "stateMutability": "nonpayable",
      "type": "function"
    },
    {
      "inputs": [],
      "name": "artPieceToken",
      "outputs": [
        {
          "internalType": "address",
          "name": "",
          "type": "address"
        }
      ],
      "stateMutability": "view",
      "type": "function"
    },
    {
      "inputs": [
        {
          "internalType": "address",
          "name": "account",
          "type": "address"
        }
      ],
      "name": "balanceOf",
      "outputs": [
        {
          "internalType": "uint256",
          "name": "",
          "type": "uint256"
        }
      ],
      "stateMutability": "view",
      "type": "function"
    },
    {
      "inputs": [
        {
          "internalType": "uint256",
          "name": "burnAmount",
          "type": "uint256"
        }
      ],
      "name": "burnTokens",
      "outputs": [],
      "stateMutability": "nonpayable",
      "type": "function"
    },
    {
      "inputs": [],
      "name": "decimals",
      "outputs": [
        {
          "internalType": "uint8",
          "name": "",
          "type": "uint8"
        }
      ],
      "stateMutability": "view",
      "type": "function"
    },
    {
      "inputs": [],
      "name": "distributeFund",
      "outputs": [],
      "stateMutability": "nonpayable",
      "type": "function"
    },
    {
      "inputs": [],
      "name": "finishTime",
      "outputs": [
        {
          "internalType": "uint256",
          "name": "",
          "type": "uint256"
        }
      ],
      "stateMutability": "view",
      "type": "function"
    },
    {
      "inputs": [
        {
          "internalType": "address",
          "name": "_tokenAddress",
          "type": "address"
        },
        {
          "internalType": "uint256",
          "name": "_tokenAmount",
          "type": "uint256"
        }
      ],
      "name": "fund",
      "outputs": [],
      "stateMutability": "nonpayable",
      "type": "function"
    },
    {
      "inputs": [
        {
          "internalType": "uint256",
          "name": "",
          "type": "uint256"
        }
      ],
      "name": "fundInfos",
      "outputs": [
        {
          "internalType": "address",
          "name": "investor",
          "type": "address"
        },
        {
          "internalType": "address",
          "name": "tokenAddress",
          "type": "address"
        },
        {
          "internalType": "uint256",
          "name": "tokenAmount",
          "type": "uint256"
        }
      ],
      "stateMutability": "view",
      "type": "function"
    },
    {
      "inputs": [],
      "name": "getAllContributor",
      "outputs": [
        {
          "internalType": "address[]",
          "name": "",
          "type": "address[]"
        }
      ],
      "stateMutability": "view",
      "type": "function"
    },
    {
      "inputs": [],
      "name": "initialSupply",
      "outputs": [
        {
          "internalType": "uint256",
          "name": "",
          "type": "uint256"
        }
      ],
      "stateMutability": "view",
      "type": "function"
    },
    {
      "inputs": [
        {
          "internalType": "uint256",
          "name": "",
          "type": "uint256"
        }
      ],
      "name": "listOfContributors",
      "outputs": [
        {
          "internalType": "address",
          "name": "",
          "type": "address"
        }
      ],
      "stateMutability": "view",
      "type": "function"
    },
    {
      "inputs": [],
      "name": "name",
      "outputs": [
        {
          "internalType": "string",
          "name": "",
          "type": "string"
        }
      ],
      "stateMutability": "view",
      "type": "function"
    },
    {
      "inputs": [
        {
          "internalType": "address",
          "name": "",
          "type": "address"
        }
      ],
      "name": "newCoins",
      "outputs": [
        {
          "internalType": "uint256",
          "name": "",
          "type": "uint256"
        }
      ],
      "stateMutability": "view",
      "type": "function"
    },
    {
      "inputs": [],
      "name": "owner",
      "outputs": [
        {
          "internalType": "address",
          "name": "",
          "type": "address"
        }
      ],
      "stateMutability": "view",
      "type": "function"
    },
    {
      "inputs": [],
      "name": "raisedAmount",
      "outputs": [
        {
          "internalType": "uint256",
          "name": "",
          "type": "uint256"
        }
      ],
      "stateMutability": "view",
      "type": "function"
    },
    {
      "inputs": [],
      "name": "refundDistribute",
      "outputs": [],
      "stateMutability": "nonpayable",
      "type": "function"
    },
    {
      "inputs": [
        {
          "internalType": "address",
          "name": "",
          "type": "address"
        }
      ],
      "name": "refunds",
      "outputs": [
        {
          "internalType": "uint256",
          "name": "",
          "type": "uint256"
        }
      ],
      "stateMutability": "view",
      "type": "function"
    },
    {
      "inputs": [],
      "name": "symbol",
      "outputs": [
        {
          "internalType": "string",
          "name": "",
          "type": "string"
        }
      ],
      "stateMutability": "view",
      "type": "function"
    },
    {
      "inputs": [],
      "name": "totalSupply",
      "outputs": [
        {
          "internalType": "uint256",
          "name": "",
          "type": "uint256"
        }
      ],
      "stateMutability": "view",
      "type": "function"
    },
    {
      "inputs": [
        {
          "internalType": "address",
          "name": "to",
          "type": "address"
        },
        {
          "internalType": "uint256",
          "name": "value",
          "type": "uint256"
        }
      ],
      "name": "transfer",
      "outputs": [
        {
          "internalType": "bool",
          "name": "",
          "type": "bool"
        }
      ],
      "stateMutability": "nonpayable",
      "type": "function"
    },
    {
      "inputs": [
        {
          "internalType": "address",
          "name": "from",
          "type": "address"
        },
        {
          "internalType": "address",
          "name": "to",
          "type": "address"
        },
        {
          "internalType": "uint256",
          "name": "value",
          "type": "uint256"
        }
      ],
      "name": "transferFrom",
      "outputs": [
        {
          "internalType": "bool",
          "name": "",
          "type": "bool"
        }
      ],
      "stateMutability": "nonpayable",
      "type": "function"
    },
    {
      "inputs": [
        {
          "internalType": "address",
          "name": "to",
          "type": "address"
        },
        {
          "internalType": "uint256",
          "name": "amount",
          "type": "uint256"
        }
      ],
      "name": "transferToken",
      "outputs": [],
      "stateMutability": "nonpayable",
      "type": "function"
    },
    {
      "stateMutability": "payable",
      "type": "receive"
    }
  ],
  "bytecode": "0x6080604052600e80546001600160a01b0319167339af03c99f8b82602d293737de6a0ebf5d8f48db1790553480156200003757600080fd5b50604051620016b6380380620016b68339810160408190526200005a9162000330565b838383828260036200006d838262000439565b5060046200007c828262000439565b50505080670de0b6b3a76400006200009591906200051b565b6005819055620000a7903390620000f6565b5050600680546001600160a01b031990811630179091556009805490911633179055506000600a55620000dc81603c6200051b565b620000e890426200053b565b600b55506200055192505050565b6001600160a01b038216620001265760405163ec442f0560e01b8152600060048201526024015b60405180910390fd5b620001346000838362000138565b5050565b6001600160a01b038316620001675780600260008282546200015b91906200053b565b90915550620001db9050565b6001600160a01b03831660009081526020819052604090205481811015620001bc5760405163391434e360e21b81526001600160a01b038516600482015260248101829052604481018390526064016200011d565b6001600160a01b03841660009081526020819052604090209082900390555b6001600160a01b038216620001f95760028054829003905562000218565b6001600160a01b03821660009081526020819052604090208054820190555b816001600160a01b0316836001600160a01b03167fddf252ad1be2c89b69c2b068fc378daa952ba7f163c4a11628f55a4df523b3ef836040516200025e91815260200190565b60405180910390a3505050565b634e487b7160e01b600052604160045260246000fd5b600082601f8301126200029357600080fd5b81516001600160401b0380821115620002b057620002b06200026b565b604051601f8301601f19908116603f01168101908282118183101715620002db57620002db6200026b565b81604052838152602092508683858801011115620002f857600080fd5b600091505b838210156200031c5785820183015181830184015290820190620002fd565b600093810190920192909252949350505050565b600080600080608085870312156200034757600080fd5b84516001600160401b03808211156200035f57600080fd5b6200036d8883890162000281565b955060208701519150808211156200038457600080fd5b50620003938782880162000281565b604087015160609097015195989097509350505050565b600181811c90821680620003bf57607f821691505b602082108103620003e057634e487b7160e01b600052602260045260246000fd5b50919050565b601f8211156200043457600081815260208120601f850160051c810160208610156200040f5750805b601f850160051c820191505b8181101562000430578281556001016200041b565b5050505b505050565b81516001600160401b038111156200045557620004556200026b565b6200046d81620004668454620003aa565b84620003e6565b602080601f831160018114620004a557600084156200048c5750858301515b600019600386901b1c1916600185901b17855562000430565b600085815260208120601f198616915b82811015620004d657888601518255948401946001909101908401620004b5565b5085821015620004f55787850151600019600388901b60f8161c191681555b5050505050600190811b01905550565b634e487b7160e01b600052601160045260246000fd5b808202811582820484141762000535576200053562000505565b92915050565b8082018082111562000535576200053562000505565b61115580620005616000396000f3fe60806040526004361061014f5760003560e01c806370a08231116100b6578063a70b12f01161006f578063a70b12f0146103c6578063a9059cbb1461040c578063bc3da5351461042c578063c59ee1dc14610459578063dd62ed3e1461046f578063e3a6ac01146104b557600080fd5b806370a08231146102e35780637b1837de146103195780637ea12e79146103395780638a0e495d146103715780638da5cb5b1461039157806395d89b41146103b157600080fd5b8063244e575111610108578063244e575114610239578063313ce5671461024e578063378dc3dc1461026a5780635958611e1461028057806369cbbefe146102965780636d1b229d146102c357600080fd5b806306fdde031461015b57806308608d7314610186578063095ea7b3146101a85780631072cbea146101d857806318160ddd146101fa57806323b872dd1461021957600080fd5b3661015657005b600080fd5b34801561016757600080fd5b506101706104ca565b60405161017d9190610e91565b60405180910390f35b34801561019257600080fd5b5061019b61055c565b60405161017d9190610edf565b3480156101b457600080fd5b506101c86101c3366004610f48565b610628565b604051901515815260200161017d565b3480156101e457600080fd5b506101f86101f3366004610f48565b610642565b005b34801561020657600080fd5b506002545b60405190815260200161017d565b34801561022557600080fd5b506101c8610234366004610f72565b61065d565b34801561024557600080fd5b506101f8610681565b34801561025a57600080fd5b506040516012815260200161017d565b34801561027657600080fd5b5061020b60055481565b34801561028c57600080fd5b5061020b600b5481565b3480156102a257600080fd5b5061020b6102b1366004610fae565b60086020526000908152604090205481565b3480156102cf57600080fd5b506101f86102de366004610fd0565b6107f7565b3480156102ef57600080fd5b5061020b6102fe366004610fae565b6001600160a01b031660009081526020819052604090205490565b34801561032557600080fd5b506101f8610334366004610f48565b610812565b34801561034557600080fd5b50610359610354366004610fd0565b6109a5565b6040516001600160a01b03909116815260200161017d565b34801561037d57600080fd5b50600654610359906001600160a01b031681565b34801561039d57600080fd5b50600954610359906001600160a01b031681565b3480156103bd57600080fd5b506101706109cf565b3480156103d257600080fd5b506103e66103e1366004610fd0565b6109de565b604080516001600160a01b0394851681529390921660208401529082015260600161017d565b34801561041857600080fd5b506101c8610427366004610f48565b610a1e565b34801561043857600080fd5b5061020b610447366004610fae565b60076020526000908152604090205481565b34801561046557600080fd5b5061020b600a5481565b34801561047b57600080fd5b5061020b61048a366004610fe9565b6001600160a01b03918216600090815260016020908152604080832093909416825291909152205490565b3480156104c157600080fd5b506101f8610a2c565b6060600380546104d99061101c565b80601f01602080910402602001604051908101604052809291908181526020018280546105059061101c565b80156105525780601f1061052757610100808354040283529160200191610552565b820191906000526020600020905b81548152906001019060200180831161053557829003601f168201915b5050505050905090565b600c5460609060008167ffffffffffffffff81111561057d5761057d611056565b6040519080825280602002602001820160405280156105a6578160200160208202803683370190505b50905060005b8281101561062157600c81815481106105c7576105c761106c565b9060005260206000200160009054906101000a90046001600160a01b03168282815181106105f7576105f761106c565b6001600160a01b03909216602092830291909101909101528061061981611098565b9150506105ac565b5092915050565b600033610636818585610b6e565b60019150505b92915050565b6106588261042783670de0b6b3a76400006110b1565b505050565b60003361066b858285610b7b565b610676858585610bf9565b506001949350505050565b6009546001600160a01b031633146106d05760405162461bcd60e51b815260206004820152600d60248201526c26bab9ba1031329037bbb732b960991b60448201526064015b60405180910390fd5b600b5442116107115760405162461bcd60e51b815260206004820152600d60248201526c2737ba103a34b6b29027ab22a960991b60448201526064016106c7565b600580546107209060046110b1565b61072a91906110c8565b600a5410156107665760405162461bcd60e51b8152602060048201526008602482015267139bdd0819dbd85b60c21b60448201526064016106c7565b60005b600c548110156107f4576000600c82815481106107885761078861106c565b60009182526020808320909101546001600160a01b0316808352600890915260409091205490915080156107df576001600160a01b038083166000908152600860205260408120556009546107df91168383610bf9565b505080806107ec90611098565b915050610769565b50565b6107f43361080d83670de0b6b3a76400006110b1565b610c58565b6040518181526001600160a01b0383169033907fa83965f0e7c5e026e57c9ba2dd91e4ebcca352f2d514498c1e9ed23ba65386009060200160405180910390a36040516323b872dd60e01b8152336004820152306024820152604481018290526001600160a01b038316906323b872dd906064016020604051808303816000875af11580156108a5573d6000803e3d6000fd5b505050506040513d601f19601f820116820180604052508101906108c991906110ea565b61090d5760405162461bcd60e51b8152602060048201526015602482015274151bdad95b881d1c985b9cd9995c8819985a5b1959605a1b60448201526064016106c7565b33600090815260086020526040812054900361096657600c80546001810182556000919091527fdf6966c971051c3d54ec59162606531493a51404a002842f56009d7e5cf4a8c70180546001600160a01b031916331790555b80600a6000828254610978919061110c565b9091555050336000908152600860205260408120805483929061099c90849061110c565b90915550505050565b600c81815481106109b557600080fd5b6000918252602090912001546001600160a01b0316905081565b6060600480546104d99061101c565b600d81815481106109ee57600080fd5b60009182526020909120600390910201805460018201546002909201546001600160a01b03918216935091169083565b600033610636818585610bf9565b60058054610a3b9060046110b1565b610a4591906110c8565b600a5410610a875760405162461bcd60e51b815260206004820152600f60248201526e1c18129034b9903737ba1037bb32b960891b60448201526064016106c7565b600b544211610ac35760405162461bcd60e51b81526020600482015260086024820152672737ba1037bb32b960c11b60448201526064016106c7565b60005b600c548110156107f4576000600c8281548110610ae557610ae561106c565b60009182526020808320909101546001600160a01b031680835260079091526040909120549091508015610b59576001600160a01b0382166000818152600760205260408082208290555183156108fc0291849190818181858888f19350505050158015610b57573d6000803e3d6000fd5b505b50508080610b6690611098565b915050610ac6565b6106588383836001610c92565b6001600160a01b038381166000908152600160209081526040808320938616835292905220546000198114610bf35781811015610be457604051637dc7a0d960e11b81526001600160a01b038416600482015260248101829052604481018390526064016106c7565b610bf384848484036000610c92565b50505050565b6001600160a01b038316610c2357604051634b637e8f60e11b8152600060048201526024016106c7565b6001600160a01b038216610c4d5760405163ec442f0560e01b8152600060048201526024016106c7565b610658838383610d67565b6001600160a01b038216610c8257604051634b637e8f60e11b8152600060048201526024016106c7565b610c8e82600083610d67565b5050565b6001600160a01b038416610cbc5760405163e602df0560e01b8152600060048201526024016106c7565b6001600160a01b038316610ce657604051634a1406b160e11b8152600060048201526024016106c7565b6001600160a01b0380851660009081526001602090815260408083209387168352929052208290558015610bf357826001600160a01b0316846001600160a01b03167f8c5be1e5ebec7d5bd14f71427d1e84f3dd0314c0f7b2291e5b200ac8c7c3b92584604051610d5991815260200190565b60405180910390a350505050565b6001600160a01b038316610d92578060026000828254610d87919061110c565b90915550610e049050565b6001600160a01b03831660009081526020819052604090205481811015610de55760405163391434e360e21b81526001600160a01b038516600482015260248101829052604481018390526064016106c7565b6001600160a01b03841660009081526020819052604090209082900390555b6001600160a01b038216610e2057600280548290039055610e3f565b6001600160a01b03821660009081526020819052604090208054820190555b816001600160a01b0316836001600160a01b03167fddf252ad1be2c89b69c2b068fc378daa952ba7f163c4a11628f55a4df523b3ef83604051610e8491815260200190565b60405180910390a3505050565b600060208083528351808285015260005b81811015610ebe57858101830151858201604001528201610ea2565b506000604082860101526040601f19601f8301168501019250505092915050565b6020808252825182820181905260009190848201906040850190845b81811015610f205783516001600160a01b031683529284019291840191600101610efb565b50909695505050505050565b80356001600160a01b0381168114610f4357600080fd5b919050565b60008060408385031215610f5b57600080fd5b610f6483610f2c565b946020939093013593505050565b600080600060608486031215610f8757600080fd5b610f9084610f2c565b9250610f9e60208501610f2c565b9150604084013590509250925092565b600060208284031215610fc057600080fd5b610fc982610f2c565b9392505050565b600060208284031215610fe257600080fd5b5035919050565b60008060408385031215610ffc57600080fd5b61100583610f2c565b915061101360208401610f2c565b90509250929050565b600181811c9082168061103057607f821691505b60208210810361105057634e487b7160e01b600052602260045260246000fd5b50919050565b634e487b7160e01b600052604160045260246000fd5b634e487b7160e01b600052603260045260246000fd5b634e487b7160e01b600052601160045260246000fd5b6000600182016110aa576110aa611082565b5060010190565b808202811582820484141761063c5761063c611082565b6000826110e557634e487b7160e01b600052601260045260246000fd5b500490565b6000602082840312156110fc57600080fd5b81518015158114610fc957600080fd5b8082018082111561063c5761063c61108256fea264697066735822122048933cc002857c88489e5db22550d9fcc62433a5cfa8187faafe2daf4a9a984c64736f6c63430008140033",
  "linkReferences": {},
  "deployedLinkReferences": {}
}