{
  "_format": "hh-sol-artifact-1",
  "contractName": "FundRaisingContract",
  "sourceName": "contracts/FundRaising.sol",
  "abi": [
    {
      "inputs": [
        {
          "internalType": "string",
          "name": "name",
          "type": "string"
        },
        {
          "internalType": "string",
          "name": "symbol",
          "type": "string"
        },
        {
          "internalType": "uint256",
          "name": "initialSupply",
          "type": "uint256"
        },
        {
          "internalType": "uint256",
          "name": "_time",
          "type": "uint256"
        }
      ],
      "stateMutability": "nonpayable",
      "type": "constructor"
    },
    {
      "inputs": [
        {
          "internalType": "address",
          "name": "spender",
          "type": "address"
        },
        {
          "internalType": "uint256",
          "name": "allowance",
          "type": "uint256"
        },
        {
          "internalType": "uint256",
          "name": "needed",
          "type": "uint256"
        }
      ],
      "name": "ERC20InsufficientAllowance",
      "type": "error"
    },
    {
      "inputs": [
        {
          "internalType": "address",
          "name": "sender",
          "type": "address"
        },
        {
          "internalType": "uint256",
          "name": "balance",
          "type": "uint256"
        },
        {
          "internalType": "uint256",
          "name": "needed",
          "type": "uint256"
        }
      ],
      "name": "ERC20InsufficientBalance",
      "type": "error"
    },
    {
      "inputs": [
        {
          "internalType": "address",
          "name": "approver",
          "type": "address"
        }
      ],
      "name": "ERC20InvalidApprover",
      "type": "error"
    },
    {
      "inputs": [
        {
          "internalType": "address",
          "name": "receiver",
          "type": "address"
        }
      ],
      "name": "ERC20InvalidReceiver",
      "type": "error"
    },
    {
      "inputs": [
        {
          "internalType": "address",
          "name": "sender",
          "type": "address"
        }
      ],
      "name": "ERC20InvalidSender",
      "type": "error"
    },
    {
      "inputs": [
        {
          "internalType": "address",
          "name": "spender",
          "type": "address"
        }
      ],
      "name": "ERC20InvalidSpender",
      "type": "error"
    },
    {
      "anonymous": false,
      "inputs": [
        {
          "indexed": true,
          "internalType": "address",
          "name": "owner",
          "type": "address"
        },
        {
          "indexed": true,
          "internalType": "address",
          "name": "spender",
          "type": "address"
        },
        {
          "indexed": false,
          "internalType": "uint256",
          "name": "value",
          "type": "uint256"
        }
      ],
      "name": "Approval",
      "type": "event"
    },
    {
      "anonymous": false,
      "inputs": [
        {
          "indexed": true,
          "internalType": "address",
          "name": "sender",
          "type": "address"
        },
        {
          "indexed": true,
          "internalType": "address",
          "name": "tokenAddress",
          "type": "address"
        },
        {
          "indexed": false,
          "internalType": "uint256",
          "name": "amount",
          "type": "uint256"
        }
      ],
      "name": "TokenReceived",
      "type": "event"
    },
    {
      "anonymous": false,
      "inputs": [
        {
          "indexed": true,
          "internalType": "address",
          "name": "from",
          "type": "address"
        },
        {
          "indexed": true,
          "internalType": "address",
          "name": "to",
          "type": "address"
        },
        {
          "indexed": false,
          "internalType": "uint256",
          "name": "value",
          "type": "uint256"
        }
      ],
      "name": "Transfer",
      "type": "event"
    },
    {
      "inputs": [
        {
          "internalType": "address",
          "name": "owner",
          "type": "address"
        },
        {
          "internalType": "address",
          "name": "spender",
          "type": "address"
        }
      ],
      "name": "allowance",
      "outputs": [
        {
          "internalType": "uint256",
          "name": "",
          "type": "uint256"
        }
      ],
      "stateMutability": "view",
      "type": "function"
    },
    {
      "inputs": [
        {
          "internalType": "address",
          "name": "spender",
          "type": "address"
        },
        {
          "internalType": "uint256",
          "name": "value",
          "type": "uint256"
        }
      ],
      "name": "approve",
      "outputs": [
        {
          "internalType": "bool",
          "name": "",
          "type": "bool"
        }
      ],
      "stateMutability": "nonpayable",
      "type": "function"
    },
    {
      "inputs": [],
      "name": "artPieceToken",
      "outputs": [
        {
          "internalType": "address",
          "name": "",
          "type": "address"
        }
      ],
      "stateMutability": "view",
      "type": "function"
    },
    {
      "inputs": [],
      "name": "artTokenAddress",
      "outputs": [
        {
          "internalType": "address",
          "name": "",
          "type": "address"
        }
      ],
      "stateMutability": "view",
      "type": "function"
    },
    {
      "inputs": [
        {
          "internalType": "address",
          "name": "account",
          "type": "address"
        }
      ],
      "name": "balanceOf",
      "outputs": [
        {
          "internalType": "uint256",
          "name": "",
          "type": "uint256"
        }
      ],
      "stateMutability": "view",
      "type": "function"
    },
    {
      "inputs": [
        {
          "internalType": "uint256",
          "name": "burnAmount",
          "type": "uint256"
        }
      ],
      "name": "burnTokens",
      "outputs": [],
      "stateMutability": "nonpayable",
      "type": "function"
    },
    {
      "inputs": [],
      "name": "decimals",
      "outputs": [
        {
          "internalType": "uint8",
          "name": "",
          "type": "uint8"
        }
      ],
      "stateMutability": "view",
      "type": "function"
    },
    {
      "inputs": [],
      "name": "distributeFund",
      "outputs": [],
      "stateMutability": "nonpayable",
      "type": "function"
    },
    {
      "inputs": [],
      "name": "finishTime",
      "outputs": [
        {
          "internalType": "uint256",
          "name": "",
          "type": "uint256"
        }
      ],
      "stateMutability": "view",
      "type": "function"
    },
    {
      "inputs": [],
      "name": "getAllContributor",
      "outputs": [
        {
          "internalType": "address[]",
          "name": "",
          "type": "address[]"
        }
      ],
      "stateMutability": "view",
      "type": "function"
    },
    {
      "inputs": [],
      "name": "getInitialSupply",
      "outputs": [
        {
          "internalType": "uint256",
          "name": "",
          "type": "uint256"
        }
      ],
      "stateMutability": "view",
      "type": "function"
    },
    {
      "inputs": [],
      "name": "getRaisedAmount",
      "outputs": [
        {
          "internalType": "uint256",
          "name": "",
          "type": "uint256"
        }
      ],
      "stateMutability": "view",
      "type": "function"
    },
    {
      "inputs": [],
      "name": "initialSupply",
      "outputs": [
        {
          "internalType": "uint256",
          "name": "",
          "type": "uint256"
        }
      ],
      "stateMutability": "view",
      "type": "function"
    },
    {
      "inputs": [
        {
          "internalType": "uint256",
          "name": "",
          "type": "uint256"
        }
      ],
      "name": "listOfContributors",
      "outputs": [
        {
          "internalType": "address",
          "name": "",
          "type": "address"
        }
      ],
      "stateMutability": "view",
      "type": "function"
    },
    {
      "inputs": [],
      "name": "name",
      "outputs": [
        {
          "internalType": "string",
          "name": "",
          "type": "string"
        }
      ],
      "stateMutability": "view",
      "type": "function"
    },
    {
      "inputs": [
        {
          "internalType": "address",
          "name": "",
          "type": "address"
        }
      ],
      "name": "newCoins",
      "outputs": [
        {
          "internalType": "uint256",
          "name": "",
          "type": "uint256"
        }
      ],
      "stateMutability": "view",
      "type": "function"
    },
    {
      "inputs": [],
      "name": "owner",
      "outputs": [
        {
          "internalType": "address",
          "name": "",
          "type": "address"
        }
      ],
      "stateMutability": "view",
      "type": "function"
    },
    {
      "inputs": [],
      "name": "raisedAmount",
      "outputs": [
        {
          "internalType": "uint256",
          "name": "",
          "type": "uint256"
        }
      ],
      "stateMutability": "view",
      "type": "function"
    },
    {
      "inputs": [],
      "name": "refundContributors",
      "outputs": [],
      "stateMutability": "nonpayable",
      "type": "function"
    },
    {
      "inputs": [
        {
          "internalType": "address",
          "name": "",
          "type": "address"
        }
      ],
      "name": "refunds",
      "outputs": [
        {
          "internalType": "uint256",
          "name": "",
          "type": "uint256"
        }
      ],
      "stateMutability": "view",
      "type": "function"
    },
    {
      "inputs": [],
      "name": "symbol",
      "outputs": [
        {
          "internalType": "string",
          "name": "",
          "type": "string"
        }
      ],
      "stateMutability": "view",
      "type": "function"
    },
    {
      "inputs": [],
      "name": "totalSupply",
      "outputs": [
        {
          "internalType": "uint256",
          "name": "",
          "type": "uint256"
        }
      ],
      "stateMutability": "view",
      "type": "function"
    },
    {
      "inputs": [
        {
          "internalType": "address",
          "name": "to",
          "type": "address"
        },
        {
          "internalType": "uint256",
          "name": "value",
          "type": "uint256"
        }
      ],
      "name": "transfer",
      "outputs": [
        {
          "internalType": "bool",
          "name": "",
          "type": "bool"
        }
      ],
      "stateMutability": "nonpayable",
      "type": "function"
    },
    {
      "inputs": [
        {
          "internalType": "address",
          "name": "from",
          "type": "address"
        },
        {
          "internalType": "address",
          "name": "to",
          "type": "address"
        },
        {
          "internalType": "uint256",
          "name": "value",
          "type": "uint256"
        }
      ],
      "name": "transferFrom",
      "outputs": [
        {
          "internalType": "bool",
          "name": "",
          "type": "bool"
        }
      ],
      "stateMutability": "nonpayable",
      "type": "function"
    },
    {
      "inputs": [
        {
          "internalType": "address",
          "name": "to",
          "type": "address"
        },
        {
          "internalType": "uint256",
          "name": "amount",
          "type": "uint256"
        }
      ],
      "name": "transferToken",
      "outputs": [],
      "stateMutability": "nonpayable",
      "type": "function"
    },
    {
      "stateMutability": "payable",
      "type": "receive"
    }
  ],
  "bytecode": "0x6080604052600d80546001600160a01b0319167339af03c99f8b82602d293737de6a0ebf5d8f48db1790553480156200003757600080fd5b506040516200172f3803806200172f8339810160408190526200005a9162000330565b838383828260036200006d838262000439565b5060046200007c828262000439565b50505080670de0b6b3a76400006200009591906200051b565b6005819055620000a7903390620000f6565b5050600680546001600160a01b031990811630179091556009805490911633179055506000600a55620000dc81603c6200051b565b620000e890426200053b565b600b55506200055192505050565b6001600160a01b038216620001265760405163ec442f0560e01b8152600060048201526024015b60405180910390fd5b620001346000838362000138565b5050565b6001600160a01b038316620001675780600260008282546200015b91906200053b565b90915550620001db9050565b6001600160a01b03831660009081526020819052604090205481811015620001bc5760405163391434e360e21b81526001600160a01b038516600482015260248101829052604481018390526064016200011d565b6001600160a01b03841660009081526020819052604090209082900390555b6001600160a01b038216620001f95760028054829003905562000218565b6001600160a01b03821660009081526020819052604090208054820190555b816001600160a01b0316836001600160a01b03167fddf252ad1be2c89b69c2b068fc378daa952ba7f163c4a11628f55a4df523b3ef836040516200025e91815260200190565b60405180910390a3505050565b634e487b7160e01b600052604160045260246000fd5b600082601f8301126200029357600080fd5b81516001600160401b0380821115620002b057620002b06200026b565b604051601f8301601f19908116603f01168101908282118183101715620002db57620002db6200026b565b81604052838152602092508683858801011115620002f857600080fd5b600091505b838210156200031c5785820183015181830184015290820190620002fd565b600093810190920192909252949350505050565b600080600080608085870312156200034757600080fd5b84516001600160401b03808211156200035f57600080fd5b6200036d8883890162000281565b955060208701519150808211156200038457600080fd5b50620003938782880162000281565b604087015160609097015195989097509350505050565b600181811c90821680620003bf57607f821691505b602082108103620003e057634e487b7160e01b600052602260045260246000fd5b50919050565b601f8211156200043457600081815260208120601f850160051c810160208610156200040f5750805b601f850160051c820191505b8181101562000430578281556001016200041b565b5050505b505050565b81516001600160401b038111156200045557620004556200026b565b6200046d81620004668454620003aa565b84620003e6565b602080601f831160018114620004a557600084156200048c5750858301515b600019600386901b1c1916600185901b17855562000430565b600085815260208120601f198616915b82811015620004d657888601518255948401946001909101908401620004b5565b5085821015620004f55787850151600019600388901b60f8161c191681555b5050505050600190811b01905550565b634e487b7160e01b600052601160045260246000fd5b808202811582820484141762000535576200053562000505565b92915050565b8082018082111562000535576200053562000505565b6111ce80620005616000396000f3fe60806040526004361061016a5760003560e01c80636d1b229d116100d15780638e75e4821161008a578063a9059cbb11610064578063a9059cbb14610420578063bc3da53514610440578063c59ee1dc1461046d578063dd62ed3e1461048357600080fd5b80638e75e482146103d657806395d89b41146103eb578063a45ac5ff1461040057600080fd5b80636d1b229d146102f357806370a08231146103135780637ea12e791461034957806381a4a6d8146103815780638a0e495d146103965780638da5cb5b146103b657600080fd5b8063244e575111610123578063244e575114610254578063313ce56714610269578063378dc3dc1461028557806356c7f4611461029b5780635958611e146102b057806369cbbefe146102c657600080fd5b806306fdde031461017657806308608d73146101a1578063095ea7b3146101c35780631072cbea146101f357806318160ddd1461021557806323b872dd1461023457600080fd5b3661017157005b600080fd5b34801561018257600080fd5b5061018b6104c9565b6040516101989190610eb0565b60405180910390f35b3480156101ad57600080fd5b506101b661055b565b6040516101989190610efe565b3480156101cf57600080fd5b506101e36101de366004610f67565b610627565b6040519015158152602001610198565b3480156101ff57600080fd5b5061021361020e366004610f67565b610641565b005b34801561022157600080fd5b506002545b604051908152602001610198565b34801561024057600080fd5b506101e361024f366004610f91565b61065c565b34801561026057600080fd5b50610213610680565b34801561027557600080fd5b5060405160128152602001610198565b34801561029157600080fd5b5061022660055481565b3480156102a757600080fd5b50610213610937565b3480156102bc57600080fd5b50610226600b5481565b3480156102d257600080fd5b506102266102e1366004610fcd565b60086020526000908152604090205481565b3480156102ff57600080fd5b5061021361030e366004610fef565b610b2c565b34801561031f57600080fd5b5061022661032e366004610fcd565b6001600160a01b031660009081526020819052604090205490565b34801561035557600080fd5b50610369610364366004610fef565b610b4a565b6040516001600160a01b039091168152602001610198565b34801561038d57600080fd5b50600554610226565b3480156103a257600080fd5b50600654610369906001600160a01b031681565b3480156103c257600080fd5b50600954610369906001600160a01b031681565b3480156103e257600080fd5b50600a54610226565b3480156103f757600080fd5b5061018b610b74565b34801561040c57600080fd5b50600d54610369906001600160a01b031681565b34801561042c57600080fd5b506101e361043b366004610f67565b610b83565b34801561044c57600080fd5b5061022661045b366004610fcd565b60076020526000908152604090205481565b34801561047957600080fd5b50610226600a5481565b34801561048f57600080fd5b5061022661049e366004611008565b6001600160a01b03918216600090815260016020908152604080832093909416825291909152205490565b6060600380546104d89061103b565b80601f01602080910402602001604051908101604052809291908181526020018280546105049061103b565b80156105515780601f1061052657610100808354040283529160200191610551565b820191906000526020600020905b81548152906001019060200180831161053457829003601f168201915b5050505050905090565b600c5460609060008167ffffffffffffffff81111561057c5761057c611075565b6040519080825280602002602001820160405280156105a5578160200160208202803683370190505b50905060005b8281101561062057600c81815481106105c6576105c661108b565b9060005260206000200160009054906101000a90046001600160a01b03168282815181106105f6576105f661108b565b6001600160a01b039092166020928302919091019091015280610618816110b7565b9150506105ab565b5092915050565b600033610635818585610b91565b60019150505b92915050565b6106578261043b83670de0b6b3a76400006110d0565b505050565b60003361066a858285610b9e565b610675858585610c1c565b506001949350505050565b6009546001600160a01b031633146106b35760405162461bcd60e51b81526004016106aa906110e7565b60405180910390fd5b600b5442116107045760405162461bcd60e51b815260206004820152601b60248201527f46756e6472616973696e67206973206e6f74206f76657220796574000000000060448201526064016106aa565b600580546107139060046110d0565b61071d9190611128565b600a54101561076e5760405162461bcd60e51b815260206004820152601c60248201527f46756e6472616973696e6720676f616c206e6f7420726561636865640000000060448201526064016106aa565b600d546040516370a0823160e01b81523060048201526001600160a01b039091169060009082906370a0823190602401602060405180830381865afa1580156107bb573d6000803e3d6000fd5b505050506040513d601f19601f820116820180604052508101906107df919061114a565b9050600081116108315760405162461bcd60e51b815260206004820152601b60248201527f4e6f2041525420746f6b656e7320746f2064697374726962757465000000000060448201526064016106aa565b60095460405163a9059cbb60e01b81526001600160a01b039182166004820152602481018390529083169063a9059cbb906044016020604051808303816000875af1158015610884573d6000803e3d6000fd5b505050506040513d601f19601f820116820180604052508101906108a89190611163565b5060005b600c54811015610657576000600c82815481106108cb576108cb61108b565b60009182526020808320909101546001600160a01b031680835260089091526040909120549091508015610922576001600160a01b0380831660009081526008602052604081205560095461092291168383610c1c565b5050808061092f906110b7565b9150506108ac565b6009546001600160a01b031633146109615760405162461bcd60e51b81526004016106aa906110e7565b600b5442116109b25760405162461bcd60e51b815260206004820152601b60248201527f46756e6472616973696e67206973206e6f74206f76657220796574000000000060448201526064016106aa565b600580546109c19060046110d0565b6109cb9190611128565b600a5410610a295760405162461bcd60e51b815260206004820152602560248201527f3830252066756e6472616973696e6720676f616c20686173206265656e2072656044820152641858da195960da1b60648201526084016106aa565b600d546001600160a01b031660005b600c54811015610b28576000600c8281548110610a5757610a5761108b565b60009182526020808320909101546001600160a01b031680835260079091526040909120549091508015610b135760405163a9059cbb60e01b81526001600160a01b0383811660048301526024820183905285169063a9059cbb906044016020604051808303816000875af1158015610ad4573d6000803e3d6000fd5b505050506040513d601f19601f82011682018060405250810190610af89190611163565b506001600160a01b0382166000908152600760205260408120555b50508080610b20906110b7565b915050610a38565b5050565b610b4733610b4283670de0b6b3a76400006110d0565b610c7b565b50565b600c8181548110610b5a57600080fd5b6000918252602090912001546001600160a01b0316905081565b6060600480546104d89061103b565b600033610635818585610c1c565b6106578383836001610cb1565b6001600160a01b038381166000908152600160209081526040808320938616835292905220546000198114610c165781811015610c0757604051637dc7a0d960e11b81526001600160a01b038416600482015260248101829052604481018390526064016106aa565b610c1684848484036000610cb1565b50505050565b6001600160a01b038316610c4657604051634b637e8f60e11b8152600060048201526024016106aa565b6001600160a01b038216610c705760405163ec442f0560e01b8152600060048201526024016106aa565b610657838383610d86565b6001600160a01b038216610ca557604051634b637e8f60e11b8152600060048201526024016106aa565b610b2882600083610d86565b6001600160a01b038416610cdb5760405163e602df0560e01b8152600060048201526024016106aa565b6001600160a01b038316610d0557604051634a1406b160e11b8152600060048201526024016106aa565b6001600160a01b0380851660009081526001602090815260408083209387168352929052208290558015610c1657826001600160a01b0316846001600160a01b03167f8c5be1e5ebec7d5bd14f71427d1e84f3dd0314c0f7b2291e5b200ac8c7c3b92584604051610d7891815260200190565b60405180910390a350505050565b6001600160a01b038316610db1578060026000828254610da69190611185565b90915550610e239050565b6001600160a01b03831660009081526020819052604090205481811015610e045760405163391434e360e21b81526001600160a01b038516600482015260248101829052604481018390526064016106aa565b6001600160a01b03841660009081526020819052604090209082900390555b6001600160a01b038216610e3f57600280548290039055610e5e565b6001600160a01b03821660009081526020819052604090208054820190555b816001600160a01b0316836001600160a01b03167fddf252ad1be2c89b69c2b068fc378daa952ba7f163c4a11628f55a4df523b3ef83604051610ea391815260200190565b60405180910390a3505050565b600060208083528351808285015260005b81811015610edd57858101830151858201604001528201610ec1565b506000604082860101526040601f19601f8301168501019250505092915050565b6020808252825182820181905260009190848201906040850190845b81811015610f3f5783516001600160a01b031683529284019291840191600101610f1a565b50909695505050505050565b80356001600160a01b0381168114610f6257600080fd5b919050565b60008060408385031215610f7a57600080fd5b610f8383610f4b565b946020939093013593505050565b600080600060608486031215610fa657600080fd5b610faf84610f4b565b9250610fbd60208501610f4b565b9150604084013590509250925092565b600060208284031215610fdf57600080fd5b610fe882610f4b565b9392505050565b60006020828403121561100157600080fd5b5035919050565b6000806040838503121561101b57600080fd5b61102483610f4b565b915061103260208401610f4b565b90509250929050565b600181811c9082168061104f57607f821691505b60208210810361106f57634e487b7160e01b600052602260045260246000fd5b50919050565b634e487b7160e01b600052604160045260246000fd5b634e487b7160e01b600052603260045260246000fd5b634e487b7160e01b600052601160045260246000fd5b6000600182016110c9576110c96110a1565b5060010190565b808202811582820484141761063b5761063b6110a1565b60208082526021908201527f4f6e6c79206f776e65722063616e2063616c6c20746869732066756e6374696f6040820152603760f91b606082015260800190565b60008261114557634e487b7160e01b600052601260045260246000fd5b500490565b60006020828403121561115c57600080fd5b5051919050565b60006020828403121561117557600080fd5b81518015158114610fe857600080fd5b8082018082111561063b5761063b6110a156fea264697066735822122047063e01977051da904d932976f6ce3e28745226ba75d3799a11a702e719510164736f6c63430008140033",
  "linkReferences": {},
  "deployedLinkReferences": {}
}