{
  "_format": "hh-sol-artifact-1",
  "contractName": "ERC20MintBurnTransferContract",
  "sourceName": "contracts/ERC20MintBurnTransfer.sol",
  "abi": [
    {
      "inputs": [
        {
          "internalType": "string",
          "name": "coinName",
          "type": "string"
        },
        {
          "internalType": "string",
          "name": "ticker",
          "type": "string"
        },
        {
          "internalType": "uint256",
          "name": "_initialSupply",
          "type": "uint256"
        }
      ],
      "stateMutability": "nonpayable",
      "type": "constructor"
    },
    {
      "inputs": [
        {
          "internalType": "address",
          "name": "spender",
          "type": "address"
        },
        {
          "internalType": "uint256",
          "name": "allowance",
          "type": "uint256"
        },
        {
          "internalType": "uint256",
          "name": "needed",
          "type": "uint256"
        }
      ],
      "name": "ERC20InsufficientAllowance",
      "type": "error"
    },
    {
      "inputs": [
        {
          "internalType": "address",
          "name": "sender",
          "type": "address"
        },
        {
          "internalType": "uint256",
          "name": "balance",
          "type": "uint256"
        },
        {
          "internalType": "uint256",
          "name": "needed",
          "type": "uint256"
        }
      ],
      "name": "ERC20InsufficientBalance",
      "type": "error"
    },
    {
      "inputs": [
        {
          "internalType": "address",
          "name": "approver",
          "type": "address"
        }
      ],
      "name": "ERC20InvalidApprover",
      "type": "error"
    },
    {
      "inputs": [
        {
          "internalType": "address",
          "name": "receiver",
          "type": "address"
        }
      ],
      "name": "ERC20InvalidReceiver",
      "type": "error"
    },
    {
      "inputs": [
        {
          "internalType": "address",
          "name": "sender",
          "type": "address"
        }
      ],
      "name": "ERC20InvalidSender",
      "type": "error"
    },
    {
      "inputs": [
        {
          "internalType": "address",
          "name": "spender",
          "type": "address"
        }
      ],
      "name": "ERC20InvalidSpender",
      "type": "error"
    },
    {
      "anonymous": false,
      "inputs": [
        {
          "indexed": true,
          "internalType": "address",
          "name": "owner",
          "type": "address"
        },
        {
          "indexed": true,
          "internalType": "address",
          "name": "spender",
          "type": "address"
        },
        {
          "indexed": false,
          "internalType": "uint256",
          "name": "value",
          "type": "uint256"
        }
      ],
      "name": "Approval",
      "type": "event"
    },
    {
      "anonymous": false,
      "inputs": [
        {
          "indexed": true,
          "internalType": "address",
          "name": "from",
          "type": "address"
        },
        {
          "indexed": true,
          "internalType": "address",
          "name": "to",
          "type": "address"
        },
        {
          "indexed": false,
          "internalType": "uint256",
          "name": "value",
          "type": "uint256"
        }
      ],
      "name": "Transfer",
      "type": "event"
    },
    {
      "inputs": [
        {
          "internalType": "address",
          "name": "owner",
          "type": "address"
        },
        {
          "internalType": "address",
          "name": "spender",
          "type": "address"
        }
      ],
      "name": "allowance",
      "outputs": [
        {
          "internalType": "uint256",
          "name": "",
          "type": "uint256"
        }
      ],
      "stateMutability": "view",
      "type": "function"
    },
    {
      "inputs": [
        {
          "internalType": "address",
          "name": "spender",
          "type": "address"
        },
        {
          "internalType": "uint256",
          "name": "value",
          "type": "uint256"
        }
      ],
      "name": "approve",
      "outputs": [
        {
          "internalType": "bool",
          "name": "",
          "type": "bool"
        }
      ],
      "stateMutability": "nonpayable",
      "type": "function"
    },
    {
      "inputs": [],
      "name": "artPieceToken",
      "outputs": [
        {
          "internalType": "address",
          "name": "",
          "type": "address"
        }
      ],
      "stateMutability": "view",
      "type": "function"
    },
    {
      "inputs": [
        {
          "internalType": "address",
          "name": "account",
          "type": "address"
        }
      ],
      "name": "balanceOf",
      "outputs": [
        {
          "internalType": "uint256",
          "name": "",
          "type": "uint256"
        }
      ],
      "stateMutability": "view",
      "type": "function"
    },
    {
      "inputs": [
        {
          "internalType": "uint256",
          "name": "burnAmount",
          "type": "uint256"
        }
      ],
      "name": "burnTokens",
      "outputs": [],
      "stateMutability": "nonpayable",
      "type": "function"
    },
    {
      "inputs": [],
      "name": "decimals",
      "outputs": [
        {
          "internalType": "uint8",
          "name": "",
          "type": "uint8"
        }
      ],
      "stateMutability": "view",
      "type": "function"
    },
    {
      "inputs": [],
      "name": "initialSupply",
      "outputs": [
        {
          "internalType": "uint256",
          "name": "",
          "type": "uint256"
        }
      ],
      "stateMutability": "view",
      "type": "function"
    },
    {
      "inputs": [],
      "name": "name",
      "outputs": [
        {
          "internalType": "string",
          "name": "",
          "type": "string"
        }
      ],
      "stateMutability": "view",
      "type": "function"
    },
    {
      "inputs": [],
      "name": "symbol",
      "outputs": [
        {
          "internalType": "string",
          "name": "",
          "type": "string"
        }
      ],
      "stateMutability": "view",
      "type": "function"
    },
    {
      "inputs": [],
      "name": "totalSupply",
      "outputs": [
        {
          "internalType": "uint256",
          "name": "",
          "type": "uint256"
        }
      ],
      "stateMutability": "view",
      "type": "function"
    },
    {
      "inputs": [
        {
          "internalType": "address",
          "name": "to",
          "type": "address"
        },
        {
          "internalType": "uint256",
          "name": "value",
          "type": "uint256"
        }
      ],
      "name": "transfer",
      "outputs": [
        {
          "internalType": "bool",
          "name": "",
          "type": "bool"
        }
      ],
      "stateMutability": "nonpayable",
      "type": "function"
    },
    {
      "inputs": [
        {
          "internalType": "address",
          "name": "from",
          "type": "address"
        },
        {
          "internalType": "address",
          "name": "to",
          "type": "address"
        },
        {
          "internalType": "uint256",
          "name": "value",
          "type": "uint256"
        }
      ],
      "name": "transferFrom",
      "outputs": [
        {
          "internalType": "bool",
          "name": "",
          "type": "bool"
        }
      ],
      "stateMutability": "nonpayable",
      "type": "function"
    },
    {
      "inputs": [
        {
          "internalType": "address",
          "name": "to",
          "type": "address"
        },
        {
          "internalType": "uint256",
          "name": "amount",
          "type": "uint256"
        }
      ],
      "name": "transferToken",
      "outputs": [],
      "stateMutability": "nonpayable",
      "type": "function"
    }
  ],
  "bytecode": "0x60806040523480156200001157600080fd5b5060405162000d5b38038062000d5b8339810160408190526200003491620002d3565b82826003620000448382620003d5565b506004620000538282620003d5565b50505080670de0b6b3a76400006200006c9190620004b7565b60058190556200007e90339062000099565b5050600680546001600160a01b0319163017905550620004ed565b6001600160a01b038216620000c95760405163ec442f0560e01b8152600060048201526024015b60405180910390fd5b620000d760008383620000db565b5050565b6001600160a01b0383166200010a578060026000828254620000fe9190620004d7565b909155506200017e9050565b6001600160a01b038316600090815260208190526040902054818110156200015f5760405163391434e360e21b81526001600160a01b03851660048201526024810182905260448101839052606401620000c0565b6001600160a01b03841660009081526020819052604090209082900390555b6001600160a01b0382166200019c57600280548290039055620001bb565b6001600160a01b03821660009081526020819052604090208054820190555b816001600160a01b0316836001600160a01b03167fddf252ad1be2c89b69c2b068fc378daa952ba7f163c4a11628f55a4df523b3ef836040516200020191815260200190565b60405180910390a3505050565b634e487b7160e01b600052604160045260246000fd5b600082601f8301126200023657600080fd5b81516001600160401b03808211156200025357620002536200020e565b604051601f8301601f19908116603f011681019082821181831017156200027e576200027e6200020e565b816040528381526020925086838588010111156200029b57600080fd5b600091505b83821015620002bf5785820183015181830184015290820190620002a0565b600093810190920192909252949350505050565b600080600060608486031215620002e957600080fd5b83516001600160401b03808211156200030157600080fd5b6200030f8783880162000224565b945060208601519150808211156200032657600080fd5b50620003358682870162000224565b925050604084015190509250925092565b600181811c908216806200035b57607f821691505b6020821081036200037c57634e487b7160e01b600052602260045260246000fd5b50919050565b601f821115620003d057600081815260208120601f850160051c81016020861015620003ab5750805b601f850160051c820191505b81811015620003cc57828155600101620003b7565b5050505b505050565b81516001600160401b03811115620003f157620003f16200020e565b620004098162000402845462000346565b8462000382565b602080601f831160018114620004415760008415620004285750858301515b600019600386901b1c1916600185901b178555620003cc565b600085815260208120601f198616915b82811015620004725788860151825594840194600190910190840162000451565b5085821015620004915787850151600019600388901b60f8161c191681555b5050505050600190811b01905550565b634e487b7160e01b600052601160045260246000fd5b8082028115828204841417620004d157620004d1620004a1565b92915050565b80820180821115620004d157620004d1620004a1565b61085e80620004fd6000396000f3fe608060405234801561001057600080fd5b50600436106100cf5760003560e01c8063378dc3dc1161008c5780638a0e495d116100665780638a0e495d146101a357806395d89b41146101ce578063a9059cbb146101d6578063dd62ed3e146101e957600080fd5b8063378dc3dc1461015e5780636d1b229d1461016757806370a082311461017a57600080fd5b806306fdde03146100d4578063095ea7b3146100f25780631072cbea1461011557806318160ddd1461012a57806323b872dd1461013c578063313ce5671461014f575b600080fd5b6100dc610222565b6040516100e99190610670565b60405180910390f35b6101056101003660046106da565b6102b4565b60405190151581526020016100e9565b6101286101233660046106da565b6102ce565b005b6002545b6040519081526020016100e9565b61010561014a366004610704565b6102e9565b604051601281526020016100e9565b61012e60055481565b610128610175366004610740565b61030d565b61012e610188366004610759565b6001600160a01b031660009081526020819052604090205490565b6006546101b6906001600160a01b031681565b6040516001600160a01b0390911681526020016100e9565b6100dc61032b565b6101056101e43660046106da565b61033a565b61012e6101f736600461077b565b6001600160a01b03918216600090815260016020908152604080832093909416825291909152205490565b606060038054610231906107ae565b80601f016020809104026020016040519081016040528092919081815260200182805461025d906107ae565b80156102aa5780601f1061027f576101008083540402835291602001916102aa565b820191906000526020600020905b81548152906001019060200180831161028d57829003601f168201915b5050505050905090565b6000336102c2818585610348565b60019150505b92915050565b6102e4826101e483670de0b6b3a76400006107fe565b505050565b6000336102f7858285610355565b6103028585856103d8565b506001949350505050565b6103283361032383670de0b6b3a76400006107fe565b610437565b50565b606060048054610231906107ae565b6000336102c28185856103d8565b6102e48383836001610471565b6001600160a01b0383811660009081526001602090815260408083209386168352929052205460001981146103d257818110156103c357604051637dc7a0d960e11b81526001600160a01b038416600482015260248101829052604481018390526064015b60405180910390fd5b6103d284848484036000610471565b50505050565b6001600160a01b03831661040257604051634b637e8f60e11b8152600060048201526024016103ba565b6001600160a01b03821661042c5760405163ec442f0560e01b8152600060048201526024016103ba565b6102e4838383610546565b6001600160a01b03821661046157604051634b637e8f60e11b8152600060048201526024016103ba565b61046d82600083610546565b5050565b6001600160a01b03841661049b5760405163e602df0560e01b8152600060048201526024016103ba565b6001600160a01b0383166104c557604051634a1406b160e11b8152600060048201526024016103ba565b6001600160a01b03808516600090815260016020908152604080832093871683529290522082905580156103d257826001600160a01b0316846001600160a01b03167f8c5be1e5ebec7d5bd14f71427d1e84f3dd0314c0f7b2291e5b200ac8c7c3b9258460405161053891815260200190565b60405180910390a350505050565b6001600160a01b0383166105715780600260008282546105669190610815565b909155506105e39050565b6001600160a01b038316600090815260208190526040902054818110156105c45760405163391434e360e21b81526001600160a01b038516600482015260248101829052604481018390526064016103ba565b6001600160a01b03841660009081526020819052604090209082900390555b6001600160a01b0382166105ff5760028054829003905561061e565b6001600160a01b03821660009081526020819052604090208054820190555b816001600160a01b0316836001600160a01b03167fddf252ad1be2c89b69c2b068fc378daa952ba7f163c4a11628f55a4df523b3ef8360405161066391815260200190565b60405180910390a3505050565b600060208083528351808285015260005b8181101561069d57858101830151858201604001528201610681565b506000604082860101526040601f19601f8301168501019250505092915050565b80356001600160a01b03811681146106d557600080fd5b919050565b600080604083850312156106ed57600080fd5b6106f6836106be565b946020939093013593505050565b60008060006060848603121561071957600080fd5b610722846106be565b9250610730602085016106be565b9150604084013590509250925092565b60006020828403121561075257600080fd5b5035919050565b60006020828403121561076b57600080fd5b610774826106be565b9392505050565b6000806040838503121561078e57600080fd5b610797836106be565b91506107a5602084016106be565b90509250929050565b600181811c908216806107c257607f821691505b6020821081036107e257634e487b7160e01b600052602260045260246000fd5b50919050565b634e487b7160e01b600052601160045260246000fd5b80820281158282048414176102c8576102c86107e8565b808201808211156102c8576102c86107e856fea264697066735822122054a295b5c9e85f7a428c80a8addc9f8eefd892b3a344be920cf94f673f03e32464736f6c63430008140033",
  "linkReferences": {},
  "deployedLinkReferences": {}
}