{"contracts/Marketplace.sol":{"Marketplace":{"abi":[{"anonymous":false,"inputs":[{"indexed":true,"internalType":"uint256","name":"tradeIndex","type":"uint256"},{"indexed":false,"internalType":"address","name":"seller","type":"address"}],"name":"TradeCreated","type":"event"},{"inputs":[{"internalType":"address","name":"_tokenSell","type":"address"},{"internalType":"uint256","name":"_amountSell","type":"uint256"},{"internalType":"address","name":"_tokenBuy","type":"address"},{"internalType":"uint256","name":"_amountBuy","type":"uint256"}],"name":"createTrade","outputs":[],"stateMutability":"nonpayable","type":"function"},{"inputs":[{"internalType":"uint256","name":"tradeIndex","type":"uint256"}],"name":"executeTrade","outputs":[],"stateMutability":"nonpayable","type":"function"},{"inputs":[],"name":"getAllTrades","outputs":[{"internalType":"address[]","name":"","type":"address[]"},{"internalType":"uint256[]","name":"","type":"uint256[]"},{"internalType":"address[]","name":"","type":"address[]"},{"internalType":"uint256[]","name":"","type":"uint256[]"},{"internalType":"address[]","name":"","type":"address[]"},{"internalType":"bool[]","name":"","type":"bool[]"}],"stateMutability":"view","type":"function"},{"inputs":[{"internalType":"uint256","name":"tradeIndex","type":"uint256"}],"name":"getTrade","outputs":[{"internalType":"address","name":"","type":"address"},{"internalType":"uint256","name":"","type":"uint256"},{"internalType":"address","name":"","type":"address"},{"internalType":"uint256","name":"","type":"uint256"},{"internalType":"address","name":"","type":"address"},{"internalType":"bool","name":"","type":"bool"}],"stateMutability":"view","type":"function"},{"inputs":[{"internalType":"uint256","name":"","type":"uint256"}],"name":"trades","outputs":[{"internalType":"address","name":"tokenSell","type":"address"},{"internalType":"uint256","name":"amountSell","type":"uint256"},{"internalType":"address","name":"tokenBuy","type":"address"},{"internalType":"uint256","name":"amountBuy","type":"uint256"},{"internalType":"address","name":"seller","type":"address"},{"internalType":"bool","name":"executed","type":"bool"}],"stateMutability":"view","type":"function"}],"evm":{"bytecode":{"linkReferences":{},"object":"608060405234801561001057600080fd5b50610ba9806100206000396000f3fe608060405234801561001057600080fd5b50600436106100575760003560e01c806302d2838b1461005c5780631e6c598e146100715780632db25e05146100cc578063ce99c0ce146100df578063ef14c2b9146100f9575b600080fd5b61006f61006a36600461093f565b61010c565b005b61008461007f36600461093f565b610354565b604080516001600160a01b0397881681526020810196909652938616938501939093526060840191909152909216608082015290151560a082015260c0015b60405180910390f35b6100846100da36600461093f565b6103b1565b6100e7610424565b6040516100c3969594939291906109cc565b61006f610107366004610a92565b6107a8565b600080828154811061012057610120610ad6565b906000526020600020906005020190508060040160149054906101000a900460ff161561018d5760405162461bcd60e51b8152602060048201526016602482015275151c98591948185b1c9958591e48195e1958dd5d195960521b60448201526064015b60405180910390fd5b8054600282015460048084015460018501546040516323b872dd60e01b81526001600160a01b03928316938101939093523360248401526044830152928316929091169082906323b872dd906064016020604051808303816000875af11580156101fb573d6000803e3d6000fd5b505050506040513d601f19601f8201168201806040525081019061021f9190610aec565b61026b5760405162461bcd60e51b815260206004820152601d60248201527f4661696c656420746f207472616e736665722073656c6c20746f6b656e0000006044820152606401610184565b60048381015460038501546040516323b872dd60e01b815233938101939093526001600160a01b03918216602484015260448301528216906323b872dd906064016020604051808303816000875af11580156102cb573d6000803e3d6000fd5b505050506040513d601f19601f820116820180604052508101906102ef9190610aec565b61033b5760405162461bcd60e51b815260206004820152601c60248201527f4661696c656420746f207472616e736665722062757920746f6b656e000000006044820152606401610184565b5050600401805460ff60a01b1916600160a01b17905550565b6000818154811061036457600080fd5b6000918252602090912060059091020180546001820154600283015460038401546004909401546001600160a01b039384169550919390831692909190811690600160a01b900460ff1686565b60008060008060008060008088815481106103ce576103ce610ad6565b6000918252602090912060059091020180546001820154600283015460038401546004909401546001600160a01b039384169d929c509083169a509298509082169650600160a01b90910460ff16945092505050565b60608060608060608060008080549050905060008167ffffffffffffffff81111561045157610451610b15565b60405190808252806020026020018201604052801561047a578160200160208202803683370190505b50905060008267ffffffffffffffff81111561049857610498610b15565b6040519080825280602002602001820160405280156104c1578160200160208202803683370190505b50905060008367ffffffffffffffff8111156104df576104df610b15565b604051908082528060200260200182016040528015610508578160200160208202803683370190505b50905060008467ffffffffffffffff81111561052657610526610b15565b60405190808252806020026020018201604052801561054f578160200160208202803683370190505b50905060008567ffffffffffffffff81111561056d5761056d610b15565b604051908082528060200260200182016040528015610596578160200160208202803683370190505b50905060008667ffffffffffffffff8111156105b4576105b4610b15565b6040519080825280602002602001820160405280156105dd578160200160208202803683370190505b50905060005b878110156107935760008082815481106105ff576105ff610ad6565b60009182526020918290206040805160c081018252600590930290910180546001600160a01b0390811680855260018301549585019590955260028201548116928401929092526003810154606084015260040154908116608083015260ff600160a01b90910416151560a0820152895190925089908490811061068557610685610ad6565b60200260200101906001600160a01b031690816001600160a01b03168152505080602001518783815181106106bc576106bc610ad6565b60200260200101818152505080604001518683815181106106df576106df610ad6565b60200260200101906001600160a01b031690816001600160a01b031681525050806060015185838151811061071657610716610ad6565b602002602001018181525050806080015184838151811061073957610739610ad6565b60200260200101906001600160a01b031690816001600160a01b0316815250508060a0015183838151811061077057610770610ad6565b91151560209283029190910190910152508061078b81610b41565b9150506105e3565b50949c939b5091995097509550909350915050565b6040805160c0810182526001600160a01b03808716825260208201868152858216938301938452606083018581523360808501908152600060a08601818152815460018181018455838052975160059091027f290decd9548b62a8d60345a988386fc84ba6bc95484008f6362f93160ef3e563810180549289166001600160a01b031993841617905595517f290decd9548b62a8d60345a988386fc84ba6bc95484008f6362f93160ef3e56487015597517f290decd9548b62a8d60345a988386fc84ba6bc95484008f6362f93160ef3e56586018054918816919099161790975591517f290decd9548b62a8d60345a988386fc84ba6bc95484008f6362f93160ef3e566840155517f290decd9548b62a8d60345a988386fc84ba6bc95484008f6362f93160ef3e567909201805495511515600160a01b026001600160a81b0319909616929093169190911793909317905590546109069190610b5a565b6040513381527f71cb61698242bdadd31b3db5d7d28894a712a6b311e7cc08164207ed15e0d0559060200160405180910390a250505050565b60006020828403121561095157600080fd5b5035919050565b600081518084526020808501945080840160005b838110156109915781516001600160a01b03168752958201959082019060010161096c565b509495945050505050565b600081518084526020808501945080840160005b83811015610991578151875295820195908201906001016109b0565b60c0815260006109df60c0830189610958565b6020838203818501526109f2828a61099c565b91508382036040850152610a068289610958565b91508382036060850152610a1a828861099c565b91508382036080850152610a2e8287610958565b84810360a0860152855180825282870193509082019060005b81811015610a65578451151583529383019391830191600101610a47565b50909b9a5050505050505050505050565b80356001600160a01b0381168114610a8d57600080fd5b919050565b60008060008060808587031215610aa857600080fd5b610ab185610a76565b935060208501359250610ac660408601610a76565b9396929550929360600135925050565b634e487b7160e01b600052603260045260246000fd5b600060208284031215610afe57600080fd5b81518015158114610b0e57600080fd5b9392505050565b634e487b7160e01b600052604160045260246000fd5b634e487b7160e01b600052601160045260246000fd5b600060018201610b5357610b53610b2b565b5060010190565b81810381811115610b6d57610b6d610b2b565b9291505056fea2646970667358221220381252de4394074cef2343038c0c44aa279eaf77a6db28589e6072c8bae7c72a64736f6c63430008140033","opcodes":"PUSH1 0x80 PUSH1 0x40 MSTORE CALLVALUE DUP1 ISZERO PUSH2 0x10 JUMPI PUSH1 0x0 DUP1 REVERT JUMPDEST POP PUSH2 0xBA9 DUP1 PUSH2 0x20 PUSH1 0x0 CODECOPY PUSH1 0x0 RETURN INVALID PUSH1 0x80 PUSH1 0x40 MSTORE CALLVALUE DUP1 ISZERO PUSH2 0x10 JUMPI PUSH1 0x0 DUP1 REVERT JUMPDEST POP PUSH1 0x4 CALLDATASIZE LT PUSH2 0x57 JUMPI PUSH1 0x0 CALLDATALOAD PUSH1 0xE0 SHR DUP1 PUSH4 0x2D2838B EQ PUSH2 0x5C JUMPI DUP1 PUSH4 0x1E6C598E EQ PUSH2 0x71 JUMPI DUP1 PUSH4 0x2DB25E05 EQ PUSH2 0xCC JUMPI DUP1 PUSH4 0xCE99C0CE EQ PUSH2 0xDF JUMPI DUP1 PUSH4 0xEF14C2B9 EQ PUSH2 0xF9 JUMPI JUMPDEST PUSH1 0x0 DUP1 REVERT JUMPDEST PUSH2 0x6F PUSH2 0x6A CALLDATASIZE PUSH1 0x4 PUSH2 0x93F JUMP JUMPDEST PUSH2 0x10C JUMP JUMPDEST STOP JUMPDEST PUSH2 0x84 PUSH2 0x7F CALLDATASIZE PUSH1 0x4 PUSH2 0x93F JUMP JUMPDEST PUSH2 0x354 JUMP JUMPDEST PUSH1 0x40 DUP1 MLOAD PUSH1 0x1 PUSH1 0x1 PUSH1 0xA0 SHL SUB SWAP8 DUP9 AND DUP2 MSTORE PUSH1 0x20 DUP2 ADD SWAP7 SWAP1 SWAP7 MSTORE SWAP4 DUP7 AND SWAP4 DUP6 ADD SWAP4 SWAP1 SWAP4 MSTORE PUSH1 0x60 DUP5 ADD SWAP2 SWAP1 SWAP2 MSTORE SWAP1 SWAP3 AND PUSH1 0x80 DUP3 ADD MSTORE SWAP1 ISZERO ISZERO PUSH1 0xA0 DUP3 ADD MSTORE PUSH1 0xC0 ADD JUMPDEST PUSH1 0x40 MLOAD DUP1 SWAP2 SUB SWAP1 RETURN JUMPDEST PUSH2 0x84 PUSH2 0xDA CALLDATASIZE PUSH1 0x4 PUSH2 0x93F JUMP JUMPDEST PUSH2 0x3B1 JUMP JUMPDEST PUSH2 0xE7 PUSH2 0x424 JUMP JUMPDEST PUSH1 0x40 MLOAD PUSH2 0xC3 SWAP7 SWAP6 SWAP5 SWAP4 SWAP3 SWAP2 SWAP1 PUSH2 0x9CC JUMP JUMPDEST PUSH2 0x6F PUSH2 0x107 CALLDATASIZE PUSH1 0x4 PUSH2 0xA92 JUMP JUMPDEST PUSH2 0x7A8 JUMP JUMPDEST PUSH1 0x0 DUP1 DUP3 DUP2 SLOAD DUP2 LT PUSH2 0x120 JUMPI PUSH2 0x120 PUSH2 0xAD6 JUMP JUMPDEST SWAP1 PUSH1 0x0 MSTORE PUSH1 0x20 PUSH1 0x0 KECCAK256 SWAP1 PUSH1 0x5 MUL ADD SWAP1 POP DUP1 PUSH1 0x4 ADD PUSH1 0x14 SWAP1 SLOAD SWAP1 PUSH2 0x100 EXP SWAP1 DIV PUSH1 0xFF AND ISZERO PUSH2 0x18D JUMPI PUSH1 0x40 MLOAD PUSH3 0x461BCD PUSH1 0xE5 SHL DUP2 MSTORE PUSH1 0x20 PUSH1 0x4 DUP3 ADD MSTORE PUSH1 0x16 PUSH1 0x24 DUP3 ADD MSTORE PUSH22 0x151C98591948185B1C9958591E48195E1958DD5D1959 PUSH1 0x52 SHL PUSH1 0x44 DUP3 ADD MSTORE PUSH1 0x64 ADD JUMPDEST PUSH1 0x40 MLOAD DUP1 SWAP2 SUB SWAP1 REVERT JUMPDEST DUP1 SLOAD PUSH1 0x2 DUP3 ADD SLOAD PUSH1 0x4 DUP1 DUP5 ADD SLOAD PUSH1 0x1 DUP6 ADD SLOAD PUSH1 0x40 MLOAD PUSH4 0x23B872DD PUSH1 0xE0 SHL DUP2 MSTORE PUSH1 0x1 PUSH1 0x1 PUSH1 0xA0 SHL SUB SWAP3 DUP4 AND SWAP4 DUP2 ADD SWAP4 SWAP1 SWAP4 MSTORE CALLER PUSH1 0x24 DUP5 ADD MSTORE PUSH1 0x44 DUP4 ADD MSTORE SWAP3 DUP4 AND SWAP3 SWAP1 SWAP2 AND SWAP1 DUP3 SWAP1 PUSH4 0x23B872DD SWAP1 PUSH1 0x64 ADD PUSH1 0x20 PUSH1 0x40 MLOAD DUP1 DUP4 SUB DUP2 PUSH1 0x0 DUP8 GAS CALL ISZERO DUP1 ISZERO PUSH2 0x1FB JUMPI RETURNDATASIZE PUSH1 0x0 DUP1 RETURNDATACOPY RETURNDATASIZE PUSH1 0x0 REVERT JUMPDEST POP POP POP POP PUSH1 0x40 MLOAD RETURNDATASIZE PUSH1 0x1F NOT PUSH1 0x1F DUP3 ADD AND DUP3 ADD DUP1 PUSH1 0x40 MSTORE POP DUP2 ADD SWAP1 PUSH2 0x21F SWAP2 SWAP1 PUSH2 0xAEC JUMP JUMPDEST PUSH2 0x26B JUMPI PUSH1 0x40 MLOAD PUSH3 0x461BCD PUSH1 0xE5 SHL DUP2 MSTORE PUSH1 0x20 PUSH1 0x4 DUP3 ADD MSTORE PUSH1 0x1D PUSH1 0x24 DUP3 ADD MSTORE PUSH32 0x4661696C656420746F207472616E736665722073656C6C20746F6B656E000000 PUSH1 0x44 DUP3 ADD MSTORE PUSH1 0x64 ADD PUSH2 0x184 JUMP JUMPDEST PUSH1 0x4 DUP4 DUP2 ADD SLOAD PUSH1 0x3 DUP6 ADD SLOAD PUSH1 0x40 MLOAD PUSH4 0x23B872DD PUSH1 0xE0 SHL DUP2 MSTORE CALLER SWAP4 DUP2 ADD SWAP4 SWAP1 SWAP4 MSTORE PUSH1 0x1 PUSH1 0x1 PUSH1 0xA0 SHL SUB SWAP2 DUP3 AND PUSH1 0x24 DUP5 ADD MSTORE PUSH1 0x44 DUP4 ADD MSTORE DUP3 AND SWAP1 PUSH4 0x23B872DD SWAP1 PUSH1 0x64 ADD PUSH1 0x20 PUSH1 0x40 MLOAD DUP1 DUP4 SUB DUP2 PUSH1 0x0 DUP8 GAS CALL ISZERO DUP1 ISZERO PUSH2 0x2CB JUMPI RETURNDATASIZE PUSH1 0x0 DUP1 RETURNDATACOPY RETURNDATASIZE PUSH1 0x0 REVERT JUMPDEST POP POP POP POP PUSH1 0x40 MLOAD RETURNDATASIZE PUSH1 0x1F NOT PUSH1 0x1F DUP3 ADD AND DUP3 ADD DUP1 PUSH1 0x40 MSTORE POP DUP2 ADD SWAP1 PUSH2 0x2EF SWAP2 SWAP1 PUSH2 0xAEC JUMP JUMPDEST PUSH2 0x33B JUMPI PUSH1 0x40 MLOAD PUSH3 0x461BCD PUSH1 0xE5 SHL DUP2 MSTORE PUSH1 0x20 PUSH1 0x4 DUP3 ADD MSTORE PUSH1 0x1C PUSH1 0x24 DUP3 ADD MSTORE PUSH32 0x4661696C656420746F207472616E736665722062757920746F6B656E00000000 PUSH1 0x44 DUP3 ADD MSTORE PUSH1 0x64 ADD PUSH2 0x184 JUMP JUMPDEST POP POP PUSH1 0x4 ADD DUP1 SLOAD PUSH1 0xFF PUSH1 0xA0 SHL NOT AND PUSH1 0x1 PUSH1 0xA0 SHL OR SWAP1 SSTORE POP JUMP JUMPDEST PUSH1 0x0 DUP2 DUP2 SLOAD DUP2 LT PUSH2 0x364 JUMPI PUSH1 0x0 DUP1 REVERT JUMPDEST PUSH1 0x0 SWAP2 DUP3 MSTORE PUSH1 0x20 SWAP1 SWAP2 KECCAK256 PUSH1 0x5 SWAP1 SWAP2 MUL ADD DUP1 SLOAD PUSH1 0x1 DUP3 ADD SLOAD PUSH1 0x2 DUP4 ADD SLOAD PUSH1 0x3 DUP5 ADD SLOAD PUSH1 0x4 SWAP1 SWAP5 ADD SLOAD PUSH1 0x1 PUSH1 0x1 PUSH1 0xA0 SHL SUB SWAP4 DUP5 AND SWAP6 POP SWAP2 SWAP4 SWAP1 DUP4 AND SWAP3 SWAP1 SWAP2 SWAP1 DUP2 AND SWAP1 PUSH1 0x1 PUSH1 0xA0 SHL SWAP1 DIV PUSH1 0xFF AND DUP7 JUMP JUMPDEST PUSH1 0x0 DUP1 PUSH1 0x0 DUP1 PUSH1 0x0 DUP1 PUSH1 0x0 DUP1 DUP9 DUP2 SLOAD DUP2 LT PUSH2 0x3CE JUMPI PUSH2 0x3CE PUSH2 0xAD6 JUMP JUMPDEST PUSH1 0x0 SWAP2 DUP3 MSTORE PUSH1 0x20 SWAP1 SWAP2 KECCAK256 PUSH1 0x5 SWAP1 SWAP2 MUL ADD DUP1 SLOAD PUSH1 0x1 DUP3 ADD SLOAD PUSH1 0x2 DUP4 ADD SLOAD PUSH1 0x3 DUP5 ADD SLOAD PUSH1 0x4 SWAP1 SWAP5 ADD SLOAD PUSH1 0x1 PUSH1 0x1 PUSH1 0xA0 SHL SUB SWAP4 DUP5 AND SWAP14 SWAP3 SWAP13 POP SWAP1 DUP4 AND SWAP11 POP SWAP3 SWAP9 POP SWAP1 DUP3 AND SWAP7 POP PUSH1 0x1 PUSH1 0xA0 SHL SWAP1 SWAP2 DIV PUSH1 0xFF AND SWAP5 POP SWAP3 POP POP POP JUMP JUMPDEST PUSH1 0x60 DUP1 PUSH1 0x60 DUP1 PUSH1 0x60 DUP1 PUSH1 0x0 DUP1 DUP1 SLOAD SWAP1 POP SWAP1 POP PUSH1 0x0 DUP2 PUSH8 0xFFFFFFFFFFFFFFFF DUP2 GT ISZERO PUSH2 0x451 JUMPI PUSH2 0x451 PUSH2 0xB15 JUMP JUMPDEST PUSH1 0x40 MLOAD SWAP1 DUP1 DUP3 MSTORE DUP1 PUSH1 0x20 MUL PUSH1 0x20 ADD DUP3 ADD PUSH1 0x40 MSTORE DUP1 ISZERO PUSH2 0x47A JUMPI DUP2 PUSH1 0x20 ADD PUSH1 0x20 DUP3 MUL DUP1 CALLDATASIZE DUP4 CALLDATACOPY ADD SWAP1 POP JUMPDEST POP SWAP1 POP PUSH1 0x0 DUP3 PUSH8 0xFFFFFFFFFFFFFFFF DUP2 GT ISZERO PUSH2 0x498 JUMPI PUSH2 0x498 PUSH2 0xB15 JUMP JUMPDEST PUSH1 0x40 MLOAD SWAP1 DUP1 DUP3 MSTORE DUP1 PUSH1 0x20 MUL PUSH1 0x20 ADD DUP3 ADD PUSH1 0x40 MSTORE DUP1 ISZERO PUSH2 0x4C1 JUMPI DUP2 PUSH1 0x20 ADD PUSH1 0x20 DUP3 MUL DUP1 CALLDATASIZE DUP4 CALLDATACOPY ADD SWAP1 POP JUMPDEST POP SWAP1 POP PUSH1 0x0 DUP4 PUSH8 0xFFFFFFFFFFFFFFFF DUP2 GT ISZERO PUSH2 0x4DF JUMPI PUSH2 0x4DF PUSH2 0xB15 JUMP JUMPDEST PUSH1 0x40 MLOAD SWAP1 DUP1 DUP3 MSTORE DUP1 PUSH1 0x20 MUL PUSH1 0x20 ADD DUP3 ADD PUSH1 0x40 MSTORE DUP1 ISZERO PUSH2 0x508 JUMPI DUP2 PUSH1 0x20 ADD PUSH1 0x20 DUP3 MUL DUP1 CALLDATASIZE DUP4 CALLDATACOPY ADD SWAP1 POP JUMPDEST POP SWAP1 POP PUSH1 0x0 DUP5 PUSH8 0xFFFFFFFFFFFFFFFF DUP2 GT ISZERO PUSH2 0x526 JUMPI PUSH2 0x526 PUSH2 0xB15 JUMP JUMPDEST PUSH1 0x40 MLOAD SWAP1 DUP1 DUP3 MSTORE DUP1 PUSH1 0x20 MUL PUSH1 0x20 ADD DUP3 ADD PUSH1 0x40 MSTORE DUP1 ISZERO PUSH2 0x54F JUMPI DUP2 PUSH1 0x20 ADD PUSH1 0x20 DUP3 MUL DUP1 CALLDATASIZE DUP4 CALLDATACOPY ADD SWAP1 POP JUMPDEST POP SWAP1 POP PUSH1 0x0 DUP6 PUSH8 0xFFFFFFFFFFFFFFFF DUP2 GT ISZERO PUSH2 0x56D JUMPI PUSH2 0x56D PUSH2 0xB15 JUMP JUMPDEST PUSH1 0x40 MLOAD SWAP1 DUP1 DUP3 MSTORE DUP1 PUSH1 0x20 MUL PUSH1 0x20 ADD DUP3 ADD PUSH1 0x40 MSTORE DUP1 ISZERO PUSH2 0x596 JUMPI DUP2 PUSH1 0x20 ADD PUSH1 0x20 DUP3 MUL DUP1 CALLDATASIZE DUP4 CALLDATACOPY ADD SWAP1 POP JUMPDEST POP SWAP1 POP PUSH1 0x0 DUP7 PUSH8 0xFFFFFFFFFFFFFFFF DUP2 GT ISZERO PUSH2 0x5B4 JUMPI PUSH2 0x5B4 PUSH2 0xB15 JUMP JUMPDEST PUSH1 0x40 MLOAD SWAP1 DUP1 DUP3 MSTORE DUP1 PUSH1 0x20 MUL PUSH1 0x20 ADD DUP3 ADD PUSH1 0x40 MSTORE DUP1 ISZERO PUSH2 0x5DD JUMPI DUP2 PUSH1 0x20 ADD PUSH1 0x20 DUP3 MUL DUP1 CALLDATASIZE DUP4 CALLDATACOPY ADD SWAP1 POP JUMPDEST POP SWAP1 POP PUSH1 0x0 JUMPDEST DUP8 DUP2 LT ISZERO PUSH2 0x793 JUMPI PUSH1 0x0 DUP1 DUP3 DUP2 SLOAD DUP2 LT PUSH2 0x5FF JUMPI PUSH2 0x5FF PUSH2 0xAD6 JUMP JUMPDEST PUSH1 0x0 SWAP2 DUP3 MSTORE PUSH1 0x20 SWAP2 DUP3 SWAP1 KECCAK256 PUSH1 0x40 DUP1 MLOAD PUSH1 0xC0 DUP2 ADD DUP3 MSTORE PUSH1 0x5 SWAP1 SWAP4 MUL SWAP1 SWAP2 ADD DUP1 SLOAD PUSH1 0x1 PUSH1 0x1 PUSH1 0xA0 SHL SUB SWAP1 DUP2 AND DUP1 DUP6 MSTORE PUSH1 0x1 DUP4 ADD SLOAD SWAP6 DUP6 ADD SWAP6 SWAP1 SWAP6 MSTORE PUSH1 0x2 DUP3 ADD SLOAD DUP2 AND SWAP3 DUP5 ADD SWAP3 SWAP1 SWAP3 MSTORE PUSH1 0x3 DUP2 ADD SLOAD PUSH1 0x60 DUP5 ADD MSTORE PUSH1 0x4 ADD SLOAD SWAP1 DUP2 AND PUSH1 0x80 DUP4 ADD MSTORE PUSH1 0xFF PUSH1 0x1 PUSH1 0xA0 SHL SWAP1 SWAP2 DIV AND ISZERO ISZERO PUSH1 0xA0 DUP3 ADD MSTORE DUP10 MLOAD SWAP1 SWAP3 POP DUP10 SWAP1 DUP5 SWAP1 DUP2 LT PUSH2 0x685 JUMPI PUSH2 0x685 PUSH2 0xAD6 JUMP JUMPDEST PUSH1 0x20 MUL PUSH1 0x20 ADD ADD SWAP1 PUSH1 0x1 PUSH1 0x1 PUSH1 0xA0 SHL SUB AND SWAP1 DUP2 PUSH1 0x1 PUSH1 0x1 PUSH1 0xA0 SHL SUB AND DUP2 MSTORE POP POP DUP1 PUSH1 0x20 ADD MLOAD DUP8 DUP4 DUP2 MLOAD DUP2 LT PUSH2 0x6BC JUMPI PUSH2 0x6BC PUSH2 0xAD6 JUMP JUMPDEST PUSH1 0x20 MUL PUSH1 0x20 ADD ADD DUP2 DUP2 MSTORE POP POP DUP1 PUSH1 0x40 ADD MLOAD DUP7 DUP4 DUP2 MLOAD DUP2 LT PUSH2 0x6DF JUMPI PUSH2 0x6DF PUSH2 0xAD6 JUMP JUMPDEST PUSH1 0x20 MUL PUSH1 0x20 ADD ADD SWAP1 PUSH1 0x1 PUSH1 0x1 PUSH1 0xA0 SHL SUB AND SWAP1 DUP2 PUSH1 0x1 PUSH1 0x1 PUSH1 0xA0 SHL SUB AND DUP2 MSTORE POP POP DUP1 PUSH1 0x60 ADD MLOAD DUP6 DUP4 DUP2 MLOAD DUP2 LT PUSH2 0x716 JUMPI PUSH2 0x716 PUSH2 0xAD6 JUMP JUMPDEST PUSH1 0x20 MUL PUSH1 0x20 ADD ADD DUP2 DUP2 MSTORE POP POP DUP1 PUSH1 0x80 ADD MLOAD DUP5 DUP4 DUP2 MLOAD DUP2 LT PUSH2 0x739 JUMPI PUSH2 0x739 PUSH2 0xAD6 JUMP JUMPDEST PUSH1 0x20 MUL PUSH1 0x20 ADD ADD SWAP1 PUSH1 0x1 PUSH1 0x1 PUSH1 0xA0 SHL SUB AND SWAP1 DUP2 PUSH1 0x1 PUSH1 0x1 PUSH1 0xA0 SHL SUB AND DUP2 MSTORE POP POP DUP1 PUSH1 0xA0 ADD MLOAD DUP4 DUP4 DUP2 MLOAD DUP2 LT PUSH2 0x770 JUMPI PUSH2 0x770 PUSH2 0xAD6 JUMP JUMPDEST SWAP2 ISZERO ISZERO PUSH1 0x20 SWAP3 DUP4 MUL SWAP2 SWAP1 SWAP2 ADD SWAP1 SWAP2 ADD MSTORE POP DUP1 PUSH2 0x78B DUP2 PUSH2 0xB41 JUMP JUMPDEST SWAP2 POP POP PUSH2 0x5E3 JUMP JUMPDEST POP SWAP5 SWAP13 SWAP4 SWAP12 POP SWAP2 SWAP10 POP SWAP8 POP SWAP6 POP SWAP1 SWAP4 POP SWAP2 POP POP JUMP JUMPDEST PUSH1 0x40 DUP1 MLOAD PUSH1 0xC0 DUP2 ADD DUP3 MSTORE PUSH1 0x1 PUSH1 0x1 PUSH1 0xA0 SHL SUB DUP1 DUP8 AND DUP3 MSTORE PUSH1 0x20 DUP3 ADD DUP7 DUP2 MSTORE DUP6 DUP3 AND SWAP4 DUP4 ADD SWAP4 DUP5 MSTORE PUSH1 0x60 DUP4 ADD DUP6 DUP2 MSTORE CALLER PUSH1 0x80 DUP6 ADD SWAP1 DUP2 MSTORE PUSH1 0x0 PUSH1 0xA0 DUP7 ADD DUP2 DUP2 MSTORE DUP2 SLOAD PUSH1 0x1 DUP2 DUP2 ADD DUP5 SSTORE DUP4 DUP1 MSTORE SWAP8 MLOAD PUSH1 0x5 SWAP1 SWAP2 MUL PUSH32 0x290DECD9548B62A8D60345A988386FC84BA6BC95484008F6362F93160EF3E563 DUP2 ADD DUP1 SLOAD SWAP3 DUP10 AND PUSH1 0x1 PUSH1 0x1 PUSH1 0xA0 SHL SUB NOT SWAP4 DUP5 AND OR SWAP1 SSTORE SWAP6 MLOAD PUSH32 0x290DECD9548B62A8D60345A988386FC84BA6BC95484008F6362F93160EF3E564 DUP8 ADD SSTORE SWAP8 MLOAD PUSH32 0x290DECD9548B62A8D60345A988386FC84BA6BC95484008F6362F93160EF3E565 DUP7 ADD DUP1 SLOAD SWAP2 DUP9 AND SWAP2 SWAP1 SWAP10 AND OR SWAP1 SWAP8 SSTORE SWAP2 MLOAD PUSH32 0x290DECD9548B62A8D60345A988386FC84BA6BC95484008F6362F93160EF3E566 DUP5 ADD SSTORE MLOAD PUSH32 0x290DECD9548B62A8D60345A988386FC84BA6BC95484008F6362F93160EF3E567 SWAP1 SWAP3 ADD DUP1 SLOAD SWAP6 MLOAD ISZERO ISZERO PUSH1 0x1 PUSH1 0xA0 SHL MUL PUSH1 0x1 PUSH1 0x1 PUSH1 0xA8 SHL SUB NOT SWAP1 SWAP7 AND SWAP3 SWAP1 SWAP4 AND SWAP2 SWAP1 SWAP2 OR SWAP4 SWAP1 SWAP4 OR SWAP1 SSTORE SWAP1 SLOAD PUSH2 0x906 SWAP2 SWAP1 PUSH2 0xB5A JUMP JUMPDEST PUSH1 0x40 MLOAD CALLER DUP2 MSTORE PUSH32 0x71CB61698242BDADD31B3DB5D7D28894A712A6B311E7CC08164207ED15E0D055 SWAP1 PUSH1 0x20 ADD PUSH1 0x40 MLOAD DUP1 SWAP2 SUB SWAP1 LOG2 POP POP POP POP JUMP JUMPDEST PUSH1 0x0 PUSH1 0x20 DUP3 DUP5 SUB SLT ISZERO PUSH2 0x951 JUMPI PUSH1 0x0 DUP1 REVERT JUMPDEST POP CALLDATALOAD SWAP2 SWAP1 POP JUMP JUMPDEST PUSH1 0x0 DUP2 MLOAD DUP1 DUP5 MSTORE PUSH1 0x20 DUP1 DUP6 ADD SWAP5 POP DUP1 DUP5 ADD PUSH1 0x0 JUMPDEST DUP4 DUP2 LT ISZERO PUSH2 0x991 JUMPI DUP2 MLOAD PUSH1 0x1 PUSH1 0x1 PUSH1 0xA0 SHL SUB AND DUP8 MSTORE SWAP6 DUP3 ADD SWAP6 SWAP1 DUP3 ADD SWAP1 PUSH1 0x1 ADD PUSH2 0x96C JUMP JUMPDEST POP SWAP5 SWAP6 SWAP5 POP POP POP POP POP JUMP JUMPDEST PUSH1 0x0 DUP2 MLOAD DUP1 DUP5 MSTORE PUSH1 0x20 DUP1 DUP6 ADD SWAP5 POP DUP1 DUP5 ADD PUSH1 0x0 JUMPDEST DUP4 DUP2 LT ISZERO PUSH2 0x991 JUMPI DUP2 MLOAD DUP8 MSTORE SWAP6 DUP3 ADD SWAP6 SWAP1 DUP3 ADD SWAP1 PUSH1 0x1 ADD PUSH2 0x9B0 JUMP JUMPDEST PUSH1 0xC0 DUP2 MSTORE PUSH1 0x0 PUSH2 0x9DF PUSH1 0xC0 DUP4 ADD DUP10 PUSH2 0x958 JUMP JUMPDEST PUSH1 0x20 DUP4 DUP3 SUB DUP2 DUP6 ADD MSTORE PUSH2 0x9F2 DUP3 DUP11 PUSH2 0x99C JUMP JUMPDEST SWAP2 POP DUP4 DUP3 SUB PUSH1 0x40 DUP6 ADD MSTORE PUSH2 0xA06 DUP3 DUP10 PUSH2 0x958 JUMP JUMPDEST SWAP2 POP DUP4 DUP3 SUB PUSH1 0x60 DUP6 ADD MSTORE PUSH2 0xA1A DUP3 DUP9 PUSH2 0x99C JUMP JUMPDEST SWAP2 POP DUP4 DUP3 SUB PUSH1 0x80 DUP6 ADD MSTORE PUSH2 0xA2E DUP3 DUP8 PUSH2 0x958 JUMP JUMPDEST DUP5 DUP2 SUB PUSH1 0xA0 DUP7 ADD MSTORE DUP6 MLOAD DUP1 DUP3 MSTORE DUP3 DUP8 ADD SWAP4 POP SWAP1 DUP3 ADD SWAP1 PUSH1 0x0 JUMPDEST DUP2 DUP2 LT ISZERO PUSH2 0xA65 JUMPI DUP5 MLOAD ISZERO ISZERO DUP4 MSTORE SWAP4 DUP4 ADD SWAP4 SWAP2 DUP4 ADD SWAP2 PUSH1 0x1 ADD PUSH2 0xA47 JUMP JUMPDEST POP SWAP1 SWAP12 SWAP11 POP POP POP POP POP POP POP POP POP POP POP JUMP JUMPDEST DUP1 CALLDATALOAD PUSH1 0x1 PUSH1 0x1 PUSH1 0xA0 SHL SUB DUP2 AND DUP2 EQ PUSH2 0xA8D JUMPI PUSH1 0x0 DUP1 REVERT JUMPDEST SWAP2 SWAP1 POP JUMP JUMPDEST PUSH1 0x0 DUP1 PUSH1 0x0 DUP1 PUSH1 0x80 DUP6 DUP8 SUB SLT ISZERO PUSH2 0xAA8 JUMPI PUSH1 0x0 DUP1 REVERT JUMPDEST PUSH2 0xAB1 DUP6 PUSH2 0xA76 JUMP JUMPDEST SWAP4 POP PUSH1 0x20 DUP6 ADD CALLDATALOAD SWAP3 POP PUSH2 0xAC6 PUSH1 0x40 DUP7 ADD PUSH2 0xA76 JUMP JUMPDEST SWAP4 SWAP7 SWAP3 SWAP6 POP SWAP3 SWAP4 PUSH1 0x60 ADD CALLDATALOAD SWAP3 POP POP JUMP JUMPDEST PUSH4 0x4E487B71 PUSH1 0xE0 SHL PUSH1 0x0 MSTORE PUSH1 0x32 PUSH1 0x4 MSTORE PUSH1 0x24 PUSH1 0x0 REVERT JUMPDEST PUSH1 0x0 PUSH1 0x20 DUP3 DUP5 SUB SLT ISZERO PUSH2 0xAFE JUMPI PUSH1 0x0 DUP1 REVERT JUMPDEST DUP2 MLOAD DUP1 ISZERO ISZERO DUP2 EQ PUSH2 0xB0E JUMPI PUSH1 0x0 DUP1 REVERT JUMPDEST SWAP4 SWAP3 POP POP POP JUMP JUMPDEST PUSH4 0x4E487B71 PUSH1 0xE0 SHL PUSH1 0x0 MSTORE PUSH1 0x41 PUSH1 0x4 MSTORE PUSH1 0x24 PUSH1 0x0 REVERT JUMPDEST PUSH4 0x4E487B71 PUSH1 0xE0 SHL PUSH1 0x0 MSTORE PUSH1 0x11 PUSH1 0x4 MSTORE PUSH1 0x24 PUSH1 0x0 REVERT JUMPDEST PUSH1 0x0 PUSH1 0x1 DUP3 ADD PUSH2 0xB53 JUMPI PUSH2 0xB53 PUSH2 0xB2B JUMP JUMPDEST POP PUSH1 0x1 ADD SWAP1 JUMP JUMPDEST DUP2 DUP2 SUB DUP2 DUP2 GT ISZERO PUSH2 0xB6D JUMPI PUSH2 0xB6D PUSH2 0xB2B JUMP JUMPDEST SWAP3 SWAP2 POP POP JUMP INVALID LOG2 PUSH5 0x6970667358 0x22 SLT KECCAK256 CODESIZE SLT MSTORE 0xDE NUMBER SWAP5 SMOD 0x4C 0xEF 0x23 NUMBER SUB DUP13 0xC PREVRANDAO 0xAA 0x27 SWAP15 0xAF PUSH24 0xA6DB28589E6072C8BAE7C72A64736F6C6343000814003300 "},"methodIdentifiers":{"createTrade(address,uint256,address,uint256)":"ef14c2b9","executeTrade(uint256)":"02d2838b","getAllTrades()":"ce99c0ce","getTrade(uint256)":"2db25e05","trades(uint256)":"1e6c598e"}}}}}