{"contracts/ReceiveArtCoin.sol":{"ReceiveArtCoinContract":{"abi":[{"inputs":[{"internalType":"string","name":"name","type":"string"},{"internalType":"string","name":"symbol","type":"string"},{"internalType":"uint256","name":"_initialSupply","type":"uint256"},{"internalType":"uint256","name":"_time","type":"uint256"},{"internalType":"address","name":"_tokenAddress","type":"address"}],"stateMutability":"nonpayable","type":"constructor"},{"inputs":[{"internalType":"address","name":"spender","type":"address"},{"internalType":"uint256","name":"allowance","type":"uint256"},{"internalType":"uint256","name":"needed","type":"uint256"}],"name":"ERC20InsufficientAllowance","type":"error"},{"inputs":[{"internalType":"address","name":"sender","type":"address"},{"internalType":"uint256","name":"balance","type":"uint256"},{"internalType":"uint256","name":"needed","type":"uint256"}],"name":"ERC20InsufficientBalance","type":"error"},{"inputs":[{"internalType":"address","name":"approver","type":"address"}],"name":"ERC20InvalidApprover","type":"error"},{"inputs":[{"internalType":"address","name":"receiver","type":"address"}],"name":"ERC20InvalidReceiver","type":"error"},{"inputs":[{"internalType":"address","name":"sender","type":"address"}],"name":"ERC20InvalidSender","type":"error"},{"inputs":[{"internalType":"address","name":"spender","type":"address"}],"name":"ERC20InvalidSpender","type":"error"},{"anonymous":false,"inputs":[{"indexed":true,"internalType":"address","name":"owner","type":"address"},{"indexed":true,"internalType":"address","name":"spender","type":"address"},{"indexed":false,"internalType":"uint256","name":"value","type":"uint256"}],"name":"Approval","type":"event"},{"anonymous":false,"inputs":[{"indexed":true,"internalType":"address","name":"_from","type":"address"},{"indexed":false,"internalType":"uint256","name":"_amount","type":"uint256"}],"name":"NewCoinsUpdated","type":"event"},{"anonymous":false,"inputs":[{"indexed":true,"internalType":"address","name":"from","type":"address"},{"indexed":true,"internalType":"address","name":"to","type":"address"},{"indexed":false,"internalType":"uint256","name":"value","type":"uint256"}],"name":"Transfer","type":"event"},{"inputs":[{"internalType":"address","name":"owner","type":"address"},{"internalType":"address","name":"spender","type":"address"}],"name":"allowance","outputs":[{"internalType":"uint256","name":"","type":"uint256"}],"stateMutability":"view","type":"function"},{"inputs":[{"internalType":"address","name":"spender","type":"address"},{"internalType":"uint256","name":"value","type":"uint256"}],"name":"approve","outputs":[{"internalType":"bool","name":"","type":"bool"}],"stateMutability":"nonpayable","type":"function"},{"inputs":[{"internalType":"address","name":"account","type":"address"}],"name":"balanceOf","outputs":[{"internalType":"uint256","name":"","type":"uint256"}],"stateMutability":"view","type":"function"},{"inputs":[{"internalType":"uint256","name":"burnAmount","type":"uint256"}],"name":"burnTokens","outputs":[],"stateMutability":"nonpayable","type":"function"},{"inputs":[],"name":"decimals","outputs":[{"internalType":"uint8","name":"","type":"uint8"}],"stateMutability":"view","type":"function"},{"inputs":[],"name":"distributeFund","outputs":[],"stateMutability":"nonpayable","type":"function"},{"inputs":[],"name":"finishTime","outputs":[{"internalType":"uint256","name":"","type":"uint256"}],"stateMutability":"view","type":"function"},{"inputs":[{"internalType":"address","name":"_from","type":"address"},{"internalType":"uint256","name":"_amount","type":"uint256"}],"name":"fundToken","outputs":[],"stateMutability":"nonpayable","type":"function"},{"inputs":[],"name":"fundingToken","outputs":[{"internalType":"contract IERC20","name":"","type":"address"}],"stateMutability":"view","type":"function"},{"inputs":[],"name":"initialSupply","outputs":[{"internalType":"uint256","name":"","type":"uint256"}],"stateMutability":"view","type":"function"},{"inputs":[{"internalType":"uint256","name":"","type":"uint256"}],"name":"listOfContributors","outputs":[{"internalType":"address","name":"","type":"address"}],"stateMutability":"view","type":"function"},{"inputs":[],"name":"mainWalletaddress","outputs":[{"internalType":"address","name":"","type":"address"}],"stateMutability":"view","type":"function"},{"inputs":[],"name":"name","outputs":[{"internalType":"string","name":"","type":"string"}],"stateMutability":"view","type":"function"},{"inputs":[{"internalType":"address","name":"","type":"address"}],"name":"newCoins","outputs":[{"internalType":"uint256","name":"","type":"uint256"}],"stateMutability":"view","type":"function"},{"inputs":[],"name":"owner","outputs":[{"internalType":"address","name":"","type":"address"}],"stateMutability":"view","type":"function"},{"inputs":[],"name":"raisedAmount","outputs":[{"internalType":"uint256","name":"","type":"uint256"}],"stateMutability":"view","type":"function"},{"inputs":[],"name":"refundDistribute","outputs":[],"stateMutability":"nonpayable","type":"function"},{"inputs":[{"internalType":"address","name":"","type":"address"}],"name":"refunds","outputs":[{"internalType":"uint256","name":"","type":"uint256"}],"stateMutability":"view","type":"function"},{"inputs":[],"name":"symbol","outputs":[{"internalType":"string","name":"","type":"string"}],"stateMutability":"view","type":"function"},{"inputs":[],"name":"totalSupply","outputs":[{"internalType":"uint256","name":"","type":"uint256"}],"stateMutability":"view","type":"function"},{"inputs":[{"internalType":"address","name":"to","type":"address"},{"internalType":"uint256","name":"value","type":"uint256"}],"name":"transfer","outputs":[{"internalType":"bool","name":"","type":"bool"}],"stateMutability":"nonpayable","type":"function"},{"inputs":[{"internalType":"address","name":"from","type":"address"},{"internalType":"address","name":"to","type":"address"},{"internalType":"uint256","name":"value","type":"uint256"}],"name":"transferFrom","outputs":[{"internalType":"bool","name":"","type":"bool"}],"stateMutability":"nonpayable","type":"function"},{"inputs":[{"internalType":"address","name":"to","type":"address"},{"internalType":"uint256","name":"amount","type":"uint256"}],"name":"transferToken","outputs":[],"stateMutability":"nonpayable","type":"function"},{"stateMutability":"payable","type":"receive"}],"evm":{"bytecode":{"linkReferences":{},"object":"60806040523480156200001157600080fd5b506040516200167838038062001678833981016040819052620000349162000347565b84848484838383828260036200004b838262000478565b5060046200005a828262000478565b50505080670de0b6b3a76400006200007391906200055a565b6005819055620000859033906200010d565b5050600880546001600160a01b03191633179055506000600955620000ac81603c6200055a565b620000b890426200057a565b600a555050600d80547367f07afad0f1528391a0cf8c5058370114b262d66001600160a01b031991821617909155600c80549091166001600160a01b0394909416939093179092555062000590945050505050565b6001600160a01b0382166200013d5760405163ec442f0560e01b8152600060048201526024015b60405180910390fd5b6200014b600083836200014f565b5050565b6001600160a01b0383166200017e5780600260008282546200017291906200057a565b90915550620001f29050565b6001600160a01b03831660009081526020819052604090205481811015620001d35760405163391434e360e21b81526001600160a01b0385166004820152602481018290526044810183905260640162000134565b6001600160a01b03841660009081526020819052604090209082900390555b6001600160a01b03821662000210576002805482900390556200022f565b6001600160a01b03821660009081526020819052604090208054820190555b816001600160a01b0316836001600160a01b03167fddf252ad1be2c89b69c2b068fc378daa952ba7f163c4a11628f55a4df523b3ef836040516200027591815260200190565b60405180910390a3505050565b634e487b7160e01b600052604160045260246000fd5b600082601f830112620002aa57600080fd5b81516001600160401b0380821115620002c757620002c762000282565b604051601f8301601f19908116603f01168101908282118183101715620002f257620002f262000282565b816040528381526020925086838588010111156200030f57600080fd5b600091505b8382101562000333578582018301518183018401529082019062000314565b600093810190920192909252949350505050565b600080600080600060a086880312156200036057600080fd5b85516001600160401b03808211156200037857600080fd5b6200038689838a0162000298565b965060208801519150808211156200039d57600080fd5b50620003ac8882890162000298565b6040880151606089015160808a0151929750909550935090506001600160a01b0381168114620003db57600080fd5b809150509295509295909350565b600181811c90821680620003fe57607f821691505b6020821081036200041f57634e487b7160e01b600052602260045260246000fd5b50919050565b601f8211156200047357600081815260208120601f850160051c810160208610156200044e5750805b601f850160051c820191505b818110156200046f578281556001016200045a565b5050505b505050565b81516001600160401b0381111562000494576200049462000282565b620004ac81620004a58454620003e9565b8462000425565b602080601f831160018114620004e45760008415620004cb5750858301515b600019600386901b1c1916600185901b1785556200046f565b600085815260208120601f198616915b828110156200051557888601518255948401946001909101908401620004f4565b5085821015620005345787850151600019600388901b60f8161c191681555b5050505050600190811b01905550565b634e487b7160e01b600052601160045260246000fd5b808202811582820484141762000574576200057462000544565b92915050565b8082018082111562000574576200057462000544565b6110d880620005a06000396000f3fe6080604052600436106101445760003560e01c806370a08231116100b6578063a9059cbb1161006f578063a9059cbb14610399578063bc3da535146103b9578063c59ee1dc146103e6578063d411b8b5146103fc578063dd62ed3e1461041c578063e3a6ac011461046257600080fd5b806370a08231146102b657806378065f27146102ec5780637ea12e79146103245780638da5cb5b1461034457806395d89b4114610364578063a1fa3bad1461037957600080fd5b8063244e575111610108578063244e57511461020c578063313ce56714610221578063378dc3dc1461023d5780635958611e1461025357806369cbbefe146102695780636d1b229d1461029657600080fd5b806306fdde0314610150578063095ea7b31461017b5780631072cbea146101ab57806318160ddd146101cd57806323b872dd146101ec57600080fd5b3661014b57005b600080fd5b34801561015c57600080fd5b50610165610477565b6040516101729190610e77565b60405180910390f35b34801561018757600080fd5b5061019b610196366004610ee1565b610509565b6040519015158152602001610172565b3480156101b757600080fd5b506101cb6101c6366004610ee1565b610523565b005b3480156101d957600080fd5b506002545b604051908152602001610172565b3480156101f857600080fd5b5061019b610207366004610f0b565b61053e565b34801561021857600080fd5b506101cb610562565b34801561022d57600080fd5b5060405160128152602001610172565b34801561024957600080fd5b506101de60055481565b34801561025f57600080fd5b506101de600a5481565b34801561027557600080fd5b506101de610284366004610f47565b60076020526000908152604090205481565b3480156102a257600080fd5b506101cb6102b1366004610f69565b6106d8565b3480156102c257600080fd5b506101de6102d1366004610f47565b6001600160a01b031660009081526020819052604090205490565b3480156102f857600080fd5b50600c5461030c906001600160a01b031681565b6040516001600160a01b039091168152602001610172565b34801561033057600080fd5b5061030c61033f366004610f69565b6106f3565b34801561035057600080fd5b5060085461030c906001600160a01b031681565b34801561037057600080fd5b5061016561071d565b34801561038557600080fd5b50600d5461030c906001600160a01b031681565b3480156103a557600080fd5b5061019b6103b4366004610ee1565b61072c565b3480156103c557600080fd5b506101de6103d4366004610f47565b60066020526000908152604090205481565b3480156103f257600080fd5b506101de60095481565b34801561040857600080fd5b506101cb610417366004610ee1565b61073a565b34801561042857600080fd5b506101de610437366004610f82565b6001600160a01b03918216600090815260016020908152604080832093909416825291909152205490565b34801561046e57600080fd5b506101cb610a12565b60606003805461048690610fb5565b80601f01602080910402602001604051908101604052809291908181526020018280546104b290610fb5565b80156104ff5780601f106104d4576101008083540402835291602001916104ff565b820191906000526020600020905b8154815290600101906020018083116104e257829003601f168201915b5050505050905090565b600033610517818585610b54565b60019150505b92915050565b610539826103b483670de0b6b3a7640000611005565b505050565b60003361054c858285610b61565b610557858585610bdf565b506001949350505050565b6008546001600160a01b031633146105b15760405162461bcd60e51b815260206004820152600d60248201526c36bab9ba1031329037bbb732b960991b60448201526064015b60405180910390fd5b600a5442116105f25760405162461bcd60e51b815260206004820152600d60248201526c2737ba103a34b6b29027ab22a960991b60448201526064016105a8565b60058054610601906004611005565b61060b919061101c565b60095410156106475760405162461bcd60e51b81526020600482015260086024820152671b9bdd0819dbd85b60c21b60448201526064016105a8565b60005b600b548110156106d5576000600b82815481106106695761066961103e565b60009182526020808320909101546001600160a01b0316808352600790915260409091205490915080156106c0576001600160a01b038083166000908152600760205260408120556008546106c091168383610bdf565b505080806106cd90611054565b91505061064a565b50565b6106d5336106ee83670de0b6b3a7640000611005565b610c3e565b600b818154811061070357600080fd5b6000918252602090912001546001600160a01b0316905081565b60606004805461048690610fb5565b600033610517818585610bdf565b600a5442106107775760405162461bcd60e51b81526020600482015260096024820152682a34b6b29027bb32b960b91b60448201526064016105a8565b600081116107de5760405162461bcd60e51b815260206004820152602e60248201527f596f75206e65656420746f20646f6e617465206120706f73697469766520616d60448201526d6f756e74206f6620746f6b656e7360901b60648201526084016105a8565b6005546009546107ee908361106d565b11156108355760405162461bcd60e51b81526020600482015260166024820152754578636565647320696e697469616c20737570706c7960501b60448201526064016105a8565b600c54600d546040516323b872dd60e01b81526001600160a01b03858116600483015291821660248201526044810184905260009291909116906323b872dd906064016020604051808303816000875af1158015610897573d6000803e3d6000fd5b505050506040513d601f19601f820116820180604052508101906108bb9190611080565b9050806109025760405162461bcd60e51b8152602060048201526015602482015274151bdad95b881d1c985b9cd9995c8819985a5b1959605a1b60448201526064016105a8565b8160096000828254610914919061106d565b90915550506001600160a01b0383166000908152600760205260408120805484929061094190849061106d565b90915550506001600160a01b0383166000908152600e602052604090205460ff166109ca57600b805460018082019092557f0175b7a638427703f0dbe7bb9bbf987a2551717b34e79f33b5b1008d1fa01db90180546001600160a01b0319166001600160a01b0386169081179091556000908152600e60205260409020805460ff191690911790555b826001600160a01b03167fd37abe1e85060e55cb236652dcf2008106e4892d0c749839671c26448a8eeb0683604051610a0591815260200190565b60405180910390a2505050565b60058054610a21906004611005565b610a2b919061101c565b60095410610a6d5760405162461bcd60e51b815260206004820152600f60248201526e1c18129034b9903737ba1037bb32b960891b60448201526064016105a8565b600a544211610aa95760405162461bcd60e51b81526020600482015260086024820152672737ba1037bb32b960c11b60448201526064016105a8565b60005b600b548110156106d5576000600b8281548110610acb57610acb61103e565b60009182526020808320909101546001600160a01b031680835260069091526040909120549091508015610b3f576001600160a01b0382166000818152600660205260408082208290555183156108fc0291849190818181858888f19350505050158015610b3d573d6000803e3d6000fd5b505b50508080610b4c90611054565b915050610aac565b6105398383836001610c78565b6001600160a01b038381166000908152600160209081526040808320938616835292905220546000198114610bd95781811015610bca57604051637dc7a0d960e11b81526001600160a01b038416600482015260248101829052604481018390526064016105a8565b610bd984848484036000610c78565b50505050565b6001600160a01b038316610c0957604051634b637e8f60e11b8152600060048201526024016105a8565b6001600160a01b038216610c335760405163ec442f0560e01b8152600060048201526024016105a8565b610539838383610d4d565b6001600160a01b038216610c6857604051634b637e8f60e11b8152600060048201526024016105a8565b610c7482600083610d4d565b5050565b6001600160a01b038416610ca25760405163e602df0560e01b8152600060048201526024016105a8565b6001600160a01b038316610ccc57604051634a1406b160e11b8152600060048201526024016105a8565b6001600160a01b0380851660009081526001602090815260408083209387168352929052208290558015610bd957826001600160a01b0316846001600160a01b03167f8c5be1e5ebec7d5bd14f71427d1e84f3dd0314c0f7b2291e5b200ac8c7c3b92584604051610d3f91815260200190565b60405180910390a350505050565b6001600160a01b038316610d78578060026000828254610d6d919061106d565b90915550610dea9050565b6001600160a01b03831660009081526020819052604090205481811015610dcb5760405163391434e360e21b81526001600160a01b038516600482015260248101829052604481018390526064016105a8565b6001600160a01b03841660009081526020819052604090209082900390555b6001600160a01b038216610e0657600280548290039055610e25565b6001600160a01b03821660009081526020819052604090208054820190555b816001600160a01b0316836001600160a01b03167fddf252ad1be2c89b69c2b068fc378daa952ba7f163c4a11628f55a4df523b3ef83604051610e6a91815260200190565b60405180910390a3505050565b600060208083528351808285015260005b81811015610ea457858101830151858201604001528201610e88565b506000604082860101526040601f19601f8301168501019250505092915050565b80356001600160a01b0381168114610edc57600080fd5b919050565b60008060408385031215610ef457600080fd5b610efd83610ec5565b946020939093013593505050565b600080600060608486031215610f2057600080fd5b610f2984610ec5565b9250610f3760208501610ec5565b9150604084013590509250925092565b600060208284031215610f5957600080fd5b610f6282610ec5565b9392505050565b600060208284031215610f7b57600080fd5b5035919050565b60008060408385031215610f9557600080fd5b610f9e83610ec5565b9150610fac60208401610ec5565b90509250929050565b600181811c90821680610fc957607f821691505b602082108103610fe957634e487b7160e01b600052602260045260246000fd5b50919050565b634e487b7160e01b600052601160045260246000fd5b808202811582820484141761051d5761051d610fef565b60008261103957634e487b7160e01b600052601260045260246000fd5b500490565b634e487b7160e01b600052603260045260246000fd5b60006001820161106657611066610fef565b5060010190565b8082018082111561051d5761051d610fef565b60006020828403121561109257600080fd5b81518015158114610f6257600080fdfea264697066735822122040e425db547e2f98dead79ad09838ced80d206d95b1655821755fcbecee0d2af64736f6c63430008140033","opcodes":"PUSH1 0x80 PUSH1 0x40 MSTORE CALLVALUE DUP1 ISZERO PUSH3 0x11 JUMPI PUSH1 0x0 DUP1 REVERT JUMPDEST POP PUSH1 0x40 MLOAD PUSH3 0x1678 CODESIZE SUB DUP1 PUSH3 0x1678 DUP4 CODECOPY DUP2 ADD PUSH1 0x40 DUP2 SWAP1 MSTORE PUSH3 0x34 SWAP2 PUSH3 0x347 JUMP JUMPDEST DUP5 DUP5 DUP5 DUP5 DUP4 DUP4 DUP4 DUP3 DUP3 PUSH1 0x3 PUSH3 0x4B DUP4 DUP3 PUSH3 0x478 JUMP JUMPDEST POP PUSH1 0x4 PUSH3 0x5A DUP3 DUP3 PUSH3 0x478 JUMP JUMPDEST POP POP POP DUP1 PUSH8 0xDE0B6B3A7640000 PUSH3 0x73 SWAP2 SWAP1 PUSH3 0x55A JUMP JUMPDEST PUSH1 0x5 DUP2 SWAP1 SSTORE PUSH3 0x85 SWAP1 CALLER SWAP1 PUSH3 0x10D JUMP JUMPDEST POP POP PUSH1 0x8 DUP1 SLOAD PUSH1 0x1 PUSH1 0x1 PUSH1 0xA0 SHL SUB NOT AND CALLER OR SWAP1 SSTORE POP PUSH1 0x0 PUSH1 0x9 SSTORE PUSH3 0xAC DUP2 PUSH1 0x3C PUSH3 0x55A JUMP JUMPDEST PUSH3 0xB8 SWAP1 TIMESTAMP PUSH3 0x57A JUMP JUMPDEST PUSH1 0xA SSTORE POP POP PUSH1 0xD DUP1 SLOAD PUSH20 0x67F07AFAD0F1528391A0CF8C5058370114B262D6 PUSH1 0x1 PUSH1 0x1 PUSH1 0xA0 SHL SUB NOT SWAP2 DUP3 AND OR SWAP1 SWAP2 SSTORE PUSH1 0xC DUP1 SLOAD SWAP1 SWAP2 AND PUSH1 0x1 PUSH1 0x1 PUSH1 0xA0 SHL SUB SWAP5 SWAP1 SWAP5 AND SWAP4 SWAP1 SWAP4 OR SWAP1 SWAP3 SSTORE POP PUSH3 0x590 SWAP5 POP POP POP POP POP JUMP JUMPDEST PUSH1 0x1 PUSH1 0x1 PUSH1 0xA0 SHL SUB DUP3 AND PUSH3 0x13D JUMPI PUSH1 0x40 MLOAD PUSH4 0xEC442F05 PUSH1 0xE0 SHL DUP2 MSTORE PUSH1 0x0 PUSH1 0x4 DUP3 ADD MSTORE PUSH1 0x24 ADD JUMPDEST PUSH1 0x40 MLOAD DUP1 SWAP2 SUB SWAP1 REVERT JUMPDEST PUSH3 0x14B PUSH1 0x0 DUP4 DUP4 PUSH3 0x14F JUMP JUMPDEST POP POP JUMP JUMPDEST PUSH1 0x1 PUSH1 0x1 PUSH1 0xA0 SHL SUB DUP4 AND PUSH3 0x17E JUMPI DUP1 PUSH1 0x2 PUSH1 0x0 DUP3 DUP3 SLOAD PUSH3 0x172 SWAP2 SWAP1 PUSH3 0x57A JUMP JUMPDEST SWAP1 SWAP2 SSTORE POP PUSH3 0x1F2 SWAP1 POP JUMP JUMPDEST PUSH1 0x1 PUSH1 0x1 PUSH1 0xA0 SHL SUB DUP4 AND PUSH1 0x0 SWAP1 DUP2 MSTORE PUSH1 0x20 DUP2 SWAP1 MSTORE PUSH1 0x40 SWAP1 KECCAK256 SLOAD DUP2 DUP2 LT ISZERO PUSH3 0x1D3 JUMPI PUSH1 0x40 MLOAD PUSH4 0x391434E3 PUSH1 0xE2 SHL DUP2 MSTORE PUSH1 0x1 PUSH1 0x1 PUSH1 0xA0 SHL SUB DUP6 AND PUSH1 0x4 DUP3 ADD MSTORE PUSH1 0x24 DUP2 ADD DUP3 SWAP1 MSTORE PUSH1 0x44 DUP2 ADD DUP4 SWAP1 MSTORE PUSH1 0x64 ADD PUSH3 0x134 JUMP JUMPDEST PUSH1 0x1 PUSH1 0x1 PUSH1 0xA0 SHL SUB DUP5 AND PUSH1 0x0 SWAP1 DUP2 MSTORE PUSH1 0x20 DUP2 SWAP1 MSTORE PUSH1 0x40 SWAP1 KECCAK256 SWAP1 DUP3 SWAP1 SUB SWAP1 SSTORE JUMPDEST PUSH1 0x1 PUSH1 0x1 PUSH1 0xA0 SHL SUB DUP3 AND PUSH3 0x210 JUMPI PUSH1 0x2 DUP1 SLOAD DUP3 SWAP1 SUB SWAP1 SSTORE PUSH3 0x22F JUMP JUMPDEST PUSH1 0x1 PUSH1 0x1 PUSH1 0xA0 SHL SUB DUP3 AND PUSH1 0x0 SWAP1 DUP2 MSTORE PUSH1 0x20 DUP2 SWAP1 MSTORE PUSH1 0x40 SWAP1 KECCAK256 DUP1 SLOAD DUP3 ADD SWAP1 SSTORE JUMPDEST DUP2 PUSH1 0x1 PUSH1 0x1 PUSH1 0xA0 SHL SUB AND DUP4 PUSH1 0x1 PUSH1 0x1 PUSH1 0xA0 SHL SUB AND PUSH32 0xDDF252AD1BE2C89B69C2B068FC378DAA952BA7F163C4A11628F55A4DF523B3EF DUP4 PUSH1 0x40 MLOAD PUSH3 0x275 SWAP2 DUP2 MSTORE PUSH1 0x20 ADD SWAP1 JUMP JUMPDEST PUSH1 0x40 MLOAD DUP1 SWAP2 SUB SWAP1 LOG3 POP POP POP JUMP JUMPDEST PUSH4 0x4E487B71 PUSH1 0xE0 SHL PUSH1 0x0 MSTORE PUSH1 0x41 PUSH1 0x4 MSTORE PUSH1 0x24 PUSH1 0x0 REVERT JUMPDEST PUSH1 0x0 DUP3 PUSH1 0x1F DUP4 ADD SLT PUSH3 0x2AA JUMPI PUSH1 0x0 DUP1 REVERT JUMPDEST DUP2 MLOAD PUSH1 0x1 PUSH1 0x1 PUSH1 0x40 SHL SUB DUP1 DUP3 GT ISZERO PUSH3 0x2C7 JUMPI PUSH3 0x2C7 PUSH3 0x282 JUMP JUMPDEST PUSH1 0x40 MLOAD PUSH1 0x1F DUP4 ADD PUSH1 0x1F NOT SWAP1 DUP2 AND PUSH1 0x3F ADD AND DUP2 ADD SWAP1 DUP3 DUP3 GT DUP2 DUP4 LT OR ISZERO PUSH3 0x2F2 JUMPI PUSH3 0x2F2 PUSH3 0x282 JUMP JUMPDEST DUP2 PUSH1 0x40 MSTORE DUP4 DUP2 MSTORE PUSH1 0x20 SWAP3 POP DUP7 DUP4 DUP6 DUP9 ADD ADD GT ISZERO PUSH3 0x30F JUMPI PUSH1 0x0 DUP1 REVERT JUMPDEST PUSH1 0x0 SWAP2 POP JUMPDEST DUP4 DUP3 LT ISZERO PUSH3 0x333 JUMPI DUP6 DUP3 ADD DUP4 ADD MLOAD DUP2 DUP4 ADD DUP5 ADD MSTORE SWAP1 DUP3 ADD SWAP1 PUSH3 0x314 JUMP JUMPDEST PUSH1 0x0 SWAP4 DUP2 ADD SWAP1 SWAP3 ADD SWAP3 SWAP1 SWAP3 MSTORE SWAP5 SWAP4 POP POP POP POP JUMP JUMPDEST PUSH1 0x0 DUP1 PUSH1 0x0 DUP1 PUSH1 0x0 PUSH1 0xA0 DUP7 DUP9 SUB SLT ISZERO PUSH3 0x360 JUMPI PUSH1 0x0 DUP1 REVERT JUMPDEST DUP6 MLOAD PUSH1 0x1 PUSH1 0x1 PUSH1 0x40 SHL SUB DUP1 DUP3 GT ISZERO PUSH3 0x378 JUMPI PUSH1 0x0 DUP1 REVERT JUMPDEST PUSH3 0x386 DUP10 DUP4 DUP11 ADD PUSH3 0x298 JUMP JUMPDEST SWAP7 POP PUSH1 0x20 DUP9 ADD MLOAD SWAP2 POP DUP1 DUP3 GT ISZERO PUSH3 0x39D JUMPI PUSH1 0x0 DUP1 REVERT JUMPDEST POP PUSH3 0x3AC DUP9 DUP3 DUP10 ADD PUSH3 0x298 JUMP JUMPDEST PUSH1 0x40 DUP9 ADD MLOAD PUSH1 0x60 DUP10 ADD MLOAD PUSH1 0x80 DUP11 ADD MLOAD SWAP3 SWAP8 POP SWAP1 SWAP6 POP SWAP4 POP SWAP1 POP PUSH1 0x1 PUSH1 0x1 PUSH1 0xA0 SHL SUB DUP2 AND DUP2 EQ PUSH3 0x3DB JUMPI PUSH1 0x0 DUP1 REVERT JUMPDEST DUP1 SWAP2 POP POP SWAP3 SWAP6 POP SWAP3 SWAP6 SWAP1 SWAP4 POP JUMP JUMPDEST PUSH1 0x1 DUP2 DUP2 SHR SWAP1 DUP3 AND DUP1 PUSH3 0x3FE JUMPI PUSH1 0x7F DUP3 AND SWAP2 POP JUMPDEST PUSH1 0x20 DUP3 LT DUP2 SUB PUSH3 0x41F JUMPI PUSH4 0x4E487B71 PUSH1 0xE0 SHL PUSH1 0x0 MSTORE PUSH1 0x22 PUSH1 0x4 MSTORE PUSH1 0x24 PUSH1 0x0 REVERT JUMPDEST POP SWAP2 SWAP1 POP JUMP JUMPDEST PUSH1 0x1F DUP3 GT ISZERO PUSH3 0x473 JUMPI PUSH1 0x0 DUP2 DUP2 MSTORE PUSH1 0x20 DUP2 KECCAK256 PUSH1 0x1F DUP6 ADD PUSH1 0x5 SHR DUP2 ADD PUSH1 0x20 DUP7 LT ISZERO PUSH3 0x44E JUMPI POP DUP1 JUMPDEST PUSH1 0x1F DUP6 ADD PUSH1 0x5 SHR DUP3 ADD SWAP2 POP JUMPDEST DUP2 DUP2 LT ISZERO PUSH3 0x46F JUMPI DUP3 DUP2 SSTORE PUSH1 0x1 ADD PUSH3 0x45A JUMP JUMPDEST POP POP POP JUMPDEST POP POP POP JUMP JUMPDEST DUP2 MLOAD PUSH1 0x1 PUSH1 0x1 PUSH1 0x40 SHL SUB DUP2 GT ISZERO PUSH3 0x494 JUMPI PUSH3 0x494 PUSH3 0x282 JUMP JUMPDEST PUSH3 0x4AC DUP2 PUSH3 0x4A5 DUP5 SLOAD PUSH3 0x3E9 JUMP JUMPDEST DUP5 PUSH3 0x425 JUMP JUMPDEST PUSH1 0x20 DUP1 PUSH1 0x1F DUP4 GT PUSH1 0x1 DUP2 EQ PUSH3 0x4E4 JUMPI PUSH1 0x0 DUP5 ISZERO PUSH3 0x4CB JUMPI POP DUP6 DUP4 ADD MLOAD JUMPDEST PUSH1 0x0 NOT PUSH1 0x3 DUP7 SWAP1 SHL SHR NOT AND PUSH1 0x1 DUP6 SWAP1 SHL OR DUP6 SSTORE PUSH3 0x46F JUMP JUMPDEST PUSH1 0x0 DUP6 DUP2 MSTORE PUSH1 0x20 DUP2 KECCAK256 PUSH1 0x1F NOT DUP7 AND SWAP2 JUMPDEST DUP3 DUP2 LT ISZERO PUSH3 0x515 JUMPI DUP9 DUP7 ADD MLOAD DUP3 SSTORE SWAP5 DUP5 ADD SWAP5 PUSH1 0x1 SWAP1 SWAP2 ADD SWAP1 DUP5 ADD PUSH3 0x4F4 JUMP JUMPDEST POP DUP6 DUP3 LT ISZERO PUSH3 0x534 JUMPI DUP8 DUP6 ADD MLOAD PUSH1 0x0 NOT PUSH1 0x3 DUP9 SWAP1 SHL PUSH1 0xF8 AND SHR NOT AND DUP2 SSTORE JUMPDEST POP POP POP POP POP PUSH1 0x1 SWAP1 DUP2 SHL ADD SWAP1 SSTORE POP JUMP JUMPDEST PUSH4 0x4E487B71 PUSH1 0xE0 SHL PUSH1 0x0 MSTORE PUSH1 0x11 PUSH1 0x4 MSTORE PUSH1 0x24 PUSH1 0x0 REVERT JUMPDEST DUP1 DUP3 MUL DUP2 ISZERO DUP3 DUP3 DIV DUP5 EQ OR PUSH3 0x574 JUMPI PUSH3 0x574 PUSH3 0x544 JUMP JUMPDEST SWAP3 SWAP2 POP POP JUMP JUMPDEST DUP1 DUP3 ADD DUP1 DUP3 GT ISZERO PUSH3 0x574 JUMPI PUSH3 0x574 PUSH3 0x544 JUMP JUMPDEST PUSH2 0x10D8 DUP1 PUSH3 0x5A0 PUSH1 0x0 CODECOPY PUSH1 0x0 RETURN INVALID PUSH1 0x80 PUSH1 0x40 MSTORE PUSH1 0x4 CALLDATASIZE LT PUSH2 0x144 JUMPI PUSH1 0x0 CALLDATALOAD PUSH1 0xE0 SHR DUP1 PUSH4 0x70A08231 GT PUSH2 0xB6 JUMPI DUP1 PUSH4 0xA9059CBB GT PUSH2 0x6F JUMPI DUP1 PUSH4 0xA9059CBB EQ PUSH2 0x399 JUMPI DUP1 PUSH4 0xBC3DA535 EQ PUSH2 0x3B9 JUMPI DUP1 PUSH4 0xC59EE1DC EQ PUSH2 0x3E6 JUMPI DUP1 PUSH4 0xD411B8B5 EQ PUSH2 0x3FC JUMPI DUP1 PUSH4 0xDD62ED3E EQ PUSH2 0x41C JUMPI DUP1 PUSH4 0xE3A6AC01 EQ PUSH2 0x462 JUMPI PUSH1 0x0 DUP1 REVERT JUMPDEST DUP1 PUSH4 0x70A08231 EQ PUSH2 0x2B6 JUMPI DUP1 PUSH4 0x78065F27 EQ PUSH2 0x2EC JUMPI DUP1 PUSH4 0x7EA12E79 EQ PUSH2 0x324 JUMPI DUP1 PUSH4 0x8DA5CB5B EQ PUSH2 0x344 JUMPI DUP1 PUSH4 0x95D89B41 EQ PUSH2 0x364 JUMPI DUP1 PUSH4 0xA1FA3BAD EQ PUSH2 0x379 JUMPI PUSH1 0x0 DUP1 REVERT JUMPDEST DUP1 PUSH4 0x244E5751 GT PUSH2 0x108 JUMPI DUP1 PUSH4 0x244E5751 EQ PUSH2 0x20C JUMPI DUP1 PUSH4 0x313CE567 EQ PUSH2 0x221 JUMPI DUP1 PUSH4 0x378DC3DC EQ PUSH2 0x23D JUMPI DUP1 PUSH4 0x5958611E EQ PUSH2 0x253 JUMPI DUP1 PUSH4 0x69CBBEFE EQ PUSH2 0x269 JUMPI DUP1 PUSH4 0x6D1B229D EQ PUSH2 0x296 JUMPI PUSH1 0x0 DUP1 REVERT JUMPDEST DUP1 PUSH4 0x6FDDE03 EQ PUSH2 0x150 JUMPI DUP1 PUSH4 0x95EA7B3 EQ PUSH2 0x17B JUMPI DUP1 PUSH4 0x1072CBEA EQ PUSH2 0x1AB JUMPI DUP1 PUSH4 0x18160DDD EQ PUSH2 0x1CD JUMPI DUP1 PUSH4 0x23B872DD EQ PUSH2 0x1EC JUMPI PUSH1 0x0 DUP1 REVERT JUMPDEST CALLDATASIZE PUSH2 0x14B JUMPI STOP JUMPDEST PUSH1 0x0 DUP1 REVERT JUMPDEST CALLVALUE DUP1 ISZERO PUSH2 0x15C JUMPI PUSH1 0x0 DUP1 REVERT JUMPDEST POP PUSH2 0x165 PUSH2 0x477 JUMP JUMPDEST PUSH1 0x40 MLOAD PUSH2 0x172 SWAP2 SWAP1 PUSH2 0xE77 JUMP JUMPDEST PUSH1 0x40 MLOAD DUP1 SWAP2 SUB SWAP1 RETURN JUMPDEST CALLVALUE DUP1 ISZERO PUSH2 0x187 JUMPI PUSH1 0x0 DUP1 REVERT JUMPDEST POP PUSH2 0x19B PUSH2 0x196 CALLDATASIZE PUSH1 0x4 PUSH2 0xEE1 JUMP JUMPDEST PUSH2 0x509 JUMP JUMPDEST PUSH1 0x40 MLOAD SWAP1 ISZERO ISZERO DUP2 MSTORE PUSH1 0x20 ADD PUSH2 0x172 JUMP JUMPDEST CALLVALUE DUP1 ISZERO PUSH2 0x1B7 JUMPI PUSH1 0x0 DUP1 REVERT JUMPDEST POP PUSH2 0x1CB PUSH2 0x1C6 CALLDATASIZE PUSH1 0x4 PUSH2 0xEE1 JUMP JUMPDEST PUSH2 0x523 JUMP JUMPDEST STOP JUMPDEST CALLVALUE DUP1 ISZERO PUSH2 0x1D9 JUMPI PUSH1 0x0 DUP1 REVERT JUMPDEST POP PUSH1 0x2 SLOAD JUMPDEST PUSH1 0x40 MLOAD SWAP1 DUP2 MSTORE PUSH1 0x20 ADD PUSH2 0x172 JUMP JUMPDEST CALLVALUE DUP1 ISZERO PUSH2 0x1F8 JUMPI PUSH1 0x0 DUP1 REVERT JUMPDEST POP PUSH2 0x19B PUSH2 0x207 CALLDATASIZE PUSH1 0x4 PUSH2 0xF0B JUMP JUMPDEST PUSH2 0x53E JUMP JUMPDEST CALLVALUE DUP1 ISZERO PUSH2 0x218 JUMPI PUSH1 0x0 DUP1 REVERT JUMPDEST POP PUSH2 0x1CB PUSH2 0x562 JUMP JUMPDEST CALLVALUE DUP1 ISZERO PUSH2 0x22D JUMPI PUSH1 0x0 DUP1 REVERT JUMPDEST POP PUSH1 0x40 MLOAD PUSH1 0x12 DUP2 MSTORE PUSH1 0x20 ADD PUSH2 0x172 JUMP JUMPDEST CALLVALUE DUP1 ISZERO PUSH2 0x249 JUMPI PUSH1 0x0 DUP1 REVERT JUMPDEST POP PUSH2 0x1DE PUSH1 0x5 SLOAD DUP2 JUMP JUMPDEST CALLVALUE DUP1 ISZERO PUSH2 0x25F JUMPI PUSH1 0x0 DUP1 REVERT JUMPDEST POP PUSH2 0x1DE PUSH1 0xA SLOAD DUP2 JUMP JUMPDEST CALLVALUE DUP1 ISZERO PUSH2 0x275 JUMPI PUSH1 0x0 DUP1 REVERT JUMPDEST POP PUSH2 0x1DE PUSH2 0x284 CALLDATASIZE PUSH1 0x4 PUSH2 0xF47 JUMP JUMPDEST PUSH1 0x7 PUSH1 0x20 MSTORE PUSH1 0x0 SWAP1 DUP2 MSTORE PUSH1 0x40 SWAP1 KECCAK256 SLOAD DUP2 JUMP JUMPDEST CALLVALUE DUP1 ISZERO PUSH2 0x2A2 JUMPI PUSH1 0x0 DUP1 REVERT JUMPDEST POP PUSH2 0x1CB PUSH2 0x2B1 CALLDATASIZE PUSH1 0x4 PUSH2 0xF69 JUMP JUMPDEST PUSH2 0x6D8 JUMP JUMPDEST CALLVALUE DUP1 ISZERO PUSH2 0x2C2 JUMPI PUSH1 0x0 DUP1 REVERT JUMPDEST POP PUSH2 0x1DE PUSH2 0x2D1 CALLDATASIZE PUSH1 0x4 PUSH2 0xF47 JUMP JUMPDEST PUSH1 0x1 PUSH1 0x1 PUSH1 0xA0 SHL SUB AND PUSH1 0x0 SWAP1 DUP2 MSTORE PUSH1 0x20 DUP2 SWAP1 MSTORE PUSH1 0x40 SWAP1 KECCAK256 SLOAD SWAP1 JUMP JUMPDEST CALLVALUE DUP1 ISZERO PUSH2 0x2F8 JUMPI PUSH1 0x0 DUP1 REVERT JUMPDEST POP PUSH1 0xC SLOAD PUSH2 0x30C SWAP1 PUSH1 0x1 PUSH1 0x1 PUSH1 0xA0 SHL SUB AND DUP2 JUMP JUMPDEST PUSH1 0x40 MLOAD PUSH1 0x1 PUSH1 0x1 PUSH1 0xA0 SHL SUB SWAP1 SWAP2 AND DUP2 MSTORE PUSH1 0x20 ADD PUSH2 0x172 JUMP JUMPDEST CALLVALUE DUP1 ISZERO PUSH2 0x330 JUMPI PUSH1 0x0 DUP1 REVERT JUMPDEST POP PUSH2 0x30C PUSH2 0x33F CALLDATASIZE PUSH1 0x4 PUSH2 0xF69 JUMP JUMPDEST PUSH2 0x6F3 JUMP JUMPDEST CALLVALUE DUP1 ISZERO PUSH2 0x350 JUMPI PUSH1 0x0 DUP1 REVERT JUMPDEST POP PUSH1 0x8 SLOAD PUSH2 0x30C SWAP1 PUSH1 0x1 PUSH1 0x1 PUSH1 0xA0 SHL SUB AND DUP2 JUMP JUMPDEST CALLVALUE DUP1 ISZERO PUSH2 0x370 JUMPI PUSH1 0x0 DUP1 REVERT JUMPDEST POP PUSH2 0x165 PUSH2 0x71D JUMP JUMPDEST CALLVALUE DUP1 ISZERO PUSH2 0x385 JUMPI PUSH1 0x0 DUP1 REVERT JUMPDEST POP PUSH1 0xD SLOAD PUSH2 0x30C SWAP1 PUSH1 0x1 PUSH1 0x1 PUSH1 0xA0 SHL SUB AND DUP2 JUMP JUMPDEST CALLVALUE DUP1 ISZERO PUSH2 0x3A5 JUMPI PUSH1 0x0 DUP1 REVERT JUMPDEST POP PUSH2 0x19B PUSH2 0x3B4 CALLDATASIZE PUSH1 0x4 PUSH2 0xEE1 JUMP JUMPDEST PUSH2 0x72C JUMP JUMPDEST CALLVALUE DUP1 ISZERO PUSH2 0x3C5 JUMPI PUSH1 0x0 DUP1 REVERT JUMPDEST POP PUSH2 0x1DE PUSH2 0x3D4 CALLDATASIZE PUSH1 0x4 PUSH2 0xF47 JUMP JUMPDEST PUSH1 0x6 PUSH1 0x20 MSTORE PUSH1 0x0 SWAP1 DUP2 MSTORE PUSH1 0x40 SWAP1 KECCAK256 SLOAD DUP2 JUMP JUMPDEST CALLVALUE DUP1 ISZERO PUSH2 0x3F2 JUMPI PUSH1 0x0 DUP1 REVERT JUMPDEST POP PUSH2 0x1DE PUSH1 0x9 SLOAD DUP2 JUMP JUMPDEST CALLVALUE DUP1 ISZERO PUSH2 0x408 JUMPI PUSH1 0x0 DUP1 REVERT JUMPDEST POP PUSH2 0x1CB PUSH2 0x417 CALLDATASIZE PUSH1 0x4 PUSH2 0xEE1 JUMP JUMPDEST PUSH2 0x73A JUMP JUMPDEST CALLVALUE DUP1 ISZERO PUSH2 0x428 JUMPI PUSH1 0x0 DUP1 REVERT JUMPDEST POP PUSH2 0x1DE PUSH2 0x437 CALLDATASIZE PUSH1 0x4 PUSH2 0xF82 JUMP JUMPDEST PUSH1 0x1 PUSH1 0x1 PUSH1 0xA0 SHL SUB SWAP2 DUP3 AND PUSH1 0x0 SWAP1 DUP2 MSTORE PUSH1 0x1 PUSH1 0x20 SWAP1 DUP2 MSTORE PUSH1 0x40 DUP1 DUP4 KECCAK256 SWAP4 SWAP1 SWAP5 AND DUP3 MSTORE SWAP2 SWAP1 SWAP2 MSTORE KECCAK256 SLOAD SWAP1 JUMP JUMPDEST CALLVALUE DUP1 ISZERO PUSH2 0x46E JUMPI PUSH1 0x0 DUP1 REVERT JUMPDEST POP PUSH2 0x1CB PUSH2 0xA12 JUMP JUMPDEST PUSH1 0x60 PUSH1 0x3 DUP1 SLOAD PUSH2 0x486 SWAP1 PUSH2 0xFB5 JUMP JUMPDEST DUP1 PUSH1 0x1F ADD PUSH1 0x20 DUP1 SWAP2 DIV MUL PUSH1 0x20 ADD PUSH1 0x40 MLOAD SWAP1 DUP2 ADD PUSH1 0x40 MSTORE DUP1 SWAP3 SWAP2 SWAP1 DUP2 DUP2 MSTORE PUSH1 0x20 ADD DUP3 DUP1 SLOAD PUSH2 0x4B2 SWAP1 PUSH2 0xFB5 JUMP JUMPDEST DUP1 ISZERO PUSH2 0x4FF JUMPI DUP1 PUSH1 0x1F LT PUSH2 0x4D4 JUMPI PUSH2 0x100 DUP1 DUP4 SLOAD DIV MUL DUP4 MSTORE SWAP2 PUSH1 0x20 ADD SWAP2 PUSH2 0x4FF JUMP JUMPDEST DUP3 ADD SWAP2 SWAP1 PUSH1 0x0 MSTORE PUSH1 0x20 PUSH1 0x0 KECCAK256 SWAP1 JUMPDEST DUP2 SLOAD DUP2 MSTORE SWAP1 PUSH1 0x1 ADD SWAP1 PUSH1 0x20 ADD DUP1 DUP4 GT PUSH2 0x4E2 JUMPI DUP3 SWAP1 SUB PUSH1 0x1F AND DUP3 ADD SWAP2 JUMPDEST POP POP POP POP POP SWAP1 POP SWAP1 JUMP JUMPDEST PUSH1 0x0 CALLER PUSH2 0x517 DUP2 DUP6 DUP6 PUSH2 0xB54 JUMP JUMPDEST PUSH1 0x1 SWAP2 POP POP JUMPDEST SWAP3 SWAP2 POP POP JUMP JUMPDEST PUSH2 0x539 DUP3 PUSH2 0x3B4 DUP4 PUSH8 0xDE0B6B3A7640000 PUSH2 0x1005 JUMP JUMPDEST POP POP POP JUMP JUMPDEST PUSH1 0x0 CALLER PUSH2 0x54C DUP6 DUP3 DUP6 PUSH2 0xB61 JUMP JUMPDEST PUSH2 0x557 DUP6 DUP6 DUP6 PUSH2 0xBDF JUMP JUMPDEST POP PUSH1 0x1 SWAP5 SWAP4 POP POP POP POP JUMP JUMPDEST PUSH1 0x8 SLOAD PUSH1 0x1 PUSH1 0x1 PUSH1 0xA0 SHL SUB AND CALLER EQ PUSH2 0x5B1 JUMPI PUSH1 0x40 MLOAD PUSH3 0x461BCD PUSH1 0xE5 SHL DUP2 MSTORE PUSH1 0x20 PUSH1 0x4 DUP3 ADD MSTORE PUSH1 0xD PUSH1 0x24 DUP3 ADD MSTORE PUSH13 0x36BAB9BA1031329037BBB732B9 PUSH1 0x99 SHL PUSH1 0x44 DUP3 ADD MSTORE PUSH1 0x64 ADD JUMPDEST PUSH1 0x40 MLOAD DUP1 SWAP2 SUB SWAP1 REVERT JUMPDEST PUSH1 0xA SLOAD TIMESTAMP GT PUSH2 0x5F2 JUMPI PUSH1 0x40 MLOAD PUSH3 0x461BCD PUSH1 0xE5 SHL DUP2 MSTORE PUSH1 0x20 PUSH1 0x4 DUP3 ADD MSTORE PUSH1 0xD PUSH1 0x24 DUP3 ADD MSTORE PUSH13 0x2737BA103A34B6B29027AB22A9 PUSH1 0x99 SHL PUSH1 0x44 DUP3 ADD MSTORE PUSH1 0x64 ADD PUSH2 0x5A8 JUMP JUMPDEST PUSH1 0x5 DUP1 SLOAD PUSH2 0x601 SWAP1 PUSH1 0x4 PUSH2 0x1005 JUMP JUMPDEST PUSH2 0x60B SWAP2 SWAP1 PUSH2 0x101C JUMP JUMPDEST PUSH1 0x9 SLOAD LT ISZERO PUSH2 0x647 JUMPI PUSH1 0x40 MLOAD PUSH3 0x461BCD PUSH1 0xE5 SHL DUP2 MSTORE PUSH1 0x20 PUSH1 0x4 DUP3 ADD MSTORE PUSH1 0x8 PUSH1 0x24 DUP3 ADD MSTORE PUSH8 0x1B9BDD0819DBD85B PUSH1 0xC2 SHL PUSH1 0x44 DUP3 ADD MSTORE PUSH1 0x64 ADD PUSH2 0x5A8 JUMP JUMPDEST PUSH1 0x0 JUMPDEST PUSH1 0xB SLOAD DUP2 LT ISZERO PUSH2 0x6D5 JUMPI PUSH1 0x0 PUSH1 0xB DUP3 DUP2 SLOAD DUP2 LT PUSH2 0x669 JUMPI PUSH2 0x669 PUSH2 0x103E JUMP JUMPDEST PUSH1 0x0 SWAP2 DUP3 MSTORE PUSH1 0x20 DUP1 DUP4 KECCAK256 SWAP1 SWAP2 ADD SLOAD PUSH1 0x1 PUSH1 0x1 PUSH1 0xA0 SHL SUB AND DUP1 DUP4 MSTORE PUSH1 0x7 SWAP1 SWAP2 MSTORE PUSH1 0x40 SWAP1 SWAP2 KECCAK256 SLOAD SWAP1 SWAP2 POP DUP1 ISZERO PUSH2 0x6C0 JUMPI PUSH1 0x1 PUSH1 0x1 PUSH1 0xA0 SHL SUB DUP1 DUP4 AND PUSH1 0x0 SWAP1 DUP2 MSTORE PUSH1 0x7 PUSH1 0x20 MSTORE PUSH1 0x40 DUP2 KECCAK256 SSTORE PUSH1 0x8 SLOAD PUSH2 0x6C0 SWAP2 AND DUP4 DUP4 PUSH2 0xBDF JUMP JUMPDEST POP POP DUP1 DUP1 PUSH2 0x6CD SWAP1 PUSH2 0x1054 JUMP JUMPDEST SWAP2 POP POP PUSH2 0x64A JUMP JUMPDEST POP JUMP JUMPDEST PUSH2 0x6D5 CALLER PUSH2 0x6EE DUP4 PUSH8 0xDE0B6B3A7640000 PUSH2 0x1005 JUMP JUMPDEST PUSH2 0xC3E JUMP JUMPDEST PUSH1 0xB DUP2 DUP2 SLOAD DUP2 LT PUSH2 0x703 JUMPI PUSH1 0x0 DUP1 REVERT JUMPDEST PUSH1 0x0 SWAP2 DUP3 MSTORE PUSH1 0x20 SWAP1 SWAP2 KECCAK256 ADD SLOAD PUSH1 0x1 PUSH1 0x1 PUSH1 0xA0 SHL SUB AND SWAP1 POP DUP2 JUMP JUMPDEST PUSH1 0x60 PUSH1 0x4 DUP1 SLOAD PUSH2 0x486 SWAP1 PUSH2 0xFB5 JUMP JUMPDEST PUSH1 0x0 CALLER PUSH2 0x517 DUP2 DUP6 DUP6 PUSH2 0xBDF JUMP JUMPDEST PUSH1 0xA SLOAD TIMESTAMP LT PUSH2 0x777 JUMPI PUSH1 0x40 MLOAD PUSH3 0x461BCD PUSH1 0xE5 SHL DUP2 MSTORE PUSH1 0x20 PUSH1 0x4 DUP3 ADD MSTORE PUSH1 0x9 PUSH1 0x24 DUP3 ADD MSTORE PUSH9 0x2A34B6B29027BB32B9 PUSH1 0xB9 SHL PUSH1 0x44 DUP3 ADD MSTORE PUSH1 0x64 ADD PUSH2 0x5A8 JUMP JUMPDEST PUSH1 0x0 DUP2 GT PUSH2 0x7DE JUMPI PUSH1 0x40 MLOAD PUSH3 0x461BCD PUSH1 0xE5 SHL DUP2 MSTORE PUSH1 0x20 PUSH1 0x4 DUP3 ADD MSTORE PUSH1 0x2E PUSH1 0x24 DUP3 ADD MSTORE PUSH32 0x596F75206E65656420746F20646F6E617465206120706F73697469766520616D PUSH1 0x44 DUP3 ADD MSTORE PUSH14 0x6F756E74206F6620746F6B656E73 PUSH1 0x90 SHL PUSH1 0x64 DUP3 ADD MSTORE PUSH1 0x84 ADD PUSH2 0x5A8 JUMP JUMPDEST PUSH1 0x5 SLOAD PUSH1 0x9 SLOAD PUSH2 0x7EE SWAP1 DUP4 PUSH2 0x106D JUMP JUMPDEST GT ISZERO PUSH2 0x835 JUMPI PUSH1 0x40 MLOAD PUSH3 0x461BCD PUSH1 0xE5 SHL DUP2 MSTORE PUSH1 0x20 PUSH1 0x4 DUP3 ADD MSTORE PUSH1 0x16 PUSH1 0x24 DUP3 ADD MSTORE PUSH22 0x4578636565647320696E697469616C20737570706C79 PUSH1 0x50 SHL PUSH1 0x44 DUP3 ADD MSTORE PUSH1 0x64 ADD PUSH2 0x5A8 JUMP JUMPDEST PUSH1 0xC SLOAD PUSH1 0xD SLOAD PUSH1 0x40 MLOAD PUSH4 0x23B872DD PUSH1 0xE0 SHL DUP2 MSTORE PUSH1 0x1 PUSH1 0x1 PUSH1 0xA0 SHL SUB DUP6 DUP2 AND PUSH1 0x4 DUP4 ADD MSTORE SWAP2 DUP3 AND PUSH1 0x24 DUP3 ADD MSTORE PUSH1 0x44 DUP2 ADD DUP5 SWAP1 MSTORE PUSH1 0x0 SWAP3 SWAP2 SWAP1 SWAP2 AND SWAP1 PUSH4 0x23B872DD SWAP1 PUSH1 0x64 ADD PUSH1 0x20 PUSH1 0x40 MLOAD DUP1 DUP4 SUB DUP2 PUSH1 0x0 DUP8 GAS CALL ISZERO DUP1 ISZERO PUSH2 0x897 JUMPI RETURNDATASIZE PUSH1 0x0 DUP1 RETURNDATACOPY RETURNDATASIZE PUSH1 0x0 REVERT JUMPDEST POP POP POP POP PUSH1 0x40 MLOAD RETURNDATASIZE PUSH1 0x1F NOT PUSH1 0x1F DUP3 ADD AND DUP3 ADD DUP1 PUSH1 0x40 MSTORE POP DUP2 ADD SWAP1 PUSH2 0x8BB SWAP2 SWAP1 PUSH2 0x1080 JUMP JUMPDEST SWAP1 POP DUP1 PUSH2 0x902 JUMPI PUSH1 0x40 MLOAD PUSH3 0x461BCD PUSH1 0xE5 SHL DUP2 MSTORE PUSH1 0x20 PUSH1 0x4 DUP3 ADD MSTORE PUSH1 0x15 PUSH1 0x24 DUP3 ADD MSTORE PUSH21 0x151BDAD95B881D1C985B9CD9995C8819985A5B1959 PUSH1 0x5A SHL PUSH1 0x44 DUP3 ADD MSTORE PUSH1 0x64 ADD PUSH2 0x5A8 JUMP JUMPDEST DUP2 PUSH1 0x9 PUSH1 0x0 DUP3 DUP3 SLOAD PUSH2 0x914 SWAP2 SWAP1 PUSH2 0x106D JUMP JUMPDEST SWAP1 SWAP2 SSTORE POP POP PUSH1 0x1 PUSH1 0x1 PUSH1 0xA0 SHL SUB DUP4 AND PUSH1 0x0 SWAP1 DUP2 MSTORE PUSH1 0x7 PUSH1 0x20 MSTORE PUSH1 0x40 DUP2 KECCAK256 DUP1 SLOAD DUP5 SWAP3 SWAP1 PUSH2 0x941 SWAP1 DUP5 SWAP1 PUSH2 0x106D JUMP JUMPDEST SWAP1 SWAP2 SSTORE POP POP PUSH1 0x1 PUSH1 0x1 PUSH1 0xA0 SHL SUB DUP4 AND PUSH1 0x0 SWAP1 DUP2 MSTORE PUSH1 0xE PUSH1 0x20 MSTORE PUSH1 0x40 SWAP1 KECCAK256 SLOAD PUSH1 0xFF AND PUSH2 0x9CA JUMPI PUSH1 0xB DUP1 SLOAD PUSH1 0x1 DUP1 DUP3 ADD SWAP1 SWAP3 SSTORE PUSH32 0x175B7A638427703F0DBE7BB9BBF987A2551717B34E79F33B5B1008D1FA01DB9 ADD DUP1 SLOAD PUSH1 0x1 PUSH1 0x1 PUSH1 0xA0 SHL SUB NOT AND PUSH1 0x1 PUSH1 0x1 PUSH1 0xA0 SHL SUB DUP7 AND SWAP1 DUP2 OR SWAP1 SWAP2 SSTORE PUSH1 0x0 SWAP1 DUP2 MSTORE PUSH1 0xE PUSH1 0x20 MSTORE PUSH1 0x40 SWAP1 KECCAK256 DUP1 SLOAD PUSH1 0xFF NOT AND SWAP1 SWAP2 OR SWAP1 SSTORE JUMPDEST DUP3 PUSH1 0x1 PUSH1 0x1 PUSH1 0xA0 SHL SUB AND PUSH32 0xD37ABE1E85060E55CB236652DCF2008106E4892D0C749839671C26448A8EEB06 DUP4 PUSH1 0x40 MLOAD PUSH2 0xA05 SWAP2 DUP2 MSTORE PUSH1 0x20 ADD SWAP1 JUMP JUMPDEST PUSH1 0x40 MLOAD DUP1 SWAP2 SUB SWAP1 LOG2 POP POP POP JUMP JUMPDEST PUSH1 0x5 DUP1 SLOAD PUSH2 0xA21 SWAP1 PUSH1 0x4 PUSH2 0x1005 JUMP JUMPDEST PUSH2 0xA2B SWAP2 SWAP1 PUSH2 0x101C JUMP JUMPDEST PUSH1 0x9 SLOAD LT PUSH2 0xA6D JUMPI PUSH1 0x40 MLOAD PUSH3 0x461BCD PUSH1 0xE5 SHL DUP2 MSTORE PUSH1 0x20 PUSH1 0x4 DUP3 ADD MSTORE PUSH1 0xF PUSH1 0x24 DUP3 ADD MSTORE PUSH15 0x1C18129034B9903737BA1037BB32B9 PUSH1 0x89 SHL PUSH1 0x44 DUP3 ADD MSTORE PUSH1 0x64 ADD PUSH2 0x5A8 JUMP JUMPDEST PUSH1 0xA SLOAD TIMESTAMP GT PUSH2 0xAA9 JUMPI PUSH1 0x40 MLOAD PUSH3 0x461BCD PUSH1 0xE5 SHL DUP2 MSTORE PUSH1 0x20 PUSH1 0x4 DUP3 ADD MSTORE PUSH1 0x8 PUSH1 0x24 DUP3 ADD MSTORE PUSH8 0x2737BA1037BB32B9 PUSH1 0xC1 SHL PUSH1 0x44 DUP3 ADD MSTORE PUSH1 0x64 ADD PUSH2 0x5A8 JUMP JUMPDEST PUSH1 0x0 JUMPDEST PUSH1 0xB SLOAD DUP2 LT ISZERO PUSH2 0x6D5 JUMPI PUSH1 0x0 PUSH1 0xB DUP3 DUP2 SLOAD DUP2 LT PUSH2 0xACB JUMPI PUSH2 0xACB PUSH2 0x103E JUMP JUMPDEST PUSH1 0x0 SWAP2 DUP3 MSTORE PUSH1 0x20 DUP1 DUP4 KECCAK256 SWAP1 SWAP2 ADD SLOAD PUSH1 0x1 PUSH1 0x1 PUSH1 0xA0 SHL SUB AND DUP1 DUP4 MSTORE PUSH1 0x6 SWAP1 SWAP2 MSTORE PUSH1 0x40 SWAP1 SWAP2 KECCAK256 SLOAD SWAP1 SWAP2 POP DUP1 ISZERO PUSH2 0xB3F JUMPI PUSH1 0x1 PUSH1 0x1 PUSH1 0xA0 SHL SUB DUP3 AND PUSH1 0x0 DUP2 DUP2 MSTORE PUSH1 0x6 PUSH1 0x20 MSTORE PUSH1 0x40 DUP1 DUP3 KECCAK256 DUP3 SWAP1 SSTORE MLOAD DUP4 ISZERO PUSH2 0x8FC MUL SWAP2 DUP5 SWAP2 SWAP1 DUP2 DUP2 DUP2 DUP6 DUP9 DUP9 CALL SWAP4 POP POP POP POP ISZERO DUP1 ISZERO PUSH2 0xB3D JUMPI RETURNDATASIZE PUSH1 0x0 DUP1 RETURNDATACOPY RETURNDATASIZE PUSH1 0x0 REVERT JUMPDEST POP JUMPDEST POP POP DUP1 DUP1 PUSH2 0xB4C SWAP1 PUSH2 0x1054 JUMP JUMPDEST SWAP2 POP POP PUSH2 0xAAC JUMP JUMPDEST PUSH2 0x539 DUP4 DUP4 DUP4 PUSH1 0x1 PUSH2 0xC78 JUMP JUMPDEST PUSH1 0x1 PUSH1 0x1 PUSH1 0xA0 SHL SUB DUP4 DUP2 AND PUSH1 0x0 SWAP1 DUP2 MSTORE PUSH1 0x1 PUSH1 0x20 SWAP1 DUP2 MSTORE PUSH1 0x40 DUP1 DUP4 KECCAK256 SWAP4 DUP7 AND DUP4 MSTORE SWAP3 SWAP1 MSTORE KECCAK256 SLOAD PUSH1 0x0 NOT DUP2 EQ PUSH2 0xBD9 JUMPI DUP2 DUP2 LT ISZERO PUSH2 0xBCA JUMPI PUSH1 0x40 MLOAD PUSH4 0x7DC7A0D9 PUSH1 0xE1 SHL DUP2 MSTORE PUSH1 0x1 PUSH1 0x1 PUSH1 0xA0 SHL SUB DUP5 AND PUSH1 0x4 DUP3 ADD MSTORE PUSH1 0x24 DUP2 ADD DUP3 SWAP1 MSTORE PUSH1 0x44 DUP2 ADD DUP4 SWAP1 MSTORE PUSH1 0x64 ADD PUSH2 0x5A8 JUMP JUMPDEST PUSH2 0xBD9 DUP5 DUP5 DUP5 DUP5 SUB PUSH1 0x0 PUSH2 0xC78 JUMP JUMPDEST POP POP POP POP JUMP JUMPDEST PUSH1 0x1 PUSH1 0x1 PUSH1 0xA0 SHL SUB DUP4 AND PUSH2 0xC09 JUMPI PUSH1 0x40 MLOAD PUSH4 0x4B637E8F PUSH1 0xE1 SHL DUP2 MSTORE PUSH1 0x0 PUSH1 0x4 DUP3 ADD MSTORE PUSH1 0x24 ADD PUSH2 0x5A8 JUMP JUMPDEST PUSH1 0x1 PUSH1 0x1 PUSH1 0xA0 SHL SUB DUP3 AND PUSH2 0xC33 JUMPI PUSH1 0x40 MLOAD PUSH4 0xEC442F05 PUSH1 0xE0 SHL DUP2 MSTORE PUSH1 0x0 PUSH1 0x4 DUP3 ADD MSTORE PUSH1 0x24 ADD PUSH2 0x5A8 JUMP JUMPDEST PUSH2 0x539 DUP4 DUP4 DUP4 PUSH2 0xD4D JUMP JUMPDEST PUSH1 0x1 PUSH1 0x1 PUSH1 0xA0 SHL SUB DUP3 AND PUSH2 0xC68 JUMPI PUSH1 0x40 MLOAD PUSH4 0x4B637E8F PUSH1 0xE1 SHL DUP2 MSTORE PUSH1 0x0 PUSH1 0x4 DUP3 ADD MSTORE PUSH1 0x24 ADD PUSH2 0x5A8 JUMP JUMPDEST PUSH2 0xC74 DUP3 PUSH1 0x0 DUP4 PUSH2 0xD4D JUMP JUMPDEST POP POP JUMP JUMPDEST PUSH1 0x1 PUSH1 0x1 PUSH1 0xA0 SHL SUB DUP5 AND PUSH2 0xCA2 JUMPI PUSH1 0x40 MLOAD PUSH4 0xE602DF05 PUSH1 0xE0 SHL DUP2 MSTORE PUSH1 0x0 PUSH1 0x4 DUP3 ADD MSTORE PUSH1 0x24 ADD PUSH2 0x5A8 JUMP JUMPDEST PUSH1 0x1 PUSH1 0x1 PUSH1 0xA0 SHL SUB DUP4 AND PUSH2 0xCCC JUMPI PUSH1 0x40 MLOAD PUSH4 0x4A1406B1 PUSH1 0xE1 SHL DUP2 MSTORE PUSH1 0x0 PUSH1 0x4 DUP3 ADD MSTORE PUSH1 0x24 ADD PUSH2 0x5A8 JUMP JUMPDEST PUSH1 0x1 PUSH1 0x1 PUSH1 0xA0 SHL SUB DUP1 DUP6 AND PUSH1 0x0 SWAP1 DUP2 MSTORE PUSH1 0x1 PUSH1 0x20 SWAP1 DUP2 MSTORE PUSH1 0x40 DUP1 DUP4 KECCAK256 SWAP4 DUP8 AND DUP4 MSTORE SWAP3 SWAP1 MSTORE KECCAK256 DUP3 SWAP1 SSTORE DUP1 ISZERO PUSH2 0xBD9 JUMPI DUP3 PUSH1 0x1 PUSH1 0x1 PUSH1 0xA0 SHL SUB AND DUP5 PUSH1 0x1 PUSH1 0x1 PUSH1 0xA0 SHL SUB AND PUSH32 0x8C5BE1E5EBEC7D5BD14F71427D1E84F3DD0314C0F7B2291E5B200AC8C7C3B925 DUP5 PUSH1 0x40 MLOAD PUSH2 0xD3F SWAP2 DUP2 MSTORE PUSH1 0x20 ADD SWAP1 JUMP JUMPDEST PUSH1 0x40 MLOAD DUP1 SWAP2 SUB SWAP1 LOG3 POP POP POP POP JUMP JUMPDEST PUSH1 0x1 PUSH1 0x1 PUSH1 0xA0 SHL SUB DUP4 AND PUSH2 0xD78 JUMPI DUP1 PUSH1 0x2 PUSH1 0x0 DUP3 DUP3 SLOAD PUSH2 0xD6D SWAP2 SWAP1 PUSH2 0x106D JUMP JUMPDEST SWAP1 SWAP2 SSTORE POP PUSH2 0xDEA SWAP1 POP JUMP JUMPDEST PUSH1 0x1 PUSH1 0x1 PUSH1 0xA0 SHL SUB DUP4 AND PUSH1 0x0 SWAP1 DUP2 MSTORE PUSH1 0x20 DUP2 SWAP1 MSTORE PUSH1 0x40 SWAP1 KECCAK256 SLOAD DUP2 DUP2 LT ISZERO PUSH2 0xDCB JUMPI PUSH1 0x40 MLOAD PUSH4 0x391434E3 PUSH1 0xE2 SHL DUP2 MSTORE PUSH1 0x1 PUSH1 0x1 PUSH1 0xA0 SHL SUB DUP6 AND PUSH1 0x4 DUP3 ADD MSTORE PUSH1 0x24 DUP2 ADD DUP3 SWAP1 MSTORE PUSH1 0x44 DUP2 ADD DUP4 SWAP1 MSTORE PUSH1 0x64 ADD PUSH2 0x5A8 JUMP JUMPDEST PUSH1 0x1 PUSH1 0x1 PUSH1 0xA0 SHL SUB DUP5 AND PUSH1 0x0 SWAP1 DUP2 MSTORE PUSH1 0x20 DUP2 SWAP1 MSTORE PUSH1 0x40 SWAP1 KECCAK256 SWAP1 DUP3 SWAP1 SUB SWAP1 SSTORE JUMPDEST PUSH1 0x1 PUSH1 0x1 PUSH1 0xA0 SHL SUB DUP3 AND PUSH2 0xE06 JUMPI PUSH1 0x2 DUP1 SLOAD DUP3 SWAP1 SUB SWAP1 SSTORE PUSH2 0xE25 JUMP JUMPDEST PUSH1 0x1 PUSH1 0x1 PUSH1 0xA0 SHL SUB DUP3 AND PUSH1 0x0 SWAP1 DUP2 MSTORE PUSH1 0x20 DUP2 SWAP1 MSTORE PUSH1 0x40 SWAP1 KECCAK256 DUP1 SLOAD DUP3 ADD SWAP1 SSTORE JUMPDEST DUP2 PUSH1 0x1 PUSH1 0x1 PUSH1 0xA0 SHL SUB AND DUP4 PUSH1 0x1 PUSH1 0x1 PUSH1 0xA0 SHL SUB AND PUSH32 0xDDF252AD1BE2C89B69C2B068FC378DAA952BA7F163C4A11628F55A4DF523B3EF DUP4 PUSH1 0x40 MLOAD PUSH2 0xE6A SWAP2 DUP2 MSTORE PUSH1 0x20 ADD SWAP1 JUMP JUMPDEST PUSH1 0x40 MLOAD DUP1 SWAP2 SUB SWAP1 LOG3 POP POP POP JUMP JUMPDEST PUSH1 0x0 PUSH1 0x20 DUP1 DUP4 MSTORE DUP4 MLOAD DUP1 DUP3 DUP6 ADD MSTORE PUSH1 0x0 JUMPDEST DUP2 DUP2 LT ISZERO PUSH2 0xEA4 JUMPI DUP6 DUP2 ADD DUP4 ADD MLOAD DUP6 DUP3 ADD PUSH1 0x40 ADD MSTORE DUP3 ADD PUSH2 0xE88 JUMP JUMPDEST POP PUSH1 0x0 PUSH1 0x40 DUP3 DUP7 ADD ADD MSTORE PUSH1 0x40 PUSH1 0x1F NOT PUSH1 0x1F DUP4 ADD AND DUP6 ADD ADD SWAP3 POP POP POP SWAP3 SWAP2 POP POP JUMP JUMPDEST DUP1 CALLDATALOAD PUSH1 0x1 PUSH1 0x1 PUSH1 0xA0 SHL SUB DUP2 AND DUP2 EQ PUSH2 0xEDC JUMPI PUSH1 0x0 DUP1 REVERT JUMPDEST SWAP2 SWAP1 POP JUMP JUMPDEST PUSH1 0x0 DUP1 PUSH1 0x40 DUP4 DUP6 SUB SLT ISZERO PUSH2 0xEF4 JUMPI PUSH1 0x0 DUP1 REVERT JUMPDEST PUSH2 0xEFD DUP4 PUSH2 0xEC5 JUMP JUMPDEST SWAP5 PUSH1 0x20 SWAP4 SWAP1 SWAP4 ADD CALLDATALOAD SWAP4 POP POP POP JUMP JUMPDEST PUSH1 0x0 DUP1 PUSH1 0x0 PUSH1 0x60 DUP5 DUP7 SUB SLT ISZERO PUSH2 0xF20 JUMPI PUSH1 0x0 DUP1 REVERT JUMPDEST PUSH2 0xF29 DUP5 PUSH2 0xEC5 JUMP JUMPDEST SWAP3 POP PUSH2 0xF37 PUSH1 0x20 DUP6 ADD PUSH2 0xEC5 JUMP JUMPDEST SWAP2 POP PUSH1 0x40 DUP5 ADD CALLDATALOAD SWAP1 POP SWAP3 POP SWAP3 POP SWAP3 JUMP JUMPDEST PUSH1 0x0 PUSH1 0x20 DUP3 DUP5 SUB SLT ISZERO PUSH2 0xF59 JUMPI PUSH1 0x0 DUP1 REVERT JUMPDEST PUSH2 0xF62 DUP3 PUSH2 0xEC5 JUMP JUMPDEST SWAP4 SWAP3 POP POP POP JUMP JUMPDEST PUSH1 0x0 PUSH1 0x20 DUP3 DUP5 SUB SLT ISZERO PUSH2 0xF7B JUMPI PUSH1 0x0 DUP1 REVERT JUMPDEST POP CALLDATALOAD SWAP2 SWAP1 POP JUMP JUMPDEST PUSH1 0x0 DUP1 PUSH1 0x40 DUP4 DUP6 SUB SLT ISZERO PUSH2 0xF95 JUMPI PUSH1 0x0 DUP1 REVERT JUMPDEST PUSH2 0xF9E DUP4 PUSH2 0xEC5 JUMP JUMPDEST SWAP2 POP PUSH2 0xFAC PUSH1 0x20 DUP5 ADD PUSH2 0xEC5 JUMP JUMPDEST SWAP1 POP SWAP3 POP SWAP3 SWAP1 POP JUMP JUMPDEST PUSH1 0x1 DUP2 DUP2 SHR SWAP1 DUP3 AND DUP1 PUSH2 0xFC9 JUMPI PUSH1 0x7F DUP3 AND SWAP2 POP JUMPDEST PUSH1 0x20 DUP3 LT DUP2 SUB PUSH2 0xFE9 JUMPI PUSH4 0x4E487B71 PUSH1 0xE0 SHL PUSH1 0x0 MSTORE PUSH1 0x22 PUSH1 0x4 MSTORE PUSH1 0x24 PUSH1 0x0 REVERT JUMPDEST POP SWAP2 SWAP1 POP JUMP JUMPDEST PUSH4 0x4E487B71 PUSH1 0xE0 SHL PUSH1 0x0 MSTORE PUSH1 0x11 PUSH1 0x4 MSTORE PUSH1 0x24 PUSH1 0x0 REVERT JUMPDEST DUP1 DUP3 MUL DUP2 ISZERO DUP3 DUP3 DIV DUP5 EQ OR PUSH2 0x51D JUMPI PUSH2 0x51D PUSH2 0xFEF JUMP JUMPDEST PUSH1 0x0 DUP3 PUSH2 0x1039 JUMPI PUSH4 0x4E487B71 PUSH1 0xE0 SHL PUSH1 0x0 MSTORE PUSH1 0x12 PUSH1 0x4 MSTORE PUSH1 0x24 PUSH1 0x0 REVERT JUMPDEST POP DIV SWAP1 JUMP JUMPDEST PUSH4 0x4E487B71 PUSH1 0xE0 SHL PUSH1 0x0 MSTORE PUSH1 0x32 PUSH1 0x4 MSTORE PUSH1 0x24 PUSH1 0x0 REVERT JUMPDEST PUSH1 0x0 PUSH1 0x1 DUP3 ADD PUSH2 0x1066 JUMPI PUSH2 0x1066 PUSH2 0xFEF JUMP JUMPDEST POP PUSH1 0x1 ADD SWAP1 JUMP JUMPDEST DUP1 DUP3 ADD DUP1 DUP3 GT ISZERO PUSH2 0x51D JUMPI PUSH2 0x51D PUSH2 0xFEF JUMP JUMPDEST PUSH1 0x0 PUSH1 0x20 DUP3 DUP5 SUB SLT ISZERO PUSH2 0x1092 JUMPI PUSH1 0x0 DUP1 REVERT JUMPDEST DUP2 MLOAD DUP1 ISZERO ISZERO DUP2 EQ PUSH2 0xF62 JUMPI PUSH1 0x0 DUP1 REVERT INVALID LOG2 PUSH5 0x6970667358 0x22 SLT KECCAK256 BLOCKHASH 0xE4 0x25 0xDB SLOAD PUSH31 0x2F98DEAD79AD09838CED80D206D95B1655821755FCBECEE0D2AF64736F6C63 NUMBER STOP ADDMOD EQ STOP CALLER "},"methodIdentifiers":{"allowance(address,address)":"dd62ed3e","approve(address,uint256)":"095ea7b3","balanceOf(address)":"70a08231","burnTokens(uint256)":"6d1b229d","decimals()":"313ce567","distributeFund()":"244e5751","finishTime()":"5958611e","fundToken(address,uint256)":"d411b8b5","fundingToken()":"78065f27","initialSupply()":"378dc3dc","listOfContributors(uint256)":"7ea12e79","mainWalletaddress()":"a1fa3bad","name()":"06fdde03","newCoins(address)":"69cbbefe","owner()":"8da5cb5b","raisedAmount()":"c59ee1dc","refundDistribute()":"e3a6ac01","refunds(address)":"bc3da535","symbol()":"95d89b41","totalSupply()":"18160ddd","transfer(address,uint256)":"a9059cbb","transferFrom(address,address,uint256)":"23b872dd","transferToken(address,uint256)":"1072cbea"}}}}}